:100000000C9441090C945E090C9484180C942619E4
:100010000C945E090C945E090C945E090C945E09C4
:100020000C94D73E0C945E090C94B81D0C94891D59
:100030000C945E090C945E090C9418230C94681AB5
:100040000C945E090C945E090C945E090C945E0994
:100050000C9473190C945E090C945E090C945E095F
:100060000C945E090C945E090C945E090C945E0974
:100070000C945E090C945E090C945E090C945E0964
:100080000C945E090C945E090C945E090C945E0954
:100090000C945E090C945E090C945E090C945E0944
:1000A0000C945E090C945E090C945E090C945E0934
:1000B0000C945E090C945E090C945E090C94022168
:1000C0000C945E090C945E090C945E090C945E0914
:1000D0000C945E090C945E090C945E090C945E0904
:1000E0000C945E090C945E090C947C120C945E09CD
:1000F0000C945E090C945E090C945E090C945E09E4
:100100000C945E090C945E090C94051A0C945E091B
:100110000C945E090C945E090C945E090C945E09C3
:100120000C945E090C945E090C945E090C945E09B3
:100130000C945E090C945E090C94DC1D0C945E0911
:100140000C945E090C945E090C945E090C945E0993
:100150000C945E090C945E090C945E090C945E0983
:100160000C945E090C945E090C945E090C945E0973
:100170000C945E090C945E090C945E090C945E0963
:100180000C945E090C945E090C945E090C945E0953
:100190000C945E090C945E090C945E090C945E0943
:1001A0000C945E090C945E090C945E090C945E0933
:1001B0000C945E090C945E090C945E090C945E0923
:1001C0000C945E090C945E090C945E090C945E0913
:1001D0000C945E090C945E090C945E090C945E0903
:1001E0000C945E090C945E090C945E090C945E09F3
:1001F0000C945E090C94D43C0C94013D5513F413FB
:10020000F413F413F413F413F413F413F413F413B6
:10021000F413F413F413F413F413F413F413F413A6
:10022000F413F413F413F413F413F413F413F41396
:10023000F413F413F413F413AF12BC12C612D81251
:10024000DB12E412E712EA12ED12F112F413F413C6
:10025000F413F413F413FC12FE1200130B13161311
:100260002113F41337134313832B372C472C552CAE
:10027000632C152C262C372C472C552C632C732CD7
:10028000D62C2A2D652DA02DAF2DBA2DD72DF72DCB
:10029000132E2D2E462E532E642E742E842E982E21
:1002A000A52EB22EEC2EFD2E0A2F172F262F332F20
:1002B000452F602F6D2F892FD22FEA2FFF2F13305C
:1002C0002D3047306130723087309C30A730B930E4
:1002D000CB30EC300D311A3135315231743185313A
:1002E000C031DF31FE3116322E324B326032723283
:1002F00086329A32AE32C732E032F7320E333433BE
:1003000049336D33E333E933EF33F53303341334D7
:1003100021342F3441345034603473347F348B347F
:10032000C535C5359734A834C535C535B434C5355C
:10033000C634D434C535E234F034FE340E351C35C1
:100340002A353D3550356335C535C5356F35813571
:100350008F359535A735C535B9352936BC37BC3706
:10036000BC373F364A367C36B236FF3641375637D1
:100370006237693770377537793782379437A337E3
:100380002E3DFA3DFE3DFA3DFE3D353D4D3DFE3DE7
:10039000673D6E3D993D9F3DA63DB73DBB3DC53D8B
:1003A000C83DCB3DCE3DD23DDE3DFA3DFA3DFA3D66
:1003B000FA3DFA3DFA3DFA3DFA3DFA3DE43D8B95B2
:1003C0009FA9B2BBC3CBD3DAE1E8EEF4FA00050B88
:1003D0001014191D2125292D3134373A3D4043454C
:1003E000484A4C4F51535557585A5C5D5F606163A2
:1003F0006465666768696A6B6C6D6E6F6F7071714A
:100400007273737474757576767677777878787991
:1004100079797A7A7A7A7B7B7B7B7B7C7C7C7C7C2F
:100420007C7D7D7D7D7D7D7D7E7E7E7E7E7E7E7EF5
:100430007E7E7E7E7F7F7F7F7F7F7F7F7F7F0000CE
:1004400000000000000000000000010101010102A5
:10045000020203030304040405050606070708094E
:10046000090A0B0C0C0D0E0F101112131415161790
:1004700018191A1C1D1E202122242527282A2B2D5D
:100480002F3032343537393B3C3E404243454749B3
:100490004B4D4E5052545657595B5C5E60616365DC
:1004A0006668696B6C6E6F70717374757677787946
:1004B0007A7B7B7C7D7D7E7E7F7F7F7F7F7F000060
:1004C0000000000000000101010202030304040512
:1004D00006060708090A0A0B0C0D0E0F101112145C
:1004E000151617181A1B1C1D1F2022232426272926
:1004F0002A2C2D2F3032333536383A3B3D3E4041A1
:1005000043454648494B4C4E4F5153545657585A01
:100510005B5D5E5F616264656667696A6B6C6D6E88
:100520006F70717273747576777878797A7A7B7B6D
:100530007C7C7D7D7E7E7E7F7F7F7F7F7F7F0909C4
:1005400009090A0A0A0A0A0B0B0B0C0C0D0D0E0EF8
:100550000F1010111213131415161718191A1B1C4B
:100560001D1E1F20212324252627292A2B2D2E2F2F
:10057000313234353638393B3C3E3F4042434546C4
:1005800048494B4C4D4F505253555657595A5B5D45
:100590005E5F61626364666768696A6B6C6E6F70E8
:1005A0007172727374757677777879797A7B7B7CE0
:1005B0007C7D7D7E7E7E7E7F7F7F7F7F7F7F7EFFD7
:1005C000819191F1600060F49494FCF800FFFF8445
:1005D00084FC780078FC8484FC7800047FFF8484A9
:1005E00000FCFC080C0C0078FC8484FC7800F8FC0F
:1005F0000404FCF800FDFD0078FC8484840098BCB1
:10060000B4F4640808784040780808404078080846
:100610007840407E42424242427E1806067F7F7FFB
:100620007F3F7F3FFFFF7F0AFCFFFFFFFFFF40028E
:10063000FFFF7FFF05FFFFFFFFBE000101402060BD
:10064000602060200080000080A06018A0E0000012
:1006500001FF1080018000E0AB000006010108FFEF
:100660008000C129001C4046323A200046313A2021
:1006700000531C1D1E00561C1D1E00205600201A73
:100680001B56004B485A001F563D002031161F5480
:100690003D00010000000A00000064000000E803C3
:1006A000000010270000A086010040420F00809645
:1006B0009800465720322E323700000000FE01001D
:1006C00001FF01FE01FD02FE000201000101010225
:1006D00001030202FF000000FE010001FF01FE0114
:1006E000FD02FEFF00000002010001010102010302
:1006F0000202FFF8FEFF07030307FFFEF80F3F7F2C
:10070000706060707F3F0F0010181CFEFFFF00003C
:1007100000000000007F7F7F0000000C0E0F070329
:1007200083C7FFFE7C70787C7E6F67636160600CBE
:100730000E0FC7C3E7FFFEBC001838787060607109
:100740007F3F1F0080C0F0781EFFFFFF000E0F0FDD
:100750000D0C0C7F7F7F0CF0FFFF7F6363E3E3C32F
:10076000830C3C7C706060707F3F1FF8FEFFC7C346
:10077000C3C7CF8E0C0F3F7F716060717F3F1F0337
:10078000030383E3FB7F1F070300007C7F7F0300DD
:100790000000001C3EFFE7C3C3E7FF3E1C1E3F7F77
:1007A000736161737F3F1E7CFEFFC78383C7FFFEBB
:1007B000F8183879716161717F3F0F300C02382071
:1007C00038283C08050F04000038180838300C029F
:1007D000283E00182018382638000000002E000699
:1007E00000063E143E143F0A120824142A34000660
:1007F000001C2200221C001C1C1C081C084020009D
:100800000808080020001008041C221C243E203286
:100810002A24222A140E083E2E2A123E2A3A023A8E
:10082000063E2A3E2E2A3E00140020140008142200
:10083000141414221408022A041C262E3C0A3C3EDE
:100840002A141C22223E221C3E2A223E0A021C227C
:100850001A3E083E223E2210201E3E08363E202030
:100860003E043E3E023E3E223E3E0A041C223C3EE8
:100870000A34242A12023E023E203E1E201E3E1052
:100880003E3608360E300E322A26003E220408106C
:10089000223E00040204404040020400342C383E52
:1008A000241818242418243E18342C083C0A5854C0
:1008B0003C3E0438003A00403A003E1824001E2016
:1008C0003C0C3C3C04381824187C241818247C3830
:1008D0000404283C14043E243C203C1C201C3C30D6
:1008E0003C2418240C503C343C2C083622003600A2
:1008F0002236080406023E3E3E424D3E0400000001
:100900000000003E000000280000008000000040C1
:1009100000000001000100000000000004000000D1
:1009200000000000000000000000000000000000C7
:10093000000000FFFFFF0053504920534E49464638
:1009400045520A424954343A2F53530A42495435C6
:100950003A4D4F53490A424954363A4D49534F0A8A
:10096000424954373A53434B005541525420534E59
:1009700049464645520A424954323A525820424961
:1009800054333A54580049324320534E4946464561
:10099000520A424954303A53444120424954313A70
:1009A00053434C0029681434091A040D820640038D
:1009B0002A021501FDEDDCCCBCACA8A40301FDF5B9
:1009C000E5C56E17474F00444953434F4E4E4543CC
:1009D00054204348312C434832004F464653455437
:1009E00020202020202020534C4545503A20202014
:1009F000202020524553544F5245004E4F2058540A
:100A000000582000485A204D41580053544F500080
:100A100053544F50004B485A00485A003120535409
:100A20004F5042495400322053544F5042495400D1
:100A30004E4F20504152495459004556454E205082
:100A40004152495459004F4444205041524954594D
:100A5000004D4F56452D20202020202020204D4F96
:100A600056452B00534156494E472E2E2E005859BD
:100A7000204D4F4445005D2B5E2B612B602B4F2B8F
:100A8000572B582B011020304000E0C0A080C0E060
:100A9000002040014080C0FF004080C0FFFCE0C05B
:100AA000A082FCE0C0A082313230302020003234FD
:100AB00030302020003438303020200039363030BB
:100AC00020200031393230302000333834303020AB
:100AD00000353736303020003131353230300020AB
:100AE00020314D003530304B003235304B00313243
:100AF000354B002036324B002033314B002031364D
:100B00004B002020384B002020344B00312E364B38
:100B100000203830300020383030002033323000B0
:100B200020313630002020383000202033320020A1
:100B300020313600202020380020332E3200203192
:100B40002E360020302E3800302E33320020203850
:100B500017002031361700203332170020363417A3
:100B60000031323817003235361700353030170073
:100B700020311A1B0020321A1B0020351A1B0031AD
:100B8000301A1B0032301A1B0035301A1B0020307F
:100B90002E310020302E320020302E350020202033
:100BA000310020202032002020203500202031304C
:100BB0000020203230002020353000352E31320028
:100BC000322E353600312E323800302E3634003099
:100BD0002E333200302E31360038301A1B000F0C05
:100BE0000D0E00101B121000111500002210111321
:100BF00011002A140016110019001D1E00202100EA
:100C00000024000009040000001604191408080854
:100C100016160F162A2A2A190C0D060606060606AF
:100C200000000102030405060708090A0A0B0C0D5F
:100C30000E0F10112122231F201213141516171541
:100C4000161819251A1B1C1D1D1E24204348204F51
:100C50004E202020002020202020204741494E2DDA
:100C600020202020002020204741494E2B004C4FBF
:100C7000474943204F4E2000202020202053454C40
:100C8000454354202020002050524F544F434F4C96
:100C900000204E4F524D414C20202000202020208B
:100CA00053494E474C45202020002043495243558C
:100CB0004C415200204E4F524D414C2020200020EC
:100CC00020202053494E474C452020200020202042
:100CD000204155544F20002056435552534F522027
:100CE0000020202048435552204348312020002036
:100CF000204843555220434832002048414D4D4939
:100D00004E47202020002020202048414E4E202009
:100D100020002020424C41434B4D414E00202043B7
:100D2000483120202020002020202020202043485F
:100D30003220202020200020204C4F474943200013
:100D40002047524944202020002020464C49502072
:100D5000444953504C415920002020494E56455299
:100D60005420002020564443202020202020002012
:100D700020205620502D502020002046524551550D
:100D8000454E43592000202053494E452020202025
:100D90000020202020535155415245202000202082
:100DA000545249414E474C4500504F534954494FC6
:100DB0004E20202000202020494E5645525420200D
:100DC0002000202020204D4154482000504F5349FE
:100DD00054494F4E20202000202020494E56455295
:100DE00054202000202020544849434B302000202C
:100DF0004348312000202020202020202020204394
:100E00004832200020202020202020204C4F47491D
:100E10004300545249475459504520200020202077
:100E20005452494753524320202000204D4F5245F1
:100E300054524947002053434F5045202020200062
:100E4000202020204D4554455220202000202020E5
:100E50002020204646542000204951204646542058
:100E600020200020204646542057494E444F57200A
:100E70002000202020204C4F472000435552534F44
:100E8000525320002020202020444953504C4159E7
:100E900020200020202020202020415747005741BB
:100EA00056452054595045202000202020535745B6
:100EB000455020202000204652455155454E43596B
:100EC000002057494E444F5720202000202020204A
:100ED00045444745202020200020202020534C4F0F
:100EE0005045200020204155544F20202020200034
:100EF000202020545241434B2020200020524546C0
:100F00004552454E4345002020414C4C2020202096
:100F10002000202020204249545F30202020200043
:100F2000202020204249545F3100204249545F3242
:100F30002020202000202020204249545F33202000
:100F4000202000202020204249545F3400204249C4
:100F5000545F352020202000202020204249545F6B
:100F6000362020202000202020204249545F3700D6
:100F70002045585420545249472000202020204228
:100F800049545F3020202020002020202042495456
:100F90005F310020504152414C4C454C20200020F4
:100FA000202053455249414C202000202020202061
:100FB0002050554C4C002049324320202020202036
:100FC00000202020202055415254202020200020A5
:100FD000202020205350492000204E4F2050554CB7
:100FE0004C20200020202050554C4C2055502020D3
:100FF000002050554C4C20444F574E002050455235
:1010000053495354454E5420200020204C494E450E
:1010100020202000202020202053484F572000204F
:1010200043504F4C202020202000202020204350DF
:101030004841202020200020494E5645525420533C
:101040005300205355425452414354200020204D18
:10105000554C5449504C59202000202041564552AF
:101060004147452000414D504C49545544452000CE
:10107000202044555459204359434C4520002020FA
:10108000204F46465345540020524F4C4C202020C0
:10109000202000202020454C41535449432020006B
:1010A00020205859204D4F44452000545249474D67
:1010B0004F44452020002020504F5354545249475C
:1010C000200020202054524947484F4C44002045DE
:1010D000585020202020202000202020204E4F4942
:1010E000534520202000202020435553544F4D20AD
:1010F000002053504545442020202000202020205F
:101100004D4F444520202020002020202052414ED9
:1011100047452000535720465245512020202000AB
:101120002020535720414D5020202000202053578D
:10113000204455545920002020444F574E20202051
:101140002000202050494E47504F4E47202020007D
:101150002020414343454C00000020495244412097
:1011600020202020002020203120574952452020D7
:10117000202000202020204D4944492000C8009014
:101180000120034006800C0019D430190032007D84
:1011900000FA00F401E204C4098813D430190032C3
:1011A000007D00FA00F401E20400C2EB0B00E1F55F
:1011B0000580F0FA0240787D0120BCBE00105E5F21
:1011C0000000D4300000105E5F0008AF2F00D01286
:1011D0001300688909006889090090D0030048E875
:1011E000010024F40000A8610000D43000006A1857
:1011F0000000C4090000E204000071020000FA00CF
:10120000000100020004000800140028005000C87B
:101210000090012003D007F900F301E703C3098719
:10122000130E035800530063006F00700065000048
:101230000018034700610062006F00740072006FC5
:10124000006E0069006300730000000403090409D4
:1012500002200001010080FA0904000002FF0000E2
:10126000000705810240000007050102400000124E
:10127000011001FF000040D016F906000101020034
:10128000010011241FBECFEFCDBFDFE2DEBF10E2B1
:10129000A0E0B0E2EEEAFFE702C005900D92AE30AA
:1012A000B107D9F72EE2A0E1B0E201C01D92A93F3B
:1012B000B207E1F70E94041C0C94D53F0C94000087
:1012C0008058860F1BF48FE767FD80E880580895EB
:1012D000EDE6F9E0E80FF11D099408C010C018C050
:1012E00020C028C030C038C040C048C058990895B8
:1012F000D099FCCF58990895D09BFCCFC7C058997E
:101300000895D199FCCF58990895D19BFCCFBEC0C8
:1013100058990895D299FCCF58990895D29BFCCF43
:10132000B5C058990895D399FCCF58990895D39B87
:10133000FCCFACC058990895D499FCCF5899089522
:10134000D49BFCCFA3C058990895D599FCCF589948
:101350000895D59BFCCF9AC058990895D699FCCF93
:1013600058990895D69BFCCF91C058990895D79964
:10137000FCCF58990895D79BFCCF88C05899089501
:10138000F599FCCF58990895F59BFCCF7FC0ECEC04
:10139000F9E0E80FF11D099408C010C018C020C082
:1013A00028C030C038C040C048C058990895D09B6C
:1013B000FCCF58990895D099FCCF68C058990895EA
:1013C000D19BFCCF58990895D199FCCF5FC0589913
:1013D0000895D29BFCCF58990895D299FCCF56C05E
:1013E00058990895D39BFCCF58990895D399FCCF71
:1013F0004DC058990895D49BFCCF58990895D4991D
:10140000FCCF44C058990895D59BFCCF58990895B6
:10141000D599FCCF3BC058990895D69BFCCF5899DD
:101420000895D699FCCF32C058990895D79BFCCF28
:1014300058990895D799FCCF29C058990895F59BDC
:10144000FCCF58990895F599FCCF20C0835800909F
:10145000240280151CF4589BFACF08958A5F0090EF
:10146000240280159CF0589BFACF08958D57009068
:10147000240280151CF0589BFACF089586500090E6
:10148000240280151CF4589BFACF089589E08093BC
:1014900040085D9A80B18B3058F484E100904C088C
:1014A00000FEFCCF1092000A8093010258995D98CB
:1014B0000895835800902C0280151CF4589BFACF95
:1014C00008958A5F00902C02801504F3589BFACF90
:1014D00008958D5700902C0280151CF0589BFACF70
:1014E0000895865000902C02801584F6589BFACF00
:1014F00008957F9300902402709124020716072E0E
:1015000024F0589BF9CF7F91089570912402071A17
:101510008015072ED4F4589BF8CF7F9108957F93C0
:1015200000902402709124027015072E24F0589B1D
:10153000F9CF7F91089570912402071A0816072E9B
:1015400024F4589BF8CF7F9108957F919FCF7F938C
:1015500000902C0270912C020716072E24F0589B45
:10156000F9CF7F91089570912C02071A8015072EEC
:1015700064F7589BF8CF7F9108957F9300902C02D9
:1015800070912C027015072E24F0589BF9CF7F9193
:10159000089570912C02071A0816072EB4F6589B6E
:1015A000F8CF7F91089580586058009024028015EC
:1015B0006CF206165CF2589BF8CF0895805860587C
:1015C00000902C02801514F2061604F2589BF8CFF6
:1015D0000895FF7F0000F57F2403D87F4806A67F8B
:1015E0006A09617F8C0C097FAB0F9C7EC8121D7E3F
:1015F000E215897DF918E37C0B1C297C1A1F5C7BA2
:1016000023227C7A28258979262884781F2B6B77DA
:10161000112E4176FB300475DF33B573BA36547240
:101620008C39E270563C5E6F173FC96DCE41236C1A
:101630007A446D6A1C47A668B449CF663F4CE8649B
:10164000BF4EF1623351EB609B53D75EF555B35CEF
:101650004258825A825A4258B35CF555D75E9B5322
:10166000EB603351F162BF4EE8643F4CCF66B44942
:10167000A6681C476D6A7A44236CCE41C96D173F3A
:101680005E6F563CE2708C395472BA36B573DF33F4
:101690000475FB304176112E6B771F2B847826283A
:1016A000897928257C7A23225C7B1A1F297C0B1CD4
:1016B000E37CF918897DE2151D7EC8129C7EAB0F74
:1016C000097F8C0C617F6A09A67F4806D87F2403B6
:1016D000F57F0000FF7FDCFCF57FB8F9D87F96F638
:1016E000A67F74F3617F55F0097F38ED9C7E1EEA7A
:1016F0001D7E07E7897DF5E3E37CE6E0297CDDDDFF
:101700005C7BD8DA7C7ADAD78979E1D48478EFD136
:101710006B7705CF417621CC047546C9B57374C685
:101720005472AAC3E270E9C05E6F32BEC96D86BB57
:10173000236CE4B86D6A4CB6A668C1B3CF6641B1FC
:10174000E864CDAEF16265ACEB600BAAD75EBEA7D4
:10175000B35C7EA5825A4DA3425829A1F555159F29
:101760009B530F9D3351189BBF4E31993F4C5A9755
:10177000B44993951C47DD937A443792CE41A290A9
:10178000173F1E8F563CAC8D8C394B8CBA36FC8A79
:10179000DF33BF89FB309588112E7C871F2B77861E
:1017A000262884852825A4842322D7831A1F1D83F5
:1017B0000B1C7782F918E381E2156481C812F78067
:1017C000AB0F9F808C0C5A806A09288048060B80DA
:1017D0002403008040C020A060E0109050D030B0C2
:1017E00070F0088848C828A868E8189858D838B809
:1017F00078F8048444C424A464E4149454D434B421
:1018000074F40C8C4CCC2CAC6CEC1C9C5CDC3CBCA8
:101810007CFC028242C222A262E2129252D232B214
:1018200072F20A8A4ACA2AAA6AEA1A9A5ADA3ABAA8
:101830007AFA068646C626A666E6169656D636B6C0
:1018400076F60E8E4ECE2EAE6EEE1E9E5EDE3EBE48
:101850007EFE018141C121A161E1119151D131B1DE
:1018600071F1098949C929A969E9199959D939B978
:1018700079F9058545C525A565E5159555D535B590
:1018800075F50D8D4DCD2DAD6DED1D9D5DDD3DBD18
:101890007DFD038343C323A363E3139353D333B384
:1018A00073F30B8B4BCB2BAB6BEB1B9B5BDB3BBB18
:1018B0007BFB078747C727A767E7179757D737B730
:1018C00077F70F8F4FCF2FAF6FEF1F9F5FDF3FBFB8
:1018D0007FFF77278894881F771F881F771F672FC0
:1018E00071FD6250E5EDF5E1E80FF61F849171FDA1
:1018F000819508953F922F925F924F927F926F92BF
:101900009F928F92BF92AF92DF92CF92FF92EF920F
:101910001F930F93DF93CF93FC0181E090E0A0E849
:10192000B0E004E0809F6001909FD00C7C019F9309
:101930008F93EF01A09FC00DD11DB09FD00DFF93DD
:10194000EF93BB24AA24992700811181159507954F
:101950006881798175956795A801061B170B460F5D
:10196000571F4193519320813181359527956A8185
:101970007B8175956795A901261B370B460F571F6D
:10198000419351930F01E2EDF5E1EA0DFB1D459105
:10199000559165917591F001950320010C0310019B
:1019A000491E9C03590A300C411C591ED803590A80
:1019B000300C411C591EB70340012E033001891E13
:1019C000BE03990A700C811C991EFA03990A700CC7
:1019D000811C991E260C371C481C591C499259928F
:1019E000B50320012C031001491EBC03590A300C19
:1019F000411C591EDA03590A300C411C591E970329
:101A000040010E033001891E9E03990A700C811C4F
:101A1000991EF803990A700C811C991E2618370824
:101A20004808590849925992AC0CBD1CB1FE8CCFA4
:101A300004E0A09FC00DD11DE00DF11DB09FD00DA1
:101A4000F00D81E0E81AF90A09F07BCFEF91FF91E0
:101A50008F919F91880F991FB695A795109609F0C1
:101A600060CFCF91DF910F911F91EF90FF90CF90BA
:101A7000DF90AF90BF908F909F906F907F904F902E
:101A80005F902F903F900895000203040506070819
:101A9000090A0B0C0D0E0E0F3F922F925F924F9280
:101AA0007F926F929F928F92BF92AF921F93DF931C
:101AB000CF935C01EB0160E470E0E2EDF7E1992780
:101AC00010E844991127A591BB27AA0FBB1FAA0FA5
:101AD000BB1FAA0DBB1D2D913D914D915D91B3038F
:101AE00020012A031001491EBA03590A300C411C77
:101AF000591EBA03590A300C411C591ED503400126
:101B00004C033001891EDC03990A700C811C991E5C
:101B1000DC03990A700C811C991E260C371C481C8A
:101B2000591C662477248824992421E030E0442736
:101B3000552770E1220C331C441C551C661C771C75
:101B4000881C991C220C331C441C551C661C771CD9
:101B5000881C991C2AF4620E731E841E951E04C0F4
:101B6000621A730A840A950A220F331F441F287FC2
:101B7000256097FC22507A95E9F64695379527958A
:101B80004695379527951124439B1FC0621773070D
:101B900010F020E020C0261B370BFF93EF93E8E8FE
:101BA000FAE140EF37FD04C0221F331F4051FACF46
:101BB000330F3695369536953695E30FF11D5491D2
:101BC000450F342FEF91FF9106C0220F331F220FD4
:101BD000331F08F43FEF39931A9509F074CFCF9172
:101BE000DF911F91AF90BF908F909F906F907F90EB
:101BF0004F905F902F903F9008958091622B90912D
:101C0000632BA091642BB091652B26E034E0239FD9
:101C1000F0011124EE56F94F45915591659174915B
:101C200084179507A607B70710F4215078F734E01A
:101C3000239FF0011124E657F94F45915591659185
:101C40007491619B05C0841B950BA60BB70B14C048
:101C5000629B05C0840F951FA61FB71F0DC02230C1
:101C600009F427E084E0289FF0011124E257F94F9E
:101C700085919591A591B4918093622B9093632B5C
:101C8000A093642BB093652B08950F931F93CF936C
:101C9000DF9380915E2B181614F410925E2B8091C6
:101CA000602B811103C081E08093602B8091622BB7
:101CB0009091632BA091642BB091652B8436910594
:101CC000A105B10528F484E690E0A0E0B0E009C0E9
:101CD00081329C4BAE4BB10560F080E29CEBAEEBE9
:101CE000B0E08093622B9093632BA093642BB0930E
:101CF000652B4091622B5091632B6091642B709106
:101D0000652B36E020E480E09AE6A8E1B0E0841795
:101D10009507A607B70710F52093402080915F2B09
:101D2000823009F44BC058F4882351F1813009F016
:101D300078C0C6E4D5E20C2F10E41C1B37C08430F9
:101D4000A9F0C8F0853009F06CC040E051E060E0D7
:101D500070E086E495E20E94793F63C0B695A7954E
:101D6000979587952695315091F6D6CFA6E4B5E2A2
:101D700080E090E042C0E6E4F5E280E09FE72DC01D
:101D8000809160099091610926E435E2F90145E509
:101D900052E6BC01649FC001659F900D749F900D39
:101DA0001124019691932E13F4CF3BC08C2F810FF9
:101DB0000E94690C89930C13F9CF33C086E495E235
:101DC000FC01382F2E2F281B27FF02C02FE701C050
:101DD00021E821933E13F6CF24C0803839F0282F14
:101DE000220F392F321B31938F5FF7CF982F990F26
:101DF0009F5791938F5FD1F714C0282F803891059A
:101E000041F0FC01E254FC4FE491E195ED93019621
:101E1000F4CFE22FF0E0E25CFC4FE491ED932F5F12
:101E2000C1F72091602B30E080E091E0821B930BA2
:101E3000880F991FD901AA0FBB1F66E475E2FB0149
:101E400040E050E0162F252F30E02A5B3A4DE901A3
:101E5000D3950081088301915F3F81F02196208115
:101E6000332727FD3095200F311D07FD3A9537FFA9
:101E700002C02F5F3F4F359527952883480F591F84
:101E80002E2F3E2F361B303809F4CD011213DBCF35
:101E9000C0914020AC2FB0E020E13EE54FE550E09E
:101EA0000E945D3F2091622B3091632B4091642B07
:101EB0005091652B0E94003F2150310986E08093AC
:101EC000A200C23010F081E001C082E0809340099E
:101ED00020937609309377091C2F169509F411E0A9
:101EE000D0E0C0E020915E2BED2FF0E0EA5BF94DF1
:101EF0003081A303812D11246091612B0E9461091F
:101F0000EC2FF0E0EF5BFF4D8083CF5FD10FC1116D
:101F1000E9CF599887E08093A200DF91CF911F917C
:101F20000F910895E4E4F1E2119285E2E434F807B8
:101F3000D9F710924525109244250895F8943C9BBA
:101F400005C088EC0E943B3E81EA04C080EC0E9400
:101F50003B3E80EA0E943B3E3B9B02C087EA01C0B9
:101F600086EA0E943B3E7894089590E1699FF001D3
:101F70001124E078E80FF11DEF5BFE4D677081E002
:101F800090E0062E01C0880F0A94EAF79381982BFF
:101F9000938308950F931F93CF93DF93182F062FEA
:101FA000EA019E01FE01949122962F5F3F4FF901B5
:101FB00064919F3F31F0600F892F810F0E94B50F10
:101FC000F0CFDF91CF911F910F910895E0914525BA
:101FD00091E09E0F9093452590914425F0E020E8F4
:101FE000929FE00DF11D1124EF5BFE4D9381982B24
:101FF00093830895CF92DF92EF92FF920F931F93F6
:10200000CF93DF93182F062FC42FD22FC81BD61BB8
:10201000D7FF04C0D195EE24EA9402C0EE24E394E5
:10202000C7FF04C0C195DD24DA9402C0DD24D39437
:10203000602F812F0E94B50FCD1788F0FC2EF694EB
:10204000C12CCC16E1F0FD0EFC1610F0FC1A0E0DA2
:102050001D0D602F812F0E94B50FC394F2CFFD2E6E
:10206000F694C12CFC0EFD1610F0FD1A1D0D0E0D80
:10207000602F812F0E94B50FC394CD12F3CFDF9153
:10208000CF911F910F91FF90EF90DF90CF90089527
:10209000EF92FF921F93CF93DF93182F8A3081F135
:1020A000282F30E026513109F901EE0FFF1FE20F12
:1020B000F31FE554F84F7F0183E0E80EF11CEF01B8
:1020C00021968491619B02C0806880950E94E60FF2
:1020D000CE15DF0511F0FE01F2CF1C3111F480E3C3
:1020E00018C01D3149F488E30E94E60F8091452510
:1020F0008F5F809345250FC01A3111F488E009C025
:102100008091452587FD07C0619902C080E001C02C
:102110008FE70E94E60F8091452587FD02C01A30A7
:1021200039F410924525809144258F5F8093442592
:10213000DF91CF911F91FF90EF900895EF92FF9262
:102140000F931F93CF93DF938E3229F480E60E9482
:10215000E60F80E60CC08D3269F483E00E94E60F42
:1021600083E00E94E60F83E00E94E60F83E00E9476
:10217000E60F39C0803221F4809145258A5F36C050
:1021800094E1899FE0011124CD50D94F80914425DD
:102190008150809344258E01065F1F4FFE017F0111
:1021A0008FEFE81AF80A84910E94E60FE016F10614
:1021B00011F0F701F4CF809144258F5F809344257F
:1021C000809145258A5080934525649678019FEF3C
:1021D000E91AF90AF80184910E94E60FEC16FD064F
:1021E00011F08701F3CF809145258E5F80934525BF
:1021F000DF91CF911F910F91FF90EF900895CF93B2
:10220000DF93FC018491EF012196882321F00E9445
:102210004810FE01F7CFDF91CF910895CF93C82FDB
:10222000843638F08CE98C0F843628F0C85C82E361
:1022300004C080E302C0C82F81E30E94481080E3FD
:10224000CA3018F08F5FCA50FBCF0E94481080E35D
:102250008C0FCF910C944810EF92FF920F931F9325
:10226000CF93DF93CDB7DEB72C97CDBFDEBF8E0106
:102270000F5F1F4F98E0F80111929A95E9F780934C
:1022800045256093442557FF15C0509540953095DE
:1022900021953F4F4F4F5F4F8DE262990EC02987C6
:1022A0003A874B875C870E94481029853A854B8581
:1022B0005C8514C080E2629B07C029873A874B8700
:1022C0005C870E949E10F1CF29873A874B875C87F5
:1022D0000E9448105C854B853A852985619940C0EC
:1022E0002036F3E43F07F9E94F07FBE35F07DCF52E
:1022F000211581EE380785EF480785E0580754F02F
:10230000CA01B90120EA36E841E050E00E94223FCC
:10231000F12C2EC0CA01B9012038E6E93E07E8E9F0
:102320004E0751054CF020E137E240E050E00E94BA
:10233000223FFF24F3941CC0203432444F40510507
:102340004CF028EE33E040E050E00E94223F72E083
:10235000F72E0EC024E630E040E050E00E94223F1D
:1023600063E0F62E05C0F12C2FE037E240E050E0AC
:1023700067E084E0689FF0011124EE56F94F8591E3
:102380009591A591B491F801E60FF11D2817390731
:102390004A075B0740F070817F5F7083281B390B11
:1023A0004A0B5B0BF3CF615020F7619B03C027E022
:1023B000E22E02C093E0E92E8E2D90E0F801E80FA6
:1023C000F91F629B09C080810E949E10FE100DC003
:1023D0008EE20E949E1009C08081805D0E9448109C
:1023E000FE1003C08EE20E944810EA94EFEFEE1256
:1023F000E3CF2C96CDBFDEBFDF91CF911F910F9120
:10240000FF90EF900895E62FF0E0EE0FFF1FE050F1
:10241000F04E20813181DC010E94563F28E030E0FF
:1024200040E050E00E94223F609144258091452584
:102430000C942C118093452560934425CA010C947B
:10244000FF109627092E0294202D2F702927692F1F
:102450006025660F607E2627602D6927607F669560
:10246000092E000C661F9695969596959F71962756
:102470009827822F089588EA91E62091A10A27FDE6
:1024800009C02AE62A95F1F700C001970097A9F73D
:1024900080E008958091A00A0895811105C090B14F
:1024A0009B3080F05D980EC0863060F0833251F032
:1024B000863241F094EF980F923020F098EE980F0A
:1024C000953008F4589A8E3030F45A9A8C3030F4A3
:1024D000E82FF0E008C0843208F0599A8C50E82FB9
:1024E000F0E0EA5BF44D608308959091A10A95FFB6
:1024F000FCCF8093A00A08951F920F920FB60F92FF
:1025000011248F929F92AF92BF92CF92DF92EF925F
:10251000FF920F931F932F933F934F935F936F936C
:102520007F938F939F93AF93BF93EF93FF93CF933B
:10253000DF931F92CDB7DEB7109208041092090402
:10254000EC988091A00A90E0FC01E354F109E63395
:10255000F10508F049C1E250FF4F0C94413F05EBF3
:1025600016E0F80184910E9475120F5F1F4FF6E08C
:10257000093B1F07B1F738C10E943B12182F0E9478
:102580003B12682F812F0E944D122EC10E943B12D8
:102590008093622B0E943B128093632B0E943B121C
:1025A0008093642B0E943B128093652B599A1CC127
:1025B0000E94C21B19C140E051E060E070E081E47C
:1025C00090E20E949A3F10C1589A5C9A0DC1589AA5
:1025D0005C980AC1589A5D9A07C1589A0E94E81DF2
:1025E00003C10E943B128093502B0E943B128093A8
:1025F000512B0E94A91FF8C06798F6C0679AF4C0D3
:102600000EE61BE27801F70181917F010E947512AD
:102610000E11F9CFE9C00EE61CE27801F7018191B5
:102620007F010E9475120E11F9CFDEC00EE61DE289
:102630007801F70181917F010E9475120E11F9CF87
:10264000D3C000E010E0F80181918F010E94751263
:102650000C301105C1F706E41BE2F80181918F01EE
:102660000E947512FBE206361F07B9F7BDC010E0E5
:10267000812F90E0805090400E94853F0E9475120B
:102680001F5FB1F7B1C087E40E94751201E410E248
:1026900078010E943B12F70181937F010E13F9CF5D
:1026A000599A84E50E9475129FC081E00E947512BC
:1026B00081E00E9475128EEF0E94751299EFE92E4B
:1026C00098E0F92E10E090E0F7010491602F812F3F
:1026D0000E942112182F802F99830E947512FFEFFC
:1026E000EF1AFF0A998127E3E21629E0F20661F763
:1026F0008FE3F82E0EE3DD24D394AA24A394F0E113
:10270000FF9E4001112420E882228F2D8770BA2C71
:1027100001C0BB0C8A95EAF7E12CF401EF5BFE4D9A
:102720004F0180E0C12CCC0C282F2E0DF401E20FBC
:10273000F11D23812B2131E009F030E0C32A8F5FA6
:10274000883089F76C2D812F0E942112182F8C2D33
:1027500099830E9475120F5F99810038C1F4892F07
:102760000E947512812F0E9475120E943B128630C2
:10277000D9F5D39481E00E9475128D2D0E947512B7
:102780008D2D80950E94751210E090E000E038E0F9
:10279000E30E80E8E812C5CFFA94EFEFFE12AFCF58
:1027A00007FD0CC06AE1812F0E942112182F8AE1D7
:1027B00099830E9475120F5F9981F2CF892F0E9431
:1027C0007512812F0E9475120E943B12863061F4AF
:1027D00084E00E9475120E943B12853129F484E046
:1027E0000E9475120E943B120F90DF91CF91FF91D2
:1027F000EF91BF91AF919F918F917F916F915F9179
:102800004F913F912F911F910F91FF90EF90DF908B
:10281000CF90BF90AF909F908F900F900FBE0F9072
:102820001F9018958F929F92BF92CF92DF92EF9256
:10283000FF920F931F93CF93DF9300D0CDB7DEB7F6
:102840000091492B20914A2B359902C02FE700E0D7
:10285000802F992787FD9095822E992487FC90944C
:10286000881A990A13E0880C991C1A95E1F720B18F
:102870002B3020F0880C991C082F000F4091592B09
:10288000112707FD1095102F0027E12C97E0F0E8A5
:10289000DF2EF12CBB24B394A8E7CA2E80B18B3075
:1028A00040F42091482B30E0322F2227200F311F97
:1028B00001C0980184B18D2189F1280D391D5B2D4E
:1028C000092E01C0550F0A94EAF781E0E32FFF2794
:1028D000E259F24D6081782F737031F4EE0C61E0B3
:1028E0006F1530F4E39404C0652319F0F39401C02C
:1028F000F12C280D391D8F5F813241F7C09245259B
:10290000842F869586958695809344258E2D4983C0
:102910009A830E949E1B4981485F9A81D694915068
:1029200008F0BCCF0F900F90DF91CF911F910F91C6
:10293000FF90EF90DF90CF90BF909F908F90089581
:102940008091100180648093100180912001806447
:10295000809320018091A10887FF03C08091A00887
:10296000F9CF8091C20881118091C30885E88093D6
:10297000120180E892E0809314019093150186E49F
:1029800095E280931C0190931D0180915A2B823017
:1029900029F48BE48093130180EA06C0811109C0F9
:1029A0008AE48093130183EC8093180188E080937C
:1029B0001901379B02C084E801C084EA80931001AA
:1029C00085E88093220180E892E08093240190932F
:1029D000250186EC97E280932C0190932D0180E5F0
:1029E0009AE28093280190932901379B02C084E8E2
:1029F00001C084EA8093200108952F923F924F9264
:102A00005F926F927F928F929F92AF92BF92CF927E
:102A1000DF92EF92FF920F931F93CF93DF930E9469
:102A2000920F16E4812E15E2912EF40111922AE202
:102A3000E834F207D9F71092472A1092482A1092E8
:102A4000492A10924A2A2C9902C0712C02C0DFE058
:102A50007D2E1092730081E08093020480915A2BA6
:102A60008130F9F486E899E00E94FF1086E499E24B
:102A700080934C2A90934D2A86E495E280934E2AC7
:102A800090934F2A80E88093502A80915006887F47
:102A900082608093500683E080934C0680934906C1
:102AA00067C0823009F04BC089E699E00E94FF10B0
:102AB0003AB13770832F90E0FC01E454F64FE49173
:102AC000E093A608FC01EC54F64F84918093A7088C
:102AD0008AB1887190E0C3E095958795CA95E1F732
:102AE000282F45E0480F40934B2AE32FF0E0559BF9
:102AF00006C0569B02C0206302C0282F206257994F
:102B000028602093A50880E18093A40881E0809349
:102B10004008EE0FFF1FEC55F64F8591949180937E
:102B2000512A9093522A96958795969587958093EA
:102B300066089093670883E08093460819C0811166
:102B400017C087E399E00E94FF10569902C081E008
:102B500001C081E4CAB1CC1FCC27CC1FCC0FCC0F55
:102B600080935706559B05C080E48093540601C0AE
:102B7000C0E00E94A0140E94AF3E0E94F91980E8B4
:102B800092E0C05C53E06CE02091472A3091482AE3
:102B9000232B09F061C02091492A30914A2A232B26
:102BA00009F05AC040915A2B413001F12091140193
:102BB00030911501FC01E21BF30BE093472AF093DF
:102BC000482A2091240130912501FC01E21BF30BDE
:102BD000E093492AF0934A2A411108C0D49B06C0C9
:102BE000C093C00850934C06609349065B9930C06F
:102BF0001FB88EE69BE280932C2090932D2082E2DA
:102C00008093282064981092A3081092A408109230
:102C1000460810924008109249061092C0088CE7AE
:102C20008093730085E080930204DF91CF911F9120
:102C30000F91FF90EF90DF90CF90BF90AF909F905B
:102C40008F907F906F905F904F903F902F9008955E
:102C5000789B9ACF5B9898CF40E1442E56ECC52ED6
:102C600057E2D52E69E8A62E62E0B62E70E8E72E70
:102C700072E0F72EEFE35E2E66246394F2E43F2EBB
:102C80000E94AF3E0E94F9190E94920F8091282065
:102C900085FF1FC010922E2010922F20649909C02A
:102CA00080922C2090922D20E0922A20F0922B20CE
:102CB00008C0C0922C20D0922D20A0922A20B09241
:102CC0002B20809128208D79809328208CB1842519
:102CD0008CB980915A2B813009F072C0C72DD0E099
:102CE0002C9B23C08091472A9091482A80349105DB
:102CF00038F08091472A9091482A8054910906C063
:102D00008091472A9091482A80549C4F219636E022
:102D1000CC0FDD1F3A95E1F7C80FD91FC115F4E0BC
:102D2000DF0708F0D45010E448C026E0CC0FDD1FC8
:102D30002A95E1F7F8CF8091472A9091482AC81741
:102D4000D90708F0DFC0FE01EA5BFA4D0081FE0101
:102D5000F695E795F695E795EA5BF64D808190E06C
:102D60004C2F4370440F21E0240FBC01022E01C000
:102D7000660F0A94EAF76078262E042E01C0880FA9
:102D80000A94EAF787FFC9C0802F86950E949E1B90
:102D900000FFBDC0222009F4B8C08CE30E94481097
:102DA00080E20E9448102196C11574E0D70710F008
:102DB000C0E0D0E0115009F4A5C02C99C4CFBBCF1E
:102DC0008091140190911501F701E81BF90BE09334
:102DD000472AF093482A8091240190912501970178
:102DE000281B390B2093492A30934A2A37999EC0D1
:102DF0005C9BB5C02EE140E468E080E40E94FA0FDD
:102E00005092452534E03093442583E50E944810D4
:102E10005092452555E05093442584E50E94481082
:102E20005092452566E0609344258FE40E94481047
:102E30005092452577E07093442580E50E94481024
:102E40005092452510924425872D0E94961B0E9482
:102E5000481080915A2B811189C08CE380934525BD
:102E60006092442589E40E94481030924525609282
:102E700044258FE40E944810609245251092442515
:102E8000F8E27F9EE00111242C9B85C08091472AA7
:102E90009091482A889708F477C08091472A9091AA
:102EA000482A8897272D30E02F5F3F4F48E2429F06
:102EB0008001439F100D1124080F191F003822E0D4
:102EC000120710F00058124088E2282E2C9965C095
:102ED0008091472A9091482A0817190708F45DC085
:102EE00038E430934525109244252C9981C018E28E
:102EF0002C99A4C08091492A90914A2AC817D907D1
:102F000008F49CC07C99C0C0FCC088E247CF222056
:102F100011F08EE343CF89E241CF802F0E949E1BA8
:102F2000222011F08BE23ACF8DE238CF8091100150
:102F300087FD0BC010921401109215011092A40885
:102F40008091C0088F7B8093C0088091200187FD0D
:102F50004FCF10922401109225015C9A49CF2FE3A4
:102F600040E468E080E40E94FA0F6ACFECE3E0936B
:102F700045256092442582E50E94481030924525FF
:102F80006092442584E576CF8091472A9091482A23
:102F9000885A9D4F87CF8E0197CFF801EA5BFA4D93
:102FA00080811F9B09C0803208F48FE50E94481081
:102FB00080E20E94481002C00E949E1B80E20E9494
:102FC0004810809145258C3338F0609245258091DA
:102FD00044258F5F809344250F5F1F4F003852E0D8
:102FE000150710F000E010E02A9409F06FCF78CFB9
:102FF0008091492A90914A2A889730F08091492AF5
:1030000090914A2A889706C08091492A90914A2A2D
:10301000885A9D4F272D30E02F5F3F4F48E2429F57
:10302000E001439FD00D1124C80FD91FC03862E0C2
:10303000D60708F45CCFC058D24059CFFE01EA53FE
:10304000F84D80811F9B09C0803208F48FE50E94F3
:10305000481080E20E94481002C00E949E1B80E23D
:103060000E94481080914525883418F478E47093C4
:1030700045252196C03882E0D80710F0C0E0D0E0A6
:10308000115009F035CF3ECF7C987A9B05C0799BD3
:1030900003C083B1805883B97B9B28C08BB1842542
:1030A0008BB980915A2B5C9B0CC01092A408909114
:1030B000C0089F7B9093C0088130C1F410924906EC
:1030C00015C0813021F483E0809349060CC0823022
:1030D00019F44092A40807C0811105C08091C0086E
:1030E00080648093C00837990E94A0147A9B02C024
:1030F00071107A94799B03C0EFE07E1273947899F3
:103100005B985B99BDCD74CD1F920F920FB60F9255
:1031100011242F933F934F935F936F938F939F93BC
:10312000AF93BF93EF93FF93E0914E2AF0914F2A14
:10313000A0914C2AB0914D2A2091502A88E1809389
:10314000200880910C08816080930C08D19B05C0F9
:1031500080910C0880FFFACF55C051E080E0D199F2
:1031600005C090910C0890FFFACF4CC099E2E6346C
:10317000F907C9F19AB3692F617090FD0FC0909162
:103180000C0890FD3FC0D19B10C0D09BF8CFD19BC5
:103190000CC038C0D19B09C0D09B05C090910C08D1
:1031A00090FFF8CF2FC0D199D1CF8830C1F4CF0193
:1031B000019640833C915111322B2695611101C03B
:1031C000322B26953C93222319F0FC0150E0C6CF08
:1031D00011961C9211971196FC0120E8F7CF440F2D
:1031E000462B8F5FBCCF379B06C0109249065C9A76
:1031F00080E094E00AC010924629A6E4B9E2E6E431
:10320000F5E2ADCFCF01865495428093472A909343
:10321000482AE0934E2AF0934F2AA0934C2AB09369
:103220004D2A2093502A81E080934C06FF91EF9124
:10323000BF91AF919F918F916F915F914F913F910E
:103240002F910F900FBE0F901F9018951F920F9205
:103250000FB60F9211242F938F939F9392E0909328
:10326000200890910C08916090930C0898E0579B6F
:1032700017C0D79909C020910C0820FFFACF2BC0A6
:1032800020910C0820FD27C0D799FACF880FD69936
:103290008160915071F713C020910C0820FD1BC074
:1032A000D79BFACF880FD69B06C0816004C02091BF
:1032B0000C0820FD10C0D799FACF915089F7809360
:1032C000502A82E080934C065C9905C080912001D1
:1032D0008061809320019F918F912F910F900FBE5D
:1032E0000F901F9018951F920F920FB60F921124F6
:1032F0002F933F934F935F936F938F939F93D399A4
:103300006CC081E080934C0880914C0880FFFCCF1A
:103310008091512A9091522A809366089093670871
:1033200040E020E050E061E030914B2A531768F410
:1033300060934C0830914C0830FFFCCF2695D39B0E
:1033400002C020684F5F5F5FEFCF383018F42695DA
:103350003F5FFBCF559904C031E030934C0817C054
:1033600031E030934C0830914C0830FFFCCF417075
:10337000569B05C0442341F0D39BEECF23C041119F
:1033800003C0D3991FC0E8CFD39B1CC0E5CF3091B9
:103390004C0830FFFCCFD39B15C057990AC020932F
:1033A000502A5C990FC020912001206120932001B8
:1033B00009C031E030934C0830914C0830FFFCCF0D
:1033C000D399EDCF969587959695879580936608C6
:1033D0009093670881E080934C089F918F916F9143
:1033E0005F914F913F912F910F900FBE0F901F90C3
:1033F000189580E0889906C095E59A95F1F7000048
:103400008150C1F7EC98E89808951F920F920FB67B
:103410000F9211242F933F938F939F93EF93FF93DA
:10342000EC98E89820E099E1EFE3FFE13197F1F7BC
:1034300000C0000080910806382F3E7123139AE0E7
:10344000915011F0232FF0CF1FB881FF789A282FC9
:103450002071982F987084703C9B0AC0211101C084
:10346000799A911101C07A9A81110BC07B9A09C097
:10347000211101C07B9A911101C07A9A811101C07A
:10348000799A8FB18823A1F0589A7C9A8091040888
:10349000882379F088E18093210880910C0882606C
:1034A00080930C088091060884608093060801C010
:1034B00060981092080410920904FF91EF919F9177
:1034C0008F913F912F910F900FBE0F901F901895E5
:1034D0001F920F920FB60F9211248F9380910608BE
:1034E0008B7F809306088FB18111609A8F910F9026
:1034F0000FBE0F901F9018950F93CF93DF931F92DD
:10350000CDB7DEB72FB72983F8941BBEFC0108EDB9
:1035100004BF608389818FBF0F90DF91CF910F919E
:10352000089592E09093CA01E82FF0E08491109200
:10353000CA0108950E94E21F2FEF8FE396E0215009
:1035400080409040E1F700C000000E942F232FEF41
:103550008FE891E0215080409040E1F700C00000EA
:1035600084E1E0E0F2E08183E0E0F1E080898F77C0
:10357000808B80A98F7780AB80A18F7780A30895FF
:103580007F928F929F92AF92BF92CF92DF92EF92F3
:10359000FF920F931F93CF93DF931FB80E94920F58
:1035A00087EC99E00E94FF1044EC59E067E084E763
:1035B0000E941A120E94AF3E0E94F9198FB188230F
:1035C000E9F3799BA4C00E94920F10B8912C96E465
:1035D000C92E95E2D92E27E0722E80B1883008F0EE
:1035E00069C0A92C86E0B82E882483948A0CB092F6
:1035F000462BB092472B0E949A1AA6E4B7E2E6E463
:10360000F5E2C0E0D0E000E010E08191080F111D6C
:1036100087FD1A958D91C80FD11D87FDDA95CE12C1
:10362000F4CFEC9A80B1EB2CF12C9701789E200D11
:10363000311D1124C901612F835A9E4F0E94A43F5E
:1036400020E2210F203430F4482D60E2882D0E94C2
:10365000FA0F01C0E89A80B18823E1F060B170E010
:1036600061507109769EC001779E900D11248E0DD8
:103670009F1D6D2F845D9E4F0E94A43F2D2F205EC5
:10368000203438F481E48A0D482F60E20E94FA0F5A
:1036900001C0E89A0E94AF3E0E94F919BA943FEF28
:1036A000B31611F0A82CA0CF87E0980E80B18F5FE1
:1036B00080B993CF80E18093010287E08093040278
:1036C00020E0C0E0D0E060E070E033E8309320021A
:1036D000309328028FE79CE00197F1F700C00000CB
:1036E0008091240290912502680F791F80912C020D
:1036F00090912D02C80FD91F215041F78BE991E01D
:103700000E94C73FBE0189E991E00E94C73F1FB8F0
:10371000DF91CF911F910F91FF90EF90DF90CF90AD
:10372000BF90AF909F908F907F900895982F80E3E7
:10373000890F8A3310F087E3890F0895CF93C82F3C
:1037400082958F700E94961B0E9448108C2F8F705C
:103750000E94961BCF910C94481090E8980F97FF09
:1037600002C091E8980F892F85958058089581347B
:1037700028F0803C28F4880F8058089580E0089550
:103780008FEF0895669929C088B1803258F48091EE
:10379000762E80B98091662B8093462B8091702E77
:1037A0008093472B4CE050E060E271E080E090E0D5
:1037B0000E949A3F40E250E060E071E086E49BE2C4
:1037C0000E949A3F80B18093762E8091462B809301
:1037D000662B8091472B8093702E08954CE050E02B
:1037E0006BE576E080E090E00E94703F40E250E0C0
:1037F0006BE376E086E49BE20E94703FEC9A0E94C5
:10380000C21BEC981FB8089584E0809356008CE1A9
:103810000E94911A809363008BE18093650087EB8F
:103820008093660081E0809360008BEC809352006F
:1038300082EC809355008BE0809350008FE79EE3ED
:103840000197F1F700C000008091510083FF1092B2
:1038500052008BE1809350008FE79EE30197F1F7D0
:1038600000C0000064E080E490E00E947C1A8AE1DD
:103870008093500080E58093110698E190931206A2
:103880009093130690931406C7E0C0931506C09357
:103890001606C093170682E0809309068EE1809396
:1038A0000A068BE08093200681E080934A0630E888
:1038B00030934B062FE1209360068093750624E039
:1038C0002093640629E020938006909391068093CC
:1038D000840621E42093B20022E32093B300809376
:1038E000A60950EC5093A50928E02093A40927E1EC
:1038F0002093A60A44EA4093A70A23E02093A50A4E
:103900009093A40A90E29093A30A60EE60938001E2
:103910009093810198ED909383015093840198ECEA
:10392000909385019FE89093860190ED9093870195
:103930008093210381E1809322032093230385E078
:10394000809320039093420185E28093430180E0BD
:1039500091E0809344019093450181E490E280934B
:1039600048019093490189E380934C0120934D01D4
:1039700040934001309300014CE050E060E271E080
:1039800080E090E00E94793F40E250E060E071E02A
:1039900086E49BE20E94793FC093A20078940E9443
:1039A000723C0E94493E45E450E06EEB75E082E6D1
:1039B00092E20E94703F0E949E0F42EB56E067E049
:1039C00082E30E941A128091400080FF06C04BEFF4
:1039D00059E067E080E00E941A120E94AF3E9FEF1C
:1039E00023E284EF915020408040E1F700C00000C6
:1039F00085E0809343008DE991E00E94853F81112D
:103A000009C00E94F9190E94C01A61E08DE991E095
:103A10000E94A43F80EA91E00E94853FC82F8091D8
:103A2000080681FF629A1FB8D1E018E207E034E18E
:103A3000F32E40E1E42E51E8D52E6AE3C62E629BB8
:103A40004AC00E94920FD093000210933902009353
:103A50000402F0920102E0920202D09238028FE357
:103A60009FE10197F1F700C0000020913C0230E097
:103A7000A0EBBCE00E94473F9B01AC0161E080E409
:103A80000E942C114AED59E066E080E00E941A1273
:103A9000C0924525CC2321F08C2F0E940E1103C02B
:103AA0008DE20E9448107C9B11C07C987B990E94FB
:103AB000C01A7A99C05F79990E94EE1B789B06C064
:103AC0006C2F80EA91E00E94A43F62980E94AF3E72
:103AD0000E94F919B4CF1FB88091010480FDFCCF7A
:103AE0009CE3C99F9001112420930A0430930B0496
:103AF0002CE330E020930C0430930D04CC2331F000
:103B000085E08093020487E0809300040E94AD2347
:103B1000FDCF1F920F920FB60F9211248F938FB18A
:103B2000811101C01EB88F910F900FBE0F901F9092
:103B300018951092C1041092C3041092C004EC981E
:103B40000E94C21B0E94A63E8FB18111FDCF81E071
:103B50008093860685E080934800889510924800FF
:103B60000E94493E81E0809385061FB80C94723C08
:103B70001F920F920FB60F9211242F933F934F93E2
:103B80005F936F937F938F939F93AF93BF93EF93C5
:103B9000FF930E94991DFF91EF91BF91AF919F916B
:103BA0008F917F916F915F914F913F912F910F90E6
:103BB0000FBE0F901F9018951F920F920FB60F9285
:103BC0001124109248000F900FBE0F901F9018956F
:103BD0005C98289829982A988BE080933F201EB8FB
:103BE0001FB808958091462B8823B1F090916A2BDD
:103BF000913290F081508093462B8091522B81110D
:103C000006C08091532B0E94AD1B8093532B809153
:103C10006A2B869580936A2B8091472B8823B1F07D
:103C20009091742E913290F081508093472B809127
:103C3000522B813031F48091532B0E94AD1B809325
:103C4000532B8091742E86958093742E0895109234
:103C50003F208091762E80B98091662B8093462BF1
:103C60008091702E8093472B089580B18093762E9B
:103C7000A6E4BBE28C918093662BE7E4FBE28081B3
:103C80008093702E1C9210828BE080933F200895C9
:103C9000CF93DF93409906C0419907C0429908C06D
:103CA000629A08C0EEE3F5E005C0EEEBF4E002C076
:103CB000EEE3F4E0449B3BC08EE69BE2CEE6DCE222
:103CC00060E0349162993FE76F3708F4319667FD01
:103CD0003197DC014D91CD0129914058C303A001DA
:103CE000112474E0679FD0011124AA5BBA4D4D9353
:103CF0005C9311972058A3039001112412962D93E1
:103D00003C9313976F5FE9F6629886E495E20E9410
:103D10007A0C66E479E286E495E20E944C0D90917B
:103D2000462980914729891718F191E022C0EC01BA
:103D300080E0349162993FE78F3708F4319687FD30
:103D4000319729912058A303212D112494E0899FB4
:103D5000D0011124AA5BBA4D12961C9212971396A9
:103D60002C9313971C9211962C938F5F11F7CCCF45
:103D700092E023E080E097FD0DC0E92FF0E0EA5BE0
:103D8000F64D3081231710F0322F01C0892F9F5F2D
:103D9000232FF1CFE82FF0E0EA5BF64D90819830C9
:103DA00008F480E0DF91CF91089580B18B3010F05E
:103DB0003FEF01C03FE7479B07C080916B2B80938B
:103DC000492B8091752E81C01092492B30934A2B3C
:103DD000E091482B089B02C0109B08C02091742ED4
:103DE000089B0FC080916A2B281758F48091692B8B
:103DF00020916A2B283008F45DC0F0E0E259F44DC0
:103E000008C08091732E283008F454C0F0E0E259C5
:103E1000F34D2695280F8081821718F08E2FDF0131
:103E20002AC08E2FDF014A2F481BFD0131969C913D
:103E3000921730F49E2F981B9317E1F1DF01F3CF17
:103E40004093492BCF01019650814F5F251720F4F5
:103E5000431781F1FC01F6CF40934A2BFC0181917D
:103E60004F5F821728F54313FACF24C09E2F981B6B
:103E7000931701F1DF014A2F481BFD0131969C91F8
:103E80002917A0F34093492BCF01019650814F5F32
:103E9000521720F4431771F0FC01F6CF40934A2BE0
:103EA000FC0181914F5F281718F44313FACF02C029
:103EB00040934A2B80B18B3050F08091492B8695EE
:103EC0008093492B80914A2B869580934A2B0895A5
:103ED000EBE1F6E0A6E4BBE284919C91981708F030
:103EE0008C93119631968BE2A636B807A9F780918C
:103EF000572B87FD03C08EEF8093572B8091582B53
:103F000087FD03C08EEF8093582B80915C2B90919E
:103F10005B2B891710F480935B2B80915D2B8111B3
:103F200003C081E080935D2B8091532B833018F484
:103F300083E08093532B8091552B9091542B9817AD
:103F400010F48093542B80B1863110F085E180B954
:103F500008958091502B9091512B8F3F9105B8F48B
:103F600090B1911102C08830F8F090B1913011F405
:103F70008530E0F090B1923011F48530B8F090B116
:103F8000963018F48430A0F002C0882399F0809114
:103F9000502B9091512B97FF14C08FEF9FE7809388
:103FA000502B9093512B089588E005C085E003C005
:103FB00084E001C081E090E08093502B9093512BDE
:103FC000E6CF0895FF920F931F93CF93DF9398E16D
:103FD0009093700084E08093710023E0209372003E
:103FE0002CE7209373002CE6209374002093750037
:103FF0008093A2001092000A1092010A1092060A01
:1040000010924008109241088FE08093000882E0EF
:1040100080930408909327089091562B909326083C
:104020009EE0909300098093040987E2809326091B
:104030000E94681F0E94A91F84B120E0982F9170F0
:10404000290F8695D9F788E090E0821B9109880FA7
:10405000880F880F9091592B891710F41092592BC3
:1040600080B1811109C0469904C0479B05C0449B9B
:1040700003C080B18F5F80B984E18093010285E441
:104080008093030283E08093040290B19B30E8F0B8
:10409000109227098093000A80B18B3019F487E8C9
:1040A00093E102C089E698E18093260A9093270A5B
:1040B000E0B1F0E0EE0FFF1FE551FE4E85919491C7
:1040C00080936C2B90936D2B2BC01DB887E0809351
:1040D000270980B1863068F0E0B1F0E0EE0FFF1FF5
:1040E000E55FFD4E859194918093260A9093270A6F
:1040F00017C08CE18093010280B1823010F080B152
:1041000004C080B1882339F082E08093040280E407
:104110008093030205C01092030282E080930402A0
:104120000E949E0F81E08093000280E28093020251
:104130000E94911A80930C0281E20E94911A80934E
:104140000D028AE2809321028091462B90E09C012F
:10415000220F331F220F331F2360209320022BE2F4
:1041600020932902C091472BD0E09E01220F331FDC
:10417000220F331F23602093280220E12093310275
:1041800020B130B1383008F027E037E0F32E022FAD
:1041900010E0F29E800D911D1124835A9E4F0E94C3
:1041A000853F81958093672B80B1882381F00150F2
:1041B0001109F09EC001F19E900D11248C0F9D1FDE
:1041C000845D9E4F0E94853F81958093712E87E08C
:1041D0008093A2001C9902C081E001C081E4199B78
:1041E00005C01A9902C0806101C088619FEF909359
:1041F000B000809350065A98DF91CF911F910F9194
:10420000FF9008951F920F920FB60F9211248F9274
:104210009F92AF92BF92EF92FF920F931F932F93B3
:104220003F934F935F936F937F938F939F93AF933E
:10423000BF93CF93DF93EF93FF93D0914525C09128
:104240004425809124026091672B0E946109E82E29
:1042500080912C026091712E0E946109F82E0C99B8
:10426000E0941499F09400E80E0D60E86F0D6195EC
:104270008603112D112410580E9B08C00F9B05C0FA
:104280008E2D0E946009E82E01C0E12E169B0AC007
:10429000179B07C0602F61958F2D0E946009F82E33
:1042A00001C0F12E40913620509137206091382086
:1042B000709139204E0D511D611D711D40933620A6
:1042C00050933720609338207093392040913220EA
:1042D0005091332060913420709135204F0D511D45
:1042E000611D711D40933220509333206093342020
:1042F00070933520809130209091312001968093E9
:10430000302090933120659A00916C2B10916D2B89
:1043100080913020909131208017910708F458C087
:1043200010923020109231200D9B10C04801A12C1A
:10433000B12C609136207091372080913820909177
:104340003920A50194010E94003FE22E159B0EC06A
:10435000980140E050E060913220709133208091CC
:104360003420909135200E94003FF22E109236208A
:10437000109237201092382010923920109232205B
:104380001092332010923420109235203A9B10C0A6
:10439000EDB1F0E0E259F44D80818E0D8795E82E65
:1043A000EDB1F0E0E259F34D80818F0D8795F82E45
:1043B000EDB1F0E0E259F44DE082EDB1F0E0E25908
:1043C000F34DF082EDB18AB3F0E0E259F24D808313
:1043D000459BD1C03099CFC0809130209091312041
:1043E000892B11F00D993CC06091572B8E2D0E94A6
:1043F0006009182F1695103408F01FE3EDB1F0E0B6
:10440000E359F44D6091572B80810E9460093E9BD7
:104410001CC09DB19923C9F0282F2695203408F09F
:104420002FE3121304C01123D9F01F33C9F0089BE6
:1044300017C04DB18DB150E0415051095595479588
:10444000612F86950E94FA0F0BC0089B09C01123AB
:1044500039F01F3329F08DB1612F86950E94B50F79
:104460008091302090913120892B11F015993CC01A
:104470006091582B8F2D0E946009182F16951034CB
:1044800008F01FE3EDB1F0E0E359F34D6091582BD4
:1044900080810E9460093E9B1CC09DB19923C9F098
:1044A000282F2695203408F02FE3121304C011237F
:1044B000D9F01F33C9F0109B17C04DB18DB150E03A
:1044C0004150510955954795612F86950E94FA0FE5
:1044D0000BC0109B09C0112339F01F3329F08DB197
:1044E000612F86950E94B50FEAB21091592B189B47
:1044F0002DC007E3E0E8FE2E94B19F2119F18DB1A4
:10450000843059F410924525812F8695869586959D
:1045100080934425802F0E9448108F2D8E2119F002
:104520008DB1612F0BC08DB166E0610F86950E9441
:10453000B50F1B9B06C08DB165E0610F86950E948B
:10454000B50F185FF69401500F32B1F61E9B1CC0D8
:104550009DB19F70C9F41933B8F49DB196959F5FD2
:1045600090934525169516951695109344258E2DF6
:104570000E949E1B09C0479B07C03F9B05C08DB191
:104580006FE386950E94B50F809130209091312085
:10459000892B79F58DB18F5F8DB98DB1811101C0F6
:1045A000649A309923C08DB1811109C01D9B03C04D
:1045B00045990E9412141092060A5C991AC0459BF4
:1045C00018C03D9916C0689914C08DB1869520E039
:1045D00090E030E8239FF0011124EF5BFE4DE80FDF
:1045E000F91F13822F5F2830A1F703C05C99109246
:1045F000060AD0934525C0934425FF91EF91DF91A2
:10460000CF91BF91AF919F918F917F916F915F916A
:104610004F913F912F911F910F91FF90EF90BF907D
:10462000AF909F908F900F900FBE0F901F90189596
:104630001F920F920FB60F9211248F93EF93FF9357
:10464000E0E0F8E086818E7F8683589A5D9AFF913C
:10465000EF918F910F900FBE0F901F901895809142
:1046600010018064809310018091300180648093F8
:1046700030018091200180648093200165E0609387
:10468000120170E17093130180E092E080931401B5
:104690009093150126E435E220931C0130931D010F
:1046A00044E24093180152E05093190140931001E5
:1046B00060933201709333018093340190933501FC
:1046C00026E439E220933C0130933D012AE1209316
:1046D000380110923901409330016093220121E1A9
:1046E00020932301809324019093250186E497E28F
:1046F00080932C0190932D018CE28093280150939C
:10470000290140932001809110018068809310015D
:104710008091300180688093300180912001806811
:104720008093200180B1863020F48CE180930102D7
:1047300002C05093000A80E090E02091110124FD16
:104740000BC020E22A95F1F7589B02C05D980895AE
:104750000197009791F708950895CF93DF93CDB710
:10476000DEB72F97CDBFDEBF80B18093762E8091CC
:10477000462B8093662B8091472B8093702E1EB81A
:10478000589A5A9A599A7C9A639A2EE63BE229875C
:104790005A990E94E21F5B9B08C01FB85C980E9458
:1047A000C21B0E94FD140E94E21F609B12C07B9BF3
:1047B00003C05C990E94E81D8EB18D3220F07A9979
:1047C00001C079997C9A789B04C00E94991D1EB8FB
:1047D000589A5C99E0C05D99DEC080914F2B882388
:1047E00051F0589908C0AFE3BFE11197F1F700C04D
:1047F00000008150F4CF1092A30A80B18B3010F4E6
:104800000E942F2380E28093A30A289902C02A9B4A
:1048100008C0309B03C080B18B3018F488B180325F
:1048200020F45899B8C05D9AB6C0109260081092F2
:10483000610881E080934C088091502B9091512B1E
:1048400020B1223010F0880F991F20B1211102C031
:10485000089710C020B1213019F020B1223011F496
:10486000059708C020B1263010F4049703C00097C4
:1048700009F0019780936608909367088091260855
:104880008093200881E08093020480910C0881606D
:1048900080930C082A9B05C0809106088160809354
:1048A00006088091522B811136C06091672B61956B
:1048B0008091532B0E9460092E9B07C06091552B5D
:1048C0008091542B0E94D30A66C02D9B13C0809107
:1048D000532B805887FF02C0819503C0811101C00E
:1048E00081E02B9B04C081950E94790A54C00E94EC
:1048F0008F0A51C02F9B03C02B9B0AC006C020917A
:10490000240290E8980F29171CF40E94260A43C03D
:104910000E94360A40C08130A1F56091712E6195E8
:104920008091532B0E9460092E9B07C06091552BEC
:104930008091542B0E94DE0A2EC02D9B11C08091C5
:10494000532B805887FD8095811101C081E02B9BFE
:1049500004C080950E94A70A1EC00E94BD0A1BC009
:104960002F9B03C02B9B0AC006C020912C0290E80D
:10497000980F29171CF40E94590A0DC00E94690A59
:104980000AC08B3040F482502B9B03C00E94C709A1
:1049900002C00E94680985E08093020480910608A5
:1049A0008E7F809306085D9B5FC180B18B3008F0DD
:1049B00039C1EFE9FFE03197F1F700C00000109234
:1049C000000A84E18093010280916E2E8F5F8093B4
:1049D0006E2E8FE792E00197F1F700C000005D981E
:1049E00010924008809110018F7780931001809180
:1049F00030018F7780933001809120018F778093F1
:104A00002001809114019091150120B1223020F0F5
:104A1000212CE2E03E2E0CC0212C73E0372E281A08
:104A2000390A2114A2E03A0628F020E031E0190109
:104A3000281A390A91012A5B3A4D2E873F87A10136
:104A40004A5B584D2A01B1016A5B764D7B012EE627
:104A50003DE22B833C835EE6C52E5CE2D52E6EE6FE
:104A6000862E6BE2962ED7018C91EB81FC8181938F
:104A7000EB83FC83AE85BF852C91822FF201908160
:104A8000192FFFEF2F1A3F0A211432E0330651F09D
:104A90004FEFE41AF40A1196AE87BF875FEF451A0D
:104AA000550A0EC0212C312C36E4E32E39E2F32EC8
:104AB00046E4442E47E2542E46E455E24E875F8793
:104AC00030B1323088F10D9B06C0AE85BF858C9128
:104AD00085952595820F159B05C0F20110811595CE
:104AE0009595190FFFEF2F1A3F0A211422E0320685
:104AF00069F04E855F854F5F5F4F4E875F875FEF41
:104B0000451A550A6FEFE61AF60A0EC0212C312C11
:104B1000B6E4EB2EB9E2FB2E96E4492E97E2592E2D
:104B200026E435E22E873F876091672B0E9461095A
:104B3000782E0C9970946091712E812F0E946109DA
:104B4000A82E1499A09410E8170D60E86A0D6195DD
:104B50009603312D112430583D830E9B08C00F9BC6
:104B600005C0872D0E946009782E01C07D80169BAC
:104B70000AC0179B07C0612F61958A2D0E946009AA
:104B8000A82E01C0AD8094012F5F3F4FD4013A9B06
:104B90000FC011968C911197870D87958C93A60164
:104BA0004F5F5F4FF60181818A0D8795808306C034
:104BB0007C92A6014F5F5F4FF601A0826EE67DE218
:104BC0008B81681719F06A0149014DCF679918C0A8
:104BD0008091282085FF39C01092080410920904A2
:104BE00010922E2010922F2082E093E880932A20AA
:104BF00090932B20809128208D798093282025C0A8
:104C000087E00E947512AEE6EA2EABE2FA2ED701DB
:104C10008D917D010E947512BEE6EB16BEE2FB0689
:104C2000B1F7D6CF309B04C05D985C990EC002C02E
:104C3000649904C083E08093060A07C064985D9875
:104C400080916E2E8F5F80936E2EF894299B09C001
:104C50005C9A80B18B3028F48EB1853011F084E3FA
:104C60008EB97C9B58987894809110018F778093AF
:104C70001001809130018F77809330018091200165
:104C80008F77809320015D9909C13D990CC04799A8
:104C900008C0469906C0459B06C080B18B3008F01D
:104CA00030990E94920FF89480B18B3020F0309BA5
:104CB00002C0649BC2C064984C9B3CC020B1E4E03D
:104CC0002E9F9001112427553E4EF9018591959113
:104CD000A591B4919C01AD01FCE05695479537959F
:104CE0002795FA95D1F7E0B1A981BA81BD0188274E
:104CF00077FD8095982F0E94F03EE73068F49695F6
:104D00008795779567956093622B7093632B80935B
:104D1000642B9093652B0EC020ED37E040E050E00F
:104D20000E94003F2093622B3093632B4093642BAF
:104D30005093652B4D9B0AC089819A8175E09595AA
:104D400087957A95E1F7819580935E2B4E9B0AC0FB
:104D500089819A8164E0959587956A95E1F78058F5
:104D60008093612B4F9B09C089819A8154E095956E
:104D700087955A95E1F78093602BB11002C0B090EF
:104D80005D2B9B2D4A99919580915B2BB0E18B9F78
:104D90009001112440915C2BE0E14E9FA001112471
:104DA00069817A81690F711D97FD7A9569837A838C
:104DB0004617570734F44B9BA901629A49835A83DB
:104DC0000AC0A981BA81A217B3072CF44B9B9A01A0
:104DD000629A29833A83499B0BC0489B05C0BEE772
:104DE000BB1530F0B39404C0E1E0EB1508F4BA94BD
:104DF000629B08C0B0905D2B4B9B04C099B124E02E
:104E0000922799B9629899B19031B8F0599A3F9B1D
:104E100014C06FE386950E94B50F80915C2B6FE301
:104E200086950E94B50F6FE389819A8145E095953B
:104E300087954A95E1F70E94B50F789490916E2B73
:104E400080916E2C9C0140E0E42FF0E0E259F44D9B
:104E50005081F3956081951708F4952F531708F446
:104E6000352F861708F4862F621708F4262F4F5F18
:104E700059F7492F431B40936A2B482F421B4093FD
:104E8000742E9093682B3093692B8093722E20930D
:104E9000732E319B03C045990E94D51E459BE7C0E8
:104EA00080B18B3010F0309BE2C080B18B3038F095
:104EB000309B05C0DDB0FD2DF160DF2E02C0D0902B
:104EC000482BAD2CF12C712C8A2D8D1977FCCCC080
:104ED00090B19B3020F0309B02C0782E76942A2C23
:104EE000312C91012259344D1901F901FE5F808066
:104EF000E090592B189B48C020E8922E37E0C32E33
:104F000084B18921E1F1711027C05E2C569456942A
:104F10005694109245255092442580E38C0D0E94B2
:104F200048102091522B30E022503109EC2DF0E056
:104F30002E173F0789F40E3778F4289902C02A9B70
:104F40000BC000934525509244252B9B02C089E15C
:104F500001C088E10E944810892D882111F06E2D32
:104F600009C066E06E0D872D0E94B50F1B9B05C022
:104F700065E06E0D872D0E94B50F38E0E30E969424
:104F8000CA944FEFC412BCCF1E9B10C0872D8F70E8
:104F900069F458E35E1550F070924525E694E69466
:104FA000E694E0924425882D0E949E1B6091572B29
:104FB000D1018C910E946009E82EF101F395609176
:104FC000582B80810E9460098695E694BFE3BE1548
:104FD00010F49FE3E92EC82EEFE3E81710F48FE3F7
:104FE000C82E3E9B22C07720D1F1E11204C08FEF82
:104FF0008E0D8E3340F4089B06C0212F4F2D6E2D51
:10500000872D0E94FA0FC61004C08FEF8C0D8E33CF
:1050100028F5109B23C080B1882301F1262D4F2D48
:105020006C2D872D0E94FA0F19C0089B09C0EE2035
:1050300039F0FFE3EF1621F06E2D872D0E94B50F9A
:10504000109B0CC0CC2051F02FE3C21639F080B178
:10505000882321F06C2D872D0E94B50FF72C7394B7
:10506000A3946C2C1E2D30CF1D990E941214469BC8
:1050700030C03F9B06C04EE65AE060E080E00E94F0
:105080001A12AEE6EA2EACE2FA2EBEE6CB2EBBE258
:10509000DB2E9C2D4EE65BE2941B80B18B3028F01A
:1050A000309903C08DB19817A1F0D6011D916D0103
:1050B0001095F70161917F018091482B681B67FD76
:1050C00005C06695812F86950E94B50FF985FC1164
:1050D000E0CF479BAAC05D99A8C0089B09C0109B60
:1050E00007C080B1882321F0F3E0FF2E1BE103C04D
:1050F000E2E0FE2E17E3449B3AC087B1837079F05B
:1051000060E18091482B0E94B50F60E28091482BAE
:105110000E94B50F60E38091482B0E94B50F80E09C
:1051200090E00E94481EF12C8091482BEF2DE81B47
:10513000F0E0EA5BF64D808186958695883308F02D
:1051400087E367E3681B3E9B06C027E34F2D8F2D47
:105150000E94FA0F03C08F2D0E94B50FF39420E830
:10516000F212E2CF319B61C00E94D51E5EC0089949
:1051700003C010992BC0F6CF8EE69BE20E94481E1A
:1051800080936B2B76E4C72E79E2D72EE12CD601E3
:105190002D916D0130E00F2C02C0359527950A94B2
:1051A000E2F7121708F4212F612F621B3E9B06C005
:1051B000212F4E2D8E2D0E94FA0F03C08E2D0E949E
:1051C000B50FE394B0E8EB12E2CFD3CF80B18823E0
:1051D00049F28EE69CE20E94481E8093752E56E4AA
:1051E000852E59E2952ED12C67E3E62EF40121910C
:1051F0004F0130E00F2C02C0359527950A94E2F755
:10520000121708F4212F6E2D621B3E9B06C027E368
:105210004D2D8D2D0E94FA0F03C08D2D0E94B50FCC
:10522000D394F0E8DF12E2CF9DCF88B1803208F04E
:10523000E8C15D99E6C180913F208111E2C186E01D
:1052400080933F200E94920F40EF5DE060E08CE091
:105250000E941A124FEF5DE060E08CE40E941A1287
:105260005E9902C05F9B2FC04BE756E060E081E390
:105270000E941A124BE756E060E081E70E941A1282
:105280003EE6E32E3BE2F32E4EE6842E4CE2942ED5
:10529000D12CD7016D917D01669566956695645E0A
:1052A0008D2D0E94B50FF40161914F0166956695B1
:1052B0006695645E80E48D0D0E94B50FD394F0E492
:1052C000DF12E7CF3AC08091522B823010F08A3043
:1052D00051F48DE68093820141E75FE063E080E175
:1052E0000E941A120EC0825A8093820149E35DE047
:1052F00063E080E10E941A128091522B825D0E942D
:10530000481043E856E063E082E60E941A1280B13A
:10531000873028F423E8E22E26E0F22E04C094E839
:10532000E92E96E0F92EA70160E08DE20E941A12A4
:10533000A70160E08DE60E941A12629A109245253C
:1053400082E0F82EF09244255E9BB9C05C99A4C01F
:10535000A090010290900402809020027090280298
:1053600080E98093010287E08093040220E0C12C51
:10537000D12C7601212C312C210133E830932002ED
:10538000309328028FE79CE00197F1F700C00000FE
:105390008091240290912502AA2797FDA095BA2F0B
:1053A000281A390A4A0A5B0A40912C0250912D02B0
:1053B000662757FD6095762FC41AD50AE60AF70AC4
:1053C00058996AC02150D1F68BE991E00E94953F2F
:1053D000AC01662757FD6095762F420D531D641D65
:1053E000751D89E991E04A875B876C877D870E94FC
:1053F000953F2C014A855B856C857D85CB01BA0183
:10540000A5E09595879577956795AA95D1F7209111
:105410003C2030913D20442737FD4095542F620FAA
:10542000731F841F951F22E030E040E050E00E948F
:10543000223F20933C2030933D20B201882777FD06
:105440008095982F6C0D7D1D8E1D9F1DB5E0959547
:10545000879577956795BA95D1F720913A20309145
:105460003B206901EE24D7FCE094FE2C6C0D7D1DE1
:105470008E1D9F1D22E030E040E050E00E94223F60
:1054800020933A2030933B20709228028092200291
:1054900090920402A092010260E080913C209091E1
:1054A0003D200E94031280E48093452582E0809392
:1054B000442560E080913A2090913B2019C05F9B89
:1054C0001AC080916A2B6091462BA0E88A9FC00188
:1054D00011240E94031280E480934525F092442514
:1054E0008091742E6091472BB0E88B9FC0011124EE
:1054F0000E94031285C0F8941092000810920408CC
:105500002CE02093090882E19AE780932608909383
:1055100027081092000A2093090A80E18093010A6B
:105520009CE39093030A9DE09093000A1092400838
:1055300020934908809341088CE28093430887E0D8
:1055400080930008809120088823E1F38AE080930B
:1055500040087894E0B124E0E29FF0011124E7557F
:10556000FE4EC590D590E590F490CD2CDE2CEF2C1E
:10557000FF24A0916B2BB0E0A70196010E945D3F34
:105580009B01AC0162E080E00E942C11A091752E7D
:10559000B0E0A70196010E945D3F9B01AC0162E073
:1055A00080E40E942C118BE080933F2082EF93E0F7
:1055B00020910C0820FD0CC0AFE3BFE11197F1F77B
:1055C00000C0000058991BC00197009789F717C0C9
:1055D0008091380A9091390AA0E0B0E0AC013327FD
:1055E00022278091780890917908619A280F391FB5
:1055F000411D511D65E088E00E942C1161985A9A66
:105600006298659B35C065988091282085FF16C0FB
:1056100010920804109209048DB180936F2E10929D
:105620002E2010922F2082E093E880932A209093DE
:105630002B20809128208D7980932820679B18C08B
:1056400080B18B30A8F0EDB1F0E0E259F44D8081EB
:105650000E947512EDB1F0E0E259F34D80810E9495
:105660007512EDB1F0E0E259F24D80810E947512A1
:1056700080913F20882309F44CC1C090462BA09014
:10568000472B70B0F8B043980E9816988EE69BE2C0
:105690000E94481E80936B2B8EE69CE20E94481E5F
:1056A0008093752EF8B888B1803238F45F9B03C0C0
:1056B00073E0872E04C05E99FBCF65E0862E3AE04A
:1056C000F32E9924939440E4E42E50E8D52E809153
:1056D000462B881610F48092462B8091472B881613
:1056E00010F48092472B80B18B3008F0F0B8809195
:1056F0003F2090E08C30910508F0F6C0FC01EC5C96
:10570000FE4F0C94413F88B1803208F476C02D984A
:105710002E982F9A089A109A20916A2B203108F41B
:1057200008988091742E803108F41098089904C06C
:10573000109902C0089A109AE092482BE0E8F0E035
:10574000E093502BF093512B26959091692B290FC4
:1057500086959091732E890F089B11C090916B2BA9
:10576000923068F03091752E931748F02A9A109273
:10577000522B2093532B0C9B13C0922F0EC0109BC7
:105780000FC09091752E923058F02A9A9092522B19
:105790008093532B149B04C0982F90959093532B78
:1057A000459B2BC030E035952795319521953109E2
:1057B000322F2093572B90E0959587959195819561
:1057C0009109982F282F8093582B089B14C0109B69
:1057D00012C0303A24F030523093572B02C0D0928E
:1057E000572B203E24F4905E9093582B02C01092C9
:1057F000582B0E94F21D0E94F21D88B1803220F4C5
:105800005E9902C05F9B70C090916B2B8091752E4A
:10581000891708F4892F982F92959F7080B1981757
:1058200008F061C080B1891B0FC080916B2B8D3750
:1058300028F48091752E8D3708F456C080B18230DF
:1058400008F452C080B1815080B94EC080916B2B5A
:10585000823308F049C08091752E823308F044C02D
:1058600080B18A3008F040C080B18F5FEDCF809169
:10587000722E8C3BC8F58091732E8A34A8F18091EA
:10588000472B881588F58F5F8093472B2DC080911B
:10589000722E8A3F20F48091732E823128F58091F8
:1058A000472B882309F18150EFCF8091682B8C3BE7
:1058B000D8F48091692B8A34B8F08091462B8815F2
:1058C00098F48F5F0DC08091682B8A3F20F48091FF
:1058D000692B823148F48091462B882329F081502E
:1058E0008093462B01C090B88091462BC81207C008
:1058F0008091472BA81203C080B1781611F05A9AF4
:1059000008C080913F20882321F0815080933F2060
:10591000DECE7C9B0EC7F090522B7C98789B10C0FB
:105920008EB1833119F40E94C21B04C08EB1843041
:1059300009F45B9AEEB1F0E0E252F44FE491EEB973
:105940008EB1853340F18EB18C3328F57B9B23C01B
:10595000EEB1F0E0EE0FFF1FE45FF54FA591B491BB
:1059600020913E2081E0820F80933E208EB190E016
:10597000C59735E0389FF001399FF00D1124E20FF3
:10598000F11DEC57F54FE491EC9380913E2085306A
:1059900010F010923E208EB190E08234910508F014
:1059A000B0C6FC01E05CFE4F0C94413FF8947B9B39
:1059B0000BC0299B03C01DB85C9806C08BB190E159
:1059C00089278BB95C9958987A9B06C0799B04C04B
:1059D00080E48093482B3CC07A9B1DC05C991BC01F
:1059E00080B1853118F480B18F5F01C085E180B945
:1059F00080E090E8E82FF0E0E259F44D9083DF0179
:105A0000B3959C93FE5F10828F5FA1F7639A1DB8D8
:105A10001092060A5D98799B1BC05C9919C080B1F1
:105A2000882319F080B1815080B980E090E8E82F98
:105A3000F0E0E259F44D9083DF01B3959C93FE5F53
:105A400010828F5FA1F7639A1DB81092060A5D98C5
:105A5000789457C6639A7B9B04C081B191E08927F3
:105A600081B97A9903C0799918C04BC68091462BA9
:105A70008823C9F381508093462BF12CCF2CD12C55
:105A800096012259344D6901D9018C910E94AD1BB8
:105A9000F6018083F39491F7E6CF8091462B863010
:105AA00008F02FC68F5F8093462BF12CCF2CD12C82
:105AB00096012259344D6901D9018C910E94B71B7E
:105AC000F6018083F39491F71CC6639A7B9B04C014
:105AD00082B191E0892782B97A9903C0799918C077
