:100000000C94DD080C94FA080C9467180C940919E8
:100010000C94FA080C94FA080C94FA080C94FA0858
:100020000C94E43E0C94FA080C94B31A0C94881ABD
:100030000C94FA080C94FA080C940D230C94E8190B
:100040000C94FA080C94FA080C94FA080C94FA0828
:100050000C9456190C94FA080C94FA080C94FA08AB
:100060000C94FA080C94FA080C94FA080C94FA0808
:100070000C94FA080C94FA080C94FA080C94FA08F8
:100080000C94FA080C94FA080C94FA080C94FA08E8
:100090000C94FA080C94FA080C94FA080C94FA08D8
:1000A0000C94FA080C94FA080C94FA080C94FA08C8
:1000B0000C94FA080C94FA080C94FA080C94D520C5
:1000C0000C94FA080C94FA080C94FA080C94FA08A8
:1000D0000C94FA080C94FA080C94FA080C94FA0898
:1000E0000C94FA080C94FA080C9435120C94DC1356
:1000F0000C94FA080C94FA080C94FA080C94FA0878
:100100000C94FA080C94FA080C94EE1A0C94FA0861
:100110000C94FA080C94FA080C94FA080C94FA0857
:100120000C94FA080C94FA080C94FA080C94FA0847
:100130000C94FA080C94FA080C94D71A0C94FA0848
:100140000C94FA080C94FA080C94FA080C94FA0827
:100150000C94FA080C94FA080C94FA080C94FA0817
:100160000C94FA080C94FA080C94FA080C94FA0807
:100170000C94FA080C94FA080C94FA080C94FA08F7
:100180000C94FA080C94FA080C94FA080C94FA08E7
:100190000C94FA080C94FA080C94FA080C94FA08D7
:1001A0000C94FA080C94FA080C94FA080C94FA08C7
:1001B0000C94FA080C94FA080C94FA080C94FA08B7
:1001C0000C94FA080C94FA080C94FA080C94FA08A7
:1001D0000C94FA080C94FA080C94FA080C94FA0897
:1001E0000C94FA080C94FA080C94FA080C94FA0887
:1001F0000C94FA080C94963C0C94C33CFA2B8C2C6F
:10020000AC2CCB2CDA2C8C2CAC2CE82C4B2D9F2D31
:10021000DA2D152E242E2F2E4C2E6C2E882EA22E4B
:10022000BB2ECF2EE02EF02E002F142F212F2E2F9D
:10023000682F792F862F932FA22FAF2FC12FDC2F5E
:10024000E92F05304C30643079308D30A730C13023
:10025000DB30EC3001310C311E3130315131723133
:100260007F319A31B731D931EA31253244326332A4
:100270007B329332B032C632D832EC320033143390
:100280002D3346335D3374338A339F33B43328348C
:100290002E3434343A344834583466347434863422
:1002A0009534A934BC34C834D4340E360E36E03418
:1002B000F1340E360E36FD340E360F351D350E3642
:1002C0002B3539354735573565357335863599358D
:1002D000AC350E36B835CA35D835DE35F0350E3684
:1002E0000236733605380538053889369436C636F1
:1002F000FC3649378A379F37AB37B237B937BE3705
:10030000C237CB37DD37EC37F03C003E043E003ED1
:10031000043EF73C0F3D043E293D303D8B959FA99F
:10032000B2BBC3CBD3DAE1E8EEF4FA00050B10144C
:10033000191D2125292D3134373A3D404345484A7E
:100340004C4F51535557585A5C5D5F60616364650B
:10035000666768696A6B6C6D6E6F6F7071717273CE
:100360007374747575767676777778787879797925
:100370007A7A7A7A7B7B7B7B7B7C7C7C7C7C7C7DC9
:100380007D7D7D7D7D7D7E7E7E7E7E7E7E7E7E7E93
:100390007E7E7F7F7F7F7F7F7F7F7F7F000000006B
:1003A0000000000000000000010101010102020242
:1003B0000303030404040505060607070809090AE0
:1003C0000B0C0C0D0E0F1011121314151617181913
:1003D0001A1C1D1E202122242527282A2B2D2F30D0
:1003E00032343537393B3C3E4042434547494B4D1B
:1003F0004E5052545657595B5C5E60616365666847
:10040000696B6C6E6F7071737475767778797A7BBF
:100410007B7C7D7D7E7E7F7F7F7F7F7F00000000F5
:1004200000000000010101020203030404050606A6
:100430000708090A0A0B0C0D0E0F101112141516DD
:1004400017181A1B1C1D1F202223242627292A2C9B
:100450002D2F3032333536383A3B3D3E404143450F
:100460004648494B4C4E4F5153545657585A5B5D72
:100470005E5F616264656667696A6B6C6D6E6F7002
:10048000717273747576777878797A7A7B7B7C7CF5
:100490007D7D7E7E7E7F7F7F7F7F7F7F090909094B
:1004A0000A0A0A0A0A0B0B0B0C0C0D0D0E0E0F108C
:1004B00010111213131415161718191A1B1C1D1ED0
:1004C0001F20212324252627292A2B2D2E2F3132A8
:1004D00034353638393B3C3E3F4042434546484937
:1004E0004B4C4D4F505253555657595A5B5D5E5FBA
:1004F00061626364666768696A6B6C6E6F70717263
:10050000727374757677777879797A7B7B7C7C7D6A
:100510007D7E7E7E7E7F7F7F7F7F7F7F7EFF81915E
:1005200091F1600060F49494FCF800FFFF8484FC77
:10053000780078FC8484FC7800047FFF848400FCCD
:10054000FC080C0C0078FC8484FC7800F8FC0404A3
:10055000FCF800FDFD0078FC8484840098BCB4F4B1
:1005600064080878404078080840407808087840D7
:10057000407E42424242427E1806067F7F7F7F7F56
:100580007F7FFFFF7F0AFCFFFFFFFFFF4002FFFFAF
:100590007FFF05FFFFFFFFBE000101402060423EDC
:1005A000423E0080000080A06018A0E0000001FF33
:1005B0001080018000E0AB000006010108FF800010
:1005C000C129001C4046323A200046313A200053EF
:1005D0001C1D1E00561C1D1E00205600201A1B56F6
:1005E000004B434E54004B485A001F563D002031EB
:1005F000161F543D00010000000A000000640000C6
:1006000000E803000010270000A086010040420F10
:100610000080969800465720322E333500000000A7
:10062000FE010001FF01FE01FD02FE0002010001CA
:1006300001010201030202FF000000FE010001FFB0
:1006400001FE01FD02FEFF000000020100010101A8
:100650000201030202FFF8FEFF07030307FFFEF893
:100660000F3F7F706060707F3F0F0010181CFEFF0F
:10067000FF000000000000007F7F7F0000000C0EE4
:100680000F070383C7FFFE7C70787C7E6F67636112
:1006900060600C0E0FC7C3E7FFFEBC00183878700F
:1006A0006060717F3F1F0080C0F0781EFFFFFF0079
:1006B0000E0F0F0D0C0C7F7F7F0CF0FFFF7F63632D
:1006C000E3E3C3830C3C7C706060707F3F1FF8FEE7
:1006D000FFC7C3C3C7CF8E0C0F3F7F716060717FB0
:1006E0003F1F03030383E3FB7F1F070300007C7F9F
:1006F0007F03000000001C3EFFE7C3C3E7FF3E1C72
:100700001E3F7F736161737F3F1E7CFEFFC7838343
:10071000C7FFFEF8183879716161717F3F0F300CA7
:1007200002382038283C08050F0400003818083823
:10073000300C02283E00182018382638000000002F
:100740002E000600063E143E143F0A120824142A06
:10075000340006001C2200221C001C1C1C081C0863
:100760004020000808080020001008041C221C2457
:100770003E20322A24222A140E083E2E2A123E2A15
:100780003A023A063E2A3E2E2A3E00140020140069
:10079000081422141414221408022A041C262E3CC5
:1007A0000A3C3E2A141C22223E221C3E2A223E0AD9
:1007B000021C221A3E083E223E2210201E3E08360F
:1007C0003E20203E043E3E023E3E223E3E0A041CA7
:1007D000223C3E0A34242A12023E023E203E1E20C3
:1007E0001E3E103E3608360E300E322A26003E22BD
:1007F000040810223E000402044040400204003479
:100800002C383E241818242418243E18342C083C74
:100810000A58543C3E0438003A00403A003E18243E
:10082000001E203C0C3C3C04381824187C2418186A
:10083000247C380404283C14043E243C203C1C2026
:100840001C3C303C2418240C503C343C2C083622F0
:100850000036002236080406023E3E3E424D3E046B
:100860000000000000003E000000280000008000A2
:100870000000400000000100010000000000000432
:100880000000000000000000000000000000000068
:10089000000000000000FFFFFF0053504920534EAE
:1008A00049464645520A424954343A2F53530A4264
:1008B0004954353A4D4F53490A424954363A4D4905
:1008C000534F0A424954373A53434B00554152540F
:1008D00020534E49464645520A424954323A5258EC
:1008E00020424954333A54580049324320534E4928
:1008F000464645520A424954303A534441204249FF
:1009000054313A53434C0029681434091A040D82B7
:100910000640032A021501FDEDDCCCBCACA8A40303
:1009200001FDF5E5C56E17474F00444953434F4E4F
:100930004E454354204348312C434832004F4646ED
:1009400053455420202020202020534C4545503A28
:10095000202020202020524553544F52450058203B
:1009600000485A204D41580053544F500053544FA3
:1009700050004B485A00485A00312053544F5042BF
:10098000495400322053544F50424954004E4F2096
:10099000504152495459004556454E205041524904
:1009A0005459004F444420504152495459004D4F2E
:1009B00056452D20202020202020204D4F56452B0D
:1009C00000534156494E472E2E2E005859204D4F68
:1009D000444500682B692B6C2B6B2B5A2B622B63C5
:1009E0002B011020304000E0C0A080C0E00020407B
:1009F000014080C0FF004080C0FFFCE0C0A082FC3E
:100A0000E0C0A0823132303020200032343030203B
:100A1000200034383030202000393630302020009B
:100A2000313932303020003338343030200035371F
:100A30003630302000313135323030002020314D19
:100A4000003530304B003235304B003132354B0001
:100A50002036324B002033314B002031364B002002
:100A600020384B002020344B00312E364B002038EC
:100A70003030002038303000203332300020313622
:100A80003000202038300020203332002020313642
:100A900000202020380020332E320020312E360056
:100AA00020302E3800302E3332002020381700201E
:100AB0003136170020333217002036341700313218
:100AC0003817003235361700353030170020311A0C
:100AD0001B0020321A1B0020351A1B0031301A1B54
:100AE0000032301A1B0035301A1B0020302E310026
:100AF00020302E320020302E3500202020310020E2
:100B000020203200202020350020203130002020FD
:100B10003230002020353000352E313200322E3573
:100B20003600312E323800302E363400302E33323B
:100B300000302E31360038301A1B000F0C0D0E001D
:100B4000101B1210001115000022101113110029A2
:100B5000140016110019001D1E00202100000000C5
:100B600009040000001604191408080816160F16C8
:100B7000292929190C0D06060606060600000102A1
:100B8000030405060708090A0A0B0C0D0E0F1011C5
:100B90002122231F20121314151617151618191ABF
:100BA0001B1C1D1D1E24204348204F4E20202000CA
:100BB0002020202020204741494E2D2020202000A9
:100BC0002020204741494E2B004C4F474943204F9E
:100BD0004E2000202020202053454C454354202007
:100BE00020002050524F544F434F4C00204E4F5244
:100BF0004D414C202020002020202053494E474CBE
:100C000045202020002043495243554C41520020AA
:100C10004E4F524D414C202020002020202053498F
:100C20004E474C4520202000202020204155544F85
:100C300020002056435552534F5220002020204878
:100C4000435552204348312020002020484355522C
:100C500020434832002048414D4D494E4720202036
:100C6000002020202048414E4E20202000202042FD
:100C70004C41434B4D414E00202043483120202021
:100C80002000202020202020204348322020202027
:100C9000200020204C4F4749432000204752494420
:100CA000202020002020464C495020444953504CDD
:100CB000415920002020494E564552542000202002
:100CC0005644432020202020200020202056205061
:100CD0002D50202000204652455155454E43592065
:100CE00000202053494E4520202020002020202095
:100CF0005351554152452020002020545249414E25
:100D0000474C4500504F534954494F4E2020200036
:100D1000202020494E5645525420202000202020DB
:100D2000204D4154482000504F534954494F4E20C4
:100D3000202000202020494E5645525420200020DB
:100D40002020544849434B302000204348312000A4
:100D50002020202020202020202043483220002056
:100D6000202020202020204C4F4749430054524946
:100D700047545950452020002020205452494753C1
:100D8000524320202000204D4F52455452494700E5
:100D90002053434F50452020202000202020204D6C
:100DA0004554455220202000202020202020464667
:100DB0005420002049512046465420202000202065
:100DC0004646542057494E444F57202000202020AB
:100DD000204C4F472000435552534F525320002080
:100DE00020202020444953504C41592020002020ED
:100DF0002020202020415747005741564520545974
:100E000050452020002020205357454550202020C9
:100E100000204652455155454E4359002057494EF2
:100E2000444F5720202000202020204544474520C3
:100E30002020200020202020534C4F50452000200F
:100E4000204155544F2020202020002020205452A3
:100E500041434B20202000205245464552454E43F9
:100E600045002020414C4C20202020200020202024
:100E7000204249545F3020202020002020202042A2
:100E800049545F3100204249545F32202020200025
:100E9000202020204249545F3320202020002020A1
:100EA00020204249545F3400204249545F352020BD
:100EB000202000202020204249545F36202020207E
:100EC00000202020204249545F37002045585420FC
:100ED000545249472000202020204249545F3020AE
:100EE00020202000202020204249545F3100205043
:100EF0004152414C4C454C2020002020205345526B
:100F000049414C20200020202020202050554C4CCE
:100F100000204932432020202020200020202020B3
:100F200020554152542020202000202020202053F2
:100F300050492000204E4F2050554C4C202000207E
:100F4000202050554C4C2055502020002050554C0E
:100F50004C20444F574E002050455253495354455E
:100F60004E5420200020204C494E452020200020B7
:100F70002020202053484F5720002043504F4C2022
:100F800020202020002020202043504841202020E5
:100F9000200020494E5645525420535300205355AB
:100FA000425452414354200020204D554C54495046
:100FB0004C592020002020415645524147452000F1
:100FC000414D504C4954554445200020204455542F
:100FD00059204359434C4520002020204F4646537A
:100FE00045540020524F4C4C20202020200020202F
:100FF00020454C415354494320200020205859207B
:101000004D4F44452000545249474D4F4445202000
:10101000002020504F535454524947200020202094
:1010200054524947484F4C440020455850202020F6
:1010300020202000202020204E4F495345202020F2
:1010400000202020435553544F4D2000205350453D
:1010500045442020202000202020204D4F444520C2
:10106000202020002020202052414E4745200053C0
:101070005720465245512020202000202053572041
:10108000414D5020202000202053572044555459D2
:1010900020002020444F574E2020202000202050A8
:1010A000494E47504F4E47202020002020414343C7
:1010B000454C000000C800900120034006800C0051
:1010C00019D430190032007D00FA00F401E204C4A2
:1010D000098813D430190032007D00FA00F401E2CF
:1010E0000400C2EB0B00E1F50580F0FA0240787DC8
:1010F0000120BCBE00105E5F0000D4300000105E16
:101100005F0008AF2F00D0121300688909006889BA
:10111000090090D0030048E8010024F40000A86111
:101120000000D43000006A180000C4090000E20486
:10113000000071020000FA00000100020004000833
:1011400000140028005000C80090012003D007F9C7
:1011500000F301E703C30987130E0358005300632C
:10116000006F007000650000001803470061006216
:10117000006F00740072006F006E006900630073FE
:10118000000000040309040902200001010080FAA4
:101190000904000002FF0000000705810240000072
:1011A0000705010240000012011001FF000040D0BD
:1011B00016F9060001010200010011241FBECFEF45
:1011C000CDBFDFE2DEBF10E2A0E0B0E2E8ECFFE777
:1011D00002C005900D92AE30B107D9F72FE2AEE014
:1011E000B0E201C01D92A430B207E1F70E94521C88
:1011F0000C94E23F0C9400008058860F1BF48FE79C
:1012000067FD80E880580895E9E0F9E0E80FF11DF6
:10121000099408C010C018C020C028C030C038C011
:1012200040C048C058990895D099FCCF5899089566
:10123000D09BFCCFC7C058990895D199FCCF58993D
:101240000895D19BFCCFBEC058990895D299FCCF88
:1012500058990895D29BFCCFB5C058990895D39959
:10126000FCCF58990895D39BFCCFACC058990895F2
:10127000D499FCCF58990895D49BFCCFA3C058991A
:101280000895D599FCCF58990895D59BFCCF9AC065
:1012900058990895D699FCCF58990895D69BFCCFBC
:1012A00091C058990895D799FCCF58990895D79B24
:1012B000FCCF88C058990895F599FCCF58990895A6
:1012C000F59BFCCF7FC0E8E6F9E0E80FF11D09943B
:1012D00008C010C018C020C028C030C038C040C0EE
:1012E00048C058990895D09BFCCF58990895D0993B
:1012F000FCCF68C058990895D19BFCCF58990895A8
:10130000D199FCCF5FC058990895D29BFCCF5899D2
:101310000895D299FCCF56C058990895D39BFCCF1D
:1013200058990895D399FCCF4DC058990895D49BEE
:10133000FCCF58990895D499FCCF44C0589908958A
:10134000D59BFCCF58990895D599FCCF3BC05899AF
:101350000895D69BFCCF58990895D699FCCF32C0FA
:1013600058990895D79BFCCF58990895D799FCCFE9
:1013700029C058990895F59BFCCF58990895F5997F
:10138000FCCF20C083580090240280151CF4589B89
:10139000FACF08958A5F0090240280159CF0589B34
:1013A000FACF08958D570090240280151CF0589BA9
:1013B000FACF089586500090240280151CF4589BA3
:1013C000FACF089589E0809340085D9A80B18B3010
:1013D00058F484E100904C0800FEFCCF1092000A03
:1013E0008093010258995D980895835800902C02CB
:1013F00080151CF4589BFACF08958A5F00902C0248
:10140000801504F3589BFACF08958D5700902C0255
:1014100080151CF0589BFACF0895865000902C023E
:10142000801584F6589BFACF08957F93009024028C
:10143000709124020716072E24F0589BF9CF7F9154
:10144000089570912402071A8015072ED4F4589B32
:10145000F8CF7F9108957F93009024027091240229
:101460007015072E24F0589BF9CF7F910895709145
:101470002402071A0816072E24F4589BF8CF7F91F0
:1014800008957F919FCF7F9300902C0270912C0242
:101490000716072E24F0589BF9CF7F91089570917D
:1014A0002C02071A8015072E64F7589BF8CF7F91FE
:1014B00008957F9300902C0270912C027015072ED6
:1014C00024F0589BF9CF7F91089570912C02071A50
:1014D0000816072EB4F6589BF8CF7F9108958058D0
:1014E00060580090240280156CF206165CF2589B3E
:1014F000F8CF08958058605800902C02801514F29F
:10150000061604F2589BF8CF0895FF7F0000F57F80
:101510002403D87F4806A67F6A09617F8C0C097F67
:10152000AB0F9C7EC8121D7EE215897DF918E37C05
:101530000B1C297C1A1F5C7B23227C7A2825897945
:10154000262884781F2B6B77112E4176FB3004758B
:10155000DF33B573BA3654728C39E270563C5E6F25
:10156000173FC96DCE41236C7A446D6A1C47A6684B
:10157000B449CF663F4CE864BF4EF1623351EB6033
:101580009B53D75EF555B35C4258825A825A4258F3
:10159000B35CF555D75E9B53EB603351F162BF4EA0
:1015A000E8643F4CCF66B449A6681C476D6A7A442C
:1015B000236CCE41C96D173F5E6F563CE2708C398B
:1015C0005472BA36B573DF330475FB304176112E91
:1015D0006B771F2B84782628897928257C7A23220B
:1015E0005C7B1A1F297C0B1CE37CF918897DE215B2
:1015F0001D7EC8129C7EAB0F097F8C0C617F6A092F
:10160000A67F4806D87F2403F57F0000FF7FDCFC1F
:10161000F57FB8F9D87F96F6A67F74F3617F55F011
:10162000097F38ED9C7E1EEA1D7E07E7897DF5E384
:10163000E37CE6E0297CDDDD5C7BD8DA7C7ADAD7F6
:101640008979E1D48478EFD16B7705CF417621CCCD
:10165000047546C9B57374C65472AAC3E270E9C072
:101660005E6F32BEC96D86BB236CE4B86D6A4CB642
:10167000A668C1B3CF6641B1E864CDAEF16265AC96
:10168000EB600BAAD75EBEA7B35C7EA5825A4DA3C2
:10169000425829A1F555159F9B530F9D3351189B17
:1016A000BF4E31993F4C5A97B44993951C47DD93EF
:1016B0007A443792CE41A290173F1E8F563CAC8D94
:1016C0008C394B8CBA36FC8ADF33BF89FB30958866
:1016D000112E7C871F2B7786262884852825A484B5
:1016E0002322D7831A1F1D830B1C7782F918E381ED
:1016F000E2156481C812F780AB0F9F808C0C5A8072
:101700006A09288048060B802403008040C020A07E
:1017100060E0109050D030B070F0088848C828A819
:1017200068E8189858D838B878F8048444C424A4D1
:1017300064E4149454D434B474F40C8C4CCC2CACB9
:101740006CEC1C9C5CDC3CBC7CFC028242C222A295
:1017500062E2129252D232B272F20A8A4ACA2AAAB9
:101760006AEA1A9A5ADA3ABA7AFA068646C626A671
:1017700066E6169656D636B676F60E8E4ECE2EAE59
:101780006EEE1E9E5EDE3EBE7EFE018141C121A147
:1017900061E1119151D131B171F1098949C929A989
:1017A00069E9199959D939B979F9058545C525A541
:1017B00065E5159555D535B575F50D8D4DCD2DAD29
:1017C0006DED1D9D5DDD3DBD7DFD038343C323A305
:1017D00063E3139353D333B373F30B8B4BCB2BAB29
:1017E0006BEB1B9B5BDB3BBB7BFB078747C727A7E1
:1017F00067E7179757D737B777F70F8F4FCF2FAFC9
:101800006FEF1F9F5FDF3FBF7FFF77278894881FA1
:10181000771F881F771F672F71FD6250EDE0F5E19C
:10182000E80FF61F849171FD819508953F922F92E4
:101830005F924F927F926F929F928F92BF92AF92E0
:10184000DF92CF92FF92EF921F930F93DF93CF938C
:10185000FC0181E090E0A0E8B0E004E0809F60013E
:10186000909FD00C7C019F938F93EF01A09FC00DA0
:10187000D11DB09FD00DFF93EF93BB24AA249927CD
:101880000081118115950795688179817595679516
:10189000A801061B170B460F571F41935193208138
:1018A0003181359527956A817B8175956795A90169
:1018B000261B370B460F571F419351930F01EAE048
:1018C000F5E1EA0DFB1D4591559165917591F0018A
:1018D000950320010C031001491E9C03590A300C8A
:1018E000411C591ED803590A300C411C591EB7031C
:1018F00040012E033001891EBE03990A700C811C21
:10190000991EFA03990A700C811C991E260C371C2B
:10191000481C591C49925992B50320012C0310010F
:10192000491EBC03590A300C411C591EDA03590ADE
:10193000300C411C591E970340010E033001891ED3
:101940009E03990A700C811C991EF803990A700C69
:10195000811C991E2618370848085908499259923F
:10196000AC0CBD1CB1FE8CCF04E0A09FC00DD11DFE
:10197000E00DF11DB09FD00DF00D81E0E81AF90ADD
:1019800009F07BCFEF91FF918F919F91880F991F65
:10199000B695A795109609F060CFCF91DF910F9182
:1019A0001F91EF90FF90CF90DF90AF90BF908F90FE
:1019B0009F906F907F904F905F902F903F900895F1
:1019C0000002030405060708090A0B0C0D0E0E0F92
:1019D0003F922F925F924F927F926F929F928F923F
:1019E000BF92AF921F93DF93CF935C01EB0160E452
:1019F00070E0EAE0F7E1992710E844991127A591F2
:101A0000BB27AA0FBB1FAA0FBB1FAA0DBB1D2D9181
:101A10003D914D915D91B30320012A031001491EB0
:101A2000BA03590A300C411C591EBA03590A300C2A
:101A3000411C591ED50340014C033001891EDC03B3
:101A4000990A700C811C991EDC03990A700C811C88
:101A5000991E260C371C481C591C662477248824A0
:101A6000992421E030E04427552770E1220C331CF3
:101A7000441C551C661C771C881C991C220C331CAA
:101A8000441C551C661C771C881C991C2AF4620E89
:101A9000731E841E951E04C0621A730A840A950A76
:101AA000220F331F441F287F256097FC22507A9510
:101AB000E9F646953795279546953795279511244C
:101AC000439B1FC06217730710F020E020C0261B45
:101AD000370BFF93EF93E0ECF9E140EF37FD04C0E3
:101AE000221F331F4051FACF330F36953695369566
:101AF0003695E30FF11D5491450F342FEF91FF916F
:101B000006C0220F331F220F331F08F43FEF399313
:101B10001A9509F074CFCF91DF911F91AF90BF90CC
:101B20008F909F906F907F904F905F902F903F90FD
:101B3000089580916D2B90916E2BA0916F2BB09199
:101B4000702B26E034E0239FF0011124EB50FA4F74
:101B5000459155916591749184179507A607B7072C
:101B600010F4215078F734E0239FF0011124E35161
:101B7000FA4F4591559165917491619B05C0841B05
:101B8000950BA60BB70B14C0629B05C0840F951F65
:101B9000A61FB71F0DC0223009F427E084E0289F5C
:101BA000F0011124EF50FA4F85919591A591B491D0
:101BB00080936D2B90936E2BA0936F2BB093702B13
:101BC00008950F931F93CF93DF938091692B18167D
:101BD00014F41092692B80916B2B811103C081E06A
:101BE00080936B2B80916D2B90916E2BA0916F2B1E
:101BF000B091702B84369105A105B10528F484E6D7
:101C000090E0A0E0B0E009C081329C4BAE4BB10542
:101C100060F080E29CEBAEEBB0E080936D2B909394
:101C20006E2BA0936F2BB093702B40916D2B509126
:101C30006E2B60916F2B7091702B36E020E480E06A
:101C40009AE6A8E1B0E084179507A607B70710F554
:101C50002093472080916A2B823009F44BC058F4BE
:101C6000882351F1813009F078C0CDE4D5E20C2F02
:101C700010E41C1B37C08430A9F0C8F0853009F08F
:101C80006CC040E051E060E070E08DE495E20E94BD
:101C9000863F63C0B695A795979587952695315051
:101CA00091F6D6CFADE4B5E280E090E042C0EDE43D
:101CB000F5E280E09FE72DC0809160099091610975
:101CC0002DE435E2F90145E552E6BC01649FC0010F
:101CD000659F900D749F900D1124019691932E1382
:101CE000F4CF3BC08C2F810F0E94050C89930C13FD
:101CF000F9CF33C08DE495E2FC01382F2E2F281B3D
:101D000027FF02C02FE701C021E821933E13F6CF41
:101D100024C0803839F0282F220F392F321B3193FD
:101D20008F5FF7CF982F990F9F5791938F5FD1F7C0
:101D300014C0282F8038910541F0FC01E45EFC4F6F
:101D4000E491E195ED930196F4CFE22FF0E0E456B3
:101D5000FD4FE491ED932F5FC1F720916B2B30E0A5
:101D600080E091E0821B930B880F991FD901AA0F85
:101D7000BB1F6DE475E2FB0140E050E0162F252FFC
:101D800030E0235B3A4DE901D3950081088301914E
:101D90005F3F81F021962081332727FD3095200F6A
:101DA000311D07FD3A9537FF02C02F5F3F4F359534
:101DB00027952883480F591F2E2F3E2F361B30386A
:101DC00009F4CD011213DBCFC0914720AC2FB0E056
:101DD00020E13EE54FE550E00E946A3F20916D2BE7
:101DE00030916E2B40916F2B5091702B0E940D3FC4
:101DF0002150310986E08093A200C23010F081E0CA
:101E000001C082E0809340092093760930937709DE
:101E10001C2F169509F411E0D0E0C0E02091692B49
:101E2000ED2FF0E0E35BF94D3081A303812D112408
:101E300060916C2B0E94FD08EC2FF0E0E85BFF4DF9
:101E40008083CF5FD10FC111E9CF599887E080938C
:101E5000A200DF91CF911F910F910895EBE4F1E281
:101E6000119285E2EB34F807D9F710924C251092C5
:101E70004B250895F8943C9B05C088EC0E94413E98
:101E800081EA04C080EC0E94413E80EA0E94413E0B
:101E90003B9B02C087EA01C086EA0E94413E7894DB
:101EA000089590E1699FF0011124E078E80FF11D99
:101EB000E85BFE4D677081E090E0062E01C0880F60
:101EC0000A94EAF79381982B938308950F931F93B5
:101ED000CF93DF93182F062FEA019E01FE01949104
:101EE00022962F5F3F4FF90164919F3F31F0600FC1
:101EF000892F810F0E94510FF0CFDF91CF911F9159
:101F00000F910895E0914C2591E09E0F90934C2500
:101F100090914B25F0E020E8929FE00DF11D1124F7
:101F2000E85BFE4D9381982B93830895CF92DF92C7
:101F3000EF92FF920F931F93CF93DF93182F062FEB
:101F4000C42FD22FC81BD61BD7FF04C0D195EE24B7
:101F5000EA9402C0EE24E394C7FF04C0C195DD24D7
:101F6000DA9402C0DD24D394602F812F0E94510F98
:101F7000CD1788F0FC2EF694C12CCC16E1F0FD0EA6
:101F8000FC1610F0FC1A0E0D1D0D602F812F0E9403
:101F9000510FC394F2CFFD2EF694C12CFC0EFD160A
:101FA00010F0FD1A1D0D0E0D602F812F0E94510F94
:101FB000C394CD12F3CFDF91CF911F910F91FF907A
:101FC000EF90DF90CF900895EF92FF921F93CF9301
:101FD000DF93182F8A3081F1282F30E02651310904
:101FE000F901EE0FFF1FE20FF31FE25EF84F7F01D2
:101FF00083E0E80EF11CEF0121968491619B02C001
:10200000806880950E94820FCE15DF0511F0FE01D9
:10201000F2CF1C3111F480E318C01D3149F488E37C
:102020000E94820F80914C258F5F80934C250FC0BA
:102030001A3111F488E009C080914C2587FD07C052
:10204000619902C080E001C08FE70E94820F8091F9
:102050004C2587FD02C01A3039F410924C2580912E
:102060004B258F5F80934B25DF91CF911F91FF9080
:10207000EF900895EF92FF920F931F93CF93DF930A
:102080008E3229F480E60E94820F80E60CC08D32E9
:1020900069F483E00E94820F83E00E94820F83E054
:1020A0000E94820F83E00E94820F39C0803221F4A7
:1020B00080914C258A5F36C094E1899FE00111240C
:1020C000CA5AD94F80914B25815080934B258E0160
:1020D000065F1F4FFE017F018FEFE81AF80A849117
:1020E0000E94820FE016F10611F0F701F4CF809103
:1020F0004B258F5F80934B2580914C258A50809390
:102100004C25649678019FEFE91AF90AF801849149
:102110000E94820FEC16FD0611F08701F3CF80912B
:102120004C258E5F80934C25DF91CF911F910F91AD
:10213000FF90EF900895CF93DF93FC018491EF011E
:102140002196882321F00E94E40FFE01F7CFDF9152
:10215000CF910895CF93C82F843638F08CE98C0F37
:10216000843628F0C85C82E304C080E302C0C82F34
:1021700081E30E94E40F80E3CA3018F08F5FCA50F9
:10218000FBCF0E94E40F80E38C0FCF910C94E40FFF
:10219000EF92FF920F931F93CF93DF93CDB7DEB7EC
:1021A0002C97CDBFDEBF8E010F5F1F4F98E0F80167
:1021B00011929A95E9F780934C2560934B2557FF30
:1021C00015C050954095309521953F4F4F4F5F4F2B
:1021D0008DE262990EC029873A874B875C870E94FF
:1021E000E40F29853A854B855C8514C080E2629BAB
:1021F00007C029873A874B875C870E943A10F1CF46
:1022000029873A874B875C870E94E40F5C854B8562
:102210003A852985619940C02036F3E43F07F9E902
:102220004F07FBE35F07DCF5211581EE380785EFEB
:10223000480785E0580754F0CA01B90120EA36E89A
:1022400041E050E00E942F3FF12C2EC0CA01B9019D
:102250002038E6E93E07E8E94E0751054CF020E159
:1022600037E240E050E00E942F3FFF24F3941CC06F
:10227000203432444F4051054CF028EE33E040E02A
:1022800050E00E942F3F72E0F72E0EC024E630E0AF
:1022900040E050E00E942F3F63E0F62E05C0F12C95
:1022A0002FE037E240E050E067E084E0689FF00113
:1022B0001124EB50FA4F85919591A591B491F801B5
:1022C000E60FF11D281739074A075B0740F07081B8
:1022D0007F5F7083281B390B4A0B5B0BF3CF615078
:1022E00020F7619B03C027E0E22E02C093E0E92EB5
:1022F0008E2D90E0F801E80FF91F629B09C08081E4
:102300000E943A10FE100DC08EE20E943A1009C0E1
:102310008081805D0E94E40FFE1003C08EE20E9467
:10232000E40FEA94EFEFEE12E3CF2C96CDBFDEBFC1
:10233000DF91CF911F910F91FF90EF900895E62FBD
:10234000F0E0EE0FFF1FE050F04E20813181DC0104
:102350000E94633F28E030E040E050E00E942F3FC1
:1023600060914B2580914C250C94C81080934C258E
:1023700060934B25CA010C949B109627092E02945A
:10238000202D2F702927692F6025660F607E262754
:10239000602D6927607F6695092E000C661F969553
:1023A000969596959F7196279827822F089588EA8B
:1023B00091E62091A10A27FD09C02AE62A95F1F7A6
:1023C00000C001970097A9F780E008958091A00AC6
:1023D0000895811105C090B19B3080F05D980EC0CA
:1023E000863060F0833251F0863241F094EF980FDE
:1023F000923020F098EE980F953008F4589A8E306D
:1024000070F410924D2B10924E2B10924F2B109275
:10241000502B5A9A8C3030F4E82FF0E008C0843208
:1024200008F0599A8C50E82FF0E0EF5AF44D608391
:102430000895E0913020909132209830E0F791E0BB
:102440009E0FF0E0E05DFF4D8383F8948091322091
:102450008F5F8093322083E18093A30A7894983031
:1024600008F090E09093302008951F920F920FB6DD
:102470000F9211248F929F92AF92BF92CF92DF92D0
:10248000EF92FF920F931F932F933F934F935F937E
:102490006F937F938F939F93AF93BF93EF93FF932C
:1024A000CF93DF931F92CDB7DEB71092080410923E
:1024B0000904EC988091A00A883609F483C050F58D
:1024C000833609F463C0C0F4813609F448C008F0CB
:1024D00053C0833409F052C181E00E94191281E097
:1024E0000E9419128EEF0E9419129CE5E92E98E0C5
:1024F000F92E10E090E0B2C0853609F457C008F418
:1025000052C0863609F45BC0873609F037C1589A45
:102510005C9834C1803709F471C058F48A3609F4E4
:1025200058C008F452C08D3609F028C10DE41BE2F2
:102530005BC0853709F464C028F4813709F01EC1F7
:10254000679A1CC1873709F471C0883709F016C132
:1025500087E40E94191208E410E2780173C008E1D0
:1025600016E0F80184910E9419120F5F1F4FF6E0E8
:102570000C311F07B1F702C10E94D711182F0E941A
:10258000D711682F812F0E94E911F8C00DE61BE2D8
:102590000E94D711F80181938F01FBE201371F07D9
:1025A000B9F7599AEBC00E94461AE8C040E051E0E2
:1025B00060E070E088E490E20E94A73FDFC0589A94
:1025C0005C9ADCC0589A5D9AD9C0589A0E94BB1D8B
:1025D000D5C00E94D71180935B2B0E94D7118093A6
:1025E0005C2B0E947C1FCAC0F80181918F010E9460
:1025F0001912FBE201351F07B9F7C0C06798BEC0CA
:1026000000E010E0F80181918F010E9419120C3056
:102610001105C1F701E51BE2F80181918F010E94CC
:102620001912FBE201371F07B9F7A8C010E0812F8C
:1026300090E0805090400E94923F0E9419121F5FCC
:10264000B1F79CC00E94D711F70181937F010E134F
:10265000F9CF599A84E50E94191290C0F7010491AC
:10266000602F812F0E94BD11182F802F99830E9407
:102670001912FFEFEF1AFF0A99812AE9E21628E002
:10268000F20661F78FE3F82E0EE3DD24D394AA243B
:10269000A394F0E1FF9E4001112420E882228F2DB7
:1026A0008770BA2C01C0BB0C8A95EAF7E12CF401C3
:1026B000E85BFE4D4F0180E0C12CCC0C282F2E0D85
:1026C000F401E20FF11D23812B2131E009F030E00C
:1026D000C32A8F5F883089F76C2D812F0E94BD112E
:1026E000182F8C2D99830E9419120F5F9981003841
:1026F000C1F4892F0E941912812F0E9419120E9481
:10270000D7118630D9F5D39481E00E9419128D2D0E
:102710000E9419128D2D80950E94191210E090E0F0
:1027200000E038E0E30E80E8E812C5CFFA94EFEF5E
:10273000FE12AFCF07FD0CC06AE1812F0E94BD11D0
:10274000182F8AE199830E9419120F5F9981F2CFA5
:10275000892F0E941912812F0E9419120E94D711ED
:10276000863061F484E00E9419120E94D7118531ED
:1027700029F484E00E9419120E94D7110F90DF9172
:10278000CF91FF91EF91BF91AF919F918F917F91E9
:102790006F915F914F913F912F911F910F91FF90FA
:1027A000EF90DF90CF90BF90AF909F908F900F9061
:1027B0000FBE0F901F9018951F920F920FB60F9299
:1027C00011248F939F93EF93FF938091322088235E
:1027D00099F0815080933220E091312081E08E0F7A
:1027E000F0E0E05DFF4D93819093A00A883008F0FF
:1027F00080E08093312003C080E18093A30AFF91A1
:10280000EF919F918F910F900FBE0F901F90189591
:102810009F92AF92BF92CF92DF92EF92FF920F936F
:102820001F93CF93DF93E090542BC091552B359994
:1028300002C0CFE7E12C2E2D332727FD3095DD2771
:10284000C7FDD095C21BD30BF3E0CC0FDD1FFA956B
:10285000E1F780B18B3020F0CC0FDD1FE22EEE0CC3
:10286000D090642BD694D694D694FF24E7FCF094B1
:10287000FE2CEE2408E010E060E8C62EA12C78E7DC
:10288000972E80B18B3040F42091532B30E0322FC3
:1028900022272E0D3F1D01C0970184B18C2109F123
:1028A0002C0F3D1F81E0E32FFF27E758F24D908169
:1028B000482F437031F4BB0CAA2031F0B394A12C03
:1028C00003C09C2109F0A3942C0F3D1F8F5F813220
:1028D00051F790924C25D0924B258B2D0E94221AB5
:1028E000D394C694015011090115110551F6DF91D9
:1028F000CF911F910F91FF90EF90DF90CF90BF90FD
:10290000AF909F9008958091100180648093100192
:10291000809120018064809320018091A10887FF2D
:1029200003C08091A008F9CF8091C20881118091E5
:10293000C30885E88093120180E892E08093140137
:10294000909315018DE495E280931C0190931D01F5
:102950008091652B823029F48BE48093130180EA07
:1029600006C0811109C08AE48093130183EC80932F
:10297000180188E080931901379B02C084E801C0E8
:1029800084EA8093100185E88093220180E892E038
:1029900080932401909325018DEC97E280932C0184
:1029A00090932D0187E59AE2809328019093290165
:1029B000379B02C084E801C084EA80932001089517
:1029C0002F923F924F925F926F927F928F929F923F
:1029D000AF92BF92CF92DF92EF92FF920F931F932D
:1029E000CF93DF930E942E0FADE48A2EA5E29A2E9C
:1029F000F40111922AE2EF34F207D9F710924E2A2D
:102A000010924F2A1092502A1092512A2C9902C0EB
:102A1000712C02C0FFE07F2E1092730081E0809342
:102A200002048091652B8130F9F489EE98E00E94D0
:102A30009B108DE499E28093532A9093542A8DE45D
:102A400095E28093552A9093562A80E88093572ADE
:102A500080915006887F82608093500683E0809347
:102A60004C068093490667C0823009F04BC08CEC5D
:102A700098E00E949B103AB13770832F90E0FC01E0
:102A8000E15EF64FE491E093A608FC01E95EF64FA3
:102A900084918093A7088AB1887190E0E3E09595CE
:102AA0008795EA95E1F7282F45E0480F4093522A91
:102AB000E32FF0E0559B06C0569B02C0206302C086
:102AC000282F2062579928602093A50880E18093E1
:102AD000A40881E080934008EE0FFF1FE95FF64FE6
:102AE000859194918093582A9093592A9695879529
:102AF00096958795809366089093670883E0809306
:102B0000460819C0811117C08AE998E00E949B10FD
:102B1000569902C081E001C081E4CAB1CC1FCC2724
:102B2000CC1FCC0FCC0F80935706559B05C080E47B
:102B30008093540601C0C0E00E9483140E94BC3EF2
:102B40000E94DC1980E892E0C05C53E06CE02091C8
:102B50004E2A30914F2A232B09F061C02091502A30
:102B60003091512A232B09F05AC04091652B4130F6
:102B700001F12091140130911501FC01E21BF30BCE
:102B8000E0934E2AF0934F2A2091240130912501A1
:102B9000FC01E21BF30BE093502AF093512A411100
:102BA00008C0D49B06C0C093C00850934C066093E5
:102BB00049065B9930C01FB889E79BE280932C20BF
:102BC00090932D2082E28093282064981092A3088D
:102BD0001092A408109246081092400810924906DC
:102BE0001092C0088CE78093730085E08093020404
:102BF000DF91CF911F910F91FF90EF90DF90CF90D9
:102C0000BF90AF909F908F907F906F905F904F900C
:102C10003F902F900895789B9ACF5B9898CF80E152
:102C2000482E9DECC92E97E2D92E29E8A22E22E04B
:102C3000B22E30E8E32E32E0F32E4FE3542E66241A
:102C4000639452E4352E0E94BC3E0E94DC190E941F
:102C50002E0F8091282085FF1FC010922E201092E9
:102C60002F20649909C080922C2090922D20E09210
:102C70002A20F0922B2008C0C0922C20D0922D2028
:102C8000A0922A20B0922B20809128208D798093C9
:102C900028208CB184258CB98091652B813009F076
:102CA00072C0C72DD0E02C9B23C080914E2A9091FA
:102CB0004F2A8034910538F080914E2A90914F2A06
:102CC0008054910906C080914E2A90914F2A8054D9
:102CD0009C4F219606E0CC0FDD1F0A95E1F7C80F47
:102CE000D91FC115F4E0DF0708F0D45010E448C044
:102CF00016E0CC0FDD1F1A95E1F7F8CF80914E2A30
:102D000090914F2AC817D90708F0DFC0FE01E35B96
:102D1000FA4D0081FE01F695E795F695E795E35BA0
:102D2000F64D808190E04C2F4370440F21E0240F3A
:102D3000BC01022E01C0660F0A94EAF76078262EC5
:102D4000042E01C0880F0A94EAF787FFC9C0802FBC
:102D500086950E94221A00FFBDC0222009F4B8C047
:102D60008CE30E94E40F80E20E94E40F2196C115DB
:102D700074E0D70710F0C0E0D0E0115009F4A5C00E
:102D80002C99C4CFBBCF8091140190911501F7010C
:102D9000E81BF90BE0934E2AF0934F2A809124010F
:102DA000909125019701281B390B2093502A3093CD
:102DB000512A37999EC05C9BB5C02EE140E468E083
:102DC00080E40E94960F50924C2534E030934B25BE
:102DD00083E50E94E40F50924C2555E050934B251B
:102DE00084E50E94E40F50924C2566E060934B25E9
:102DF0008FE40E94E40F50924C2577E070934B25AE
:102E000080E50E94E40F50924C2510924B25872DAF
:102E10000E941A1A0E94E40F8091652B811189C0CB
:102E20008CE380934C2560924B2589E40E94E40F4B
:102E300030924C2560924B258FE40E94E40F609203
:102E40004C2510924B25F8E27F9EE00111242C9B2B
:102E500085C080914E2A90914F2A889708F477C0B8
:102E600080914E2A90914F2A8897272D30E02F5F2E
:102E70003F4F48E2429F8001439F100D1124080FED
:102E8000191F003822E0120710F000581240A8E283
:102E90002A2E2C9965C080914E2A90914F2A0817AE
:102EA000190708F45DC038E430934C2510924B2587
:102EB0002C9981C018E22C99A4C08091502A90913D
:102EC000512AC817D90708F49CC07C99C0C0FCC01F
:102ED00088E247CF222011F08EE343CF89E241CF31
:102EE000802F0E94221A222011F08BE23ACF8DE22D
:102EF00038CF8091100187FD0BC010921401109201
:102F000015011092A4088091C0088F7B8093C0089F
:102F10008091200187FD4FCF10922401109225014E
:102F20005C9A49CF2FE340E468E080E40E94960F6A
:102F30006ACFECE3E0934C2560924B2582E50E943A
:102F4000E40F30924C2560924B2584E576CF80913A
:102F50004E2A90914F2A885A9D4F87CF8E0197CF46
:102F6000F801E35BFA4D80811F9B09C0803208F4B1
:102F70008FE50E94E40F80E20E94E40F02C00E94ED
:102F8000221A80E20E94E40F80914C258C3338F0A5
:102F900060924C2580914B258F5F80934B250F5F6E
:102FA0001F4F003852E0150710F000E010E02A949F
:102FB00009F06FCF78CF8091502A9091512A88974D
:102FC00030F08091502A9091512A889706C08091C4
:102FD000502A9091512A885A9D4F272D30E02F5F1B
:102FE0003F4F48E2429FE001439FD00D1124C80F9C
:102FF000D91FC03862E0D60708F45CCFC058D24071
:1030000059CFFE01E353F84D80811F9B09C08032E8
:1030100008F48FE50E94E40F80E20E94E40F02C0F2
:103020000E94221A80E20E94E40F80914C2588348D
:1030300018F478E470934C252196C03882E0D807C4
:1030400010F0C0E0D0E0115009F035CF3ECF7C98B1
:103050007A9B05C0799B03C083B1805883B97B9B61
:1030600028C08BB184258BB98091652B5C9B0CC0EB
:103070001092A4089091C0089F7B9093C008813063
:10308000C1F41092490615C0813021F483E0809389
:1030900049060CC0823019F44092A40807C081117F
:1030A00005C08091C00880648093C00837990E9451
:1030B00083147A9B02C071107A94799B03C0EFE06D
:1030C0007E12739478995B985B99BDCD74CD1F92F5
:1030D0000F920FB60F9211242F933F934F935F934C
:1030E0006F938F939F93AF93BF93EF93FF93E09171
:1030F000552AF091562AA091532AB091542A209132
:10310000572A88E18093200880910C088160809381
:103110000C08D19B05C080910C0880FFFACF55C0E8
:1031200051E080E0D19905C090910C0890FFFACF52
:103130004CC099E2ED34F907C9F19AB3692F617077
:1031400090FD0FC090910C0890FD3FC0D19B10C026
:10315000D09BF8CFD19B0CC038C0D19B09C0D09B6D
:1031600005C090910C0890FFF8CF2FC0D199D1CF16
:103170008830C1F4CF01019640833C915111322B2C
:103180002695611101C0322B26953C93222319F01C
:10319000FC0150E0C6CF11961C9211971196FC01CC
:1031A00020E8F7CF440F462B8F5FBCCF379B06C07C
:1031B000109249065C9A80E094E00AC010924D2972
:1031C000ADE4B9E2EDE4F5E2ADCFCF018D54954227
:1031D00080934E2A90934F2AE093552AF093562AD3
:1031E000A093532AB093542A2093572A81E08093C6
:1031F0004C06FF91EF91BF91AF919F918F916F918D
:103200005F914F913F912F910F900FBE0F901F90A4
:1032100018951F920F920FB60F9211242F938F9330
:103220009F9392E09093200890910C089160909366
:103230000C0898E0579B17C0D79909C020910C083B
:1032400020FFFACF2BC020910C0820FD27C0D79972
:10325000FACF880FD6998160915071F713C02091F1
:103260000C0820FD1BC0D79BFACF880FD69B06C049
:10327000816004C020910C0820FD10C0D799FACFBE
:10328000915089F78093572A82E080934C065C998D
:1032900005C0809120018061809320019F918F91D2
:1032A0002F910F900FBE0F901F9018951F920F92A5
:1032B0000FB60F9211242F933F934F935F936F9309
:1032C0008F939F93D3996CC081E080934C08809139
:1032D0004C0880FFFCCF8091582A9091592A809306
:1032E00066089093670840E020E050E061E030918C
:1032F000522A531768F460934C0830914C0830FF01
:10330000FCCF2695D39B02C020684F5F5F5FEFCF55
:10331000383018F426953F5FFBCF559904C031E053
:1033200030934C0817C031E030934C0830914C0872
:1033300030FFFCCF4170569B05C0442341F0D39B26
:10334000EECF23C0411103C0D3991FC0E8CFD39B58
:103350001CC0E5CF30914C0830FFFCCFD39B15C08B
:1033600057990AC02093572A5C990FC020912001D9
:1033700020612093200109C031E030934C08309146
:103380004C0830FFFCCFD399EDCF96958795969555
:103390008795809366089093670881E080934C0836
:1033A0009F918F916F915F914F913F912F910F90CE
:1033B0000FBE0F901F90189580E0889906C095E584
:1033C0009A95F1F700008150C1F7EC98E8980895BC
:1033D0001F920F920FB60F9211248F9380910608BF
:1033E0008B7F809306088FB18111609A8F910F9027
:1033F0000FBE0F901F9018950F93CF93DF931F92DE
:10340000CDB7DEB72FB72983F8941BBEFC0108EDBA
:1034100004BF608389818FBF0F90DF91CF910F919F
:10342000089592E09093CA01E82FF0E08491109201
:10343000CA010895982F80E3890F8A3310F087E33B
:10344000890F0895CF93C82F82958F700E941A1A02
:103450000E94E40F8C2F8F700E941A1ACF910C9447
:10346000E40F90E8980F97FF02C091E8980F892F1A
:10347000859580580895813428F0803C28F4880F81
:103480008058089580E008958FEF0895669929C0C7
:1034900088B1803258F48091812E80B98091712B4F
:1034A0008093512B80917B2E8093522B4CE050E0E7
:1034B00060E271E080E090E00E94A73F40E250E0CF
:1034C00060E071E081E59BE20E94A73F80B18093BC
:1034D000812E8091512B8093712B8091522B809360
:1034E0007B2E08954CE050E069EB75E080E090E0C1
:1034F0000E947D3F40E250E069E975E081E59BE292
:103500000E947D3FEC9A0E94461AEC981FB80895DD
:103510001F920F920FB60F9211248F938FB18111CA
:1035200001C01EB88F910F900FBE0F901F9018957D
:103530001092C1041092C3041092C004EC980E942F
:10354000461A0E94AC3E8FB18111FDCFA99A85E049
:10355000809348008895109248000E944F3EA99899
:103560001FB80C94343C1F920F920FB60F92112487
:103570002F933F934F935F936F937F938F939F937B
:10358000AF93BF93EF93FF930E94981AFF91EF912F
:10359000BF91AF919F918F917F916F915F914F916B
:1035A0003F912F910F900FBE0F901F9018951F9273
:1035B0000F920FB60F921124109248000F900FBE79
:1035C0000F901F901895882341F0EFE3FFE13197AA
:1035D000F1F700C000008150F6CF08951F920F92BE
:1035E0000FB60F9211242F933F934F935F936F93D6
:1035F0007F938F939F93AF93BF93CF93DF93EF937B
:10360000FF93EC98E898C9E1D0E081E00E94E31ACA
:1036100080910806982F9E71D913CAE0C15011F00D
:10362000D92FF3CF1FB881FF789A282F2071982FB8
:10363000987084703C9B0AC0211101C0799A911145
:1036400001C07A9A81110BC07B9A09C0211101C077
:103650007B9A911101C07A9A811101C0799A8FB138
:103660008823A1F0589A7C9A80910408882379F0E5
:1036700088E18093210880910C08826080930C0877
:103680008091060884608093060801C060981092BB
:10369000080410920904FF91EF91DF91CF91BF913F
:1036A000AF919F918F917F916F915F914F913F91DA
:1036B0002F910F900FBE0F901F9018950E94B51F6D
:1036C00080E40E94E31A0E94242380E10E94E31A0E
:1036D00084E1E0E0F2E08183E0E0F1E080898F774F
:1036E000808B80A98F7780AB80A18F7780A308958E
:1036F0007F928F929F92AF92BF92CF92DF92EF9282
:10370000FF920F931F93CF93DF931FB80E942E0F4A
:103710008AE299E00E949B1047E259E067E084E763
:103720000E94B6110E94BC3E0E94DC198FB1882312
:10373000E9F3799BA4C00E942E0F10B8912C9DE450
:10374000C92E95E2D92E27E0722E80B1883008F07C
:1037500069C0A92C86E0B82E882483948A0CB09284
:10376000512BB092522B0E945E1BADE4B7E2EDE408
:10377000F5E2C0E0D0E000E010E08191080F111DFB
:1037800087FD1A958D91C80FD11D87FDDA95CE1250
:10379000F4CFEC9A80B1EB2CF12C9701789E200DA0
:1037A000311D1124C901612F835A9E4F0E94B13FE0
:1037B00020E2210F203430F4482D60E2882D0E9451
:1037C000960F01C0E89A80B18823E1F060B170E003
:1037D00061507109769EC001779E900D11248E0D67
:1037E0009F1D6D2F845D9E4F0E94B13F2D2F205E47
:1037F000203438F481E48A0D482F60E20E94960F4D
:1038000001C0E89A0E94BC3E0E94DC19BA943FEFC6
:10381000B31611F0A82CA0CF87E0980E80B18F5F6F
:1038200080B993CF80E18093010287E08093040206
:1038300020E0C0E0D0E060E070E033E830932002A8
:10384000309328028FE79CE00197F1F700C0000059
:103850008091240290912502680F791F80912C029B
:1038600090912D02C80FD91F215041F78BE991E0AB
:103870000E94D43FBE0189E991E00E94D43F1FB865
:1038800061E08DE991E0DF91CF911F910F91FF9061
:10389000EF90DF90CF90BF90AF909F908F907F90F0
:1038A0000C94B13F84E0809356008CE10E94111A81
:1038B000809363008BE18093650087EB80936600C3
:1038C00081E0809360008BEC8093520082EC8093C7
:1038D00055008BE08093500082E00E94E31A8091B3
:1038E000510083FF109252008BE18093500082E0E0
:1038F0000E94E31A64E080E490E00E94FC198AE1EF
:103900008093500081E48093B20082E38093B300FF
:103910008BE080BB8FE18CBB84E08DBB89E084BBF6
:1039200081E085BB90E59093110698E19093120693
:103930009093130690931406C7E0C0931506C093A6
:103940001606C093170622E0209309062EE1209365
:103950000A0680934A0630E830934B06809375063A
:10396000909391068093A60950EC5093A50928E006
:103970002093A40927E12093A60A44EA4093A70ACA
:1039800023E02093A50A9093A40A90E29093A30ABF
:1039900060EE609380019093810198ED9093830194
:1039A0005093840198EC909385019FE89093860151
:1039B00090ED909387018093210381E1809322030E
:1039C0002093230385E0809320039093420185E2B6
:1039D0008093430180E091E08093440190934501FE
:1039E00088E490E2809348019093490189E38093B1
:1039F0004C0120934D0140934001309300014CE075
:103A000050E060E271E080E090E00E94863F40E29A
:103A100050E060E071E081E59BE20E94863FC09348
:103A2000A20078940E94343C0E944F3E45E450E04E
:103A30006CE175E089E692E20E947D3F0E943A0FB8
:103A400045E156E067E082E30E94B6110E94BC3E69
:103A50002FEF83E294EF215080409040E1F700C0C7
:103A6000000085E0809343008DE991E00E94923F41
:103A7000811101C0629A80EA91E00E94923FC82FB2
:103A80008091080681FF629A1FB8D1E018E207E032
:103A900034E1F32E40E1E42E51E8D52E6AE3C62E40
:103AA000629B4BC00E942E0FD093000210933902EC
:103AB00000930402F0920102E0920202D0923802D6
:103AC00081E00E94E31A20913C0230E0A0EBBCE0D0
:103AD0000E94543F9B01AC0161E080E40E94C81049
:103AE0008AB390E00E9419124DE359E066E080E04D
:103AF0000E94B611C0924C25CC2321F08C2F0E943D
:103B0000AA1003C08DE20E94E40F7C9B11C07C9838
:103B10007B990E94781B7A99C05F79990E94721AEA
:103B2000789B06C06C2F80EA91E00E94B13F6298BA
:103B30000E94BC3E0E94DC19B3CF1FB880910104E3
:103B400080FDFCCF8CE3C89F9001112420930A04D0
:103B500030930B042CE330E020930C0430930D04DD
:103B6000CC2331F085E08093020487E08093000449
:103B70000E94A223FDCF5C98289829982A9887E074
:103B8000809346201EB81FB808958091512B88233A
:103B9000B1F09091752B913290F081508093512B20
:103BA00080915D2B811106C080915E2B0E94311A9D
:103BB00080935E2B8091752B86958093752B8091D9
:103BC000522B8823B1F090917F2E913290F081504A
:103BD0008093522B80915D2B813031F480915E2B4C
:103BE0000E94311A80935E2B80917F2E8695809360
:103BF0007F2E0895109246208091812E80B9809169
:103C0000712B8093512B80917B2E8093522B0895A2
:103C100080B18093812EA1E5BBE28C918093712BC2
:103C2000E2E5FBE2808180937B2E1C92108287E08C
:103C3000809346200895CF93DF93409906C0419921
:103C400007C0429908C0629A08C0ECE9F4E005C0D8
:103C5000ECE1F4E002C0ECE9F3E0449B3BC089E70F
:103C60009BE2C9E7DCE260E0349162993FE76F379D
:103C700008F4319667FD3197DC014D91CD01299112
:103C80004058C303A001112474E0679FD0011124A0
:103C9000A35BBA4D4D935C9311972058A3039001F9
:103CA000112412962D933C9313976F5FE9F6629857
:103CB0008DE495E20E94160C6DE479E28DE495E2C4
:103CC0000E94E80C90914D2980914E29891718F196
:103CD00091E022C0EC0180E0349162993FE78F3798
:103CE00008F4319687FD319729912058A303212D9F
:103CF000112494E0899FD0011124A35BBA4D129640
:103D00001C92129713962C9313971C9211962C9336
:103D10008F5F11F7CCCF92E023E080E097FD0DC0DC
:103D2000E92FF0E0E35BF64D3081231710F0322FDE
:103D300001C0892F9F5F232FF1CFE82FF0E0E35BD5
:103D4000F64D9081983008F480E0DF91CF9108958E
:103D500080B18B3010F03FEF01C03FE7479B07C0B9
:103D60008091762B8093542B8091802E81C010926D
:103D7000542B3093552BE091532B089B02C0109B82
:103D800008C020917F2E089B0FC08091752B2817AB
:103D900058F48091742B2091752B283008F45DC065
:103DA000F0E0E758F44D08C080917E2E283008F4EA
:103DB00054C0F0E0E758F34D2695280F8081821714
:103DC00018F08E2FDF012AC08E2FDF014A2F481BEB
:103DD000FD0131969C91921730F49E2F981B9317FA
:103DE000E1F1DF01F3CF4093542BCF0101965081D5
:103DF0004F5F251720F4431781F1FC01F6CF409364
:103E0000552BFC0181914F5F821728F54313FACFA0
:103E100024C09E2F981B931701F1DF014A2F481BE6
:103E2000FD0131969C912917A0F34093542BCF01AB
:103E3000019650814F5F521720F4431771F0FC0137
:103E4000F6CF4093552BFC0181914F5F281718F452
:103E50004313FACF02C04093552B80B18B3050F002
:103E60008091542B86958093542B8091552B869569
:103E70008093552B0895E9E7F5E0A1E5BBE2849135
:103E80009C91981708F08C93119631968BE2A1378C
:103E9000B807A9F78091622B87FD03C08EEF80934E
:103EA000622B8091632B87FD03C08EEF8093632B81
:103EB0008091672B9091662B891710F48093662B65
:103EC0008091682B811103C081E08093682B8091E1
:103ED0005E2B833018F483E080935E2B8091602BFF
:103EE00090915F2B981710F480935F2B80B18631EF
:103EF00010F085E180B9089580915B2B90915C2B47
:103F00008F3F9105B8F490B1911102C08830F8F05C
:103F100090B1913011F48530E0F090B1923011F40D
:103F20008530B8F090B1963018F48430A0F002C01B
:103F3000882399F080915B2B90915C2B97FF14C0A4
:103F40008FEF9FE780935B2B90935C2B089588E025
:103F500005C085E003C084E001C081E090E080936B
:103F60005B2B90935C2BE6CF0895FF920F931F93EA
:103F7000CF93DF9398E19093700084E08093710079
:103F800023E0209372002CE7209373002CE620930B
:103F90007400209375008093A2001092000A109282
:103FA000010A1092060A10924008109241088FE010
:103FB0008093000882E080930408909327089091F2
:103FC000612B909326089EE090930009809304094A
:103FD00087E2809326090E943B1F0E947C1F84B1C8
:103FE00020E0982F9170290F8695D9F788E090E00E
:103FF000821B9109880F880F880F9091642B891775
:1040000010F41092642B80B1811109C0469904C04C
:10401000479B05C0449B03C080B18F5F80B984E19A
:104020008093010285E48093030283E0809304027D
:1040300090B19B30E8F0109227098093000A80B17C
:104040008B3019F487E893E102C089E698E1809308
:10405000260A9093270AE0B1F0E0EE0FFF1FED5D16
:10406000FE4E859194918093772B9093782B2BC063
:104070001DB887E08093270980B1863068F0E0B1F1
:10408000F0E0EE0FFF1FED5BFE4E85919491809363
:10409000260A9093270A17C08CE18093010280B111
:1040A000823010F080B104C080B1882339F082E002
:1040B0008093040280E48093030205C010920302FF
:1040C00082E0809304020E943A0F81E08093000214
:1040D00080E2809302020E94111A80930C0281E216
:1040E0000E94111A80930D028AE28093210280912E
:1040F000512B90E09C01220F331F220F331F2360AE
:10410000209320022BE220932902C091522BD0E071
:104110009E01220F331F220F331F2360209328029A
:1041200020E12093310220B130B1383008F027E08F
:1041300037E0F32E022F10E0F29E800D911D112426
:10414000835A9E4F0E94923F81958093722B80B13B
:10415000882381F001501109F09EC001F19E900D5D
:1041600011248C0F9D1F845D9E4F0E94923F81956C
:1041700080937C2E87E08093A2001C9902C081E08E
:1041800001C081E4199B05C01A9902C0806101C079
:1041900088619FEF9093B000809350065A98DF910A
:1041A000CF911F910F91FF9008951F920F920FB61C
:1041B0000F9211248F929F92AF92BF92EF92FF9233
:1041C0000F931F932F933F934F935F936F937F931F
:1041D0008F939F93AF93BF93CF93DF93EF93FF930F
:1041E000D0914C25C0914B25809124026091722B77
:1041F0000E94FD08E82E80912C0260917C2E0E9486
:10420000FD08F82E0C99E0941499F09400E80E0D36
:1042100060E86F0D61958603112D112410580E9BD7
:1042200008C00F9B05C08E2D0E94FC08E82E01C01F
:10423000E12E169B0AC0179B07C0602F61958F2D3A
:104240000E94FC08F82E01C0F12E409141205091AF
:10425000422060914320709144204E0D511D611DFC
:10426000711D4093412050934220609343207093EE
:10427000442040913D2050913E2060913F2070911C
:1042800040204F0D511D611D711D40933D205093E5
:104290003E2060933F207093402080913B2090917E
:1042A0003C20019680933B2090933C20659A00919E
:1042B000772B1091782B80913B2090913C20801798
:1042C000910708F46FC010923B2010923C200D9B88
:1042D00010C04801A12CB12C609141207091422066
:1042E0008091432090914420A50194010E940D3FAC
:1042F000E22E159B0EC0980140E050E060913D20F9
:1043000070913E2080913F20909140200E940D3F6F
:10431000F22E1092412010924220109243201092CF
:10432000442010923D2010923E2010923F20109287
:1043300040203A9B10C0EDB1F0E0E758F44D808189
:104340008E0D8795E82EEDB1F0E0E758F34D8081B2
:104350008F0D8795F82EEDB1F0E0E758F44DE0822F
:10436000EDB1F0E0E758F34DF082EDB18AB3F0E043
:10437000E758F24D8083679B15C08DB1811109C04C
:104380008DE00E9419128AE00E94191283E50E94B2
:1043900019128E2D0E9419128F2D0E9419128AB3A4
:1043A0000E941912459BD1C03099CFC080913B200B
:1043B00090913C20892B11F00D993CC06091622BAB
:1043C0008E2D0E94FC08182F1695103408F01FE35C
:1043D000EDB1F0E0E858F44D6091622B80810E94CD
:1043E000FC083E9B1CC09DB19923C9F0282F26953F
:1043F000203408F02FE3121304C01123D9F01F3327
:10440000C9F0089B17C04DB18DB150E04150510922
:1044100055954795612F86950E94960F0BC0089B76
:1044200009C0112339F01F3329F08DB1612F869512
:104430000E94510F80913B2090913C20892B11F0DC
:1044400015993CC06091632B8F2D0E94FC08182F9A
:104450001695103408F01FE3EDB1F0E0E858F34D85
:104460006091632B80810E94FC083E9B1CC09DB123
:104470009923C9F0282F2695203408F02FE3121332
:1044800004C01123D9F01F33C9F0109B17C04DB1E0
:104490008DB150E04150510955954795612F869552
:1044A0000E94960F0BC0109B09C0112339F01F33D7
:1044B00029F08DB1612F86950E94510FEAB21091BB
:1044C000642B189B2DC007E3E0E8FE2E94B19F21DA
:1044D00019F18DB1843059F410924C25812F8695B5
:1044E0008695869580934B25802F0E94E40F8F2D13
:1044F0008E2119F08DB1612F0BC08DB166E0610F77
:1045000086950E94510F1B9B06C08DB165E0610F1F
:1045100086950E94510F185FF69401500F32B1F644
:104520001E9B1CC09DB19F70C9F41933B8F49DB196
:1045300096959F5F90934C2516951695169510931A
:104540004B258E2D0E94221A09C0479B07C03F9B16
:1045500005C08DB16FE386950E94510F80913B207D
:1045600090913C20892BD1F58DB18F5F8DB98DB1A4
:1045700081110CC0649A679B09C08AE00E941912DD
:104580008DE00E94191287E30E941912309923C00E
:104590008DB1811109C01D9B03C045990E9408146B
:1045A0001092060A5C991AC0459B18C03D9916C026
:1045B000689914C08DB1869520E090E030E8239F83
:1045C000F0011124E85BFE4DE80FF91F13822F5F05
:1045D0002830A1F703C05C991092060AD0934C25AD
:1045E000C0934B25FF91EF91DF91CF91BF91AF9198
:1045F0009F918F917F916F915F914F913F912F91FB
:104600001F910F91FF90EF90BF90AF909F908F9070
:104610000F900FBE0F901F9018951F920F920FB61C
:104620000F9211248F93EF93FF93E0E0F8E08681DF
:104630008E7F8683589A5D9AFF91EF918F910F90AC
:104640000FBE0F901F901895809110018064809389
:1046500010018091300180648093300180912001AD
:1046600080648093200165E06093120170E1709393
:10467000130180E092E080931401909315012DE4E2
:1046800035E220931C0130931D0144E24093180150
:1046900052E05093190140931001609332017093DE
:1046A000330180933401909335012DE439E2209356
:1046B0003C0130933D012AE12093380110923901E9
:1046C000409330016093220121E1209323018093E4
:1046D0002401909325018DE497E280932C0190931F
:1046E0002D018CE2809328015093290140932001F1
:1046F0008091100180688093100180913001806862
:10470000809330018091200180688093200180B1E6
:10471000863020F48CE18093010202C05093000A9D
:1047200080E090E02091110124FD0BC020E22A9549
:10473000F1F7589B02C05D9808950197009791F793
:1047400008950895CF93DF93CDB7DEB72B97CDBFF4
:10475000DEBF80B18093812E8091512B8093712B8D
:104760008091522B80937B2E1EB8589A5A9A599A50
:104770007C9A639A29E73BE228875A990E94B51FE1
:104780005B9B08C01FB85C980E94461A0E94E01408
:104790000E94B51F609B12C07B9B03C05C990E9466
:1047A000BB1D8EB18C3220F07A9901C079997C9A28
:1047B000789B04C00E94981A1EB8589A5C99D8C079
:1047C0005D99D6C000915A2B002339F0589905C045
:1047D00081E00E94E31A0150F7CF80B18B3010F4D2
:1047E0000E942423289902C02A9B08C0309B03C042
:1047F00080B18B3018F488B1803220F45899B8C059
:104800005D9AB6C0109260081092610881E08093B2
:104810004C0880915B2B90915C2B20B1223010F0E2
:10482000880F991F20B1211102C0089710C020B134
:10483000213019F020B1223011F4059708C020B1C1
:10484000263010F4049703C0009709F00197809375
:10485000660890936708809126088093200881E07D
:104860008093020480910C08816080930C082A9B3D
:1048700005C08091060881608093060880915D2BB9
:10488000811136C06091722B619580915E2B0E94E0
:10489000FC082E9B07C06091602B80915F2B0E94CB
:1048A0006F0A66C02D9B13C080915E2B805887FFD6
:1048B00002C0819503C0811101C081E02B9B04C01F
:1048C00081950E94150A54C00E942B0A51C02F9B4B
:1048D00003C02B9B0AC006C02091240290E8980FC9
:1048E00029171CF40E94C20943C00E94D20940C08B
:1048F0008130A1F560917C2E619580915E2B0E94A4
:10490000FC082E9B07C06091602B80915F2B0E945A
:104910007A0A2EC02D9B11C080915E2B805887FD96
:104920008095811101C081E02B9B04C080950E947D
:10493000430A1EC00E94590A1BC02F9B03C02B9B19
:104940000AC006C020912C0290E8980F29171CF489
:104950000E94F5090DC00E94050A0AC08B3040F480
:1049600082502B9B03C00E94630902C00E9404096D
:1049700085E080930204809106088E7F809306086C
:104980005D9B71C188B1803220F45E9B02C05F994B
:104990006AC180B18B3008F044C18FE99FE0019774
:1049A000F1F700C000001092000A84E18093010238
:1049B0008091792E8F5F8093792EEFE7F2E0319727
:1049C000F1F700C000005D9810924008809110013E
:1049D0008F7780931001809130018F778093300121
:1049E000809120018F778093200180911401909114
:1049F000150120B1223020F0412C72E0572E0CC05E
:104A0000412C63E0562E481A590A4114F2E05F0621
:104A100028F020E031E02901481A590A9201235B6D
:104A20003A4D7901A201435B584D3A01C201835BC3
:104A3000964D6C0129E73DE22A833B8349E7A42E8A
:104A40004CE2B42E59E7852E5BE2952EF60180816B
:104A5000EA81FB818193EA83FB83F7012081822F26
:104A6000F3019081192FFFEF4F1A5F0A411432E0D2
:104A7000530651F04FEFC41AD40A5FEFE51AF50A56
:104A80006FEF661A760A0EC0412C512CBDE4CB2E76
:104A9000B9E2DB2E0DE4602E07E2702E3DE4E32E3A
:104AA00035E2F32E30B1323068F10D9B05C0F701CD
:104AB000808185952595820F159B05C0F301108196
:104AC00015959595190FFFEF4F1A5F0A411422E0D3
:104AD000520651F03FEFE31AF30A4FEF641A740ADB
:104AE0005FEFC51AD50A0EC0412C512CEDE4CE2E35
:104AF000E9E2DE2EFDE46F2EF7E27F2EADE4EA2E32
:104B0000A5E2FA2E6091722B0E94FD08982F0C9955
:104B1000909560917C2E812F99870E94FD08082F27
:104B200099851499009510E8190F60E8600F619558
:104B30009603212D112420580E9B0AC00F9B07C0FD
:104B4000892F29870E94FC08982F298501C0922F60
:104B5000169B0CC0179B09C0612F6195802F998708
:104B60000E94FC08082F998501C0022F94012F5F35
:104B70003F4FF4013A9B0DC08181890F8795808357
:104B8000A5014F5F5F4FF5018181800F879580837D
:104B900006C09083A5014F5F5F4FF501008389E751
:104BA0009DE2EA818E1719F05A0149014FCF679BA8
:104BB00020C08DE00E9419128AE00E94191286E43A
:104BC0000E94191279E7E72E7BE2F72EF701819117
:104BD0007F010E941912F9E7EF16FEE2FF06B1F716
:104BE0008AE00E9419128DE00E94191287E30E9448
:104BF00019128091282085FF27C010920804109276
:104C0000090410922E2010922F2082E093E88093C6
:104C10002A2090932B20809128208D798093282022
:104C200013C0309B04C05D985C990EC002C06499AB
:104C300004C082E08093060A07C064985D98809162
:104C4000792E8F5F8093792EF894299B09C05C9A06
:104C500080B18B3028F48EB1853011F083E38EB9AA
:104C60007C9B58987894809110018F7780931001E5
:104C7000809130018F7780933001809120018F7770
:104C8000809320015D9903C13D990CC0479908C0EC
:104C9000469906C0459B06C080B18B3008F030991C
:104CA0000E942E0FF89480B18B3020F0309B02C010
:104CB000649BBCC064984C9B3AC020B144E0249FE4
:104CC000900111242F513F4EF90185919591A591A5
:104CD000B4919C01AD016CE05695479537952795A9
:104CE0006A95D1F7E0B1B101882777FD8095982FBB
:104CF0000E94FD3EE73068F4969587957795679515
:104D000060936D2B70936E2B80936F2B9093702B11
:104D10000EC020ED37E040E050E00E940D3F2093B0
:104D20006D2B30936E2B40936F2B5093702B4D9BBC
:104D300009C0C10125E0959587952A95E1F78195F0
:104D40008093692B4E9B09C0C10104E0959587951E
:104D50000A95E1F7805880936C2B4F9B08C0C101E6
:104D6000B4E095958795BA95E1F780936B2B5B85B9
:104D7000511103C06091682B6B874A9902C09B85D3
:104D800002C09B8591958091662BE0E18E9F9001FA
:104D900011244091672BF0E14F9FA0011124290EAF
:104DA000311C97FD3A94421553052CF44B9BA901F5
:104DB000629A1A0107C02216330624F44B9B9A010B
:104DC000629A1901499B0DC0489B06C02B852F375D
:104DD00040F42F5F2B8705C03B85323010F03150F7
:104DE0003B87629B09C04091682B4B874B9B04C05B
:104DF00099B124E0922799B9629899B19031B0F0B5
:104E0000599A3F9B13C06FE386950E94510F809182
:104E1000672B6FE386950E94510F6FE3C101A5E0F8
:104E200095958795AA95E1F70E94510F78949091F6
:104E3000792B8091792C9C0140E0E42FF0E0E75839
:104E4000F44D5081F3956081951708F4952F531711
:104E500008F4352F861708F4862F621708F4262FDA
:104E60004F5F59F7492F431B4093752B482F421B27
:104E700040937F2E9093732B3093742B80937D2ED1
:104E800020937E2E319B03C045990E94A81E459B0E
:104E900057C1369B6BC080B18B3018F4D090532B28
:104EA00001C0D12C83EA91E00E94923FA82E82EAB1
:104EB00091E00E94923F982ECD80BC8000E0ED2CC6
:104EC000F12CC7018C559D4F0E94923F882EC7013F
:104ED0008C559E4F0E94923FF82E6A2D882D0E947D
:104EE000FC0886958C83803410F05FE35C83692D29
:104EF0008F2D0E94FC0886958D83803410F06FE31F
:104F00006D83EE24EA94E00E80B1F02E8B3010F029
:104F1000F694E6943E9B13C0002319F1089B06C04B
:104F20002B2D4E2D6C818F2D0E94960F109B13C040
:104F30002C2D4E2D6D818F2D0E94960F0CC0089B3D
:104F400004C06C818F2D0E94510F109B04C06D8195
:104F50008F2D0E94510F80B18B3010F40F3730F439
:104F6000D3940F5F19F0CD80BC80A9CF80B18B3076
:104F700010F0309BE5C080B18B3038F0309B05C01D
:104F8000CDB08C2D8160C82E02C0C090532BAC2CAC
:104F900000E0712C8A2D8C1977FCCFC090B19B302A
:104FA00020F0309B02C0782E7694EA2CF12CF70189
:104FB000E758F44D7F01FE5F8080D090642B189BF2
:104FC0004BC0E0E89E2EF7E0BF2E84B1892109F4A2
:104FD0003EC0711029C06D2C669466946694109240
:104FE0004C2560924B2580E38B0D0E94E40F2091AD
:104FF0005D2B30E022503109EB2DF0E02E173F07FA
:1050000099F4FA85FE3780F4289902C02A9B0CC0D7
:105010002A8520934C2560924B252B9B02C089E169
:1050200001C088E10E94E40F892D882111F06D2DC7
:1050300009C066E06D0D872D0E94510F1B9B05C0B6
:1050400065E06D0D872D0E94510F38E0D30E9694C8
:10505000BA944FEFB412B9CF1E9B10C0872D8F703A
:1050600069F458E35D1550F070924C25D694D694AF
:10507000D694D0924B25882D0E94221A6091622BE3
:10508000F70180810E94FC08D82EF701F39560910A
:10509000632B80810E94FC088695D694FFE3FD1562
:1050A00010F47FE3D72EF82E2FE3281710F46FE3C8
:1050B000F62E3E9B23C07720D9F1D11204C08FEF8A
:1050C0008D0D8E3340F4089B06C0212F402F6D2D8F
:1050D000872D0E94960F3981F31204C08FEF8F0D38
:1050E0008E3328F5109B23C080B1882301F12981DC
:1050F000402F6F2D872D0E94960F19C0089B09C065
:10510000DD2039F04FE3D41621F06D2D872D0E945C
:10511000510F109B0CC0FF2051F05FE3F51639F0E2
:1051200080B1882321F06F2D872D0E94510F072D0C
:105130007394A394F9821D2D2DCF1D990E940814FC
:10514000469B51C03F9B06C04BEC59E060E080E0BD
:105150000E94B61149E7C42E4CE2D42E59E7E52E41
:105160005BE2F52E9E2DE9E7FBE29E1B80B18B30C2
:1051700028F0309903C08DB19817A1F0F701119173
:105180007F011095F60161916F018091532B681B8F
:1051900067FD05C06695812F86950E94510FF885A1
:1051A000FE11E0CF369B1FC081EA91E00E94923F42
:1051B000082FD12CED2CF12CC7018C559D4F0E944E
:1051C000923FC82EC7018C559E4F0E94923F801B74
:1051D00087FD07C0682F66958C2D809586950E9467
:1051E000510FD39439F7479BA7C05D99A5C0089B81
:1051F00008C0109B06C080B1882319F003E01BE1B2
:1052000002C002E017E3449B39C087B1837079F094
:1052100060E18091532B0E94510F60E28091532BEB
:105220000E94510F60E38091532B0E94510F80E048
:1052300090E00E941B1E00E08091532BE02FE81BA2
:10524000F0E0E35BF64D808186958695883308F023
:1052500087E367E3681B3E9B06C027E3402F802F50
:105260000E94960F03C0802F0E94510F0F5F0038DD
:1052700019F7319B61C00E94A81E5EC0089903C047
:1052800010992BC0F6CF89E79BE20E941B1E8093EA
:10529000762B3DE4E32E39E2F32ED12CF701219158
:1052A0007F0130E0002E02C0359527950A94E2F781
:1052B000121708F4212F612F621B3E9B06C0212F7D
:1052C0004D2D8D2D0E94960F03C08D2D0E94510FE4
:1052D000D394F0E8DF12E2CFD3CF80B1882349F234
:1052E00089E79CE20E941B1E8093802E9DE4E92E9C
:1052F00099E2F92EC12C27E3D22EF70121917F01EB
:1053000030E0002E02C0359527950A94E2F7121777
:1053100008F4212F6D2D621B3E9B06C027E34C2D08
:105320008C2D0E94960F03C08C2D0E94510FC394A8
:10533000F0E8CF12E2CF9DCF88B1803208F0F4C1FF
:105340005D9B04C05E9BF0C15F9BEEC180914620D7
:105350008111EAC184E0809346200E942E0F5E9B5B
:1053600002C05F990CC04BE45DE060E08CE00E94FD
:10537000B6114AE55DE060E08CE40E94B6115E9BE8
:1053800002C05F9B04C05E9930C05F9B2EC049ED98
:1053900055E060E081E30E94B61149ED55E060E020
:1053A00081E70E94B61109E7C02E0BE2D02E89E7F3
:1053B000E82E8CE2F82E00E0F60161916F0166950F
:1053C00066956695645E802F0E94510FF70161918A
:1053D0007F01669566956695645E80E4800F0E9405
:1053E000510F0F5F003441F746C000915D2B023032
:1053F00010F00A3041F44CEC5EE063E080E10E9482
:10540000B6110DE60CC0025A44E95CE063E080E1AD
:105410000E94B61180915D2B825D0E94E40F5E9B1D
:105420000CC01092462041EE55E063E082E60E94F7
:10543000B6115C9B1EC000E01CC046EE55E063E068
:1054400082E60E94B61180B1873028F4B6EEEB2ECA
:10545000B5E0FB2E04C0A7EEEA2EA5E0FA2EA701C8
:1054600060E08DE20E94B611A70160E08DE60E9427
:10547000B61100938201629A10924C2582E08093CB
:105480004B255E9B93C05F9991C05C997CC0009155
:105490000102209104022A83309120023E83409130
:1054A00028024F8380E98093010287E08093040201
:1054B00020E0C12CD12C7601812C912C540133E8B1
:1054C00030932002309328028FE79CE00197F1F798
:1054D00000C000008091240290912502AA2797FD28
:1054E000A095BA2F881A990AAA0ABB0A40912C02E1
:1054F00050912D02662757FD6095762FC41AD50A64
:10550000E60AF70A58993FC02150D1F68BE991E09D
:105510000E94A23F2C01662457FC6094762C480C14
:10552000591C6A1C7B1C89E991E00E94A23FAC01D6
:10553000D301C201E5E0B595A79597958795EA95C2
:10554000D1F780934D2B90934E2B662757FD609596
:10555000762F4C0D5D1D6E1D7F1DF5E075956795D1
:1055600057954795FA95D1F740934F2B5093502B71
:105570002F81209328023E81309320024A8140935C
:1055800004020093010260E080914D2B90914E2B1C
:105590000E949F1180E480934C2582E080934B25EC
:1055A00060E080914F2B9091502B1CC05F9B1DC0E1
:1055B0005E991BC08091752B6091512B50E8859F9F
:1055C000C00111240E949F1180E480934C2582E049
:1055D00080934B2580917F2E6091522BE0E88E9F27
:1055E000C00111240E949F119EC0F89410920008DF
:1055F000109204088CE0809309085E9B04C080919F
:105600004108811124C082E19AE780932608909393
:1056100027081092000A3CE03093090A20E1209309
:10562000010A8CE38093030A8DE08093000A84EFE3
:1056300095E08093260A9093270A109240083093B1
:105640004908209341088CE28093430806C081E01A
:1056500090E0809326089093270887E080930008C5
:10566000809120088823E1F38AE0809340087894B1
:105670005E992EC0E0B124E0E29FF0011124EF51C9
:10568000FF4EC590D590E590F490CD2CDE2CEF2CFC
:10569000FF24A091762BB0E0A70196010E946A3FFB
:1056A0009B01AC0162E080E00E94C810A091802EB6
:1056B000B0E0A70196010E946A3F9B01AC0162E045
:1056C00080E40E94C81004C0589927C05A9925C088
:1056D00080910C0880FFF8CFC090280AD090290A4A
:1056E000E12CF12C7601DD24CC2480916808909186
:1056F0006908C80ED91EE11CF11C619AA701960128
:1057000065E088E00E94C810C0924D2BD0924E2BCD
:10571000E0924F2BF092502B61985E9904C087E085
:10572000809346205A9A6298659B1BC06598809129
:10573000282085FF16C010920804109209048DB12C
:1057400080937A2E10922E2010922F2082E093E8E0
:1057500080932A2090932B20809128208D7980930C
:10576000282080914620882309F448C1A090512B1D
:10577000F090522BE0B0D8B043980E98169889E775
:105780009BE20E941B1E8093762B89E79CE20E947D
:105790001B1E8093802ED8B888B1803230F45F9B76
:1057A00002C003E003C05E99FCCF05E03AE0D32ECF
:1057B0009924939440E4C42E50E8B52E8091512B47
:1057C000081710F40093512B8091522B081710F4F6
:1057D0000093522B80B18B3008F0D0B880914620D6
:1057E00090E08830910508F0F4C0FC01E250FF4FD2
:1057F0000C944E3F88B1803208F476C02D982E98D4
:105800002F9A089A109A2091752B203108F4089845
:1058100080917F2E803108F41098089904C0109967
:1058200002C0089A109AC092532B40E850E040936F
:105830005B2B50935C2B26959091742B290F8695AA
:1058400090917E2E890F089B11C09091762B9230FB
:1058500068F03091802E931748F02A9A10925D2BB1
:1058600020935E2B0C9B13C0922F0EC0109B0FC079
:105870009091802E923058F02A9A90925D2B8093CE
:105880005E2B149B04C0982F909590935E2B459BA4
:105890002BC030E035952795319521953109322F70
:1058A0002093622B90E0959587959195819591092C
:1058B000982F282F8093632B089B14C0109B12C035
:1058C000303A24F030523093622B02C0B092622BF7
:1058D000203E24F4905E9093632B02C01092632BC1
:1058E0000E94C51D0E94C51D88B1803220F45E99BA
:1058F00002C05F9B6EC09091762B8091802E89179D
:1059000008F4892F982F92959F7080B1981708F00E
:105910005FC080B1891B4CC08091732B8C3B58F4C5
:105920008091742B8A3438F08091512B801718F4B1
:105930008F5F8093512B80917D2E8C3B08F049C066
:1059400080917E2E8A3408F444C08091522B8017B7
:1059500008F03FC08F5F1CC08091732B8A3F20F4FA
:105960008091742B823138F48091512B882319F067
:1059700081508093512B80917D2E8A3F20F480911D
:105980007E2E823130F58091522B882311F1815087
:105990008093522B1EC08091762B8D3720F48091FE
:1059A000802E8D37B0F080B1823098F080B1815078
:1059B00080B90FC08091762B823358F48091802E6D
:1059C000823338F480B18A3020F480B18F5FF0CF19
:1059D00090B88091512BA81207C08091522BF812D9
:1059E00003C080B1E81611F05A9A08C08091462091
:1059F000882321F0815080934620E0CE7C9BE0C636
:105A000000915D2B7C98789B10C08EB1833119F486
:105A10000E94461A04C08EB1843009F45B9AEEB13C
:105A2000F0E0E55CF44FE491EEB98EB1843340F1DF
:105A30008EB18B3328F57B9B23C0EEB1F0E0EE0FE7
:105A4000FF1FE559F64FA591B4912091452081E0C3
:105A5000820F809345208EB190E0C49735E0389F47
:105A6000F001399FF00D1124E20FF11DEF51F64FB7
:105A7000E491EC9380914520853010F01092452000
:105A80008EB190E08134910508F082C6FC01EA5F96
:105A9000FE4F0C944E3FF8947B9B0BC0299B03C098
:105AA0001DB85C9806C08BB190E189278BB95C99D1
:105AB00058987A9B06C0799B04C080E48093532B4E
:105AC0003CC07A9B1DC05C991BC080B1853118F425
:105AD00080B18F5F01C085E180B980E090E8E82F58
