:100000000C94D6080C94F3080C943B180C94DD184F
:100010000C94F3080C94F3080C94F3080C94F30874
:100020000C94DE3E0C94F3080C94871A0C945C1A22
:100030000C94F3080C94F3080C94D6220C94BC197D
:100040000C94F3080C94F3080C94F3080C94F30844
:100050000C942A190C94F3080C94F3080C94F308EC
:100060000C94F3080C94F3080C94F3080C94F30824
:100070000C94F3080C94F3080C94F3080C94F30814
:100080000C94F3080C94F3080C94F3080C94F30804
:100090000C94F3080C94F3080C94F3080C94F308F4
:1000A0000C94F3080C94F3080C94F3080C94F308E4
:1000B0000C94F3080C94F3080C94F3080C949E2011
:1000C0000C94F3080C94F3080C94F3080C94F308C4
:1000D0000C94F3080C94F3080C94F3080C94F308B4
:1000E0000C94F3080C94F3080C942F120C94D61370
:1000F0000C94F3080C94F3080C94F3080C94F30894
:100100000C94F3080C94F3080C94C21A0C94F308A2
:100110000C94F3080C94F3080C94F3080C94F30873
:100120000C94F3080C94F3080C94F3080C94F30863
:100130000C94F3080C94F3080C94AB1A0C94F30889
:100140000C94F3080C94F3080C94F3080C94F30843
:100150000C94F3080C94F3080C94F3080C94F30833
:100160000C94F3080C94F3080C94F3080C94F30823
:100170000C94F3080C94F3080C94F3080C94F30813
:100180000C94F3080C94F3080C94F3080C94F30803
:100190000C94F3080C94F3080C94F3080C94F308F3
:1001A0000C94F3080C94F3080C94F3080C94F308E3
:1001B0000C94F3080C94F3080C94F3080C94F308D3
:1001C0000C94F3080C94F3080C94F3080C94F308C3
:1001D0000C94F3080C94F3080C94F3080C94F308B3
:1001E0000C94F3080C94F3080C94F3080C94F308A3
:1001F0000C94F3080C94953C0C94C23C022C942C67
:10020000B42CD32CE22C942CB42CF02C532DA72DF1
:10021000E22D1D2E2C2E372E542E742E902EAA2E0B
:10022000C32ED72EE82EF82E082F1C2F292F362F5D
:10023000702F812F8E2F9B2FAA2FB72FC92FE42F1E
:10024000F12F0D3054306C3081309530AF30C930E3
:10025000E330F430093114312631383159317A31F3
:100260008731A231BF31E131F2312D324C326B3264
:1002700083329B32B832CE32E032F43208331C3350
:1002800035334E3365337C338F33A233B533273464
:100290002D3433343934473457346534733485342A
:1002A0009434A834BB34C734D3340D360D36DF3420
:1002B000F0340D360D36FC340D360E351C350D364A
:1002C0002A35383546355635643572358535983595
:1002D000AB350D36B735C935D735DD35EF350D368C
:1002E0000136723604380438043888369336C536F9
:1002F000FB36483789379E37AA37B137B837BD370D
:10030000C137CA37DC37EB37EF3CFF3D033EFF3DDB
:10031000033EF63C0E3D033E283D2F3D8B959FA9A5
:10032000B2BBC3CBD3DAE1E8EEF4FA00050B10144C
:10033000191D2125292D3134373A3D404345484A7E
:100340004C4F51535557585A5C5D5F60616364650B
:10035000666768696A6B6C6D6E6F6F7071717273CE
:100360007374747575767676777778787879797925
:100370007A7A7A7A7B7B7B7B7B7C7C7C7C7C7C7DC9
:100380007D7D7D7D7D7D7E7E7E7E7E7E7E7E7E7E93
:100390007E7E7F7F7F7F7F7F7F7F7F7F000000006B
:1003A0000000000000000000010101010102020242
:1003B0000303030404040505060607070809090AE0
:1003C0000B0C0C0D0E0F1011121314151617181913
:1003D0001A1C1D1E202122242527282A2B2D2F30D0
:1003E00032343537393B3C3E4042434547494B4D1B
:1003F0004E5052545657595B5C5E60616365666847
:10040000696B6C6E6F7071737475767778797A7BBF
:100410007B7C7D7D7E7E7F7F7F7F7F7F00000000F5
:1004200000000000010101020203030404050606A6
:100430000708090A0A0B0C0D0E0F101112141516DD
:1004400017181A1B1C1D1F202223242627292A2C9B
:100450002D2F3032333536383A3B3D3E404143450F
:100460004648494B4C4E4F5153545657585A5B5D72
:100470005E5F616264656667696A6B6C6D6E6F7002
:10048000717273747576777878797A7A7B7B7C7CF5
:100490007D7D7E7E7E7F7F7F7F7F7F7F090909094B
:1004A0000A0A0A0A0A0B0B0B0C0C0D0D0E0E0F108C
:1004B00010111213131415161718191A1B1C1D1ED0
:1004C0001F20212324252627292A2B2D2E2F3132A8
:1004D00034353638393B3C3E3F4042434546484937
:1004E0004B4C4D4F505253555657595A5B5D5E5FBA
:1004F00061626364666768696A6B6C6E6F70717263
:10050000727374757677777879797A7B7B7C7C7D6A
:100510007D7E7E7E7E7F7F7F7F7F7F7F7EFF81915E
:1005200091F1600060F49494FCF800FFFF8484FC77
:10053000780078FC8484FC7800047FFF848400FCCD
:10054000FC080C0C0078FC8484FC7800F8FC0404A3
:10055000FCF800FDFD0078FC8484840098BCB4F4B1
:1005600064080878404078080840407808087840D7
:10057000407E42424242427E1806067F7F7F7F7F56
:100580007F7FFFFF7F0AFCFFFFFFFFFF4002FFFFAF
:100590007FFF05FFFFFFFFBE000101402060423EDC
:1005A000423E0080000080A06018A0E0000001FF33
:1005B0001080018000E0AB000006010108FF800010
:1005C000C129001C4046323A200046313A200053EF
:1005D0001C1D1E00561C1D1E00205600201A1B56F6
:1005E0000053544F50004B434E54004B485A001F89
:1005F000563D002031161F543D00010000000A0046
:10060000000064000000E803000010270000A0863E
:10061000010040420F0080969800465720322E3449
:100620003000000000FE010001FF01FE01FD02FE9E
:10063000000201000101010201030202FF000000AB
:10064000FE010001FF01FE01FD02FEFF00000002AD
:1006500001000101010201030202FFF8FEFF07038E
:100660000307FFFEF80F3F7F706060707F3F0F0051
:1006700010181CFEFFFF000000000000007F7F7FBD
:100680000000000C0E0F070383C7FFFE7C70787C10
:100690007E6F67636160600C0E0FC7C3E7FFFEBC2F
:1006A00000183878706060717F3F1F0080C0F0785C
:1006B0001EFFFFFF000E0F0F0D0C0C7F7F7F0CF055
:1006C000FFFF7F6363E3E3C3830C3C7C7060607077
:1006D0007F3F1FF8FEFFC7C3C3C7CF8E0C0F3F7FFE
:1006E000716060717F3F1F03030383E3FB7F1F077C
:1006F0000300007C7F7F03000000001C3EFFE7C377
:10070000C3E7FF3E1C1E3F7F736161737F3F1E7C0A
:10071000FEFFC78383C7FFFEF818387971616171E6
:100720007F3F0F103E1010101E300C02382038286A
:100730003C08050F04000038180838300C02283E29
:1007400000182018382638000000002E0006000689
:100750003E143E143F0A120824142A340006001CDA
:100760002200221C001C1C1C081C08402000080839
:10077000080020001008041C221C243E20322A24D9
:10078000222A140E083E2E2A123E2A3A023A063E29
:100790002A3E2E2A3E0014002014000814221414AD
:1007A00014221408022A041C262E3C0A3C3E2A1459
:1007B0001C22223E221C3E2A223E0A021C221A3EF3
:1007C000083E223E2210201E3E08363E20203E04D7
:1007D0003E3E023E3E223E3E0A041C223C3E0A347D
:1007E000242A12023E023E203E1E201E3E103E36AD
:1007F00008360E300E322A26003E22040810223E11
:1008000000040204404040020400342C383E241806
:1008100018242418243E18342C083C0A58543C3E12
:100820000438003A00403A003E1824001E203C0CD8
:100830003C3C04381824187C241818247C38040400
:10084000283C14043E243C203C1C201C3C303C240E
:1008500018240C503C343C2C08362200360022363A
:10086000080406023E3E3E424D3E040000000000E9
:10087000003E000000280000008000000040000052
:100880000001000100000000000004000000000062
:100890000000000000000000000000000000000058
:1008A00000FFFFFF0053504920534E494646455232
:1008B0000A424954343A2F53530A424954353A4D67
:1008C0004F53490A424954363A4D49534F0A424917
:1008D00054373A53434B005541525420534E4946E6
:1008E0004645520A424954323A52582042495433FA
:1008F0003A54580049324320534E49464645520A1D
:10090000424954303A53444120424954313A5343C6
:100910004C0029681434091A040D820640032A0287
:100920001501FDEDDCCCBCACA8A40301FDF5E5C5CB
:100930006E17474F00444953434F4E4E4543542092
:100940004348312C434832004F46465345542020FB
:100950002020202020534C4545503A2020202020A4
:1009600020524553544F524500582000485A204DBC
:10097000415800312053544F5042495400322053C3
:10098000544F50424954004E4F20504152495459FF
:10099000004556454E20504152495459004F444459
:1009A00020504152495459004D4F56452D2020208A
:1009B00020202020204D4F56452B00534156494EB4
:1009C000472E2E2E006B2B6C2B6F2B6E2B5D2B6509
:1009D0002B662B011020304000E0C0A080C0E0005A
:1009E0002040014080C0FF004080C0FFFCE0C0A06C
:1009F00082FCE0C0A082313230302020003234301E
:100A0000302020003438303020200039363030207B
:100A1000200031393230302000333834303020007B
:100A2000353736303020003131353230300020203B
:100A3000314D003530304B003235304B00313235DE
:100A40004B002036324B002033314B002031364BE7
:100A5000002020384B002020344B00312E364B0034
:100A60002038303000203830300020333230002041
:100A70003136300020203830002020333200202052
:100A8000313600202020380020332E320020312E35
:100A9000360020302E3800302E3332002020381718
:100AA000002031361700203332170020363417006B
:100AB0003132381700323536170035303017002004
:100AC000311A1B0020321A1B0020351A1B0031304E
:100AD0001A1B0032301A1B0035301A1B0020302E32
:100AE000310020302E320020302E350020202031E1
:100AF000002020203200202020350020203130002E
:100B000020203230002020353000352E31320032A6
:100B10002E353600312E323800302E363400302E4D
:100B2000333200302E31360038301A1B000F0C0DD6
:100B30000E00101B121000111500002210111311CD
:100B40000029140016110019001D1E0020210000AC
:100B500000000904000000160419140808081616FD
:100B60000F16292929190C0D06060606060600008F
:100B70000102030405060708090A0A0B0C0D0E0FF3
:100B800010112122231F20121314151617151618E1
:100B9000191A1B1C1D1D1E24204348204F4E2020C7
:100BA00020002020202020204741494E2D202020B9
:100BB00020002020204741494E2B004C4F474943FD
:100BC000204F4E2000202020202053454C454354E8
:100BD000202020002050524F544F434F4C00204EB5
:100BE0004F524D414C202020002020202053494EC0
:100BF000474C45202020002043495243554C415248
:100C000000204E4F524D414C20202000202020201B
:100C100053494E474C45202020002020202041559C
:100C2000544F20002056435552534F52200020204D
:100C3000204843555220434831202000202048437B
:100C4000555220434832002048414D4D494E4720DF
:100C50002020002020202048414E4E20202000202F
:100C600020424C41434B4D414E002020434831200F
:100C70002020200020202020202020434832202037
:100C80002020200020204C4F47494320002047527D
:100C90004944202020002020464C495020444953FC
:100CA000504C415920002020494E564552542000B6
:100CB00020205644432020202020200020202056A1
:100CC00020502D50202000204652455155454E437E
:100CD000592000202053494E45202020200020206C
:100CE0002020535155415245202000202054524984
:100CF000414E474C4500504F534954494F4E2020D8
:100D00002000202020494E5645525420202000200B
:100D10002020204D4154482000504F534954494F02
:100D20004E20202000202020494E5645525420209D
:100D300000202020544849434B30200020434831B4
:100D40002000202020202020202020204348322066
:100D50000020202020202020204C4F4749430054D1
:100D600052494754595045202000202020545249D0
:100D70004753524320202000204D4F5245545249A2
:100D800047002053434F50452020202000202020A2
:100D9000204D455445522020200020202020202096
:100DA0004646542000204951204646542020200029
:100DB00020204646542057494E444F5720200020BB
:100DC0002020204C4F472000435552534F52532070
:100DD000002020202020444953504C41592020001D
:100DE00020202020202020415747005741564520F1
:100DF000545950452020002020205357454550206D
:100E0000202000204652455155454E435900205759
:100E1000494E444F572020200020202020454447A1
:100E200045202020200020202020534C4F504520DA
:100E30000020204155544F20202020200020202039
:100E4000545241434B2020200020524546455245F4
:100E50004E4345002020414C4C20202020200020E3
:100E60002020204249545F302020202000202020D4
:100E7000204249545F3100204249545F32202020F3
:100E80002000202020204249545F332020202000D1
:100E9000202020204249545F3400204249545F35CD
:100EA0002020202000202020204249545F3620208E
:100EB000202000202020204249545F370020455840
:100EC0005420545249472000202020204249545F9A
:100ED000302020202000202020204249545F310073
:100EE00020504152414C4C454C20200020202053A2
:100EF000455249414C2020002020202020205055E0
:100F00004C4C00204932432020202020200020206B
:100F10002020205541525420202020002020202035
:100F2000205350492000204E4F2050554C4C20203B
:100F30000020202050554C4C20555020200020509F
:100F4000554C4C20444F574E002050455253495366
:100F500054454E5420200020204C494E452020204E
:100F600000202020202053484F5720002043504F7E
:100F70004C202020202000202020204350484120C9
:100F80002020200020494E56455254205353002023
:100F90005355425452414354200020204D554C5447
:100FA00049504C5920200020204156455241474588
:100FB0002000414D504C49545544452000202044C8
:100FC000555459204359434C4520002020204F467A
:100FD000465345540020524F4C4C202020202000E6
:100FE000202020454C4153544943202000202058C4
:100FF00059204D4F44452000545249474D4F4445D8
:101000002020002020504F535454524947200020A4
:10101000202054524947484F4C4400204558502006
:10102000202020202000202020204E4F4953452002
:10103000202000202020435553544F4D20002053A2
:10104000504545442020202000202020204D4F44A2
:101050004520202020002020202052414E474520BE
:101060000053572046524551202020200020205375
:101070005720414D50202020002020535720445518
:10108000545920002020444F574E2020202000207B
:101090002050494E47504F4E4720202000202041ED
:1010A0004343454C000000C80090012003400680E7
:1010B0000C0019D430190032007D00FA00F401E26E
:1010C00004C4098813D430190032007D00FA00F4FA
:1010D00001E20400C2EB0B00E1F50580F0FA0240EA
:1010E000787D0120BCBE00105E5F0000D43000009F
:1010F000105E5F0008AF2F00D0121300688909004E
:101100006889090090D0030048E8010024F4000039
:10111000A8610000D43000006A180000C409000073
:10112000E204000071020000FA0000010002000465
:10113000000800140028005000C80090012003D0CF
:1011400007F900F301E703C30987130E035800539F
:101150000063006F00700065000000180347006125
:101160000062006F00740072006F006E006900631F
:1011700000730000000403090409022000010100BB
:1011800080FA0904000002FF000000070581024008
:1011900000000705010240000012011001FF0000DD
:1011A00040D016F9060001010200010011241FBE03
:1011B000CFEFCDBFDFE2DEBF10E2A0E0B0E2ECEBAC
:1011C000FFE702C005900D92AE30B107D9F72FE2CC
:1011D000AEE0B0E201C01D92A730B207E1F70E9475
:1011E000241C0C94DC3F0C9400008058860F1BF4E8
:1011F0008FE767FD80E880580895E2E0F9E0E80FA6
:10120000F11D099408C010C018C020C028C030C00B
:1012100038C040C048C058990895D099FCCF58991B
:101220000895D09BFCCFC7C058990895D199FCCFA1
:1012300058990895D19BFCCFBEC058990895D29972
:10124000FCCF58990895D29BFCCFB5C0589908950A
:10125000D399FCCF58990895D39BFCCFACC0589933
:101260000895D499FCCF58990895D49BFCCFA3C07E
:1012700058990895D599FCCF58990895D59BFCCFDE
:101280009AC058990895D699FCCF58990895D69B3D
:10129000FCCF91C058990895D799FCCF58990895DB
:1012A000D79BFCCF88C058990895F599FCCF5899E1
:1012B0000895F59BFCCF7FC0E1E6F9E0E80FF11D52
:1012C000099408C010C018C020C028C030C038C061
:1012D00040C048C058990895D09BFCCF58990895B4
:1012E000D099FCCF68C058990895D19BFCCF5899EC
:1012F0000895D199FCCF5FC058990895D29BFCCF37
:1013000058990895D299FCCF56C058990895D39B07
:10131000FCCF58990895D399FCCF4DC058990895A2
:10132000D49BFCCF58990895D499FCCF44C05899C8
:101330000895D59BFCCF58990895D599FCCF3BC013
:1013400058990895D69BFCCF58990895D699FCCF0B
:1013500032C058990895D79BFCCF58990895D799D2
:10136000FCCF29C058990895F59BFCCF5899089552
:10137000F599FCCF20C083580090240280151CF4FE
:10138000589BFACF08958A5F0090240280159CF044
:10139000589BFACF08958D570090240280151CF0B9
:1013A000589BFACF089586500090240280151CF4B3
:1013B000589BFACF089589E0809340085D9A80B1E8
:1013C0008B3058F484E100904C0800FEFCCF109262
:1013D000000A8093010258995D98089583580090FF
:1013E0002C0280151CF4589BFACF08958A5F009058
:1013F0002C02801504F3589BFACF08958D57009066
:101400002C0280151CF0589BFACF0895865000904E
:101410002C02801584F6589BFACF08957F93009094
:101420002402709124020716072E24F0589BF9CF4E
:101430007F91089570912402071A8015072ED4F425
:10144000589BF8CF7F9108957F930090240270916C
:1014500024027015072E24F0589BF9CF7F91089530
:1014600070912402071A0816072E24F4589BF8CF0F
:101470007F9108957F919FCF7F9300902C02709170
:101480002C020716072E24F0589BF9CF7F91089560
:1014900070912C02071A8015072E64F7589BF8CF1D
:1014A0007F9108957F9300902C0270912C0270150B
:1014B000072E24F0589BF9CF7F91089570912C024C
:1014C000071A0816072EB4F6589BF8CF7F91089597
:1014D000805860580090240280156CF206165CF269
:1014E000589BF8CF08958058605800902C028015C2
:1014F00014F2061604F2589BF8CF0895FF7F0000FF
:10150000F57F2403D87F4806A67F6A09617F8C0C8B
:10151000097FAB0F9C7EC8121D7EE215897DF918EC
:10152000E37C0B1C297C1A1F5C7B23227C7A2825F8
:101530008979262884781F2B6B77112E4176FB3012
:101540000475DF33B573BA3654728C39E270563C89
:101550005E6F173FC96DCE41236C7A446D6A1C479C
:10156000A668B449CF663F4CE864BF4EF162335180
:10157000EB609B53D75EF555B35C4258825A825A52
:101580004258B35CF555D75E9B53EB603351F16223
:10159000BF4EE8643F4CCF66B449A6681C476D6AED
:1015A0007A44236CCE41C96D173F5E6F563CE270A2
:1015B0008C395472BA36B573DF330475FB3041761B
:1015C000112E6B771F2B84782628897928257C7A21
:1015D00023225C7B1A1F297C0B1CE37CF918897D74
:1015E000E2151D7EC8129C7EAB0F097F8C0C617FBB
:1015F0006A09A67F4806D87F2403F57F0000FF7F95
:10160000DCFCF57FB8F9D87F96F6A67F74F3617F8E
:1016100055F0097F38ED9C7E1EEA1D7E07E7897D27
:10162000F5E3E37CE6E0297CDDDD5C7BD8DA7C7ADF
:10163000DAD78979E1D48478EFD16B7705CF417619
:1016400021CC047546C9B57374C65472AAC3E2703E
:10165000E9C05E6F32BEC96D86BB236CE4B86D6AAB
:101660004CB6A668C1B3CF6641B1E864CDAEF162B5
:1016700065ACEB600BAAD75EBEA7B35C7EA5825AB1
:101680004DA3425829A1F555159F9B530F9D3351EA
:10169000189BBF4E31993F4C5A97B44993951C47BC
:1016A000DD937A443792CE41A290173F1E8F563C6D
:1016B000AC8D8C394B8CBA36FC8ADF33BF89FB305A
:1016C0009588112E7C871F2B7786262884852825D0
:1016D000A4842322D7831A1F1D830B1C7782F91839
:1016E000E381E2156481C812F780AB0F9F808C0CF8
:1016F0005A806A09288048060B802403008040C075
:1017000020A060E0109050D030B070F0088848C839
:1017100028A868E8189858D838B878F8048444C4D9
:1017200024A464E4149454D434B474F40C8C4CCCD9
:101730002CAC6CEC1C9C5CDC3CBC7CFC028242C291
:1017400022A262E2129252D232B272F20A8A4ACAD9
:101750002AAA6AEA1A9A5ADA3ABA7AFA068646C679
:1017600026A666E6169656D636B676F60E8E4ECE79
:101770002EAE6EEE1E9E5EDE3EBE7EFE018141C13D
:1017800021A161E1119151D131B171F1098949C9A9
:1017900029A969E9199959D939B979F9058545C549
:1017A00025A565E5159555D535B575F50D8D4DCD49
:1017B0002DAD6DED1D9D5DDD3DBD7DFD038343C301
:1017C00023A363E3139353D333B373F30B8B4BCB49
:1017D0002BAB6BEB1B9B5BDB3BBB7BFB078747C7E9
:1017E00027A767E7179757D737B777F70F8F4FCFE9
:1017F0002FAF6FEF1F9F5FDF3FBF7FFF772788947B
:10180000881F771F881F771F672F71FD6250EFEFCA
:10181000F4E1E80FF61F849171FD819508953F92E0
:101820002F925F924F927F926F929F928F92BF9270
:10183000AF92DF92CF92FF92EF921F930F93DF93BD
:10184000CF93FC0181E090E0A0E8B0E004E0809F4D
:101850006001909FD00C7C019F938F93EF01A09F1C
:10186000C00DD11DB09FD00DFF93EF93BB24AA24D0
:101870009927008111811595079568817981759562
:101880006795A801061B170B460F571F41935193ED
:1018900020813181359527956A817B817595679582
:1018A000A901261B370B460F571F419351930F0178
:1018B000ECEFF4E1EA0DFB1D4591559165917591B1
:1018C000F001950320010C031001491E9C03590AE5
:1018D000300C411C591ED803590A300C411C591EAA
:1018E000B70340012E033001891EBE03990A700C14
:1018F000811C991EFA03990A700C811C991E260CF2
:10190000371C481C591C49925992B50320012C03DD
:101910001001491EBC03590A300C411C591EDA0340
:10192000590A300C411C591E970340010E03300127
:10193000891E9E03990A700C811C991EF803990A4E
:10194000700C811C991E26183708480859084992BE
:101950005992AC0CBD1CB1FE8CCF04E0A09FC00D11
:10196000D11DE00DF11DB09FD00DF00D81E0E81A02
:10197000F90A09F07BCFEF91FF918F919F91880F2A
:10198000991FB695A795109609F060CFCF91DF917A
:101990000F911F91EF90FF90CF90DF90AF90BF908D
:1019A0008F909F906F907F904F905F902F903F907F
:1019B00008950002030405060708090A0B0C0D0E22
:1019C0000E0F3F922F925F924F927F926F929F9253
:1019D0008F92BF92AF921F93DF93CF935C01EB0185
:1019E00060E470E0ECEFF6E1992710E844991127E4
:1019F000A591BB27AA0FBB1FAA0FBB1FAA0DBB1D1A
:101A00002D913D914D915D91B30320012A03100169
:101A1000491EBA03590A300C411C591EBA03590A0F
:101A2000300C411C591ED50340014C033001891E66
:101A3000DC03990A700C811C991EDC03990A700C56
:101A4000811C991E260C371C481C591C66247724BF
:101A50008824992421E030E04427552770E1220CA6
:101A6000331C441C551C661C771C881C991C220CBA
:101A7000331C441C551C661C771C881C991C2AF4BA
:101A8000620E731E841E951E04C0621A730A840AB5
:101A9000950A220F331F441F287F256097FC225090
:101AA0007A95E9F646953795279546953795279582
:101AB0001124439B1FC06217730710F020E020C061
:101AC000261B370BFF93EF93E2EBF9E140EF37FD75
:101AD00004C0221F331F4051FACF330F369536957D
:101AE00036953695E30FF11D5491450F342FEF9144
:101AF000FF9106C0220F331F220F331F08F43FEF60
:101B000039931A9509F074CFCF91DF911F91AF905F
:101B1000BF908F909F906F907F904F905F902F908D
:101B20003F9008958091702B9091712BA091722B12
:101B3000B091732B26E034E0239FF0011124E6508E
:101B4000FA4F459155916591749184179507A607B1
:101B5000B70710F4215078F734E0239FF0011124E7
:101B6000EE50FA4F4591559165917491619B05C076
:101B7000841B950BA60BB70B14C0629B05C0840F8A
:101B8000951FA61FB71F0DC0223009F427E084E07F
:101B9000289FF0011124EA50FA4F85919591A59163
:101BA000B4918093702B9093712BA093722BB09370
:101BB000732B08950F931F93CF93DF9380916C2B1A
:101BC000181614F410926C2B80916E2B811103C0A7
:101BD00081E080936E2B8091702B9091712BA0915E
:101BE000722BB091732B84369105A105B10528F4B1
:101BF00084E690E0A0E0B0E009C081329C4BAE4B9F
:101C0000B10560F080E29CEBAEEBB0E08093702B0E
:101C10009093712BA093722BB093732B4091702BE8
:101C20005091712B6091722B7091732B36E020E4F0
:101C300080E09AE6A8E1B0E084179507A607B70709
:101C400010F520934A2080916D2B823009F44BC00F
:101C500058F4882351F1813009F078C0C0E5D5E20D
:101C60000C2F10E41C1B37C08430A9F0C8F085305D
:101C700009F06CC040E051E060E070E080E595E282
:101C80000E94803F63C0B695A79597958795269546
:101C9000315091F6D6CFA0E5B5E280E090E042C0A9
:101CA000E0E5F5E280E09FE72DC08091600990912A
:101CB000610920E535E2F90145E552E6BC01649F82
:101CC000C001659F900D749F900D11240196919312
:101CD0002E13F4CF3BC08C2F810F0E94FE0B8993F3
:101CE0000C13F9CF33C080E595E2FC01382F2E2F7D
:101CF000281B27FF02C02FE701C021E821933E13D4
:101D0000F6CF24C0803839F0282F220F392F321B0C
:101D100031938F5FF7CF982F990F9F5791938F5FD4
:101D2000D1F714C0282F8038910541F0FC01E45E02
:101D3000FC4FE491E195ED930196F4CFE22FF0E0B2
:101D4000E456FD4FE491ED932F5FC1F720916E2B88
:101D500030E080E091E0821B930B880F991FD9013E
:101D6000AA0FBB1F60E575E2FB0140E050E0162FB3
:101D7000252F30E0205B3A4DE901D395008108839F
:101D800001915F3F81F021962081332727FD309517
:101D9000200F311D07FD3A9537FF02C02F5F3F4FDF
:101DA000359527952883480F591F2E2F3E2F361B18
:101DB000303809F4CD011213DBCFC0914A20AC2F8B
:101DC000B0E020E13EE54FE550E00E94643F209105
:101DD000702B3091712B4091722B5091732B0E947C
:101DE000073F2150310986E08093A200C23010F0F5
:101DF00081E001C082E0809340092093760930930E
:101E000077091C2F169509F411E0D0E0C0E020916D
:101E10006C2BED2FF0E0E05BF94D3081A303812DB9
:101E2000112460916F2B0E94F608EC2FF0E0E55B27
:101E3000FF4D8083CF5FD10FC111E9CF599887E063
:101E40008093A200DF91CF911F910F910895EEE44E
:101E5000F1E2119285E2EE34F807D9F710924F259E
:101E600010924E250895F8943C9B05C088EC0E9482
:101E7000403E81EA04C080EC0E94403E80EA0E941D
:101E8000403E3B9B02C087EA01C086EA0E94403E7A
:101E90007894089590E1699FF0011124E078E80FAB
:101EA000F11DE55BFE4D677081E090E0062E01C0FC
:101EB000880F0A94EAF79381982B938308950F93E0
:101EC0001F93CF93DF93182F062FEA019E01FE0187
:101ED000949122962F5F3F4FF90164919F3F31F01B
:101EE000600F892F810F0E944A0FF0CFDF91CF91B1
:101EF0001F910F910895E0914F2591E09E0F9093CF
:101F00004F2590914E25F0E020E8929FE00DF11DC5
:101F10001124E55BFE4D9381982B93830895CF9216
:101F2000DF92EF92FF920F931F93CF93DF93182FBF
:101F3000062FC42FD22FC81BD61BD7FF04C0D195A4
:101F4000EE24EA9402C0EE24E394C7FF04C0C195D6
:101F5000DD24DA9402C0DD24D394602F812F0E9407
:101F60004A0FCD1788F0FC2EF694C12CCC16E1F068
:101F7000FD0EFC1610F0FC1A0E0D1D0D602F812FAA
:101F80000E944A0FC394F2CFFD2EF694C12CFC0E92
:101F9000FD1610F0FD1A1D0D0E0D602F812F0E94F1
:101FA0004A0FC394CD12F3CFDF91CF911F910F91C0
:101FB000FF90EF90DF90CF900895EF92FF921F93E4
:101FC000CF93DF93182F8A3081F1282F30E02451EE
:101FD0003109F901EE0FFF1FE20FF31FED5DF84F1E
:101FE0007F0183E0E80EF11CEF0121968491619B53
:101FF00002C0806880950E947B0FCE15DF0511F02E
:10200000FE01F2CF1C3111F480E318C01D3149F4F8
:1020100088E30E947B0F80914F258F5F80934F252F
:102020000FC01A3111F488E009C080914F2587FD57
:1020300007C0619902C080E001C08FE70E947B0F5A
:1020400080914F2587FD02C01A3039F410924F2538
:1020500080914E258F5F80934E25DF91CF911F9108
:10206000FF90EF900895EF92FF920F931F93CF93FD
:10207000DF938E3229F480E60E947B0F80E60CC04D
:102080008D3269F483E00E947B0F83E00E947B0F16
:1020900083E00E947B0F83E00E947B0F39C0803277
:1020A00021F480914F258A5F36C094E1899FE00139
:1020B0001124C55AD94F80914E25815080934E25C9
:1020C0008E01065F1F4FFE017F018FEFE81AF80AAD
:1020D00084910E947B0FE016F10611F0F701F4CF16
:1020E00080914E258F5F80934E2580914F258A5099
:1020F00080934F25649678019FEFE91AF90AF80159
:1021000084910E947B0FEC16FD0611F08701F3CF3E
:1021100080914F258E5F80934F25DF91CF911F9146
:102120000F91FF90EF900895CF93DF93FC0184917E
:10213000EF012196882321F00E94DD0FFE01F7CFE9
:10214000DF91CF910895CF93DF93C82F843660F04D
:10215000DCE9D80FD43620F0D8E3D80F82E301C0F1
:1021600081E30E94DD0FCD2F80E3CA3018F08F5F2E
:10217000CA50FBCF0E94DD0F80E38C0FDF91CF911F
:102180000C94DD0FEF92FF920F931F93CF93DF9389
:10219000CDB7DEB72C97CDBFDEBF8E010F5F1F4FCF
:1021A00098E0F80111929A95E9F780934F25609392
:1021B0004E2557FF15C050954095309521953F4FBE
:1021C0004F4F5F4F8DE262990EC029873A874B8748
:1021D0005C870E94DD0F29853A854B855C8514C09C
:1021E00080E2629B07C029873A874B875C870E9401
:1021F0003310F1CF29873A874B875C870E94DD0F28
:102200005C854B853A852985619940C02036F3E489
:102210003F07F9E94F07FBE35F07DCF5211581EE86
:10222000380785EF480785E0580754F0CA01B9011F
:1022300020EA36E841E050E00E94293FF12C2EC010
:10224000CA01B9012038E6E93E07E8E94E07510521
:102250004CF020E137E240E050E00E94293FFF24AB
:10226000F3941CC0203432444F4051054CF028EE0A
:1022700033E040E050E00E94293F72E0F72E0EC0AC
:1022800024E630E040E050E00E94293F63E0F62E73
:1022900005C0F12C2FE037E240E050E067E084E039
:1022A000689FF0011124E650FA4F85919591A59110
:1022B000B491F801E60FF11D281739074A075B07AB
:1022C00040F070817F5F7083281B390B4A0B5B0BDA
:1022D000F3CF615020F7619B03C027E0E22E02C0DC
:1022E00093E0E92E8E2D90E0F801E80FF91F629B34
:1022F00009C080810E943310FE100DC08EE20E9442
:10230000331009C08081805D0E94DD0FFE1003C084
:102310008EE20E94DD0FEA94EFEFEE12E3CF2C96EF
:10232000CDBFDEBFDF91CF911F910F91FF90EF9056
:102330000895E62FF0E0EE0FFF1FE050F04E2081F1
:102340003181DC010E945D3F28E030E040E050E058
:102350000E94293F60914E2580914F250C94C21018
:1023600080934F2560934E25CA010C9494109627B4
:10237000092E0294202D2F702927692F6025660FC2
:10238000607E2627602D6927607F6695092E000CE8
:10239000661F9695969596959F7196279827822FFA
:1023A000089588EA91E62091A10A27FD09C02AE64E
:1023B0002A95F1F700C001970097A9F780E00895EA
:1023C0008091A00A0895811105C090B19B3080F0E2
:1023D0005D980EC0863060F0833251F0863241F055
:1023E00094EF980F923020F098EE980F953008F403
:1023F000589A8E3070F41092502B1092512B1092EC
:10240000522B1092532B5A9A8C3030F4E82FF0E074
:1024100008C0843208F0599A8C50E82FF0E0EC5A4A
:10242000F44D60830895E0913020909132209830EF
:10243000E0F791E09E0FF0E0E05DFF4D8383F894BC
:10244000809132208F5F8093322083E18093A30AB2
:102450007894983008F090E09093302008951F927F
:102460000F920FB60F9211248F929F92AF92BF924C
:10247000CF92DF92EF92FF920F931F932F933F9390
:102480004F935F936F937F938F939F93AF93BF937C
:10249000EF93FF93CF93DF931F92CDB7DEB71092E8
:1024A000080410920904EC988091A00A883609F477
:1024B00083C050F5833609F463C0C0F4813609F453
:1024C00048C008F053C0833409F052C181E00E9433
:1024D000131281E00E9413128EEF0E94131297E6EE
:1024E000E92E98E0F92E10E090E0B2C0853609F4AC
:1024F00057C008F452C0863609F45BC0873609F02D
:1025000037C1589A5C9834C1803709F471C058F4C7
:102510008A3609F458C008F452C08D3609F028C133
:1025200000E51BE25BC0853709F464C028F48137FD
:1025300009F01EC1679A1CC1873709F471C088373A
:1025400009F016C187E40E9413120BE410E278012F
:1025500073C00DE116E0F80184910E9413120F5F21
:102560001F4FF6E001321F07B1F702C10E94D111DF
:10257000182F0E94D111682F812F0E94E311F8C0FB
:1025800000E71BE20E94D111F80181938F01FBE269
:1025900004371F07B9F7599AEBC00E941A1AE8C00E
:1025A00040E051E060E070E08BE490E20E94A13FE7
:1025B000DFC0589A5C9ADCC0589A5D9AD9C0589A84
:1025C0000E94841DD5C00E94D11180935E2B0E9471
:1025D000D11180935F2B0E94451FCAC0F8018191E1
:1025E0008F010E941312FBE204351F07B9F7C0C028
:1025F0006798BEC000E010E0F80181918F010E9451
:1026000013120C301105C1F704E51BE2F8018191AA
:102610008F010E941312FBE204371F07B9F7A8C00D
:1026200010E0812F90E0805090400E948C3F0E94EB
:1026300013121F5FB1F79CC00E94D111F701819363
:102640007F010E13F9CF599A84E50E94131290C0AE
:10265000F7010491602F812F0E94B711182F802F4E
:1026600099830E941312FFEFEF1AFF0A998125EA5E
:10267000E21628E0F20661F78FE3F82E0EE3DD2480
:10268000D394AA24A394F0E1FF9E4001112420E8F2
:1026900082228F2D8770BA2C01C0BB0C8A95EAF775
:1026A000E12CF401E55BFE4D4F0180E0C12CCC0C28
:1026B000282F2E0DF401E20FF11D23812B2131E093
:1026C00009F030E0C32A8F5F883089F76C2D812FA5
:1026D0000E94B711182F8C2D99830E9413120F5F3F
:1026E00099810038C1F4892F0E941312812F0E9412
:1026F00013120E94D1118630D9F5D39481E00E9443
:1027000013128D2D0E9413128D2D80950E9413128D
:1027100010E090E000E038E0E30E80E8E812C5CF7A
:10272000FA94EFEFFE12AFCF07FD0CC06AE1812FE4
:102730000E94B711182F8AE199830E9413120F5F2C
:102740009981F2CF892F0E941312812F0E941312B8
:102750000E94D111863061F484E00E9413120E941D
:10276000D111853129F484E00E9413120E94D11105
:102770000F90DF91CF91FF91EF91BF91AF919F911A
:102780008F917F916F915F914F913F912F911F9109
:102790000F91FF90EF90DF90CF90BF90AF909F9000
:1027A0008F900F900FBE0F901F9018951F920F9251
:1027B0000FB60F9211248F939F93EF93FF93809105
:1027C0003220882399F0815080933220E09131208B
:1027D00081E08E0FF0E0E05DFF4D93819093A00AC1
:1027E000883008F080E08093312003C080E180933E
:1027F000A30AFF91EF919F918F910F900FBE0F90C1
:102800001F9018959F92AF92BF92CF92DF92EF9256
:10281000FF920F931F93CF93DF93E090572BC091BC
:10282000582B359902C0CFE7E12C2E2D332727FDF9
:102830003095DD27C7FDD095C21BD30BF3E0CC0F3D
:10284000DD1FFA95E1F780B18B3020F0CC0FDD1F52
:10285000E22EEE0CD090672BD694D694D694FF241B
:10286000E7FCF094FE2CEE2408E010E060E8C62EB1
:10287000A12C78E7972E80B18B3040F42091562B15
:1028800030E0322F22272E0D3F1D01C0970184B169
:102890008C2109F12C0F3D1F81E0E32FFF27E45825
:1028A000F24D9081482F437031F4BB0CAA2031F0D7
:1028B000B394A12C03C09C2109F0A3942C0F3D1FBD
:1028C0008F5F813251F790924F25D0924E258B2DFC
:1028D0000E94F619D394C6940150110901151105EF
:1028E00051F6DF91CF911F910F91FF90EF90DF9004
:1028F000CF90BF90AF909F90089580911001806419
:102900008093100180912001806480932001809148
:10291000A10887FF03C08091A008F9CF8091C20869
:1029200081118091C30885E88093120180E892E0CC
:10293000809314019093150180E595E280931C012A
:1029400090931D018091682B823029F48BE4809351
:10295000130180EA06C0811109C08AE48093130143
:1029600083EC8093180188E080931901379B02C0A3
:1029700084E801C084EA8093100185E880932201F5
:1029800080E892E0809324019093250180ED97E206
:1029900080932C0190932D018AE59AE2809328017F
:1029A00090932901379B02C084E801C084EA809398
:1029B00020010895CF92DF92EF92FF920F931F9321
:1029C000CF93DF93D82E81110AC00091512A109124
:1029D000522AC0E5EC2EC5E2FC2E80E009C0009131
:1029E000532A1091542AB0EDEB2EB7E2FB2E87E468
:1029F00080934F2510924E251F9B03C06695C0E51E
:102A000001C0C8E24C2F50E02C9904C0C69FE001E1
:102A100011241AC098010417150710F420583D4FCF
:102A2000241B350B70E06F5F7F4F649FE001659F53
:102A3000D00D749FD00D1124C20FD31FC03882E077
:102A4000D80710F0C058D240A7E4CA2E80914E2576
:102A50008830E8F52C9903C0C017D107C0F5F701FD
:102A6000EC0FFD1F80812196C03892E0D90710F04D
:102A7000C0E0D0E01F9B13C08A3011F484E107C08E
:102A80008D3011F485E103C0803208F48FE50E9497
:102A9000DD0F80914F258E5F80934F2505C00E94EA
:102AA000F61980E20E94DD0F80914F25D1100AC0F7
:102AB0008B3360F210924F2590914E259F5F90933B
:102AC0004E25C4CF873410F6C0924F25BFCFDF917B
:102AD000CF911F910F91FF90EF90DF90CF900895CD
:102AE0002F923F924F925F926F927F928F929F921E
:102AF000AF92BF92CF92DF92EF92FF920F931F930C
:102B0000CF93DF9300D01F92CDB7DEB70E94270F7F
:102B100060E5E62E65E2F62EF70111922AE2E23533
:102B2000F207D9F71092512A1092522A1092532A82
:102B30001092542A2C9902C0912C02C05FE0952E6D
:102B40001092730081E0809302048091682B8130A1
:102B5000F9F484EF98E00E94941080E599E2809364
:102B6000562A9093572A80E595E28093582A9093AD
:102B7000592A80E880935A2A80915006887F826083
:102B80008093500683E080934C068093490667C08B
:102B9000823009F04BC087ED98E00E9494103AB162
:102BA0003770832F90E0FC01E65DF64FE491E093EF
:102BB000A608FC01EE5DF64F84918093A7088AB1C8
:102BC000887190E043E0959587954A95E1F7282F25
:102BD00045E0480F4093552AE32FF0E0559B06C08F
:102BE000569B02C0206302C0282F2062579928609C
:102BF0002093A50880E18093A40881E08093400899
:102C0000EE0FFF1FEE5EF64F8591949180935B2A45
:102C100090935C2A969587959695879580936608FC
:102C20009093670883E08093460819C0811117C00C
:102C300085EA98E00E949410569902C081E001C094
:102C400081E41AB1111F1127111F110F110F809369
:102C50005706559B05C080E48093540601C010E0E0
:102C60000E947D140E94B63E0E94B01980E892E056
:102C7000105C53E06CE02091512A3091522A232BB2
:102C800009F064C02091532A3091542A232B09F073
:102C90005DC04091682B413001F1209114013091C9
:102CA0001501FC01E21BF30BE093512AF093522A29
:102CB0002091240130912501FC01E21BF30BE093EC
:102CC000532AF093542A411108C0D49B06C0109394
:102CD000C00850934C06609349065B9933C01FB8F7
:102CE0008CE79BE280932C2090932D2082E28093AE
:102CF000282064981092A3081092A4081092460805
:102D000010924008109249061092C0088CE78093F8
:102D1000730085E0809302042396CDBFDEBFDF9170
:102D2000CF911F910F91FF90EF90DF90CF90BF90C8
:102D3000AF909F908F907F906F905F904F903F905B
:102D40002F900895789B97CF5B9895CF70E1872E51
:102D5000E0EDCE2EE7E2DE2EF9E8AF2EF2E0BF2E58
:102D600000E812E0AEE37A2EBBE36B2E81E4582E2E
:102D70000E94B63E0E94B0190E94270F8091282021
:102D800085FF1FC010922E2010922F20649909C039
:102D9000E0922C20F0922D2000932A2010932B20DB
:102DA00008C0C0922C20D0922D20A0922A20B09250
:102DB0002B20809128208D79809328208CB1882524
:102DC0008CB98091682B813009F090C0292D30E0BA
:102DD0002C9B2AC08091512A9091522A80349105CF
:102DE00038F08091512A9091522A8054910906C05E
:102DF0008091512A9091522A80549C4FA9014F5F93
:102E00005F4F66E0440F551F6A95E1F7480F591F61
:102E10004A835B83411564E0560718F054504A8397
:102E20005B8330E4332E4FC0A90126E0440F551FC9
:102E30002A95E1F7F4CF8091512A9091522A6A8124
:102E40007B816817790708F0D4C0EA81FB81E05BD9
:102E5000FA4D2080EA81FB81F695E795F695E79596
:102E6000E05BF64D208130E04A814370440F81E001
:102E7000840FF90101C0EE0F8A95EAF7E0784E2E33
:102E8000042E01C0220F0A94EAF7822D27FF26C0E4
:102E900086950E94F61920FE1BC04420B9F08CE3F1
:102EA0000E94DD0F80E20E94DD0F2A813B812F5FAF
:102EB0003F4F2A833B832115344010F01A821B8236
:102EC0003A9409F496C02C99C0CFB5CF88E2E8CFE8
:102ED000442011F08EE3E4CF89E2E2CF0E94F6199C
:102EE000442011F08BE2DCCF8DE2DACF8091140127
:102EF00090911501B801681B790B6093512A70936A
:102F0000522A8091240190912501F801E81BF90BC8
:102F1000E093532AF093542A379B18C080911001F4
:102F200087FD0BC010921401109215011092A40895
:102F30008091C0088F7B8093C0088091200187FD1D
:102F400005C010922401109225015C9A5C9B1DC063
:102F50002EE14FE368E08FE30E948F0F81EE282E71
:102F600085E0382E94E070924F2590934E25F10124
:102F7000849199830E94DD0F99819F5F91012F5F5A
:102F80003F4F983041F01901EECF2FE34FE368E057
:102F90008FE30E948F0F892D1F998E7F70924F258E
:102FA00010924E250E94EE190E94DD0F8091682B31
:102FB00060924F2581110AC081E080934E2589E4FB
:102FC0000E94DD0F50924F258FE409C081E080936D
:102FD0004E2582E50E94DD0F50924F2584E50E9428
:102FE000DD0F692D80E00E94DA14692D81E00E94D6
:102FF000DA147C9B3DC07C987A9B05C0799B03C00A
:1030000083B1805883B97B9B28C08BB188258BB94D
:103010008091682B5C9B0CC01092A4089091C00812
:103020009F7B9093C0088130C1F41092490615C06F
:10303000813021F4F3E0F09349060CC0823019F49A
:103040008092A40807C0811105C08091C0088064E7
:103050008093C00837990E947D147A9B02C091101A
:103060009A94799B03C02FE09212939478995B987D
:103070005B997ECE34CE1F920F920FB60F92112421
:103080002F933F934F935F936F938F939F93AF9340
:10309000BF93EF93FF93E091582AF091592AA091A2
:1030A000562AB091572A20915A2A88E18093200805
:1030B00080910C08816080930C08D19B05C08091A1
:1030C0000C0880FFFACF55C051E080E0D19905C0CF
:1030D00090910C0890FFFACF4CC099E2E035F907C7
:1030E000C9F19AB3692F617090FD0FC090910C08DF
:1030F00090FD3FC0D19B10C0D09BF8CFD19B0CC09E
:1031000038C0D19B09C0D09B05C090910C0890FF9E
:10311000F8CF2FC0D199D1CF8830C1F4CF0101961B
:1031200040833C915111322B2695611101C0322B05
:1031300026953C93222319F0FC0150E0C6CF11964E
:103140001C9211971196FC0120E8F7CF440F462BF3
:103150008F5FBCCF379B06C0109249065C9A80E017
:1031600094E00AC010925029A0E5B9E2E0E5F5E24A
:10317000ADCFCF01805595428093512A9093522A2A
:10318000E093582AF093592AA093562AB093572ACD
:1031900020935A2A81E080934C06FF91EF91BF91D2
:1031A000AF919F918F916F915F914F913F912F912F
:1031B0000F900FBE0F901F9018951F920F920FB691
:1031C0000F9211242F938F939F9392E09093200856
:1031D00090910C08916090930C0898E0579B17C051
:1031E000D79909C020910C0820FFFACF2BC020915D
:1031F0000C0820FD27C0D799FACF880FD699816097
:10320000915071F713C020910C0820FD1BC0D79B73
:10321000FACF880FD69B06C0816004C020910C08AD
:1032200020FD10C0D799FACF915089F780935A2A80
:1032300082E080934C065C9905C0809120018061FA
:10324000809320019F918F912F910F900FBE0F902F
:103250001F9018951F920F920FB60F9211242F9363
:103260003F934F935F936F938F939F93D3996CC0CA
:1032700081E080934C0880914C0880FFFCCF8091C6
:103280005B2A90915C2A809366089093670840E0DF
:1032900020E050E061E03091552A531768F46093C4
:1032A0004C0830914C0830FFFCCF2695D39B02C0D0
:1032B00020684F5F5F5FEFCF383018F426953F5F8F
:1032C000FBCF559904C031E030934C0817C031E072
:1032D00030934C0830914C0830FFFCCF4170569B26
:1032E00005C0442341F0D39BEECF23C0411103C05E
:1032F000D3991FC0E8CFD39B1CC0E5CF30914C08B9
:1033000030FFFCCFD39B15C057990AC020935A2A8F
:103310005C990FC02091200120612093200109C0F9
:1033200031E030934C0830914C0830FFFCCFD399FA
:10333000EDCF96958795969587958093660890939F
:10334000670881E080934C089F918F916F915F9106
:103350004F913F912F910F900FBE0F901F90189596
:1033600080E0889906C095E59A95F1F700008150B4
:10337000C1F7EC98E89808951F920F920FB60F923C
:1033800011248F93809106088B7F809306088FB15C
:103390008111609A8F910F900FBE0F901F9018951A
:1033A0000F93CF93DF931F92CDB7DEB72FB729834B
:1033B000F8941BBEFC0108ED04BF608389818FBFB8
:1033C0000F90DF91CF910F91089592E09093CA01F1
:1033D000E82FF0E084911092CA010895982F80E3BD
:1033E000890F8A3310F087E3890F0895CF93C82F90
:1033F00082958F700E94EE190E94DD0F8C2F8F70C6
:103400000E94EE19CF910C94DD0F90E8980F97FF72
:1034100002C091E8980F892F8595805808958134CE
:1034200028F0803C28F4880F8058089580E00895A3
:103430008FEF0895669929C088B1803258F4809141
:10344000842E80B98091742B8093542B80917E2E92
:103450008093552B4CE050E060E271E080E090E01A
:103460000E94A13F40E250E060E071E084E59BE211
:103470000E94A13F80B18093842E8091542B809331
:10348000742B8091552B80937E2E08954CE050E054
:1034900069EB75E080E090E00E94773F40E250E009
:1034A00069E975E084E59BE20E94773FEC9A0E940F
:1034B0001A1AEC981FB808951F920F920FB60F9228
:1034C00011248F938FB1811101C01EB88F910F907D
:1034D0000FBE0F901F9018951092C1041092C30454
:1034E0001092C004EC980E941A1A0E94A63E8FB156
:1034F0008111FDCFA89885E08093480088951092AF
:1035000048000E944E3EA89A1FB80C94333C1F926C
:103510000F920FB60F9211242F933F934F935F9307
:103520006F937F938F939F93AF93BF93EF93FF938B
:103530000E946C1AFF91EF91BF91AF919F918F9173
:103540007F916F915F914F913F912F910F900FBE9F
:103550000F901F9018951F920F920FB60F92112483
:10356000109248000F900FBE0F901F90189588235F
:1035700041F0EFE3FFE13197F1F700C00000815027
:10358000F6CF08951F920F920FB60F9211242F932A
:103590003F934F935F936F937F938F939F93AF93DB
:1035A000BF93CF93DF93EF93FF93EC98E898C9E133
:1035B000D0E081E00E94B71A80910806982F9E7192
:1035C000D913CAE0C15011F0D92FF3CF1FB881FF32
:1035D000789A282F2071982F987084703C9B0AC08D
:1035E000211101C0799A911101C07A9A81110BC001
:1035F0007B9A09C0211101C07B9A911101C07A9A6E
:10360000811101C0799A8FB18823A1F0589A7C9AD0
:1036100080910408882379F088E1809321088091C3
:103620000C08826080930C08809106088460809367
:10363000060801C060981092080410920904FF91D6
:10364000EF91DF91CF91BF91AF919F918F917F913A
:103650006F915F914F913F912F910F900FBE0F90FF
:103660001F9018950E947E1F80E40E94B71A0E9446
:10367000ED2280E10E94B71A84E1E0E0F2E081836C
:10368000E0E0F1E080898F77808B80A98F7780AB35
:1036900080A18F7780A308957F928F929F92AF929F
:1036A000BF92CF92DF92EF92FF920F931F93CF932F
:1036B000DF931FB80E94270F85E399E00E949410C2
:1036C00042E359E067E084E70E94B0110E94B63EF1
:1036D0008FB18823E9F3799BA4C00E94270F10B80B
:1036E000912C90E5C92E95E2D92E27E0722E80B15B
:1036F000883008F069C0A92C86E0B82E882483940D
:103700008A0CB092542BB092552B0E94321BA0E52C
:10371000B7E2E0E5F5E2C0E0D0E000E010E0819142
:10372000080F111D87FD1A958D91C80FD11D87FDBA
:10373000DA95CE12F4CFEC9A80B1EB2CF12C9701F4
:10374000789E200D311D1124C901612F835A9E4F8F
:103750000E94AB3F20E2210F203430F4482D60E27C
:10376000882D0E948F0F01C0E89A80B18823E1F074
:1037700060B170E061507109769EC001779E900D36
:1037800011248E0D9F1D6D2F845D9E4F0E94AB3FB7
:103790002D2F205E203438F481E48A0D482F60E21A
:1037A0000E948F0F01C0E89A0E94B63E0E94B01995
:1037B000BA943FEFB31611F0A82CA0CF87E0980E73
:1037C00080B18F5F80B993CF80E18093010287E061
:1037D0008093040220E0C0E0D0E060E070E033E8D5
:1037E00030932002309328028FE79CE00197F1F795
:1037F00000C000008091240290912502680F791F7B
:1038000080912C0290912D02C80FD91F215041F7B1
:103810008BE991E00E94CE3FBE0189E991E00E94D0
:10382000CE3F1FB861E08DE991E0DF91CF911F910C
:103830000F91FF90EF90DF90CF90BF90AF909F904F
:103840008F907F900C94AB3FD4E0D09356008CE1E6
:103850000E94E519809363000BE10093650087EBFC
:1038600080936600C1E0C09360008BEC80935200AF
:1038700082EC809355001BE01093500082E00E9480
:10388000B71A0093500082E00E94B71A64E080E407
:1038900090E00E94D0198AE18093500081E48093E7
:1038A000B20082E38093B30010BB8FE18CBBDDBB21
:1038B00089E084BBC5BB80E58093110688E18093D5
:1038C00012068093130680931406D7E0D093150652
:1038D000D0931606D093170692E0909309069EE1C6
:1038E00090930A06C0934A0630E830934B06C09383
:1038F000750680939106C093A60990EC9093A50954
:1039000028E02093A40927E12093A60A44EA4093E3
:10391000A70A23E02093A50A8093A40A80E280935B
:10392000A30A50EE509380018093810188ED80932B
:1039300083019093840188EC809385018FE88093C4
:10394000860180ED80938701C093210391E19093DC
:1039500022032093230395E0909320038093420158
:1039600085E28093430180E091E08093440190934D
:1039700045018BE490E2809348019093490189E3EB
:1039800080934C0120934D014093400130930001FE
:103990004CE050E060E271E080E090E00E94803F07
:1039A00040E250E060E071E084E59BE20E94803FED
:1039B000D093A20078940E94333C0E944E3E45E48E
:1039C00050E06CE175E08CE692E20E94773F0E9445
:1039D000330F4AE156E067E082E30E94B0110E9493
:1039E000B63E2FEF83E294EF215080409040E1F704
:1039F00000C0000085E0809343008DE991E00E94C3
:103A00008C3F811101C0629A80EA91E00E948C3F54
:103A1000C82F8091080681FF629A1FB8D1E018E292
:103A200007E034E1F32E40E1E42E51E8D52E6AE3BD
:103A3000C62E629B4BC00E94270FD09300021093AA
:103A4000390200930402F0920102E0920202D09245
:103A5000380281E00E94B71A20913C0230E0A0EBCE
:103A6000BCE00E944E3F9B01AC0161E080E40E94FB
:103A7000C2108AB390E00E94131248E459E066E055
:103A800080E00E94B011C0924F25CC2321F08C2FF2
:103A90000E94A31003C08DE20E94DD0F7C9B11C029
:103AA0007C987B990E944C1B7A99C05F79990E94FF
:103AB000461A789B06C06C2F80EA91E00E94AB3FCB
:103AC00062980E94B63E0E94B019B3CF1FB8809191
:103AD000010480FDFCCF8CE3C89F9001112420934A
:103AE0000A0430930B042CE330E020930C04309351
:103AF0000D04CC2331F085E08093020487E08093AD
:103B000000040E946B23FDCF5C98289829982A987E
:103B100087E0809349201EB81FB808958091542BE8
:103B20008823B1F09091782B913290F0815080935E
:103B3000542B8091602B811106C08091612B0E94D3
:103B4000051A8093612B8091782B86958093782B32
:103B50008091552B8823B1F09091822E913290F074
:103B600081508093552B8091602B813031F480916E
:103B7000612B0E94051A8093612B8091822E86957D
:103B80008093822E0895109249208091842E80B9CE
:103B90008091742B8093542B80917E2E8093552B93
:103BA000089580B18093842EA4E5BBE28C9180932C
:103BB000742BE5E5FBE2808180937E2E1C921082BF
:103BC00087E0809349200895CF93DF93409906C002
:103BD000419907C0429908C0629A08C0ECE9F4E034
:103BE00005C0ECE1F4E002C0ECE9F3E0449B3BC02B
:103BF0008CE79BE2CCE7DCE260E0349162993FE73E
:103C00006F3708F4319667FD3197DC014D91CD0196
:103C100029914058C303A001112474E0679FD0018B
:103C20001124A05BBA4D4D935C9311972058A303C8
:103C30009001112412962D933C9313976F5FE9F630
:103C4000629880E595E20E940F0C60E579E280E5DC
:103C500095E20E94E10C9091502980915129891799
:103C600018F191E022C0EC0180E0349162993FE7C5
:103C70008F3708F4319687FD319729912058A30397
:103C8000212D112494E0899FD0011124A05BBA4D0D
:103C900012961C92129713962C9313971C921196BE
:103CA0002C938F5F11F7CCCF92E023E080E097FD5B
:103CB0000DC0E92FF0E0E05BF64D3081231710F0E6
:103CC000322F01C0892F9F5F232FF1CFE82FF0E023
:103CD000E05BF64D9081983008F480E0DF91CF9161
:103CE000089580B18B3010F03FEF01C03FE7479B54
:103CF00007C08091792B8093572B8091832E81C0B0
:103D00001092572B3093582BE091562B089B02C0F2
:103D1000109B08C02091822E089B0FC08091782BA9
:103D2000281758F48091772B2091782B283008F4AD
:103D30005DC0F0E0E458F44D08C08091812E283039
:103D400008F454C0F0E0E458F34D2695280F808124
:103D5000821718F08E2FDF012AC08E2FDF014A2F25
:103D6000481BFD0131969C91921730F49E2F981BB1
:103D70009317E1F1DF01F3CF4093572BCF01019669
:103D800050814F5F251720F4431781F1FC01F6CFD6
:103D90004093582BFC0181914F5F821728F5431304
:103DA000FACF24C09E2F981B931701F1DF014A2FF1
:103DB000481BFD0131969C912917A0F34093572B86
:103DC000CF01019650814F5F521720F4431771F0D5
:103DD000FC01F6CF4093582BFC0181914F5F2817CF
:103DE00018F44313FACF02C04093582B80B18B30A4
:103DF00050F08091572B86958093572B8091582BAC
:103E000086958093582B0895E9E7F5E0A4E5BBE299
:103E100084919C91981708F08C93119631968BE2BF
:103E2000A437B807A9F78091652B87FD03C08EEFF3
:103E30008093652B8091662B87FD03C08EEF809366
:103E4000662B80916A2B9091692B891710F48093CF
:103E5000692B80916B2B811103C081E080936B2BC8
:103E60008091612B833018F483E08093612B8091E3
:103E7000632B9091622B981710F48093622B80B182
:103E8000863110F085E180B9089580915E2B909184
:103E90005F2B8F3F9105B8F490B1911102C088302B
:103EA000F8F090B1913011F48530E0F090B192309B
:103EB00011F48530B8F090B1963018F48430A0F049
:103EC00002C0882399F080915E2B90915F2B97FF21
:103ED00014C08FEF9FE780935E2B90935F2B089524
:103EE00088E005C085E003C084E001C081E090E087
:103EF00080935E2B90935F2BE6CF0895FF920F93F4
:103F00001F93CF93DF9398E19093700084E08093A8
:103F1000710023E0209372002CE7209373002CE6BD
:103F200020937400209375008093A2001092000AE1
:103F30001092010A1092060A10924008109241084D
:103F40008FE08093000882E0809304089093270814
:103F50009091642B909326089EE0909300098093A3
:103F6000040987E2809326090E94041F0E94451FCE
:103F700084B120E0982F9170290F8695D9F788E0B9
:103F800090E0821B9109880F880F880F9091672B12
:103F9000891710F41092672B80B1811109C04699DE
:103FA00004C0479B05C0449B03C080B18F5F80B9AC
:103FB00084E18093010285E48093030283E080938F
:103FC000040290B19B30E8F0109227098093000A18
:103FD00080B18B3019F487E893E102C089E698E15B
:103FE0008093260A9093270AE0B1F0E0EE0FFF1FBE
:103FF000EB5EFE4E8591949180937A2B90937B2B70
:104000002BC01DB887E08093270980B1863068F007
:10401000E0B1F0E0EE0FFF1FEB5CFE4E8591949156
:104020008093260A9093270A17C08CE1809301029F
:1040300080B1823010F080B104C080B1882339F0A3
:1040400082E08093040280E48093030205C0109212
:10405000030282E0809304020E94330F81E0809388
:10406000000280E2809302020E94E51980930C0214
:1040700081E20E94E51980930D028AE28093210279
:104080008091542B90E09C01220F331F220F331F8D
:104090002360209320022BE220932902C091552B0C
:1040A000D0E09E01220F331F220F331F2360209385
:1040B000280220E12093310220B130B1383008F0DD
:1040C00027E037E0F32E022F10E0F29E800D911DC5
:1040D0001124835A9E4F0E948C3F81958093752BAB
:1040E00080B1882381F001501109F09EC001F19E3A
:1040F000900D11248C0F9D1F845D9E4F0E948C3F5C
:10410000819580937F2E87E08093A2001C9902C046
:1041100081E001C081E4199B05C01A9902C0806149
:1041200001C088619FEF9093B000809350065A9829
:10413000DF91CF911F910F91FF9008951F920F92E1
:104140000FB60F9211248F929F92AF92BF92EF926F
:10415000FF920F931F932F933F934F935F936F9310
:104160007F938F939F93AF93BF93CF93DF93EF93FF
:10417000FF93D0914F25C0914E25809124026091EC
:10418000752B0E94F608E82E80912C0260917F2EFC
:104190000E94F608F82E0C99E0941499F09400E827
:1041A0000E0D60E86F0D61958603112D11241058D6
:1041B0000E9B08C00F9B05C08E2D0E94F508E82EAF
:1041C00001C0E12E169B0AC0179B07C0602F6195A6
:1041D0008F2D0E94F508F82E01C0F12E409141204C
:1041E0005091422060914320709144204E0D511D0A
:1041F000611D711D409341205093422060934320E4
:104200007093442040913D2050913E2060913F208A
:10421000709140204F0D511D611D711D40933D2037
:1042200050933E2060933F207093402080913B202C
:1042300090913C20019680933B2090933C20659A7E
:1042400000917A2B10917B2B80913B2090913C2008
:104250008017910708F46FC010923B2010923C2009
:104260000D9B10C04801A12CB12C60914120709190
:1042700042208091432090914420A50194010E9406
:10428000073FE22E159B0EC0980140E050E0609180
:104290003D2070913E2080913F20909140200E94CF
:1042A000073FF22E1092412010924220109243209C
:1042B0001092442010923D2010923E2010923F20F8
:1042C000109240203A9B10C0EDB1F0E0E458F44D5C
:1042D00080818E0D8795E82EEDB1F0E0E458F34D26
:1042E00080818F0D8795F82EEDB1F0E0E458F44D04
:1042F000E082EDB1F0E0E458F34DF082EDB18AB325
:10430000F0E0E458F24D8083679B15C08DB18111B8
:1043100009C08DE00E9413128AE00E94131283E507
:104320000E9413128E2D0E9413128F2D0E941312C1
:104330008AB30E941312459BD1C03099CFC080919F
:104340003B2090913C20892B11F00D993CC060914D
:10435000652B8E2D0E94F508182F1695103408F045
:104360001FE3EDB1F0E0E558F44D6091652B8081DD
:104370000E94F5083E9B1CC09DB19923C9F0282FCF
:104380002695203408F02FE3121304C01123D9F02E
:104390001F33C9F0089B17C04DB18DB150E041509B
:1043A000510955954795612F86950E948F0F0BC037
:1043B000089B09C0112339F01F3329F08DB1612FFB
:1043C00086950E944A0F80913B2090913C20892B3A
:1043D00011F015993CC06091662B8F2D0E94F50855
:1043E000182F1695103408F01FE3EDB1F0E0E558F2
:1043F000F34D6091662B80810E94F5083E9B1CC0A6
:104400009DB19923C9F0282F2695203408F02FE379
:10441000121304C01123D9F01F33C9F0109B17C029
:104420004DB18DB150E04150510955954795612FDF
:1044300086950E948F0F0BC0109B09C0112339F085
:104440001F3329F08DB1612F86950E944A0FEAB281
:104450001091672B189B2DC007E3E0E8FE2E94B166
:104460009F2119F18DB1843059F410924F25812F7D
:1044700086958695869580934E25802F0E94DD0F28
:104480008F2D8E2119F08DB1612F0BC08DB166E09B
:10449000610F86950E944A0F1B9B06C08DB165E097
:1044A000610F86950E944A0F185FF69401500F32F3
:1044B000B1F61E9B1CC09DB19F70C9F41933B8F4AE
:1044C0009DB196959F5F90934F25169516951695DD
:1044D00010934E258E2D0E94F61909C0479B07C0E8
:1044E0003F9B05C08DB16FE386950E944A0F809176
:1044F0003B2090913C20892BD1F58DB18F5F8DB9F8
:104500008DB181110CC0649A679B09C08AE00E943A
:1045100013128DE00E94131287E30E941312309948
:1045200023C08DB1811109C01D9B03C045990E9414
:1045300002141092060A5C991AC0459B18C03D9956
:1045400016C0689914C08DB1869520E090E030E8DF
:10455000239FF0011124E55BFE4DE80FF91F138244
:104560002F5F2830A1F703C05C991092060AD09300
:104570004F25C0934E25FF91EF91DF91CF91BF91D1
:10458000AF919F918F917F916F915F914F913F91EB
:104590002F911F910F91FF90EF90BF90AF909F9040
:1045A0008F900F900FBE0F901F9018951F920F9233
:1045B0000FB60F9211248F93EF93FF93E0E0F8E092
:1045C00086818E7F8683589A5D9AFF91EF918F91B5
:1045D0000F900FBE0F901F9018958091100180646E
:1045E000809310018091300180648093300180912C
:1045F000200180648093200165E06093120170E1E6
:104600007093130180E092E0809314019093150160
:1046100020E535E220931C0130931D0144E24093D4
:10462000180152E050931901409310016093320138
:1046300070933301809334019093350120E539E282
:1046400020933C0130933D012AE1209338011092E0
:104650003901409330016093220121E1209323012D
:10466000809324019093250180E597E280932C01AB
:1046700090932D018CE2809328015093290140935F
:104680002001809110018068809310018091300199
:1046900080688093300180912001806880932001A0
:1046A00080B1863020F48CE18093010202C05093E7
:1046B000000A80E090E02091110124FD0BC020E26F
:1046C0002A95F1F7589B02C05D98089501970097CD
:1046D00091F708950895CF93DF93CDB7DEB72B9769
:1046E000CDBFDEBF80B18093842E8091542B809308
:1046F000742B8091552B80937E2E1EB8589A5A9A0F
:10470000599A7C9A639A2CE73BE228875A990E942F
:104710007E1F5B9B08C01FB85C980E941A1A0E94FB
:1047200070150E947E1F609B12C07B9B03C05C992A
:104730000E94841D8EB18C3220F07A9901C0799943
:104740007C9A789B04C00E946C1A1EB8589A5C9997
:10475000D8C05D99D6C000915D2B002339F05899DF
:1047600005C081E00E94B71A0150F7CF80B18B30AD
:1047700010F40E94ED22289902C02A9B08C0309BA9
:1047800003C080B18B3018F488B1803220F458997E
:10479000B8C05D9AB6C0109260081092610881E0BE
:1047A00080934C0880915E2B90915F2B20B122303A
:1047B00010F0880F991F20B1211102C0089710C076
:1047C00020B1213019F020B1223011F4059708C032
:1047D00020B1263010F4049703C0009709F0019728
:1047E000809366089093670880912608809320083C
:1047F00081E08093020480910C08816080930C0812
:104800002A9B05C0809106088160809306088091EC
:10481000602B811136C06091752B61958091612B61
:104820000E94F5082E9B07C06091632B8091622B3C
:104830000E94680A66C02D9B13C08091612B80582E
:1048400087FF02C0819503C0811101C081E02B9BCD
:1048500004C081950E940E0A54C00E94240A51C0CF
:104860002F9B03C02B9B0AC006C02091240290E816
:10487000980F29171CF40E94BB0943C00E94CB0962
:1048800040C08130A1F560917F2E61958091612BB0
:104890000E94F5082E9B07C06091632B8091622BCC
:1048A0000E94730A2EC02D9B11C08091612B8058ED
:1048B00087FD8095811101C081E02B9B04C080950C
:1048C0000E943C0A1EC00E94520A1BC02F9B03C0BC
:1048D0002B9B0AC006C020912C0290E8980F291744
:1048E0001CF40E94EE090DC00E94FE090AC08B3024
:1048F00040F482502B9B03C00E945C0902C00E94BE
:10490000FD0885E080930204809106088E7F8093E5
:1049100006085D9B6EC188B1803220F45E9B02C0A8
:104920005F9967C180B18B3008F041C18FE99FE08A
:104930000197F1F700C000001092000A84E1809313
:10494000010280917C2E8F5F80937C2EEFE7F2E056
:104950003197F1F700C000005D98109240088091F7
:1049600010018F7780931001809130018F778093B1
:104970003001809120018F77809320018091140174
:104980009091150120B1223020F0412C72E0572E79
:104990000CC0412C63E0562E481A590A4114F2E02B
:1049A0005F0628F020E031E02901481A590A9201F7
:1049B000205B3A4D7901A201405B584D3A01C2019A
:1049C000805B964D6C012CE73DE22A833B834CE7EC
:1049D000842E4CE2942E5CE7A52E5BE2B52EF60108
:1049E0008081EA81FB818193EA83FB83F701208147
:1049F000822FF3019081192FFFEF4F1A5F0A4114A4
:104A000032E0530650F44FEFC41AD40A5FEFE51AB0
:104A1000F50A6FEF661A760A0EC0412C512CB0E5EC
:104A2000CB2EB9E2DB2E00E5602E07E2702E30E5DA
:104A3000E32E35E2F32E30B1323068F10D9B05C024
:104A4000F701808185952595820F159B05C0F3019F
:104A5000108115959595190FFFEF4F1A5F0A4114B4
:104A600022E0520651F03FEFE31AF30A4FEF641AC7
:104A7000740A5FEFC51AD50A0EC0412C512CE0E52F
:104A8000CE2EE9E2DE2EF0E56F2EF7E27F2EA0E5D6
:104A9000EA2EA5E2FA2E6091752B0E94F608782F77
:104AA0000C99709560917F2E812F79870E94F6086E
:104AB000082F79851499009510E8170F60E8600FAA
:104AC00061959603912D112490580E9B0AC00F9B5F
:104AD00007C0872F99870E94F508782F998501C014
:104AE000792F169B0CC0179B09C0612F6195802FF1
:104AF00079870E94F508082F798501C0092F950153
:104B00002F5F3F4FA4014F5F5F4FF5013A9B0AC0F3
:104B10008081870F87958083F4018081800F87953E
:104B2000808303C07083F40100838CE79DE2EA81F7
:104B30008E1719F04A01590152CF679B20C08DE0B2
:104B40000E9413128AE00E94131286E40E9413123C
:104B50007CE7E72E7BE2F72EF70181917F010E942F
:104B60001312FCE7EF16FEE2FF06B1F78AE00E949F
:104B700013128DE00E94131287E30E94131280919A
:104B8000282085FF27C01092080410920904109273
:104B90002E2010922F2082E093E880932A20909379
:104BA0002B20809128208D798093282013C0309B62
:104BB00004C05D985C990EC002C0649904C082E094
:104BC0008093060A07C064985D9880917C2E8F5F61
:104BD00080937C2EF894299B09C05C9A80B18B301D
:104BE00028F48EB1853011F083E38EB97C9B589800
:104BF0007894809110018F7780931001809130011B
:104C00008F7780933001809120018F7780932001EE
:104C10005D9903C13D990CC0479908C0469906C0EB
:104C2000459B06C080B18B3008F030990E94270F59
:104C3000F89480B18B3020F0309B02C0649BBCC0E4
:104C400064984C9B3AC020B144E0249F9001112409
:104C50002D523F4EF90185919591A591B4919C01FA
:104C6000AD016CE056954795379527956A95D1F734
:104C7000E0B1B101882777FD8095982F0E94F73E1B
:104C8000E73068F496958795779567956093702BD4
:104C90007093712B8093722B9093732B0EC020ED29
:104CA00037E040E050E00E94073F2093702B3093A4
:104CB000712B4093722B5093732B4D9B09C0C101F4
:104CC00025E0959587952A95E1F7819580936C2B42
:104CD0004E9B09C0C10104E0959587950A95E1F7BF
:104CE000805880936F2B4F9B08C0C101B4E095950D
:104CF0008795BA95E1F780936E2B5B85511103C0C0
:104D000060916B2B6B874A9902C09B8502C09B8583
:104D100091958091692BE0E18E9F90011124409143
:104D20006A2BF0E14F9FA0011124290E311C97FD41
:104D30003A94421553052CF44B9BA901629A1A012F
:104D400007C02216330624F44B9B9A01629A19017C
:104D5000499B0DC0489B06C02B852F3740F42F5F21
:104D60002B8705C03B85323010F031503B87629B6A
:104D700009C040916B2B4B874B9B04C099B124E039
:104D8000922799B9629899B19031B0F0599A3F9BA6
:104D900013C06FE386950E944A0F80916A2B6FE3E0
:104DA00086950E944A0F6FE3C101A5E0959587950E
:104DB000AA95E1F70E944A0F789490917C2B8091FC
:104DC0007C2C9C0140E0E42FF0E0E458F44D50814D
:104DD000F3956081951708F4952F531708F4352F34
:104DE000861708F4862F621708F4262F4F5F59F7AD
:104DF000492F431B4093782B482F421B4093822E10
:104E00009093762B3093772B8093802E2093812E56
:104E1000319B03C045990E94711E459B57C1369B2B
:104E20006BC080B18B3018F4D090562B01C0D12CC0
:104E300083EA91E00E948C3FA82E82EA91E00E94D2
:104E40008C3F982ECD80BC8000E0ED2CF12CC7016A
:104E50008C559D4F0E948C3F882EC7018C559E4FCC
:104E60000E948C3FF82E6A2D882D0E94F5088695A9
:104E70008C83803410F05FE35C83692D8F2D0E945A
:104E8000F50886958D83803410F06FE36D83EE24F2
:104E9000EA94E00E80B1F02E8B3010F0F694E69498
:104EA0003E9B13C0002319F1089B06C02B2D4E2DED
:104EB0006C818F2D0E948F0F109B13C02C2D4E2DB7
:104EC0006D818F2D0E948F0F0CC0089B04C06C81D8
:104ED0008F2D0E944A0F109B04C06D818F2D0E9460
:104EE0004A0F80B18B3010F40F3730F4D3940F5F3A
:104EF00019F0CD80BC80A9CF80B18B3010F0309BF1
:104F0000E5C080B18B3038F0309B05C0CDB08C2D22
:104F10008160C82E02C0C090562BAC2C00E0712CD2
:104F20008A2D8C1977FCCFC090B19B3020F0309B3C
:104F300002C0782E7694EA2CF12CF701E458F44D57
:104F40007F01FE5F8080D090672B189B4BC0E0E80C
:104F50009E2EF7E0BF2E84B1892109F43EC0711066
:104F600029C06D2C66946694669410924F256092C9
:104F70004E2580E38B0D0E94DD0F2091602B30E0E9
:104F800022503109EB2DF0E02E173F0799F4FA85F6
:104F9000FE3780F4289902C02A9B0CC02A852093F2
:104FA0004F2560924E252B9B02C089E101C088E10C
:104FB0000E94DD0F892D882111F06D2D09C066E05A
:104FC0006D0D872D0E944A0F1B9B05C065E06D0D7E
:104FD000872D0E944A0F38E0D30E9694BA944FEF73
:104FE000B412B9CF1E9B10C0872D8F7069F458E39F
:104FF0005D1550F070924F25D694D694D694D092E9
:105000004E25882D0E94F6196091652BF70180814D
:105010000E94F508D82EF701F3956091662B8081E8
:105020000E94F5088695D694FFE3FD1510F47FE302
:10503000D72EF82E2FE3281710F46FE3F62E3E9BA1
:1050400023C07720D9F1D11204C08FEF8D0D8E339C
:1050500040F4089B06C0212F402F6D2D872D0E9404
:105060008F0F3981F31204C08FEF8F0D8E3328F527
:10507000109B23C080B1882301F12981402F6F2D1F
:10508000872D0E948F0F19C0089B09C0DD2039F0C1
:105090004FE3D41621F06D2D872D0E944A0F109BEF
:1050A0000CC0FF2051F05FE3F51639F080B1882382
:1050B00021F06F2D872D0E944A0F072D7394A39422
:1050C000F9821D2D2DCF1D990E940214469B51C0BF
:1050D0003F9B06C04EEE5FE060E080E00E94B011B2
:1050E0004CE7C42E4CE2D42E5CE7E52E5BE2F52EB5
:1050F0009E2DECE7FBE29E1B80B18B3028F03099AF
:1051000003C08DB19817A1F0F70111917F0110959F
:10511000F60161916F018091562B681B67FD05C0F8
:105120006695812F86950E944A0FF885FE11E0CF83
:10513000369B1FC081EA91E00E948C3F082FD12C42
:10514000ED2CF12CC7018C559D4F0E948C3FC82E31
:10515000C7018C559E4F0E948C3F801B87FD07C066
:10516000682F66958C2D809586950E944A0FD39462
:1051700039F7479BA7C05D99A5C0089B08C0109B45
:1051800006C080B1882319F003E01BE102C002E0F1
:1051900017E3449B39C087B1837079F060E1809157
:1051A000562B0E944A0F60E28091562B0E944A0FB4
:1051B00060E38091562B0E944A0F80E090E00E94AD
:1051C000E41D00E08091562BE02FE81BF0E0E05B4F
:1051D000F64D808186958695883308F087E367E3EE
:1051E000681B3E9B06C027E3402F802F0E948F0F35
:1051F00003C0802F0E944A0F0F5F003819F7319BC0
:1052000061C00E94711E5EC0089903C010992BC036
:10521000F6CF8CE79BE20E94E41D8093792B30E56A
:10522000E32E39E2F32ED12CF70121917F0130E0FA
:10523000002E02C0359527950A94E2F7121708F45C
:10524000212F612F621B3E9B06C0212F4D2D8D2DDE
:105250000E948F0F03C08D2D0E944A0FD394F0E857
:10526000DF12E2CFD3CF80B1882349F28CE79CE2F2
:105270000E94E41D8093832E90E5E92E99E2F92E99
:10528000C12C27E3D22EF70121917F0130E0002EBF
:1052900002C0359527950A94E2F7121708F4212FDA
:1052A0006D2D621B3E9B06C027E34C2D8C2D0E946A
:1052B0008F0F03C08C2D0E944A0FC394F0E8CF12C9
:1052C000E2CF9DCF88B1803208F036C25D9B04C02A
:1052D0005E9B32C25F9B30C28091492081112CC2FB
:1052E00084E0809349200E94270F5E9B02C05F9953
:1052F0000CC04DE35DE060E08CE00E94B0114CE436
:105300005DE060E08CE40E94B0115E9B02C05F9B98
:1053100004C05E9930C05F9B2EC049ED55E060E04F
:1053200081E30E94B01149ED55E060E081E70E9401
:10533000B0110CE7C02E0BE2D02E8CE7E82E8CE2E9
:10534000F82E00E0F60161916F016695669566950D
:10535000645E802F0E944A0FF70161917F0166957C
:1053600066956695645E80E4800F0E944A0F0F5F29
:10537000003441F746C00091602B023010F00A3033
:1053800041F44EEB5EE063E080E10E94B0110DE677
:105390000CC0025A46E85CE063E080E10E94B01174
:1053A0008091602B825D0E94DD0F5E9B0CC010928D
:1053B000492046EE55E063E082E60E94B0115C9B16
:1053C0001EC000E01CC04BEE55E063E082E60E9488
:1053D000B01180B1873028F4BBEEEB2EB5E0FB2E88
:1053E00004C0ACEEEA2EA5E0FA2EA70160E08DE243
:1053F0000E94B011A70160E08DE60E94B0110093F9
:105400008201629A10924F2582E080934E255E9B26
:1054100093C05F9991C05C997CC00091010220917A
:1054200004022A83309120023E83409128024F8358
:1054300080E98093010287E08093040220E0C12C80
:10544000D12C7601812C912C540133E83093200229
:10545000309328028FE79CE00197F1F700C000002D
:105460008091240290912502AA2797FDA095BA2F3A
:10547000881A990AAA0ABB0A40912C0250912D025F
:10548000662757FD6095762FC41AD50AE60AF70AF3
:1054900058993FC02150D1F68BE991E00E949C3F82
:1054A0002C01662457FC6094762C480C591C6A1C0D
:1054B0007B1C89E991E00E949C3FAC01D301C201B1
:1054C000E5E0B595A79597958795EA95D1F78093EF
:1054D000502B9093512B662757FD6095762F4C0DDE
:1054E0005D1D6E1D7F1DF5E0759567955795479578
:1054F000FA95D1F74093522B5093532B2F81209341
:1055000028023E81309320024A8140930402009396
:10551000010260E08091502B9091512B0E949911D3
:1055200080E480934F2582E080934E2560E0809157
:10553000522B9091532B1CC05F9B1DC05E991BC0CA
:105540008091782B6091542B50E8859FC0011124E5
:105550000E94991180E480934F2582E080934E252C
:105560008091822E6091552BE0E88E9FC00111241E
:105570000E949911E0C05E9B04C080914108811196
:1055800044C0109247201092462010924520F89473
:1055900010920008109204082CE02093090882E180
:1055A0009AE780932608909327081092000A209388
:1055B000090A30E13093010A8CE38093030A8DE0FD
:1055C0008093000A84EF95E08093260A9093270A3F
:1055D0001092400820934908309341088CE2809350
:1055E000430887E080930008809120088823E1F336
:1055F0008AE080934008789480910C0880FD08C070
:10560000589993C05A9BF8CF90C080E18093900145
:1056100080910C0880FF24C08FEF80930C0881E1FB
:105620009AE780932608909327085C9905C080919B
:1056300045208F5F80934520809145208C3380F0FA
:1056400010924520809146208F5F809346208C33B6
:1056500038F010924620809147208F5F809347203A
:105660005E992AC0E0B124E0E29FF0011124ED52DE
:10567000FF4EC590D590E590F490CD2CDE2CEF2C0C
:10568000FF24A091792BB0E0A70196010E94643F0E
:105690009B01AC0162E080E00E94C210A091832EC9
:1056A000B0E0A70196010E94643F9B01AC0162E05B
:1056B00080E40E94C21018C080E380934F2581E0EF
:1056C00080934E25809147200E94A3108AE30E9478
:1056D000DD0F809146200E94A3108AE30E94DD0F17
:1056E000809145200E94A310C090280AD090290ADA
:1056F000E12CF12C7601DD24CC2480916808909176
:105700006908C80ED91EE11CF11C619AA701960117
:1057100065E088E00E94C210C092502BD092512BBD
:10572000E092522BF092532B61985E9904C087E06F
:10573000809349205A9A6298659B1BC06598809116
:10574000282085FF16C010920804109209048DB11C
:1057500080937D2E10922E2010922F2082E093E8CD
:1057600080932A2090932B20809128208D798093FC
:10577000282080914920882309F448C1A090542B07
:10578000F090552BE0B0D8B043980E9816988CE75F
:105790009BE20E94E41D8093792B8CE79CE20E949F
:1057A000E41D8093832ED8B888B1803230F45F9B9B
:1057B00002C003E003C05E99FCCF05E03AE0D32EBF
:1057C0009924939440E4C42E50E8B52E8091542B34
:1057D000081710F40093542B8091552B081710F4E0
:1057E0000093552B80B18B3008F0D0B880914920C0
:1057F00090E08830910508F0F4C0FC01E250FF4FC2
:105800000C94483F88B1803208F476C02D982E98C9
:105810002F9A089A109A2091782B203108F4089832
:105820008091822E803108F41098089904C0109954
:1058300002C0089A109AC092562B40E850E040935C
:105840005E2B50935F2B26959091772B290F869591
:105850009091812E890F089B11C09091792B9230E5
:1058600068F03091832E931748F02A9A1092602B9B
:105870002093612B0C9B13C0922F0EC0109B0FC066
:105880009091832E923058F02A9A9092602B8093B8
:10589000612B149B04C0982F90959093612B459B8E
:1058A0002BC030E035952795319521953109322F60
:1058B0002093652B90E09595879591958195910919
:1058C000982F282F8093662B089B14C0109B12C022
:1058D000303A24F030523093652B02C0B092652BE1
:1058E000203E24F4905E9093662B02C01092662BAB
:1058F0000E948E1D0E948E1D88B1803220F45E9918
:1059000002C05F9B6EC09091792B8091832E891786
:1059100008F4892F982F92959F7080B1981708F0FE
:105920005FC080B1891B4CC08091762B8C3B58F4B2
:105930008091772B8A3438F08091542B801718F49B
:105940008F5F8093542B8091802E8C3B08F049C050
:105950008091812E8A3408F444C08091552B8017A1
:1059600008F03FC08F5F1CC08091762B8A3F20F4E7
:105970008091772B823138F48091542B882319F051
:1059800081508093542B8091802E8A3F20F4809107
:10599000812E823130F58091552B882311F1815071
:1059A0008093552B1EC08091792B8D3720F48091E8
:1059B000832E8D37B0F080B1823098F080B1815065
:1059C00080B90FC08091792B823358F48091832E57
:1059D000823338F480B18A3020F480B18F5FF0CF09
:1059E00090B88091542BA81207C08091552BF812C3
:1059F00003C080B1E81611F05A9A08C0809149207E
:105A0000882321F0815080934920E0CE7C9BD7C62B
:105A10000091602B7C98789B10C08EB1833119F473
:105A20000E941A1A04C08EB1843009F45B9AEEB158
:105A3000F0E0E35DF44FE491EEB98EB1843340F1D0
:105A40008EB18B3328F57B9B23C0EEB1F0E0EE0FD7
:105A5000FF1FE35AF64FA591B4912091482081E0B1
:105A6000820F809348208EB190E0C49735E0389F34
:105A7000F001399FF00D1124E20FF11DED52F64FA8
:105A8000E491EC9380914820853010F010924820EA
:105A90008EB190E08134910508F079C6FC01EA5F8F
:105AA000FE4F0C94483FF8947B9B0BC0299B03C08E
:105AB0001DB85C9806C08BB190E189278BB95C99C1
:105AC00058987A9B06C0799B04C080E48093562B3B
:105AD0003CC07A9B1DC05C991BC080B1853118F415
