:100000000C94D6080C94F3080C94AC180C944E196C
:100010000C94F3080C94F3080C94F3080C94F30874
:100020000C942C3D0C94F3080C94F91A0C94CE1AF1
:100030000C94F3080C94F3080C944D230C942E1A92
:100040000C94F3080C94F3080C94F3080C94F30844
:100050000C949B190C94F3080C94F3080C94F3087B
:100060000C94F3080C94F3080C94F3080C94F30824
:100070000C94F3080C94F3080C94F3080C94F30814
:100080000C94F3080C94F3080C94F3080C94F30804
:100090000C94F3080C94F3080C94F3080C94F308F4
:1000A0000C94F3080C94F3080C94F3080C94F308E4
:1000B0000C94F3080C94F3080C94F3080C94152199
:1000C0000C94F3080C94F3080C94F3080C94F308C4
:1000D0000C94F3080C94F3080C94F3080C94F308B4
:1000E0000C94F3080C94F3080C9432140C94E9115A
:1000F0000C94F3080C94F3080C94F3080C94F30894
:100100000C94F3080C94F3080C94351B0C94F3082E
:100110000C94F3080C94F3080C94F3080C94F30873
:100120000C94F3080C94F3080C94F3080C94F30863
:100130000C94F3080C94F3080C941D1B0C94F30816
:100140000C94F3080C94F3080C94F3080C94F30843
:100150000C94F3080C94F3080C94F3080C94F30833
:100160000C94F3080C94F3080C94F3080C94F30823
:100170000C94F3080C94F3080C94F3080C94F30813
:100180000C94F3080C94F3080C94F3080C94F30803
:100190000C94F3080C94F3080C94F3080C94F308F3
:1001A0000C94F3080C94F3080C94F3080C94F308E3
:1001B0000C94F3080C94F3080C94F3080C94F308D3
:1001C0000C94F3080C94F3080C94F3080C94F308C3
:1001D0000C94F3080C94F3080C94F3080C94F308B3
:1001E0000C94F3080C94F3080C94F3080C94F308A3
:1001F0000C94F3080C94E33D0C94103EB02C412D6C
:10020000612D802D8F2D412D612D9D2DFF2D532E84
:100210008E2EC92ED82EE32E002F202F3C2F562FA6
:100220006F2F832F942FA42FB42FC82FD52FE22FF9
:100230001C302D303A3047305630633075309030B6
:100240009D30B930003118312D3141315B3175317C
:100250008F31A031B531C031D231E431053226328F
:1002600033324E326B328D329E32D932F8321733FE
:100270002F33473364337A338C33A033B433C833EA
:10028000E133FA33113428343B344E346134D334FF
:10029000D934DF34E534F334033511351F353135C6
:1002A00040355435673573357F35B936B9368B35BA
:1002B0009C35B936B936A835B936BA35C835B936E8
:1002C000D635E435F235023610361E363136443630
:1002D0005736B93663367536833689369B36B93626
:1002E000AD361E37A438A438A43834373F377137B9
:1002F000A737F4372F3843384A38513858385D38E3
:1003000061386A387C388B383D3E443EA03E443EDE
:10031000A03E473E5F3EA03E7A3E813E8B959FA920
:10032000B2BBC3CBD3DAE1E8EEF4FA00050B10144C
:10033000191D2125292D3134373A3D404345484A7E
:100340004C4F51535557585A5C5D5F60616364650B
:10035000666768696A6B6C6D6E6F6F7071717273CE
:100360007374747575767676777778787879797925
:100370007A7A7A7A7B7B7B7B7B7C7C7C7C7C7C7DC9
:100380007D7D7D7D7D7D7E7E7E7E7E7E7E7E7E7E93
:100390007E7E7F7F7F7F7F7F7F7F7F7F000000006B
:1003A0000000000000000000010101010102020242
:1003B0000303030404040505060607070809090AE0
:1003C0000B0C0C0D0E0F1011121314151617181913
:1003D0001A1C1D1E202122242527282A2B2D2F30D0
:1003E00032343537393B3C3E4042434547494B4D1B
:1003F0004E5052545657595B5C5E60616365666847
:10040000696B6C6E6F7071737475767778797A7BBF
:100410007B7C7D7D7E7E7F7F7F7F7F7F00000000F5
:1004200000000000010101020203030404050606A6
:100430000708090A0A0B0C0D0E0F101112141516DD
:1004400017181A1B1C1D1F202223242627292A2C9B
:100450002D2F3032333536383A3B3D3E404143450F
:100460004648494B4C4E4F5153545657585A5B5D72
:100470005E5F616264656667696A6B6C6D6E6F7002
:10048000717273747576777878797A7A7B7B7C7CF5
:100490007D7D7E7E7E7F7F7F7F7F7F7F090909094B
:1004A0000A0A0A0A0A0B0B0B0C0C0D0D0E0E0F108C
:1004B00010111213131415161718191A1B1C1D1ED0
:1004C0001F20212324252627292A2B2D2E2F3132A8
:1004D00034353638393B3C3E3F4042434546484937
:1004E0004B4C4D4F505253555657595A5B5D5E5FBA
:1004F00061626364666768696A6B6C6E6F70717263
:10050000727374757677777879797A7B7B7C7C7D6A
:100510007D7E7E7E7E7F7F7F7F7F7F7F7EFF81915E
:1005200091F1600060F49494FCF800FFFF8484FC77
:10053000780078FC8484FC7800047FFF848400FCCD
:10054000FC080C0C0078FC8484FC7800F8FC0404A3
:10055000FCF800FDFD0078FC8484840098BCB4F4B1
:1005600064080878404078080840407808087840D7
:10057000407E42424242427E1806067F7F7F7F7F56
:100580007F7FFFFF7F0AFCFFFFFFFFFF4002FFFFAF
:100590007FFF05FFFFFFFFBE000101402060423EDC
:1005A000423E0080000080A06018A0E0000001FF33
:1005B0001080018000E0AB000006010108FF800010
:1005C000C129001C4046323A200046313A200053EF
:1005D0001C1D1E00561C1D1E00205600201A1B56F6
:1005E0000053544F50004B434E54004B485A001F89
:1005F000563D002031161F543D00010000000A0046
:10060000000064000000E803000010270000A0863E
:10061000010040420F0080969800465720322E3449
:100620003500000000FE010001FF01FE01FD02FE99
:10063000000201000101010201030202FF000000AB
:10064000FE010001FF01FE01FD02FEFF00000002AD
:1006500001000101010201030202FFF8FEFF07038E
:100660000307FFFEF80F3F7F706060707F3F0F0051
:1006700010181CFEFFFF000000000000007F7F7FBD
:100680000000000C0E0F070383C7FFFE7C70787C10
:100690007E6F67636160600C0E0FC7C3E7FFFEBC2F
:1006A00000183878706060717F3F1F0080C0F0785C
:1006B0001EFFFFFF000E0F0F0D0C0C7F7F7F0CF055
:1006C000FFFF7F6363E3E3C3830C3C7C7060607077
:1006D0007F3F1FF8FEFFC7C3C3C7CF8E0C0F3F7FFE
:1006E000716060717F3F1F03030383E3FB7F1F077C
:1006F0000300007C7F7F03000000001C3EFFE7C377
:10070000C3E7FF3E1C1E3F7F736161737F3F1E7C0A
:10071000FEFFC78383C7FFFEF818387971616171E6
:100720007F3F0F103E1010101E300C02382038286A
:100730003C08050F04000038180838300C02283E29
:1007400000182018382638000000002E0006000689
:100750003E143E143F0A120824142A340006001CDA
:100760002200221C001C1C1C081C08402000080839
:10077000080020001008041C221C243E20322A24D9
:10078000222A140E083E2E2A123E2A3A023A063E29
:100790002A3E2E2A3E0014002014000814221414AD
:1007A00014221408022A041C262E3C0A3C3E2A1459
:1007B0001C22223E221C3E2A223E0A021C221A3EF3
:1007C000083E223E2210201E3E08363E20203E04D7
:1007D0003E3E023E3E223E3E0A041C223C3E0A347D
:1007E000242A12023E023E203E1E201E3E103E36AD
:1007F00008360E300E322A26003E22040810223E11
:1008000000040204404040020400342C383E241806
:1008100018242418243E18342C083C0A58543C3E12
:100820000438003A00403A003E1824001E203C0CD8
:100830003C3C04381824187C241818247C38040400
:10084000283C14043E243C203C1C201C3C303C240E
:1008500018240C503C343C2C08362200360022363A
:10086000080406023E3E3E424D3E040000000000E9
:10087000003E000000280000008000000040000052
:100880000001000100000000000004000000000062
:100890000000000000000000000000000000000058
:1008A00000FFFFFF0053504920534E494646455232
:1008B0000A424954343A2F53530A424954353A4D67
:1008C0004F53490A424954363A4D49534F0A424917
:1008D00054373A53434B005541525420534E4946E6
:1008E0004645520A424954323A52582042495433FA
:1008F0003A54580049324320534E49464645520A1D
:10090000424954303A53444120424954313A5343C6
:100910004C0029681434091A040D820640032A0287
:100920001501FDEDDCCCBCACA8A40301FDF5E5C5CB
:100930006E17474F00444953434F4E4E4543542092
:100940004348312C434832004F46465345542020FB
:100950002020202020534C4545503A2020202020A4
:1009600020524553544F524500582000485A204DBC
:10097000415800312053544F5042495400322053C3
:10098000544F50424954004E4F20504152495459FF
:10099000004556454E20504152495459004F444459
:1009A00020504152495459004D4F56452D2020208A
:1009B00020202020204D4F56452B00534156494EB4
:1009C000472E2E2E006B2B6C2B6F2B6E2B5D2B6509
:1009D0002B662B011020304000E0C0A080C0E0005A
:1009E0002040014080C0FF004080C0FFFCE0C0A06C
:1009F00082FCE0C0A082313230302020003234301E
:100A0000302020003438303020200039363030207B
:100A1000200031393230302000333834303020007B
:100A2000353736303020003131353230300020203B
:100A3000314D003530304B003235304B00313235DE
:100A40004B002036324B002033314B002031364BE7
:100A5000002020384B002020344B00312E364B0034
:100A60002038303000203830300020333230002041
:100A70003136300020203830002020333200202052
:100A8000313600202020380020332E320020312E35
:100A9000360020302E3800302E3332002020381718
:100AA000002031361700203332170020363417006B
:100AB0003132381700323536170035303017002004
:100AC000311A1B0020321A1B0020351A1B0031304E
:100AD0001A1B0032301A1B0035301A1B0020302E32
:100AE000310020302E320020302E350020202031E1
:100AF000002020203200202020350020203130002E
:100B000020203230002020353000352E31320032A6
:100B10002E353600312E323800302E363400302E4D
:100B2000333200302E31360038301A1B000F0C0DD6
:100B30000E00101B121000111500002210111311CD
:100B40000029140016110019001D1E0020210000AC
:100B500000000904000000160419140808081616FD
:100B60000F16292929190C0D06060606060600008F
:100B70000102030405060708090A0A0B0C0D0E0FF3
:100B800010112122231F20121314151617151618E1
:100B9000191A1B1C1D1D1E24204348204F4E2020C7
:100BA00020002020202020204741494E2D202020B9
:100BB00020002020204741494E2B004C4F474943FD
:100BC000204F4E2000202020202053454C454354E8
:100BD000202020002050524F544F434F4C00204EB5
:100BE0004F524D414C202020002020202053494EC0
:100BF000474C45202020002043495243554C415248
:100C000000204E4F524D414C20202000202020201B
:100C100053494E474C45202020002020202041559C
:100C2000544F20002056435552534F52200020204D
:100C3000204843555220434831202000202048437B
:100C4000555220434832002048414D4D494E4720DF
:100C50002020002020202048414E4E20202000202F
:100C600020424C41434B4D414E002020434831200F
:100C70002020200020202020202020434832202037
:100C80002020200020204C4F47494320002047527D
:100C90004944202020002020464C495020444953FC
:100CA000504C415920002020494E564552542000B6
:100CB00020205644432020202020200020202056A1
:100CC00020502D50202000204652455155454E437E
:100CD000592000202053494E45202020200020206C
:100CE0002020535155415245202000202054524984
:100CF000414E474C4500504F534954494F4E2020D8
:100D00002000202020494E5645525420202000200B
:100D10002020204D4154482000504F534954494F02
:100D20004E20202000202020494E5645525420209D
:100D300000202020544849434B30200020434831B4
:100D40002000202020202020202020204348322066
:100D50000020202020202020204C4F4749430054D1
:100D600052494754595045202000202020545249D0
:100D70004753524320202000204D4F5245545249A2
:100D800047002053434F50452020202000202020A2
:100D9000204D455445522020200020202020202096
:100DA0004646542000204951204646542020200029
:100DB00020204646542057494E444F5720200020BB
:100DC0002020204C4F472000435552534F52532070
:100DD000002020202020444953504C41592020001D
:100DE00020202020202020415747005741564520F1
:100DF000545950452020002020205357454550206D
:100E0000202000204652455155454E435900205759
:100E1000494E444F572020200020202020454447A1
:100E200045202020200020202020534C4F504520DA
:100E30000020204155544F20202020200020202039
:100E4000545241434B2020200020524546455245F4
:100E50004E4345002020414C4C20202020200020E3
:100E60002020204249545F302020202000202020D4
:100E7000204249545F3100204249545F32202020F3
:100E80002000202020204249545F332020202000D1
:100E9000202020204249545F3400204249545F35CD
:100EA0002020202000202020204249545F3620208E
:100EB000202000202020204249545F370020455840
:100EC0005420545249472000202020204249545F9A
:100ED000302020202000202020204249545F310073
:100EE00020504152414C4C454C20200020202053A2
:100EF000455249414C2020002020202020205055E0
:100F00004C4C00204932432020202020200020206B
:100F10002020205541525420202020002020202035
:100F2000205350492000204E4F2050554C4C20203B
:100F30000020202050554C4C20555020200020509F
:100F4000554C4C20444F574E002050455253495366
:100F500054454E5420200020204C494E452020204E
:100F600000202020202053484F5720002043504F7E
:100F70004C202020202000202020204350484120C9
:100F80002020200020494E56455254205353002023
:100F90005355425452414354200020204D554C5447
:100FA00049504C5920200020204156455241474588
:100FB0002000414D504C49545544452000202044C8
:100FC000555459204359434C4520002020204F467A
:100FD000465345540020524F4C4C202020202000E6
:100FE000202020454C4153544943202000202058C4
:100FF00059204D4F44452000545249474D4F4445D8
:101000002020002020504F535454524947200020A4
:10101000202054524947484F4C4400204558502006
:10102000202020202000202020204E4F4953452002
:10103000202000202020435553544F4D20002053A2
:10104000504545442020202000202020204D4F44A2
:101050004520202020002020202052414E474520BE
:101060000053572046524551202020200020205375
:101070005720414D50202020002020535720445518
:10108000545920002020444F574E2020202000207B
:101090002050494E47504F4E4720202000202041ED
:1010A0004343454C000000C80090012003400680E7
:1010B0000C0019D430190032007D00FA00F401E26E
:1010C00004C4098813D430190032007D00FA00F4FA
:1010D00001E20400C2EB0B00E1F50580F0FA0240EA
:1010E000787D0120BCBE00105E5F0000D43000009F
:1010F000105E5F0008AF2F00D0121300688909004E
:101100006889090090D0030048E8010024F4000039
:10111000A8610000D43000006A180000C409000073
:10112000E204000071020000FA0000010002000465
:10113000000800140028005000C80090012003D0CF
:1011400007F900F301E703C30987130E035800539F
:101150000063006F00700065000000180347006125
:101160000062006F00740072006F006E006900631F
:1011700000730000000403090409022000010100BB
:1011800080FA0904000002FF000000070581024008
:1011900000000705010240000012011001FF0000DD
:1011A00040D016F9060001010200010011241FBE03
:1011B000CFEFCDBFDFE2DEBF10E2A0E0B0E2E0E9BA
:1011C000FFE702C005900D92AE30B107D9F72FE2CC
:1011D000AEE0B0E201C01D92A730B207E1F70E9475
:1011E000961C0C94C63F0C94000090E1699FF0019E
:1011F0001124E078E80FE25BFE4D677081E001C0EA
:10120000880F6A95EAF785930895E0914F25E39555
:10121000E0934F25EA95EE0FF0914E25F695E79570
:10122000E25BFE4D859308958058860F1BF48FE78F
:1012300067FD80E880580895E1E2F9E0E80FF11DCC
:10124000099408C010C018C020C028C030C038C0E1
:1012500040C048C058990895D099FCCF5899089536
:10126000D09BFCCFC7C058990895D199FCCF58990D
:101270000895D19BFCCFBEC058990895D299FCCF58
:1012800058990895D29BFCCFB5C058990895D39929
:10129000FCCF58990895D39BFCCFACC058990895C2
:1012A000D499FCCF58990895D49BFCCFA3C05899EA
:1012B0000895D599FCCF58990895D59BFCCF9AC035
:1012C00058990895D699FCCF58990895D69BFCCF8C
:1012D00091C058990895D799FCCF58990895D79BF4
:1012E000FCCF88C058990895F599FCCF5899089576
:1012F000F59BFCCF7FC0E0E8F9E0E80FF11D099411
:1013000008C010C018C020C028C030C038C040C0BD
:1013100048C058990895D09BFCCF58990895D0990A
:10132000FCCF68C058990895D19BFCCF5899089577
:10133000D199FCCF5FC058990895D29BFCCF5899A2
:101340000895D299FCCF56C058990895D39BFCCFED
:1013500058990895D399FCCF4DC058990895D49BBE
:10136000FCCF58990895D499FCCF44C0589908955A
:10137000D59BFCCF58990895D599FCCF3BC058997F
:101380000895D69BFCCF58990895D699FCCF32C0CA
:1013900058990895D79BFCCF58990895D799FCCFB9
:1013A00029C058990895F59BFCCF58990895F5994F
:1013B000FCCF20C083580090240280151CF4589B59
:1013C000FACF08958A5F0090240280159CF0589B04
:1013D000FACF08958D570090240280151CF0589B79
:1013E000FACF089586500090240280151CF4589B73
:1013F000FACF089589E0809340085D9A80B18B30E0
:1014000058F484E100904C0800FEFCCF1092000AD2
:101410008093010258995D980895835800902C029A
:1014200080151CF4589BFACF08958A5F00902C0217
:10143000801504F3589BFACF08958D5700902C0225
:1014400080151CF0589BFACF0895865000902C020E
:10145000801584F6589BFACF08957F93009024025C
:10146000709124020716072E24F0589BF9CF7F9124
:10147000089570912402071A8015072ED4F4589B02
:10148000F8CF7F9108957F930090240270912402F9
:101490007015072E24F0589BF9CF7F910895709115
:1014A0002402071A0816072E24F4589BF8CF7F91C0
:1014B00008957F919FCF7F9300902C0270912C0212
:1014C0000716072E24F0589BF9CF7F91089570914D
:1014D0002C02071A8015072E64F7589BF8CF7F91CE
:1014E00008957F9300902C0270912C027015072EA6
:1014F00024F0589BF9CF7F91089570912C02071A20
:101500000816072EB4F6589BF8CF7F91089580589F
:1015100060580090240280156CF206165CF2589B0D
:10152000F8CF08958058605800902C02801514F26E
:10153000061604F2589BF8CF0895FF7F0000F57F50
:101540002403D87F4806A67F6A09617F8C0C097F37
:10155000AB0F9C7EC8121D7EE215897DF918E37CD5
:101560000B1C297C1A1F5C7B23227C7A2825897915
:10157000262884781F2B6B77112E4176FB3004755B
:10158000DF33B573BA3654728C39E270563C5E6FF5
:10159000173FC96DCE41236C7A446D6A1C47A6681B
:1015A000B449CF663F4CE864BF4EF1623351EB6003
:1015B0009B53D75EF555B35C4258825A825A4258C3
:1015C000B35CF555D75E9B53EB603351F162BF4E70
:1015D000E8643F4CCF66B449A6681C476D6A7A44FC
:1015E000236CCE41C96D173F5E6F563CE2708C395B
:1015F0005472BA36B573DF330475FB304176112E61
:101600006B771F2B84782628897928257C7A2322DA
:101610005C7B1A1F297C0B1CE37CF918897DE21581
:101620001D7EC8129C7EAB0F097F8C0C617F6A09FE
:10163000A67F4806D87F2403F57F0000FF7FDCFCEF
:10164000F57FB8F9D87F96F6A67F74F3617F55F0E1
:10165000097F38ED9C7E1EEA1D7E07E7897DF5E354
:10166000E37CE6E0297CDDDD5C7BD8DA7C7ADAD7C6
:101670008979E1D48478EFD16B7705CF417621CC9D
:10168000047546C9B57374C65472AAC3E270E9C042
:101690005E6F32BEC96D86BB236CE4B86D6A4CB612
:1016A000A668C1B3CF6641B1E864CDAEF16265AC66
:1016B000EB600BAAD75EBEA7B35C7EA5825A4DA392
:1016C000425829A1F555159F9B530F9D3351189BE7
:1016D000BF4E31993F4C5A97B44993951C47DD93BF
:1016E0007A443792CE41A290173F1E8F563CAC8D64
:1016F0008C394B8CBA36FC8ADF33BF89FB30958836
:10170000112E7C871F2B7786262884852825A48484
:101710002322D7831A1F1D830B1C7782F918E381BC
:10172000E2156481C812F780AB0F9F808C0C5A8041
:101730006A09288048060B802403008040C020A04E
:1017400060E0109050D030B070F0088848C828A8E9
:1017500068E8189858D838B878F8048444C424A4A1
:1017600064E4149454D434B474F40C8C4CCC2CAC89
:101770006CEC1C9C5CDC3CBC7CFC028242C222A265
:1017800062E2129252D232B272F20A8A4ACA2AAA89
:101790006AEA1A9A5ADA3ABA7AFA068646C626A641
:1017A00066E6169656D636B676F60E8E4ECE2EAE29
:1017B0006EEE1E9E5EDE3EBE7EFE018141C121A117
:1017C00061E1119151D131B171F1098949C929A959
:1017D00069E9199959D939B979F9058545C525A511
:1017E00065E5159555D535B575F50D8D4DCD2DADF9
:1017F0006DED1D9D5DDD3DBD7DFD038343C323A3D5
:1018000063E3139353D333B373F30B8B4BCB2BABF8
:101810006BEB1B9B5BDB3BBB7BFB078747C727A7B0
:1018200067E7179757D737B777F70F8F4FCF2FAF98
:101830006FEF1F9F5FDF3FBF7FFF77278894881F71
:10184000771F881F771F672F71FD6250EDE3F5E169
:10185000E80FF61F849171FD819508953F922F92B4
:101860005F924F927F926F929F928F92BF92AF92B0
:10187000DF92CF92FF92EF921F930F93DF93CF935C
:10188000FC0181E090E0A0E8B0E004E0809F60010E
:10189000909FD00C7C019F938F93EF01A09FC00D70
:1018A000D11DB09FD00DFF93EF93BB24AA2499279D
:1018B00000811181159507956881798175956795E6
:1018C000A801061B170B460F571F41935193208108
:1018D0003181359527956A817B8175956795A90139
:1018E000261B370B460F571F419351930F01EAE315
:1018F000F5E1EA0DFB1D4591559165917591F0015A
:10190000950320010C031001491E9C03590A300C59
:10191000411C591ED803590A300C411C591EB703EB
:1019200040012E033001891EBE03990A700C811CF0
:10193000991EFA03990A700C811C991E260C371CFB
:10194000481C591C49925992B50320012C031001DF
:10195000491EBC03590A300C411C591EDA03590AAE
:10196000300C411C591E970340010E033001891EA3
:101970009E03990A700C811C991EF803990A700C39
:10198000811C991E2618370848085908499259920F
:10199000AC0CBD1CB1FE8CCF04E0A09FC00DD11DCE
:1019A000E00DF11DB09FD00DF00D81E0E81AF90AAD
:1019B00009F07BCFEF91FF918F919F91880F991F35
:1019C000B695A795109609F060CFCF91DF910F9152
:1019D0001F91EF90FF90CF90DF90AF90BF908F90CE
:1019E0009F906F907F904F905F902F903F900895C1
:1019F0000002030405060708090A0B0C0D0E0E0F62
:101A00003F922F925F924F927F926F929F928F920E
:101A1000BF92AF921F93DF93CF935C01EB0160E421
:101A200070E0EAE3F7E1992710E844991127A591BE
:101A3000BB27AA0FBB1FAA0FBB1FAA0DBB1D2D9151
:101A40003D914D915D91B30320012A031001491E80
:101A5000BA03590A300C411C591EBA03590A300CFA
:101A6000411C591ED50340014C033001891EDC0383
:101A7000990A700C811C991EDC03990A700C811C58
:101A8000991E260C371C481C591C66247724882470
:101A900022273327442770E1220F331F441F220CD3
:101AA000331C441C551C661C771C881C220C331CE0
:101AB000441C551C661C771C881C261537054805D8
:101AC00028F42395621A730A840A23957A9521F7DC
:101AD0004695379527951124439B1FC062177307BE
:101AE00010F020E020C0261B370BFF93EF93E0EFB0
:101AF000F9E140EF37FD04C0221F331F4051FACFF8
:101B0000330F3695369536953695E30FF11D549182
:101B1000450F342FEF91FF9106C0220F331F220F84
:101B2000331F08F43FEF39931A9509F080CFCF9116
:101B3000DF911F91AF90BF908F909F906F907F909B
:101B40004F905F902F903F9008958091702B9091CF
:101B5000712BA091722BB091732B26E034E0239F60
:101B6000F0011124E650FA4F459155916591749119
:101B700084179507A607B70710F4215078F734E0CB
:101B8000239FF0011124EE50FA4F45915591659134
:101B90007491619B05C0841B950BA60BB70B14C0F9
:101BA000629B05C0840F951FA61FB71F0DC0223072
:101BB00009F427E084E0289FF0011124EA50FA4F4D
:101BC00085919591A591B4918093702B9093712BF1
:101BD000A093722BB093732B08950F931F93CF9301
:101BE000DF9380916C2B181614F410926C2B80915B
:101BF0006E2B811103C081E080936E2B8091702B3E
:101C00009091712BA091722BB091732B843691051A
:101C1000A105B10528F484E690E0A0E0B0E009C099
:101C200081329C4BAE4BB10560F080E29CEBAEEB99
:101C3000B0E08093702B9093712BA093722BB09394
:101C4000732B4091702B5091712B6091722B70917E
:101C5000732B36E020E480E09AE6A8E1B0E0841738
:101C60009507A607B70710F520934A2080916D2BA2
:101C7000823009F44BC058F4882351F1813009F0C7
:101C800078C0C0E5D5E20C2F10E41C1B37C08430AF
:101C9000A9F0C8F0853009F06CC040E051E060E088
:101CA00070E080E595E20E946A3F63C0B695A79513
:101CB000979587952695315091F6D6CFA0E5B5E258
:101CC00080E090E042C0E0E5F5E280E09FE72DC0D3
:101CD000809160099091610920E535E2F90145E5BF
:101CE00052E6BC01649FC001659F900D749F900DEA
:101CF0001124019691932E13F4CF3BC08C2F810FAA
:101D00000E941D0C89930C13F9CF33C080E595E236
:101D1000FC01382F2E2F281B27FF02C02FE701C000
:101D200021E821933E13F6CF24C0803839F0282FC4
:101D3000220F392F321B31938F5FF7CF982F990FD6
:101D40009F5791938F5FD1F714C0282F803891054A
:101D500041F0FC01E45EFC4FE491E195ED930196C6
:101D6000F4CFE22FF0E0E456FD4FE491ED932F5FC6
:101D7000C1F720916E2B30E080E091E0821B930B45
:101D8000880F991FD901AA0FBB1F60E575E2FB01FF
:101D900040E050E0162F252F30E0205B3A4DE9015E
:101DA000D3950081088301915F3F81F021962081C6
:101DB000332727FD3095200F311D07FD3A9537FF5A
:101DC00002C02F5F3F4F359527952883480F591F35
:101DD0002E2F3E2F361B303809F4CD011213DBCFE6
:101DE000C0914A20AC2FB0E020E13EE54FE550E045
:101DF0000E944E3F2091702B3091712B4091722B9D
:101E00005091732B0E94F13E2150310986E080935E
:101E1000A200C23010F081E001C082E0809340094E
:101E200020937609309377091C2F169509F411E059
:101E3000D0E0C0E020916C2BED2FF0E0E05BF94D9D
:101E40003081A303812D112460916F2B0E9415090D
:101E5000EC2FF0E0E55BFF4D8083CF5FD10FC11128
:101E6000E9CF599887E08093A200DF91CF911F912D
:101E70000F910895EEE4F1E2119285E2EE34F80755
:101E8000D9F710924F2510924E250895F8943C9B57
:101E900005C088EC0E94973C81EA04C080EC0E9457
:101EA000973C80EA0E94973C3B9B02C087EA01C0B6
:101EB00086EA0E94973C789408950F931F93CF93DE
:101EC000DF93182F062FEA019E01FE0194912296BE
:101ED0002F5F3F4FF90164919F3F31F0600F892FD1
:101EE000810F0E94F508F0CFDF91CF911F910F91E4
:101EF0000895CF92DF92EF92FF920F931F93CF93AB
:101F0000DF93182F062FC42FD22FC81BD61BD7FF45
:101F100004C0D195EE24EA9402C0EE24E394C7FFF6
:101F200004C0C195DD24DA9402C0DD24D394602F6F
:101F3000812F0E94F508CD1788F0FC2EF694C12C55
:101F4000CC16E1F0FD0EFC1610F0FC1A0E0D1D0D66
:101F5000602F812F0E94F508C394F2CFFD2EF694D6
:101F6000C12CFC0EFD1610F0FD1A1D0D0E0D602F7C
:101F7000812F0E94F508C394CD12F3CFDF91CF914A
:101F80001F910F91FF90EF90DF90CF900895EF9207
:101F9000FF921F93CF93DF93182F8A3081F1282F60
:101FA00030E024513109F901EE0FFF1FE20FF31F5A
:101FB000ED5DF84F7F0183E0E80EF11CEF01219603
:101FC0008491619B02C0806880950E940509CE15AE
:101FD000DF0511F0FE01F2CF1C3111F480E318C0CF
:101FE0001D3149F488E30E94050980914F258F5FD8
:101FF00080934F250FC01A3111F488E009C08091F9
:102000004F2587FD07C0619902C080E001C08FE7BE
:102010000E94050980914F2587FD02C01A3039F4CE
:1020200010924F2580914E258F5F80934E25DF9132
:10203000CF911F91FF90EF900895EF92FF920F9331
:102040001F93CF93DF938E3229F480E60E94050917
:1020500080E60CC08D3269F483E00E94050983E0BC
:102060000E94050983E00E94050983E00E9405099A
:1020700039C0803221F480914F258A5F36C094E1C7
:10208000899FE0011124C55AD94F80914E25815076
:1020900080934E258E01065F1F4FFE017F018FEF5B
:1020A000E81AF80A84910E940509E016F10611F079
:1020B000F701F4CF80914E258F5F80934E2580915C
:1020C0004F258A5080934F25649678019FEFE91A37
:1020D000F90AF80184910E940509EC16FD0611F039
:1020E0008701F3CF80914F258E5F80934F25DF913D
:1020F000CF911F910F91FF90EF900895CF93DF93B1
:10210000FC018491EF012196882321F00E94C70FE2
:10211000FE01F7CFDF91CF910895CF93DF93C82FC2
:10212000843660F0DCE9D80FD43620F0D8E3D80F3D
:1021300082E301C081E30E94C70FCD2F80E3CA3044
:1021400018F08F5FCA50FBCF0E94C70F80E38C0F3F
:10215000DF91CF910C94C70FEF92FF920F931F93D3
:10216000CF93DF93CDB7DEB72C97CDBFDEBF8E0107
:102170000F5F1F4F98E0F80111929A95E9F780934D
:102180004F2560934E2557FF15C0509540953095CB
:1021900021953F4F4F4F5F4F8DE262990EC02987C7
:1021A0003A874B875C870E94C70F29853A854B8504
:1021B0005C8514C080E2629B07C029873A874B8701
:1021C0005C870E941D10F1CF29873A874B875C8777
:1021D0000E94C70F5C854B853A852985619940C06F
:1021E0002036F3E43F07F9E94F07FBE35F07DCF52F
:1021F000211581EE380785EF480785E0580754F030
:10220000CA01B90120EA36E841E050E00E94133FDC
:10221000F12C2EC0CA01B9012038E6E93E07E8E9F1
:102220004E0751054CF020E137E240E050E00E94BB
:10223000133FFF24F3941CC0203432444F40510517
:102240004CF028EE33E040E050E00E94133F72E093
:10225000F72E0EC024E630E040E050E00E94133F2D
:1022600063E0F62E05C0F12C2FE037E240E050E0AD
:1022700067E084E0689FF0011124E650FA4F8591F1
:102280009591A591B491F801E60FF11D2817390732
:102290004A075B0740F070817F5F7083281B390B12
:1022A0004A0B5B0BF3CF615020F7619B03C027E023
:1022B000E22E02C093E0E92E8E2D90E0F801E80FA7
:1022C000F91F629B09C080810E941D10FE100DC085
:1022D0008EE20E941D1009C08081805D0E94C70FA0
:1022E000FE1003C08EE20E94C70FEA94EFEFEE12D9
:1022F000E3CF2C96CDBFDEBFDF91CF911F910F9121
:10230000FF90EF900895E62FF0E0EE0FFF1FE050F2
:10231000F04E20813181DC010E94473F28E030E00F
:1023200040E050E00E94133F60914E2580914F2580
:102330000C94AC1080934F2560934E25CA010C94E9
:102340007E109627092E0294202D2F702927692FA1
:102350006025660F607E2627602D6927607F669561
:10236000092E000C661F9695969596959F71962757
:102370009827822F089588EA91E62091A10A27FDE7
:1023800009C02AE62A95F1F700C001970097A9F73E
:1023900080E008958091A00A0895E0913020909106
:1023A00032209830E0F791E09E0FF0E0E05DFF4DC5
:1023B0008383F894809132208F5F8093322083E171
:1023C0008093A30A7894983008F090E0909330209E
:1023D00008951F920F920FB60F9211248F939F931F
:1023E000EF93FF9380913220882399F0815080935E
:1023F0003220E091312081E08E0FF0E0E05DFF4D72
:1024000093819093A00A883008F080E08093312077
:1024100003C080E18093A30AFF91EF919F918F9178
:102420000F900FBE0F901F9018958F929F92AF92B2
:10243000BF92CF92DF92EF92FF920F931F93CF93B1
:10244000DF931F92CDB7DEB71092080410920904F3
:102450009091C20491FD03C0EC9891E001C090E01E
:10246000893609F4E8C080F5843609F4D0C0F0F468
:10247000813609F45BC098F4833409F0E2C181E04D
:102480000E94CD1181E00E94CD118EEF0E94CD11EE
:1024900097E6E92E98E0F92E10E090E026C182360A
:1024A00009F45AC0833609F493C0CBC1863609F4C7
:1024B000BCC008F4B0C0873609F4BAC0883609F049
:1024C000C0C1589A5D9ABDC1813709F4DEC068F475
:1024D0008B3609F4C9C008F4B2C08D3609F4CAC0FD
:1024E000803709F0AEC16798ACC1873709F4DFC007
:1024F00040F4853709F0A5C1A5E8BEE2E0E0F0E0D0
:10250000C6C0883709F4DFC08B3B09F09AC110922E
:102510001A2010921B20809118208D79809318200A
:10252000809110208D7C8093102075C1EDE1F6E044
:10253000E491E093852EEEE1F6E0E491E093862EBF
:10254000EFE1F6E0E491E093872EE0E2F6E0E4913B
:10255000E093882E84E078C1992329F01091CB2E46
:102560008091C92E05C00E94BB11182F0E94BB117B
:10257000111105C090B19B3080F05D980EC01630EF
:1025800060F0133251F0163241F094EF910F923017
:1025900020F098EE910F953008F4589A1E3070F4A0
:1025A0001092502B1092512B1092522B1092532BB1
:1025B0005A9A1C3030F4E12FF0E008C0143208F0D1
:1025C000599A1C50E12FF0E0EC5AF44D808339C148
:1025D000992389F09091CB2E8091CC2E9093702BE3
:1025E0008093712B9091C92E8091CA2E9093722B5B
:1025F0008093732B3DC000E71BE20E94BB11F801E2
:1026000081938F01FBE204371F07B9F731C0E898C7
:102610000E948C1A16C1E89840E051E060E070E03A
:102620008BE490E20E948B3F0CC1589A5C9A09C1DE
:10263000589A5C9806C1589A0E94FA1D02C19923C3
:1026400039F09091C92E8091CA2E90935E2B06C0CE
:102650000E94BB1180935E2B0E94BB1180935F2B65
:102660000E94C21F589AEDC00E94B81A589A5A9AEE
:10267000599AE7C0E0E5FBE2A5E8BEE281918D93BF
:102680002BE2E435F207D1F765CF679ADAC0819182
:102690008D93EC30F105D9F7E4E5FBE2A1E9BEE268
:1026A00081918D933BE2E437F307D1F7CCC010E082
:1026B000812F90E0805090400E94763F0E94CD1183
:1026C0001F5FB1F7BEC087E40E94CD110BE410E29A
:1026D00078010E94BB11F70181937F010E13F9CF9E
:1026E000599A84E50E94CD11ACC0F7010491602F86
:1026F000812F0E94A111182F802F99830E94CD1144
:10270000FFEFEF1AFF0A998125EAE21628E0F206A8
:1027100061F78FE3F82E0EE3DD24D394AA24A3946B
:10272000F0E1FF9E4001112420E882228F2D877066
:10273000BA2C01C0BB0C8A95EAF7E12CF401E55BE9
:10274000FE4D4F0180E0C12CCC0C282F2E0DF40142
:10275000E20FF11D23812B2131E009F030E0C32A83
:102760008F5F883089F76C2D812F0E94A111182F5F
:102770008C2D99830E94CD110F5F99810038C9F487
:10278000892F0E94CD11812F0E94CD110E94BB1173
:10279000863009F056C0D39481E00E94CD118D2D72
:1027A0000E94CD118D2D80950E94CD1110E090E0FA
:1027B00000E038E0E30E80E8E812C4CFFA94EFEFCF
:1027C000FE12AECF07FD0CC06AE1812F0E94A1115D
:1027D000182F8AE199830E94CD110F5F9981F2CF62
:1027E000892F0E94CD11812F0E94CD110E94BB1113
:1027F000863039F584E00E94CD110E94BB118531ED
:1028000001F584E00E94CD110E94BB111AC0809195
:10281000182085FD04C08091102085FFF8CFF89422
:102820008AE00E94291B8091C1048E7F8093C1049D
:1028300084E60E94291B8FEF80937800E0E0F0E4AB
:10284000099580E001C08CE20F90DF91CF911F913C
:102850000F91FF90EF90DF90CF90BF90AF909F903F
:102860008F9008951F920F920FB60F921124FF922E
:102870000F931F932F933F934F935F936F937F9388
:102880008F939F93AF93BF93CF93DF93EF93FF9378
:1028900010920804109209048091A00A0E94151257
:1028A000F82E05E81EE2E8018C2F801B8F1520F41E
:1028B00089910E94CD11F8CFFF91EF91DF91CF91D7
:1028C000BF91AF919F918F917F916F915F914F9148
:1028D0003F912F911F910F91FF900F900FBE0F907E
:1028E0001F9018959F92AF92BF92CF92DF92EF9276
:1028F000FF920F931F93CF93DF93E090572BC091DC
:10290000582B359902C0CFE7E12C2E2D332727FD18
:102910003095DD27C7FDD095C21BD30BF3E0CC0F5C
:10292000DD1FFA95E1F780B18B3020F0CC0FDD1F71
:10293000E22EEE0CD090672BD694D694D694FF243A
:10294000E7FCF094FE2CEE2408E010E060E8C62ED0
:10295000A12C78E7972E80B18B3040F42091562B34
:1029600030E0322F22272E0D3F1D01C0970184B188
:102970008C2109F12C0F3D1F81E0E32FFF27E45844
:10298000F24D9081482F437031F4BB0CAA2031F0F6
:10299000B394A12C03C09C2109F0A3942C0F3D1FDC
:1029A0008F5F813251F790924F25D0924E258B2D1B
:1029B0000E94681AD394C69401501109011511059B
:1029C00051F6DF91CF911F910F91FF90EF90DF9023
:1029D000CF90BF90AF909F90089580911001806438
:1029E0008093100180912001806480932001809168
:1029F000A10887FF03C08091A008F9CF8091C20889
:102A000081118091C30885E88093120180E892E0EB
:102A1000809314019093150180E595E280931C0149
:102A200090931D018091682B823029F48BE4809370
:102A3000130180EA06C0811109C08AE48093130162
:102A400083EC8093180188E080931901379B02C0C2
:102A500084E801C084EA8093100185E88093220114
:102A600080E892E0809324019093250180ED97E225
:102A700080932C0190932D018AE59AE2809328019E
:102A800090932901379B02C084E801C084EA8093B7
:102A900020010895CF92DF92EF92FF920F931F9340
:102AA000CF93DF93D82E81110AC00091512A109143
:102AB000522AC0E5EC2EC5E2FC2E80E009C0009150
:102AC000532A1091542AB0EDEB2EB7E2FB2E87E487
:102AD00080934F2510924E251F9B03C06695C0E53D
:102AE00001C0C8E24C2F50E02C9904C0C69FE00101
:102AF00011241AC098010417150710F420583D4FEF
:102B0000241B350B70E06F5F7F4F649FE001659F72
:102B1000D00D749FD00D1124C20FD31FC03882E096
:102B2000D80710F0C058D240A7E4CA2E80914E2595
:102B30008830E8F52C9903C0C017D107C0F5F7011C
:102B4000EC0FFD1F80812196C03892E0D90710F06C
:102B5000C0E0D0E01F9B13C08A3011F484E107C0AD
:102B60008D3011F485E103C0803208F48FE50E94B6
:102B7000C70F80914F258E5F80934F2505C00E941F
:102B8000681A80E20E94C70F80914F25D1100AC0B9
:102B90008B3360F210924F2590914E259F5F90935A
:102BA0004E25C4CF873410F6C0924F25BFCFDF919A
:102BB000CF911F910F91FF90EF90DF90CF900895EC
:102BC0002F923F924F925F926F927F928F929F923D
:102BD000AF92BF92CF92DF92EF92FF920F931F932B
:102BE000CF93DF9300D01F92CDB7DEB70E943A0F8C
:102BF00060E5E62E65E2F62EF70111922AE2E23553
:102C0000F207D9F71092512A1092522A1092532AA1
:102C10001092542A2C9902C0912C02C05FE0952E8C
:102C20001092730081E0809302048091682B8130C0
:102C3000F9F484EF98E00E947E1080E599E2809399
:102C4000562A9093572A80E595E28093582A9093CC
:102C5000592A80E880935A2A80915006887F8260A2
:102C60008093500683E080934C068093490667C0AA
:102C7000823009F04BC087ED98E00E947E103AB197
:102C80003770832F90E0FC01E65DF64FE491E0930E
:102C9000A608FC01EE5DF64F84918093A7088AB1E7
:102CA000887190E043E0959587954A95E1F7282F44
:102CB00045E0480F4093552AE32FF0E0559B06C0AE
:102CC000569B02C0206302C0282F206257992860BB
:102CD0002093A50880E18093A40881E080934008B8
:102CE000EE0FFF1FEE5EF64F8591949180935B2A65
:102CF00090935C2A9695879596958795809366081C
:102D00009093670883E08093460819C0811117C02B
:102D100085EA98E00E947E10569902C081E001C0C9
:102D200081E41AB1111F1127111F110F110F809388
:102D30005706559B05C080E48093540601C010E0FF
:102D40000E94ED140E94043D0E94211A80E892E046
:102D5000105C53E06CE02091512A3091522A232BD1
:102D600009F065C02091532A3091542A232B09F091
:102D70005EC0A8954091682B413001F1209114016B
:102D800030911501FC01E21BF30BE093512AF09303
:102D9000522A2091240130912501FC01E21BF30B02
:102DA000E093532AF093542A411108C0D49B06C0E3
:102DB0001093C00850934C06609349065B9933C04A
:102DC0001FB88CE79BE280932C2090932D2082E209
:102DD0008093282064981092A3081092A40810925F
:102DE000460810924008109249061092C0088CE7DD
:102DF0008093730085E0809302042396CDBFDEBFED
:102E0000DF91CF911F910F91FF90EF90DF90CF90C6
:102E1000BF90AF909F908F907F906F905F904F90FA
:102E20003F902F900895789B96CF5B9894CF70E158
:102E3000872EE0EDCE2EE7E2DE2EF9E8AF2EF2E0AF
:102E4000BF2E00E812E0AEE37A2EBBE36B2E81E4E6
:102E5000582E0E94043D0E94211A0E943A0F809130
:102E6000282085FF1FC010922E2010922F206499D9
:102E700009C0E0922C20F0922D2000932A2010937C
:102E80002B2008C0C0922C20D0922D20A0922A2066
:102E9000B0922B20809128208D79809328208CB1AE
:102EA00088258CB98091682B813009F090C0292D3C
:102EB00030E02C9B2AC08091512A9091522A803474
:102EC000910538F08091512A9091522A80549109AD
:102ED00006C08091512A9091522A80549C4FA9019A
:102EE0004F5F5F4F66E0440F551F6A95E1F7480F4B
:102EF000591F4A835B83411564E0560718F054500C
:102F00004A835B8330E4332E4FC0A90126E0440F8F
:102F1000551F2A95E1F7F4CF8091512A9091522ABA
:102F20006A817B816817790708F0D4C0EA81FB8148
:102F3000E05BFA4D2080EA81FB81F695E795F695F6
:102F4000E795E05BF64D208130E04A814370440F05
:102F500081E0840FF90101C0EE0F8A95EAF7E0786D
:102F60004E2E042E01C0220F0A94EAF7822D27FF6D
:102F700026C086950E94681A20FE1BC04420B9F026
:102F80008CE30E94C70F80E20E94C70F2A813B8119
:102F90002F5F3F4F2A833B832115344010F01A8264
:102FA0001B823A9409F496C02C99C0CFB5CF88E221
:102FB000E8CF442011F08EE3E4CF89E2E2CF0E9413
:102FC000681A442011F08BE2DCCF8DE2DACF8091D9
:102FD000140190911501B801681B790B6093512A77
:102FE0007093522A8091240190912501F801E81BE9
:102FF000F90BE093532AF093542A379B18C0809121
:10300000100187FD0BC0109214011092150110924F
:10301000A4088091C0088F7B8093C0088091200114
:1030200087FD05C010922401109225015C9A5C9BDB
:103030001DC02EE14FE368E08FE30E94790F81EE1F
:10304000282E85E0382E94E070924F2590934E25DF
:10305000F101849199830E94C70F99819F5F91012B
:103060002F5F3F4F983041F01901EECF2FE34FE330
:1030700068E08FE30E94790F892D1F998E7F7092EF
:103080004F2510924E250E94601A0E94C70F809112
:10309000682B60924F2581110AC081E080934E25F4
:1030A00089E40E94C70F50924F258FE409C081E048
:1030B00080934E2582E50E94C70F50924F2584E5EC
:1030C0000E94C70F692D80E00E944A15692D81E09A
:1030D0000E944A157C9B3DC07C987A9B05C0799BD9
:1030E00003C083B1805883B97B9B28C08BB18825EE
:1030F0008BB98091682B5C9B0CC01092A4089091B6
:10310000C0089F7B9093C0088130C1F4109249069B
:1031100015C0813021F4F3E0F09349060CC08230F1
:1031200019F48092A40807C0811105C08091C008DD
:1031300080648093C00837990E94ED147A9B02C086
:1031400091109A94799B03C02FE0921293947899EE
:103150005B985B997ECE34CE1F920F920FB60F9282
:1031600011242F933F934F935F936F938F939F936C
:10317000AF93BF93EF93FF93E091582AF091592AB0
:10318000A091562AB091572A20915A2A88E180931B
:10319000200880910C08816080930C08D19B05C0A9
:1031A00080910C0880FFFACF55C051E080E0D199A2
:1031B00005C090910C0890FFFACF4CC099E2E03521
:1031C000F907C9F19AB3692F617090FD0FC0909112
:1031D0000C0890FD3FC0D19B10C0D09BF8CFD19B75
:1031E0000CC038C0D19B09C0D09B05C090910C0881
:1031F00090FFF8CF2FC0D199D1CF8830C1F4CF0143
:10320000019640833C915111322B2695611101C0EA
:10321000322B26953C93222319F0FC0150E0C6CFB7
:1032200011961C9211971196FC0120E8F7CF440FDC
:10323000462B8F5FBCCF379B06C0109249065C9A25
:1032400080E094E00AC010925029A0E5B9E2E0E5E0
:10325000F5E2ADCFCF01805595428093512A9093EE
:10326000522AE093582AF093592AA093562AB093F1
:10327000572A20935A2A81E080934C06FF91EF91C0
:10328000BF91AF919F918F916F915F914F913F91BE
:103290002F910F900FBE0F901F9018951F920F92B5
:1032A0000FB60F9211242F938F939F9392E09093D8
:1032B000200890910C08916090930C0898E0579B1F
:1032C00017C0D79909C020910C0820FFFACF2BC056
:1032D00020910C0820FD27C0D799FACF880FD699E6
:1032E0008160915071F713C020910C0820FD1BC024
:1032F000D79BFACF880FD69B06C0816004C020916F
:103300000C0820FD10C0D799FACF915089F780930F
:103310005A2A82E080934C065C9905C08091200176
:103320008061809320019F918F912F910F900FBE0C
:103330000F901F9018951F920F920FB60F921124A5
:103340002F933F934F935F936F938F939F93D39953
:103350006CC081E080934C0880914C0880FFFCCFCA
:1033600080915B2A90915C2A80936608909367080D
:1033700040E020E050E061E03091552A531768F4B6
:1033800060934C0830914C0830FFFCCF2695D39BBE
:1033900002C020684F5F5F5FEFCF383018F426958A
:1033A0003F5FFBCF559904C031E030934C0817C004
:1033B00031E030934C0830914C0830FFFCCF417025
:1033C000569B05C0442341F0D39BEECF23C041114F
:1033D00003C0D3991FC0E8CFD39B1CC0E5CF309169
:1033E0004C0830FFFCCFD39B15C057990AC02093DF
:1033F0005A2A5C990FC0209120012061209320015E
:1034000009C031E030934C0830914C0830FFFCCFBC
:10341000D399EDCF96958795969587958093660875
:103420009093670881E080934C089F918F916F91F2
:103430005F914F913F912F910F900FBE0F901F9072
:103440001895A89580E0889906C095E59A95F1F7BA
:1034500000008150C1F7EC98E89808951F920F92F0
:103460000FB60F9211248F93809106088B7F809363
:1034700006088FB18111609A8F910F900FBE0F9047
:103480001F9018950F93CF93DF931F92CDB7DEB7A0
:103490002FB72983F8941BBEFC0108ED04BF60839D
:1034A00089818FBF0F90DF91CF910F91089592E0A6
:1034B0009093CA01E82FF0E084911092CA01089518
:1034C000982F80E3890F8A3310F087E3890F0895DE
:1034D000CF93C82F82958F700E94601A0E94C70FE9
:1034E0008C2F8F700E94601ACF910C94C70F90E8B8
:1034F000980F97FF02C091E8980F892F8595805803
:103500000895813428F0803C28F4880F805808956D
:1035100080E008958FEF0895669929C088B18032C0
:1035200058F48091842E80B98091742B8093542B11
:1035300080917E2E8093552B4CE050E060E271E04C
:1035400080E090E00E948B3F40E250E060E071E05C
:1035500084E59BE20E948B3F80B18093842E809112
:10356000542B8093742B8091552B80937E2E08953D
:103570004CE050E069EB75E080E090E00E94613F34
:1035800040E250E069E975E084E59BE20E94613F1A
:10359000EC9A0E948C1AEC981FB808951F920F9213
:1035A0000FB60F9211248F938FB1811101C01EB8F5
:1035B0008F910F900FBE0F901F9018951092C1041D
:1035C0001092C3041092C004EC980E948C1A0E94BE
:1035D000F93C8FB18111FDCFA89885E08093480018
:1035E0008895109248000E94A53CA89A1FB80C9498
:1035F000813D1F920F920FB60F9211242F933F938C
:103600004F935F936F937F938F939F93AF93BF93EA
:10361000EF93FF930E94DE1AFF91EF91BF91AF915C
:103620009F918F917F916F915F914F913F912F91DA
:103630000F900FBE0F901F9018951F920F920FB60C
:103640000F921124109248000F900FBE0F901F9000
:103650001895A895882341F0EFE3FFE13197F1F742
:1036600000C000008150F6CF08951F920F920FB650
:103670000F9211242F933F934F935F936F937F93F8
:103680008F939F93AF93BF93CF93DF93EF93FF936A
:10369000EC98E898C9E1D0E081E00E94291B809174
:1036A0000806982F9E71D913CAE0C15011F0D92F86
:1036B000F3CF1FB881FF789A282F2071982F987028
:1036C00084703C9B0AC0211101C0799A911101C0FC
:1036D0007A9A81110BC07B9A09C0211101C07B9A93
:1036E000911101C07A9A811101C0799A8FB1882312
:1036F000A1F0589A7C9A80910408882379F088E197
:103700008093210880910C08826080930C0880913E
:10371000060884608093060801C06098109208042F
:1037200010920904FF91EF91DF91CF91BF91AF917A
:103730009F918F917F916F915F914F913F912F91C9
:103740000F900FBE0F901F9018950E94FB1F80E4F2
:103750000E94291B0E94642380E10E94291B84E1AE
:10376000E0E0F2E08183E0E0F1E080898F77808B18
:1037700080A98F7780AB80A18F7780A308957F92F7
:103780008F929F92AF92BF92CF92DF92EF92FF9271
:103790000F931F93CF93DF931FB80E943A0F85E3D7
:1037A00099E00E947E1042E359E067E084E70E94BE
:1037B0009A110E94043D8FB18823E9F3799BA3C03D
:1037C0000E943A0F10B8912CB0E5CB2EB5E2DB2E5B
:1037D000C7E07C2E80B1883008F069C0A92CA6E033
:1037E000BA2E882483948A0CB092542BB092552B15
:1037F0000E94A51BA0E5B7E2E0E5F5E2C0E0D0E05D
:1038000000E010E08191080F111D87FD1A958D9140
:10381000C80FD11D87FDDA95CE12F4CFEC9A80B196
:10382000EB2CF12C9701789E200D311D1124C9013C
:10383000612F835A9E4F0E94953F20E2210F203432
:1038400030F4482D60E2882D0E94790F01C0E89A7B
:1038500080B18823E1F060B170E061507109769E1B
:10386000C001779E900D11248E0D9F1D6D2F845DDC
:103870009E4F0E94953F2D2F205E203438F481E426
:103880008A0D482F60E20E94790F01C0E89A0E94D9
:10389000043D0E94211ABA943FEFB31611F0A82CF0
:1038A000A0CF87E0980E80B18F5F80B993CF80E181
:1038B0008093010287E080930402F12CC0E0D0E005
:1038C00000E010E0F3E8EF2EE0922002E092280200
:1038D00081E00E94291B8091240290912502080F0B
:1038E000191F80912C0290912D02C80FD91FFA94B4
:1038F00059F7B80189E991E00E94B83FBE0187E914
:1039000091E00E94B83F1FB861E08BE991E0DF9140
:10391000CF911F910F91FF90EF90DF90CF90BF90CC
:10392000AF909F908F907F900C94953FD4E0D09370
:1039300056008CE10E94571A809363000BE10093BC
:10394000650087EB80936600C1E0C09360008BEC5C
:103950008093520082EC809355001BE0109350003E
:1039600082E00E94291B009350006BE280E890E007
:103970000E94421A82E00E94291B64E080E490E0E9
:103980000E94421A8AE18093500081E48093B20041
:1039900082E38093B30010BB8FE18CBBDDBB89E079
:1039A00084BBC5BB80E58093110688E18093120635
:1039B0008093130680931406D7E0D0931506D09316
:1039C0001606D093170692E0909309069EE1909315
:1039D0000A06C0934A0630E830934B06C09375063A
:1039E00080939106C093A60990EC9093A50928E0D6
:1039F0002093A40927E12093A60A44EA4093A70A4A
:103A000023E02093A50A8093A40A80E28093A30A6E
:103A100050EE509380018093810188ED8093830163
:103A20009093840188EC809385018FE880938601D0
:103A300080ED80938701C093210391E1909322034D
:103A40002093230395E0909320038093420185E225
:103A50008093430180E091E080934401909345017D
:103A60008BE490E2809348019093490189E380932D
:103A70004C0120934D0140934001309300014CE0F4
:103A800050E060E271E080E090E00E946A3F40E236
:103A900050E060E071E084E59BE20E946A3FD093D1
:103AA000A20078940E94813D0E94A53C45E450E02C
:103AB0006CE175E08CE692E20E94613F0E94460F45
:103AC0004AE156E067E082E30E949A110E94043DB9
:103AD0002FEF83E294EF215080409040E1F700C047
:103AE000000085E0809343008BE991E00E94763FDF
:103AF000811101C0629A8EE991E00E94763FC82F41
:103B00008091080681FF629A1FB8D1E018E207E0B1
:103B100084E1F82E90E1E92E21E8D22E3AE3C32E7B
:103B2000629B4AC00E943A0FD09300021093390260
:103B300000930402F0920102E0920202D092380255
:103B400081E00E94291B20913C0230E0A0EBBCE008
:103B50000E94383F9B01AC0161E080E40E94AC1000
:103B60008AB30E94CD1148E459E066E080E00E94EB
:103B70009A11C0924F25CC2321F08C2F0E948D10DA
:103B800003C08DE20E94C70F7C9B11C07C987B997B
:103B90000E94BF1B7A99C05F79990E94B81A789BDE
:103BA00006C06C2F8EE991E00E94953F62980E94BA
:103BB000043D0E94211AB4CF1FB88091010480FDFA
:103BC000FCCF8CE3C89F9001112420930A0430930A
:103BD0000B042CE330E020930C0430930D04CC2331
:103BE00031F085E08093020487E0809300040E9416
:103BF000E223FDCF5C98289829982A9887E0809343
:103C000049201EB81FB808958091542B8823B1F025
:103C10009091782B913290F081508093542B809129
:103C2000602B811106C08091612B0E94771A8093CE
:103C3000612B8091782B86958093782B8091552BE2
:103C40008823B1F09091822E913290F08150809330
:103C5000552B8091602B813031F48091612B0E9433
:103C6000771A8093612B8091822E86958093822E85
:103C70000895109249208091842E80B98091742BF0
:103C80008093542B80917E2E8093552B089580B184
:103C90008093842EA4E5BBE28C918093742BE5E5A0
:103CA000FBE2808180937E2E1C92108287E08093BD
:103CB00049200895CF93DF93409906C0419907C0EA
:103CC000429908C0629A08C0ECE9F4E005C0ECE152
:103CD000F4E002C0ECE9F3E0449B3BC08CE79BE2DC
:103CE000CCE7DCE260E0349162993FE76F3708F49B
:103CF000319667FD3197DC014D91CD0129914058F6
:103D0000C303A001112474E0679FD0011124A05BBC
:103D1000BA4D4D935C9311972058A3039001112441
:103D200012962D933C9313976F5FE9F6629880E5A6
:103D300095E20E942E0C60E579E280E595E20E9412
:103D4000000D9091502980915129891718F191E027
:103D500022C0EC0180E0349162993FE78F3708F48C
:103D6000319687FD319729912058A303212D1124E5
:103D700094E0899FD0011124A05BBA4D12961C9249
:103D8000129713962C9313971C9211962C938F5F76
:103D900011F7CCCF92E023E080E097FD0DC0E92F32
:103DA000F0E0E05BF64D3081231710F0322F01C0B8
:103DB000892F9F5F232FF1CFE82FF0E0E05BF64DD6
:103DC0009081983008F480E0DF91CF91089580B120
:103DD0008B3010F03FEF01C03FE7479B07C0809159
:103DE000792B8093572B8091832E81C01092572B73
:103DF0003093582BE091562B089B02C0109B08C0B3
:103E00002091822E089B0FC08091782B281758F4A0
:103E10008091772B2091782B283008F45DC0F0E05A
:103E2000E458F44D08C08091812E283008F454C025
:103E3000F0E0E458F34D2695280F8081821718F0A2
:103E40008E2FDF012AC08E2FDF014A2F481BFD0174
:103E500031969C91921730F49E2F981B9317E1F1A5
:103E6000DF01F3CF4093572BCF01019650814F5F75
:103E7000251720F4431781F1FC01F6CF4093582B0E
:103E8000FC0181914F5F821728F54313FACF24C0BC
:103E90009E2F981B931701F1DF014A2F481BFD014C
:103EA00031969C912917A0F34093572BCF0101968F
:103EB00050814F5F521720F4431771F0FC01F6CF89
:103EC0004093582BFC0181914F5F281718F443133E
:103ED000FACF02C04093582B80B18B3050F08091C4
:103EE000572B86958093572B8091582B86958093DE
:103EF000582B0895E9E7F5E0A4E5BBE284919C9195
:103F0000981708F08C93119631968BE2A437B80776
:103F1000A9F78091652B87FD03C08EEF8093652BF9
:103F20008091662B87FD03C08EEF8093662B809176
:103F30006A2B9091692B891710F48093692B8091DB
:103F40006B2B811103C081E080936B2B8091612BDF
:103F5000833018F483E08093612B8091632B9091E0
:103F6000622B981710F48093622B8091642B83301E
:103F700018F483E08093642B80B1863110F085E1E2
:103F800080B9089580915E2B90915F2B8F3F9105B2
:103F9000B8F490B1911102C08830F8F090B191302E
:103FA00011F48530E0F090B1923011F48530B8F022
:103FB00090B1963018F48430A0F002C0882399F0B4
:103FC00080915E2B90915F2B97FF14C08FEF9FE73E
:103FD00080935E2B90935F2B089588E005C085E069
:103FE00003C084E001C081E090E080935E2B909359
:103FF0005F2BE6CF0895FF920F931F93CF93DF932C
:104000000E947A1F0E94C21F98E19093700084E082
:104010008093710023E0209372002CE720937300BB
:104020002CE620937400209375008093A2001092D8
:10403000000A1092010A1092060A1092400810928B
:1040400041088FE08093000882E0809304089093F9
:1040500027089091642B909326089EE09093000986
:104060008093040987E28093260984B120E0982F89
:104070009170290F8695D9F788E090E0821B91090D
:10408000880F880F880F9091672B891710F4109272
:10409000672B80B1811109C0469904C0479B05C0B8
:1040A000449B03C080B18F5F80B984E1809301029B
:1040B00085E48093030283E08093040290B19B30F7
:1040C000E8F0109227098093000A80B18B3019F430
:1040D00087E893E102C089E698E18093260A9093ED
:1040E000270AE0B1F0E0EE0FFF1FEB5EFE4E859178
:1040F000949180937A2B90937B2B25C01DB887E0F9
:104100008093270980B1863068F0E0B1F0E0EE0FCF
:10411000FF1FEB5CFE4E859194918093260A90934D
:10412000270A11C082E08093040280E48093030296
:1041300080B1823018F080B18093040280B1811187
:1041400002C0109203020E94460F81E08093000299
:1041500080E2809302020E94571A80930C0281E24F
:104160000E94571A80930D028AE280932102809167
:10417000542B90E09C01220F331F220F331F23602A
:10418000209320022BE220932902C091552BD0E0EE
:104190009E01220F331F220F331F2360209328021A
:1041A00020E12093310220B130B1383008F027E00F
:1041B00037E0F32E022F10E0F29E800D911D1124A6
:1041C000835A9E4F0E94763F81958093752B80B1D4
:1041D000882381F001501109F09EC001F19E900DDD
:1041E00011248C0F9D1F845D9E4F0E94763F819508
:1041F00080937F2E87E08093A2001C9902C081E00B
:1042000001C081E4199B05C01A9902C0806101C0F8
:1042100088619FEF9093B000809350065A98DF9189
:10422000CF911F910F91FF9008951F920F920FB69B
:104230000F9211248F929F92AF92BF92EF92FF92B2
:104240000F931F932F933F934F935F936F937F939E
:104250008F939F93AF93BF93CF93DF93EF93FF938E
:10426000D0914F25C0914E25809124026091752BED
:104270000E941509E82E80912C0260917F2E0E94E9
:104280001509F82E0C99E0941499F09400E80E0D9D
:1042900060E86F0D61958603112D112410580E9B57
:1042A00008C00F9B05C08E2D0E941409E82E01C086
:1042B000E12E169B0AC0179B07C0602F61958F2DBA
:1042C0000E941409F82E01C0F12E40914120509116
:1042D000422060914320709144204E0D511D611D7C
:1042E000711D40934120509342206093432070936E
:1042F000442040913D2050913E2060913F2070919C
:1043000040204F0D511D611D711D40933D20509364
:104310003E2060933F207093402080913B209091FD
:104320003C20019680933B2090933C20659A00911D
:104330007A2B10917B2B80913B2090913C20801711
:10434000910708F46FC010923B2010923C200D9B07
:1043500010C04801A12CB12C6091412070914220E5
:104360008091432090914420A50194010E94F13E48
:10437000E22E159B0EC0980140E050E060913D2078
:1043800070913E2080913F20909140200E94F13E0C
:10439000F22E10924120109242201092432010924F
:1043A000442010923D2010923E2010923F20109207
:1043B00040203A9B10C0EDB1F0E0E458F44D80810C
:1043C0008E0D8795E82EEDB1F0E0E458F34D808135
:1043D0008F0D8795F82EEDB1F0E0E458F44DE082B2
:1043E000EDB1F0E0E458F34DF082EDB18AB3F0E0C6
:1043F000E458F24D8083679B15C08DB1811109C0CF
:104400008DE00E94CD118AE00E94CD1183E50E94CB
:10441000CD118E2D0E94CD118F2D0E94CD118AB30A
:104420000E94CD11459BD1C03099CFC080913B20D7
:1044300090913C20892B11F00D993CC06091652B27
:104440008E2D0E941409182F1695103408F01FE3C2
:10445000EDB1F0E0E558F44D6091652B80810E944C
:1044600014093E9B1CC09DB19923C9F0282F2695A5
:10447000203408F02FE3121304C01123D9F01F33A6
:10448000C9F0089B17C04DB18DB150E041505109A2
:1044900055954795612F86950E94790F0BC0089B13
:1044A00009C0112339F01F3329F08DB1612F869592
:1044B0000E94F50880913B2090913C20892B11F0BF
:1044C00015993CC06091662B8F2D0E941409182FFE
:1044D0001695103408F01FE3EDB1F0E0E558F34D08
:1044E0006091662B80810E9414093E9B1CC09DB187
:1044F0009923C9F0282F2695203408F02FE31213B2
:1045000004C01123D9F01F33C9F0109B17C04DB15F
:104510008DB150E04150510955954795612F8695D1
:104520000E94790F0BC0109B09C0112339F01F3373
:1045300029F08DB1612F86950E94F508EAB210919D
:10454000672B189B2DC007E3E0E8FE2E94B19F2156
:1045500019F18DB1843059F410924F25812F869531
:104560008695869580934E25802F0E94C70F8F2DAC
:104570008E2119F08DB1612F0BC08DB166E0610FF6
:1045800086950E94F5081B9B06C08DB165E0610F02
:1045900086950E94F508185FF69401500F32B1F627
:1045A0001E9B1CC09DB19F70C9F41933B8F49DB116
:1045B00096959F5F90934F25169516951695109397
:1045C0004E258E2D0E94681A09C0479B07C03F9B4D
:1045D00005C08DB16FE386950E94F50880913B2060
:1045E00090913C20892BD1F58DB18F5F8DB98DB124
:1045F00081110CC0649A679B09C08AE00E94CD11AA
:104600008DE00E94CD1187E30E94CD11309923C027
:104610008DB1811109C01D9B03C045990E94721480
:104620001092060A5C991AC0459B18C03D9916C0A5
:10463000689914C08DB1869520E090E030E8239F02
:10464000F0011124E55BFE4DE80FF91F13822F5F87
:104650002830A1F703C05C991092060AD0934F2529
:10466000C0934E25FF91EF91DF91CF91BF91AF9114
:104670009F918F917F916F915F914F913F912F917A
:104680001F910F91FF90EF90BF90AF909F908F90F0
:104690000F900FBE0F901F9018951F920F920FB69C
:1046A0000F9211248F93EF93FF93E0E0F8E086815F
:1046B0008E7F8683589A5D9AFF91EF918F910F902C
:1046C0000FBE0F901F901895809110018064809309
:1046D000100180913001806480933001809120012D
:1046E00080648093200165E06093120170E1709313
:1046F000130180E092E0809314019093150120E56E
:1047000035E220931C0130931D0144E240931801CF
:1047100052E050931901409310016093320170935D
:104720003301809334019093350120E539E22093E1
:104730003C0130933D012AE1209338011092390168
:10474000409330016093220121E120932301809363
:1047500024019093250180E597E280932C019093AA
:104760002D018CE280932801509329014093200170
:1047700080911001806880931001809130018068E1
:10478000809330018091200180688093200180B166
:10479000863020F48CE18093010202C05093000A1D
:1047A00080E090E02091110124FD0BC020E22A95C9
:1047B000F1F7589B02C05D9808950197009791F713
:1047C00008950895CF93DF93CDB7DEB72C97CDBF73
:1047D000DEBF80B18093842E8091542B8093742B04
:1047E0008091552B80937E2E1EB8589A5A9A599ACA
:1047F0007C9A639A2CE73BE22F835A990E94FB1F15
:104800005B9B08C01FB85C980E948C1A0E94E01540
:104810000E94FB1F609B12C07B9B03C05C990E949F
:10482000FA1D8EB18C3220F07A9901C079997C9A68
:10483000789B04C00E94DE1A1EB8589A5C99E2C0A8
:104840005D99E0C000915D2B002339F0589905C0B7
:1048500081E00E94291B0150F7CF80B18B3010F40A
:104860000E946423289902C02A9B08C0309B03C081
:1048700080B18B3018F488B1803220F45899C2C0CE
:104880005D9AC0C0109260081092610881E0809328
:104890004C0880915E2B90915F2B20B1223010F05C
:1048A000880F991F20B1211102C0089710C020B1B4
:1048B000213019F020B1223011F4059708C020B141
:1048C000263010F4049703C0009709F001978093F5
:1048D000660890936708809126088093200881E0FD
:1048E0008093020480910C08816080930C082A9BBD
:1048F00005C08091060881608093060869E280E81F
:1049000090E00E94421A8091602B811136C0609124
:10491000752B61958091612B0E9414092E9B07C015
:104920006091632B8091622B0E94870A66C02D9B49
:1049300013C08091612B805887FF02C0819503C00E
:10494000811101C081E02B9B04C081950E942D0A3A
:1049500054C00E94430A51C02F9B03C02B9B0AC026
:1049600006C02091240290E8980F29171CF40E9499
:10497000DA0943C00E94EA0940C08130A1F5609184
:104980007F2E61958091612B0E9414092E9B07C098
:104990006091632B8091622B0E94920A2EC02D9B06
:1049A00011C08091612B805887FD8095811101C0D5
:1049B00081E02B9B04C080950E945B0A1EC00E9470
:1049C000710A1BC02F9B03C02B9B0AC006C02091FD
:1049D0002C0290E8980F29171CF40E940D0A0DC0B4
:1049E0000E941D0A0AC08B3040F482502B9B03C0EA
:1049F0000E947B0902C00E941C096BE280E890E0E3
:104A00000E94421A85E080930204809106088E7FFE
:104A1000809306085D9B68C188B1803220F45E9B5C
:104A200002C05F9961C180B18B3008F03BC18FE952
:104A30009FE00197F1F700C000001092000A84E1A6
:104A40008093010280917C2E8F5F80937C2EEFE714
:104A5000F2E03197F1F700C000005D981092400835
:104A6000809110018F7780931001809130018F77B2
:104A700080933001809120018F7780932001809175
:104A800014019091150120B1223020F0212CF2E088
:104A90003F2E0CC0212CE3E03E2E281A390A2114A7
:104AA000F2E03F0628F020E031E01901281A390A27
:104AB0009101205B3A4D7901C101805B984D3C0129
:104AC000F101E05BF64D6F012CE73DE22B833C8367
:104AD0006CE7862E6CE2962E7CE7A72E7BE2B72E43
:104AE000F6018081EB81FC818193EB83FC83F701EC
:104AF0002081822FF3019081192FFFEF2F1A3F0A97
:104B0000211432E0330650F44FEFC41AD40A6FEF89
:104B1000E61AF60AEFEF6E1A7E0A0EC0212C312C2F
:104B200030E5C32E39E2D32E40E5642E47E2742EE1
:104B300050E5E52E55E2F52E30B1323068F10D9B8F
:104B400005C0F701808185952595820F159B05C0CD
:104B5000F301108115959595190FFFEF2F1A3F0A54
:104B6000211422E0320651F03FEFE31AF30A4FEF2F
:104B7000641A740A6FEFC61AD60A0EC0212C312CA3
:104B8000B0E5CB2EB9E2DB2E00E5602E07E2702EF9
:104B900090E5E92E95E2F92E6091752B0E9415099A
:104BA000082F0C99009560917F2E812F0E94150986
:104BB000782F1499709510E8100F60E8670F6195D1
:104BC0009603912D112490580E9B0CC00F9B09C089
:104BD000802F788799870E941409082F78859985F6
:104BE00001C0092F169B0AC0179B07C0612F619552
:104BF000872F0E941409782F01C0792F95012F5F0C
:104C00003F4FA4014F5F5F4FF5013A9B0AC080817F
:104C1000800F87958083F4018081870F879580833B
:104C200003C00083F40170838CE79DE2EB818E1753
:104C300019F04A01590154CF679B20C08DE00E94B2
:104C4000CD118AE00E94CD1186E40E94CD11ACE71F
:104C5000EA2EABE2FA2EF70181917F010E94CD117D
:104C6000FCE7EF16FEE2FF06B1F78AE00E94CD11E5
:104C70008DE00E94CD1187E30E94CD118091282004
:104C800085FF23C010922E2010922F2082E093E8FF
:104C900080932A2090932B20809128208D798093D7
:104CA000282013C0309B04C05D985C990EC002C0E0
:104CB000649904C082E08093060A07C064985D98F6
:104CC00080917C2E8F5F80937C2EF894299B09C065
:104CD0005C9A80B18B3028F48EB1853011F083E37B
:104CE0008EB97C9B58987894809110018F7780932F
:104CF0001001809130018F778093300180912001E5
:104D00008F77809320015D9903C13D990CC047992D
:104D100008C0469906C0459B06C080B18B3008F09C
:104D200030990E943A0FF89480B18B3020F0309B7C
:104D300002C0649BBCC064984C9B3AC020B144E064
:104D4000249F900111242D523F4EF9018591959198
:104D5000A591B4919C01AD01FCE05695479537951E
:104D60002795FA95D1F7E0B1B201882777FD8095B4
:104D7000982F0E94E13EE73068F4969587957795E5
:104D800067956093702B7093712B8093722B909327
:104D9000732B0EC020ED37E040E050E00E94F13E62
:104DA0002093702B3093712B4093722B5093732B65
:104DB0004D9B09C0C20155E0959587955A95E1F73D
:104DC000819580936C2B4E9B09C0C20144E0959560
:104DD00087954A95E1F7805880936F2B4F9B08C0C9
:104DE000C20134E0959587953A95E1F780936E2B53
:104DF0006981611103C080916B2B89834A9902C03C
:104E0000998102C0998191958091692BE0E18E9FF3
:104E10009001112440916A2BF0E14F9FA0011124D1
:104E2000490E511C97FD5A94441555052CF44B9B83
:104E3000A901629A2A0107C04216530624F44B9B2B
:104E40009A01629A2901499B0DC0489B06C029819D
:104E50002F3740F42F5F298305C03981323010F09D
:104E600031503983629B09C040916B2B49834B9B26
:104E700004C099B124E0922799B9629899B1903110
:104E8000B0F0599A3F9B13C06FE386950E94F508D6
:104E900080916A2B6FE386950E94F5086FE3C2014B
:104EA00025E0959587952A95E1F70E94F508789475
:104EB00090917C2B80917C2C9C0140E0E42FF0E0D1
:104EC000E458F44D5081F3956081951708F4952FBF
:104ED000531708F4352F861708F4862F621708F445
:104EE000262F4F5F59F7492F431B4093782B482FAC
:104EF000421B4093822E9093762B3093772B809396
:104F0000802E2093812E319B03C045990E94E71E7D
:104F1000459B53C1369B6CC080B18B3018F4009117
:104F2000562B01C000E081EA91E00E94763FB82E46
:104F300080EA91E00E94763FA82EDE80CD80812C11
:104F4000E02EF12CC7018E559D4F0E94763F982E82
:104F5000C7018E559E4F0E94763FF82E6B2D892DEE
:104F60000E94140986958D83803410F06FE36D8361
:104F70006A2D8F2D0E94140986958E83803410F03F
:104F80008FE38E83EE24EA94E80C80B1F82C8B300A
:104F900010F0F694E6943E9B13C0882021F1089B04
:104FA00006C02C2D4E2D6D818F2D0E94790F109BE8
:104FB00013C02D2D4E2D6E818F2D0E94790F0CC0A8
:104FC000089B04C06D818F2D0E94F508109B04C0C2
:104FD0006E818F2D0E94F50880B18B3018F49EE70A
:104FE000981530F00F5F839419F0DE80CD80A8CF44
:104FF00080B18B3010F0309BE0C080B18B3038F046
:10500000309B05C0DDB0ED2DE160DE2E02C0D090FA
:10501000562BBD2C612C812C8B2D8D1987FCCAC081
:1050200090B19B3020F0309B02C0882E8694EB2CF0
:10503000F12C97012458344D7901F901FE5F9080DD
:105040000091672B189B49C080E8A82E97E0C92ED5
:1050500084B18A21E9F1811029C0702E769476946A
:10506000769410924F2570924E2580E38C0D0E940D
:10507000C70F2091602B30E022503109EC2DF0E079
:105080002E173F0799F43C853E3780F4289902C0DB
:105090002A9B0CC04C8540934F2570924E252B9B2C
:1050A00002C089E101C088E10E94C70F8A2D8921D1
:1050B00011F0602F09C066E0600F882D0E94F5088E
:1050C0001B9B05C065E0600F882D0E94F508085FF6
:1050D000A694CA946FEFC612BBCF1E9B0FC0882D3B
:1050E0008F7061F4093350F480924F250695069530
:1050F000069500934E25892D0E94681A6091652BB4
:10510000F70180810E941409082FF701F39560913F
:10511000662B80810E94140986950695003408F05C
:105120000FE3F82EFFE3F81710F4BFE3FB2E3E9BCE
:1051300023C08820D1F1011304C08FEF800F8E337C
:1051400040F4089B06C0212F462D602F882D0E9419
:10515000790F2A81F21204C08FEF8F0D8E3320F564
:10516000109B22C080B18823F9F02A81462D6F2D33
:10517000882D0E94790F18C0089B08C0002331F0C9
:105180000F3321F0602F882D0E94F508109B0CC072
:10519000FF2051F03FE3F31639F080B1882321F06E
:1051A0006F2D882D0E94F508682C8394B394FA82A1
:1051B000102F32CF1D990E947214469B51C03F9B05
:1051C00006C04EEE5FE060E080E00E949A11FCE7CE
:1051D000CF2EFCE2DF2EACE7EA2EABE2FA2E9E2DBC
:1051E000ECE7FBE29E1B80B18B3028F0309903C0C6
:1051F0008DB19817A1F0F70111917F011095F6017B
:1052000061916F018091562B681B67FD05C0669503
:10521000812F86950E94F508FF81FE11E0CF369B15
:105220001FC08FE991E00E94763FC82E00E0E02E7B
:10523000F12CC7018E559D4F0E94763FD82EC70195
:105240008E559E4F0E94763F8C1987FD07C0682FB0
:1052500066958D2D809586950E94F5080F5F39F72C
:10526000479BA7C05D99A5C0089B09C0109B07C0BC
:1052700080B1882321F0E3E0CE2E1BE103C072E071
:10528000C72E17E3449B39C087B1837079F060E182
:105290008091562B0E94F50860E28091562B0E9467
:1052A000F50860E38091562B0E94F50880E090E0BD
:1052B0000E945A1E00E08091562BE02FE81BF0E080
:1052C000E05BF64D808186958695883308F087E30C
:1052D00067E3681B3E9B06C027E3402F802F0E9498
:1052E000790F03C0802F0E94F5080F5F003819F76F
:1052F000319B5FC00E94E71E5CC0089903C01099F3
:105300002AC0F6CF8CE79BE20E945A1E8093792B2D
:1053100060E5E62E69E2F62E00E0F70121917F01BB
:1053200030E00C2C02C0359527950A94E2F712174D
:1053300008F4212F612F621B3E9B06C0212F402FB6
:10534000802F0E94790F03C0802F0E94F5080F5F05
:10535000003819F7D4CF80B1882351F28CE79CE252
:105360000E945A1E8093832E50E5E52E59E2F52EB9
:10537000D12C07E3F70121917F0130E00C2C02C012
:10538000359527950A94E2F7121708F4212F602F1C
:10539000621B3E9B06C027E34D2D8D2D0E94790F89
:1053A00003C08D2D0E94F508D394F0E8DF12E2CF00
:1053B0009FCF88B1803208F068C25D9B04C05E9BBD
:1053C00064C25F9B62C28091492081115EC284E009
:1053D000809349200E943A0F5E9B02C05F990CC0E7
:1053E0004DE35DE060E08CE00E949A114CE45DE0EA
:1053F00060E08CE40E949A115E9B02C05F9B04C037
:105400005E9930C05F9B2EC049ED55E060E081E3BE
:105410000E949A1149ED55E060E081E70E949A11DF
:105420003CE7C32E3BE2D32E4CE7E42E4CE2F42EB5
:1054300000E0F60161916F01669566956695645E80
:10544000802F0E94F508F70161917F0166956695AE
:105450006695645E80E4800F0E94F5080F5F00345B
:1054600041F746C00091602B023010F00A3041F441
:105470004EEB5EE063E080E10E949A110DE60CC005
:10548000025A46E85CE063E080E10E949A11809154
:10549000602B825D0E94C70F5E9B0CC0109249205A
:1054A00046EE55E063E082E60E949A115C9B1EC0C6
:1054B00000E01CC04BEE55E063E082E60E949A11CA
:1054C00080B1873028F42BEEE22E25E0F22E04C0C6
:1054D0009CEEE92E95E0F92EA70160E08DE20E9496
:1054E0009A11A70160E08DE60E949A110093820153
:1054F000629A10924F2582E080934E255E9BC5C034
:105500005F99C3C05C99AEC0309001020091040263
:10551000709020026090280280E18093010287E071
:105520008093040220E0C12CD12C7601812C912C97
:10553000540133E830932002309328028FE79CE037
:105540000197F1F700C0000080912402909125029C
:10555000AA2797FDA095BA2F881A990AAA0ABB0A0A
:1055600080912C0290912D02AA2797FDA095BA2F29
:10557000C81AD90AEA0AFB0A589974C02150D1F610
:1055800089E991E00E94863F9C01442737FD4095C0
:10559000542F280D391D4A1D5B1D86E991E02B878C
:1055A000388749875A870E94763FA82FBB27A7FDD7
:1055B000B095B85F2B85388549855A850E94593F3B
:1055C0004B015C0187E991E00E94863F9C014427E2
:1055D00037FD4095542F2C0D3D1D4E1D5F1D85E957
:1055E00091E02B87388749875A870E94763FA82FFA
:1055F000BB27A7FDB095B85F2B85388549855A85AF
:105600000E94593F6B017C01C501B40120E038E0E4
:1056100040E050E00E94133FB5E05595479537951F
:105620002795BA95D1F72093502B3093512BC70172
:10563000B60120E038E040E050E00E94133F85E0F2
:1056400055954795379527958A95D1F72093522BF5
:105650003093532B60922802709220020093040230
:105660003092010260E08091502B9091512B0E946A
:10567000831180E480934F2582E080934E2560E083
:105680008091522B9091532B1CC05F9B1DC05E9943
:105690001BC08091782B6091542BE0E88E9FC00155
:1056A00011240E94831180E480934F2582E080932F
:1056B0004E258091822E6091552BF0E88F9FC0017E
:1056C00011240E948311E0C05E9B04C080914108B8
:1056D000811144C01092472010924620109245201C
:1056E000F89410920008109204082CE02093090806
:1056F00082E19AE780932608909327081092000A87
:105700002093090A30E13093010A8CE38093030A65
:105710008DE08093000A84EF95E08093260A9093B1
:10572000270A1092400820934908309341088CE2E0
:105730008093430887E080930008809120088823A5
:10574000E1F38AE080934008789480910C0880FD12
:1057500008C0589993C05A9BF8CF90C080E18093BD
:10576000900180910C0880FF24C08FEF80930C087B
:1057700081E19AE780932608909327085C9905C0F9
:10578000809145208F5F80934520809145208C3308
:1057900080F010924520809146208F5F80934620B4
:1057A0008C3338F010924620809147208F5F809391
:1057B00047205E992AC0E0B124E0E29FF001112465
:1057C000ED52FF4EC590D590E590F490CD2CDE2C97
:1057D000EF2CFF24A091792BB0E0A70196010E9445
:1057E0004E3F9B01AC0162E080E00E94AC10A091B2
:1057F000832EB0E0A70196010E944E3F9B01AC01B1
:1058000062E080E40E94AC1018C080E380934F25D2
:1058100081E080934E25809147200E948D108AE37D
:105820000E94C70F809146200E948D108AE30E943B
:10583000C70F809145200E948D10C090280AD090FB
:10584000290AE12CF12C7601DD24CC248091680812
:1058500090916908C80ED91EE11CF11C619AA7013C
:10586000960165E088E00E94AC10C092502BD09267
:10587000512BE092522BF092532B61985E9904C009
:1058800087E0809349205A9A6298659B1BC065986F
:105890008091282085FF16C01092080410920904F8
:1058A0008DB180937D2E10922E2010922F2082E0B9
:1058B00093E880932A2090932B20809128208D7943
:1058C0008093282080914920882309F44CC1B0900E
:1058D000542B0091552BF0B0E8B043980E981698D1
:1058E0008CE79BE20E945A1E8093792B8CE79CE206
:1058F0000E945A1E8093832EE8B888B1803238F413
:105900005F9B03C0E3E07E2E04C05E99FBCF75E091
:10591000772E3AE0E32EAA24A39440E4D42E50E854
:10592000852E912C60E8C62E8091542B781610F4A9
:105930007092542B8091552B781610F47092552B41
:1059400080B18B3008F0E0B88091492090E0883039
:10595000910508F0F3C0FC01E250FF4F0C94323F78
:1059600088B1803208F475C02D982E982F9A089A25
:10597000109A2091782B203108F408988091822E7B
:10598000803108F41098089904C0109902C0089A50
:10599000109AD092562B80925E2B90925F2B269578
:1059A0009091772B290F86959091812E890F089BD6
:1059B00011C09091792B923068F03091832E93171B
:1059C00048F02A9A1092602B2093612B0C9B13C0F5
:1059D000922F0EC0109B0FC09091832E923058F0E2
:1059E0002A9AA092602B8093612B149B04C0982F5D
:1059F00090959093612B459B2CC030E03595279571
:105A0000319521953109322F2093652B90E09595A2
:105A10008795919581959109982F282F8093662BD2
:105A2000089B15C0109B13C0303A24F030523093BD
:105A3000652B02C0C092652B203E2CF480E2890FBA
:105A40008093662B02C01092662B0E94041E0E9457
:105A5000041E88B1803220F45E9902C05F9B6EC044
:105A60009091792B8091832E891708F4892F982F94
:105A700092959F7080B1981708F05FC080B1891B24
:105A80004CC08091762B8C3B58F48091772B8A34D4
:105A900038F08091542B871518F48F5F8093542B26
:105AA0008091802E8C3B08F049C08091812E8A34F1
:105AB00008F444C08091552B871508F03FC08F5FD4
:105AC0001CC08091762B8A3F20F48091772B823105
:105AD00038F48091542B882319F081508093542BF3
