:100000000C9403090C9420090C9425180C94BE1828
:100010000C9420090C9420090C9420090C942009BC
:100020000C94853E0C9420090C944C1D0C941C1DC2
:100030000C9420090C9420090C948F220C94FF1925
:100040000C9420090C9420090C9420090C9420098C
:100050000C940C190C9420090C9420090C94200980
:100060000C9420090C9420090C9420090C9420096C
:100070000C9420090C9420090C9420090C9420095C
:100080000C9420090C9420090C9420090C9420094C
:100090000C9420090C9420090C9420090C9420093C
:1000A0000C9420090C9420090C9420090C9420092C
:1000B0000C9420090C9420090C9420090C948E2097
:1000C0000C9420090C9420090C9420090C9420090C
:1000D0000C9420090C9420090C9420090C942009FC
:1000E0000C9420090C9420090C943F120C942009C4
:1000F0000C9420090C9420090C9420090C942009DC
:100100000C9420090C9420090C94A1190C9420093A
:100110000C9420090C9420090C9420090C942009BB
:100120000C9420090C9420090C9420090C942009AB
:100130000C9420090C9420090C94701D0C94200937
:100140000C9420090C9420090C9420090C9420098B
:100150000C9420090C9420090C9420090C9420097B
:100160000C9420090C9420090C9420090C9420096B
:100170000C9420090C9420090C9420090C9420095B
:100180000C9420090C9420090C9420090C9420094B
:100190000C9420090C9420090C9420090C9420093B
:1001A0000C9420090C9420090C9420090C9420092B
:1001B0000C9420090C9420090C9420090C9420091B
:1001C0000C9420090C9420090C9420090C9420090B
:1001D0000C9420090C9420090C9420090C942009FB
:1001E0000C9420090C9420090C9420090C942009EB
:1001F0000C9420090C945F3C0C948C3C08139F13C6
:100200009F139F139F139F139F139F139F139F135E
:100210009F139F139F139F139F139F139F139F134E
:100220009F139F139F139F139F139F139F139F133E
:100230009F139F139F139F136F127B1285129712A8
:100240009A12A312A612A912AC12B0129F139F13F6
:100250009F139F139F13BB12BD12BF12C812D1125E
:10026000DA129F13EC12F8125A2CAE2CE92C242D22
:10027000332D3E2D5B2D7B2D972DB12DCA2DD72DE6
:10028000E82DF82D082E1C2E292E362E702E812EAC
:100290008E2E9B2EAA2EB72EC82EE32EF02E0C2FBC
:1002A000542F6C2F812F942FAE2FC82FE22FF22FB7
:1002B00007301C302730383049306930893096306B
:1002C000B130CE30F03001313C315B317A31923196
:1002D000AA31C731DC31EE31023216322A324332D2
:1002E0005C3273328A32B032C532E9325F33653301
:1002F0006B3371337F338F339D33AB33BD33CC33AB
:10030000DC33EF33FB3307344535453513342434C0
:1003100045354535303445354234503445355E3405
:100320006C347A348A349834A634B934CC34DF341B
:1003300045354535EB34FD340B3511352335453521
:1003400035358B959FA9B2BBC3CBD3DAE1E8EEF488
:10035000FA00050B1014191D2125292D3134373AC7
:100360003D404345484A4C4F51535557585A5C5DA0
:100370005F6061636465666768696A6B6C6D6E6F08
:100380006F70717172737374747575767676777732
:100390007878787979797A7A7A7A7B7B7B7B7B7CBF
:1003A0007C7C7C7C7C7D7D7D7D7D7D7D7E7E7E7E7E
:1003B0007E7E7E7E7E7E7E7E7F7F7F7F7F7F7F7F55
:1003C0007F7F00000000000000000000000001012D
:1003D00001010102020203030304040405050606E9
:1003E00007070809090A0B0C0C0D0E0F1011121348
:1003F0001415161718191A1C1D1E20212224252732
:10040000282A2B2D2F3032343537393B3C3E4042A1
:10041000434547494B4D4E5052545657595B5C5ECD
:10042000606163656668696B6C6E6F70717374751B
:10043000767778797A7B7B7C7D7D7E7E7F7F7F7F00
:100440007F7F0000000000000000010101020203A4
:100450000304040506060708090A0A0B0C0D0E0F13
:1004600010111214151617181A1B1C1D1F202223F9
:10047000242627292A2C2D2F3032333536383A3B83
:100480003D3E404143454648494B4C4E4F515354E5
:100490005657585A5B5D5E5F616264656667696A5C
:1004A0006B6C6D6E6F707172737475767778787926
:1004B0007A7A7B7B7C7C7D7D7E7E7E7F7F7F7F7F6B
:1004C0007F7F090909090A0A0A0A0A0B0B0B0C0C9F
:1004D0000D0D0E0E0F101011121313141516171800
:1004E000191A1B1C1D1E1F20212324252627292AFB
:1004F0002B2D2E2F313234353638393B3C3E3F40A0
:100500004243454648494B4C4D4F50525355565720
:10051000595A5B5D5E5F61626364666768696A6BB6
:100520006C6E6F7071727273747576777778797993
:100530007A7B7B7C7C7D7D7E7E7E7E7F7F7F7F7FE6
:100540007F7F7EFF819191F1600060F49494FCF8CC
:1005500000FFFF8484FC780078FC8484FC7800042D
:100560007FFF848400FCFC080C0C0078FC8484FC75
:100570007800F8FC0404FCF800FDFD0078FC84849D
:10058000840098BCB4F464080878404078080840B7
:10059000407808087840407E42424242427E180637
:1005A000067F7F7F7F3F7F3FFFFF7F0AFCFFFFFFCC
:1005B000FFFF4002FFFF7FFF05FFFFFFFFBE0001BF
:1005C00001402060602060200080000080A0601852
:1005D000A0E0000001FF1080018000E0AB000006F9
:1005E000010108FF8000C129001C4046323A20006A
:1005F00046313A2000531C1D1E00561C1D1E0020B3
:100600005600201A1B56004B485A001F563D00202A
:1006100031161F543D00010000000A000000640074
:100620000000E803000010270000A08601004042FF
:100630000F0080969800465720322E323600000078
:1006400000FE010001FF01FE01FD02FE00020100AB
:100650000101010201030202FF000000FE0100018E
:10066000FF01FE01FD02FEFF00000002010001018A
:10067000010201030202FFF8FEFF07030307FFFE6A
:10068000F80F3F7F706060707F3F0F0010181CFEF6
:10069000FFFF000000000000007F7F7F0000000CD3
:1006A0000E0F070383C7FFFE7C70787C7E6F676345
:1006B0006160600C0E0FC7C3E7FFFEBC00183878FE
:1006C000706060717F3F1F0080C0F0781EFFFFFFE9
:1006D000000E0F0F0D0C0C7F7F7F0CF0FFFF7F6370
:1006E00063E3E3C3830C3C7C706060707F3F1FF862
:1006F000FEFFC7C3C3C7CF8E0C0F3F7F7160607111
:100700007F3F1F03030383E3FB7F1F070300007C7E
:100710007F7F03000000001C3EFFE7C3C3E7FF3EEE
:100720001C1E3F7F736161737F3F1E7CFEFFC7838A
:1007300083C7FFFEF8183879716161717F3F0F3010
:100740000C02382038283C08050F0400003818082F
:1007500038300C02283E00182018382638000000D7
:10076000002E000600063E143E143F0A1208241410
:100770002A340006001C2200221C001C1C1C081C21
:10078000084020000808080020001008041C221C53
:10079000243E20322A24222A140E083E2E2A123EFB
:1007A0002A3A023A063E2A3E2E2A3E00140020141F
:1007B00000081422141414221408022A041C262EE1
:1007C0003C0A3C3E2A141C22223E221C3E2A223E87
:1007D0000A021C221A3E083E223E2210201E3E081B
:1007E000363E20203E043E3E023E3E223E3E0A046D
:1007F0001C223C3E0A34242A12023E023E203E1EA7
:10080000201E3E103E3608360E300E322A26003E9E
:1008100022040810223E000402044040400204006A
:10082000342C383E241818242418243E18342C085C
:100830003C0A58543C3E0438003A00403A003E1806
:1008400024001E203C0C3C3C04381824187C24183E
:1008500018247C380404283C14043E243C203C1C0E
:10086000201C3C303C2418240C503C343C2C0836D2
:10087000220036002236080406023E3E3E424D3E2D
:10088000040000000000003E00000028000000807E
:100890000000004000000001000100000000000016
:1008A0000400000000000000000000000000000044
:1008B00000000000000000FFFFFF00296814340959
:1008C0001A040D820640032A021501FDEDDCCCBCA2
:1008D000ACA8A40301FDF5E5C56E174932432053CA
:1008E0004E49464645520A424954303A5344412003
:1008F000424954313A53434C005541525420534ECF
:1009000049464645520A424954323A5258204249D1
:1009100054333A54580053504920534E49464645A3
:10092000520A424954343A2F53530A424954353AF1
:100930004D4F53490A424954363A4D49534F0A42A2
:100940004954373A53434B004E4F205854004F46BA
:100950004653455420202020202020534C4545500C
:100960003A202020202020524553544F5245004425
:100970004953434F4E4E454354204348312C43483E
:100980003200474F005D2B5E2B612B602B4F2B57A6
:100990002B582B011020304000E0C0A080C0E000A8
:1009A0002040014080C0FF004080C0FFFCE0C0A0AC
:1009B00082FCE0C0A082313230302020003234305E
:1009C00030202000343830302020003936303020BC
:1009D00020003139323030200033383430302000BC
:1009E000353736303020003131353230300020207C
:1009F000314D003530304B003235304B003132351F
:100A00004B002036324B002033314B002031364B27
:100A1000002020384B002020344B00312E364B0074
:100A20002038303000203830300020333230002081
:100A30003136300020203830002020333200202092
:100A4000313600202020380020332E320020312E75
:100A5000360020302E3800302E3332002020381758
:100A600000203136170020333217002036341700AB
:100A70003132381700323536170035303017002044
:100A8000311A1B0020321A1B0020351A1B0031308E
:100A90001A1B0032301A1B0035301A1B0020302E72
:100AA000310020302E320020302E35002020203121
:100AB000002020203200202020350020203130006E
:100AC00020203230002020353000352E31320032E7
:100AD0002E353600312E323800302E363400302E8E
:100AE000333200302E31360038301A1B000F0C0D17
:100AF0000E00101B1210001115000022101113110E
:100B0000002A140016110019001D1E0020210000EB
:100B1000240000090400000016041914080808162F
:100B2000160F162A2A2A190C0D06060606060600B6
:100B3000000102030405060708090A0A0B0C0D0E42
:100B40000F10112122231F2012131415161715162A
:100B50001819251A1B1C1D1D1E24204348204F4E0A
:100B6000202020002020202020204741494E2D20F9
:100B7000202020002020204741494E2B004C4F4789
:100B80004943204F4E2000202020202053454C4533
:100B90004354202020002050524F544F434F4C00CC
:100BA000204E4F524D414C20202000202020205329
:100BB000494E474C45202020002043495243554C84
:100BC000415200204E4F524D414C20202000202009
:100BD000202053494E474C45202020002020202033
:100BE0004155544F20002056435552534F52200038
:100BF0002020204843555220434831202000202007
:100C00004843555220434832002048414D4D494EFB
:100C100047202020002020202048414E4E20202028
:100C2000002020424C41434B4D414E002020434880
:100C30003120202020002020202020202043483266
:100C400020202020200020204C4F47494320002016
:100C500047524944202020002020464C495020443F
:100C60004953504C415920002020494E564552547A
:100C70002000202056444320202020202000202037
:100C8000205620502D5020200020465245515545D9
:100C90004E43592000202053494E4520202020005B
:100CA000202020205351554152452020002020541F
:100CB0005249414E474C4500504F534954494F4EBD
:100CC00020202000202020494E564552542020202C
:100CD00000202020204D4154482000504F534954BB
:100CE000494F4E20202000202020494E5645525486
:100CF000202000202020544849434B30200020432E
:100D0000483120002020202020202020202043487F
:100D100032200020202020202020204C4F47494313
:100D20000054524947545950452020002020205457
:100D300052494753524320202000204D4F524554E2
:100D4000524947002053434F504520202020002087
:100D50002020204D455445522020200020202020D6
:100D60002020464654200020495120464654202049
:100D7000200020204646542057494E444F572020FB
:100D800000202020204C4F472000435552534F5203
:100D90005320002020202020444953504C4159200A
:100DA0002000202020202020204157470057415676
:100DB00045205459504520200020202053574545B8
:100DC0005020202000204652455155454E435900A1
:100DD0002057494E444F57202020002020202045F6
:100DE000444745202020200020202020534C4F50F5
:100DF00045200020204155544F2020202020002055
:100E00002020545241434B2020200020524546458B
:100E100052454E4345002020414C4C2020202020AC
:100E200000202020204249545F3020202020002034
:100E30002020204249545F3100204249545F322033
:100E400020202000202020204249545F33202020F1
:100E50002000202020204249545F34002042495481
:100E60005F352020202000202020204249545F367A
:100E70002020202000202020204249545F370020DD
:100E800045585420545249472000202020204249F0
:100E9000545F302020202000202020204249545F31
:100EA000310020504152414C4C454C202000202024
:100EB0002053455249414C20200020202020202052
:100EC00050554C4C00204932432020202020200047
:100ED0002020202020554152542020202000202076
:100EE0002020205350492000204E4F2050554C4C7C
:100EF00020200020202050554C4C20555020200010
:100F00002050554C4C20444F574E002050455253D2
:100F1000495354454E5420200020204C494E452032
:100F2000202000202020202053484F57200020431D
:100F3000504F4C20202020200020202020435048CB
:100F400041202020200020494E5645525420535322
:100F500000205355425452414354200020204D5507
:100F60004C5449504C5920200020204156455241B4
:100F700047452000414D504C4954554445200020E0
:100F80002044555459204359434C452000202020EB
:100F90004F46465345540020524F4C4C20202020B1
:100FA0002000202020454C4153544943202000205C
:100FB000205859204D4F44452000545249474D4F29
:100FC00044452020002020504F535454524947207C
:100FD0000020202054524947484F4C440020455897
:100FE0005020202020202000202020204E4F495338
:100FF0004520202000202020435553544F4D2000F1
:101000002053504545442020202000202020204D02
:101010004F444520202020002020202052414E47D0
:1010200045200053572046524551202020200020C3
:1010300020535720414D502020200020205357207E
:101040004455545920002020444F574E2020202042
:1010500000202050494E47504F4E4720202000206E
:1010600020414343454C0000002049524441202088
:1010700020202000202020312057495245202020C8
:101080002000202020204D4944492000C800900124
:1010900020034006800C0019D430190032007D0076
:1010A000FA00F401E204C4098813D43019003200B4
:1010B0007D00FA00F401E20400C2EB0B00E1F5054B
:1010C00080F0FA0240787D0120BCBE00105E5F0017
:1010D00000D4300000105E5F0008AF2F00D0121364
:1010E00000688909006889090090D0030048E80178
:1010F0000024F40000A8610000D43000006A180049
:1011000000C4090000E204000071020000FA0000BF
:101110000100020004000800140028005000C8006C
:1011200090012003D007F900F301E703C3098713F7
:101130005859204D4F444500534156494E472E2E95
:101140002E004D4F56452D20202020202020204DC0
:101150004F56452B004F44442050415249545900AA
:101160004556454E20504152495459004E4F20504B
:10117000415249545900322053544F50424954006F
:10118000312053544F5042495400485A004B485A5A
:101190000053544F500053544F5000485A204D4173
:1011A00058005820000E035800530063006F007071
:1011B000006500000018034700610062006F0074C2
:1011C0000072006F006E006900630073000000048D
:1011D0000309040902200001010080FA090400004B
:1011E00002FF000000070581024000000705010220
:1011F00040000012011001FF000040D016F9060067
:1012000001010200010011241FBECFEFDFE2DEBFAB
:10121000CDBF10E2A0E0B0E2EEEFFEE702C0059025
:101220000D92AE30B107D9F72EE2A0E1B0E201C0D5
:101230001D92A93FB207E1F70E94951B0C947D3FD8
:101240000C9400008058860F1BF48FE767FD80E840
:1012500080580895EFE2F9E0E80FF11D099408C005
:1012600010C018C020C028C030C038C040C048C01E
:1012700058990895D099FCCF58990895D09BFCCFE8
:10128000C7C058990895D199FCCF58990895D19B1A
:10129000FCCFBEC058990895D299FCCF58990895B3
:1012A000D29BFCCFB5C058990895D399FCCF5899DB
:1012B0000895D39BFCCFACC058990895D499FCCF26
:1012C00058990895D49BFCCFA3C058990895D599F7
:1012D000FCCF58990895D59BFCCF9AC05899089592
:1012E000D699FCCF58990895D69BFCCF91C05899B8
:1012F0000895D799FCCF58990895D79BFCCF88C003
:1013000058990895F599FCCF58990895F59BFCCF0D
:101310007FC0EEE8F9E0E80FF11D099408C010C0A5
:1013200018C020C028C030C038C040C048C058993C
:101330000895D09BFCCF58990895D099FCCF68C0F0
:1013400058990895D19BFCCF58990895D199FCCF15
:101350005FC058990895D29BFCCF58990895D299AF
:10136000FCCF56C058990895D39BFCCF5899089547
:10137000D399FCCF4DC058990895D49BFCCF589970
:101380000895D499FCCF44C058990895D59BFCCFBB
:1013900058990895D599FCCF3BC058990895D69B8C
:1013A000FCCF58990895D699FCCF32C0589908952A
:1013B000D79BFCCF58990895D799FCCF29C058994D
:1013C0000895F59BFCCF58990895F599FCCF20C05E
:1013D00083580090240280151CF4589BFACF08957E
:1013E0008A5F0090240280159CF0589BFACF0895E4
:1013F0008D570090240280151CF0589BFACF089559
:1014000086500090240280151CF4589BFACF089552
:1014100089E0809340085D9A80B18B3058F484E174
:1014200000904C0800FEFCCF1092000A809301024D
:1014300058995D980895835800902C0280151CF4EB
:10144000589BFACF08958A5F00902C02801504F310
:10145000589BFACF08958D5700902C0280151CF0F0
:10146000589BFACF0895865000902C02801584F680
:10147000589BFACF08957F93009024027091240224
:101480000716072E24F0589BF9CF7F91089570918D
:101490002402071A8015072ED4F4589BF8CF7F91A9
:1014A00008957F9300902402709124027015072EF6
:1014B00024F0589BF9CF7F91089570912402071A68
:1014C0000816072E24F4589BF8CF7F9108957F913A
:1014D0009FCF7F9300902C0270912C020716072E4D
:1014E00024F0589BF9CF7F91089570912C02071A30
:1014F0008015072E64F7589BF8CF7F9108957F934E
:1015000000902C0270912C027015072E24F0589B2D
:10151000F9CF7F91089570912C02071A0816072EB3
:10152000B4F6589BF8CF7F9108958058605800908A
:10153000240280156CF206165CF2589BF8CF0895D1
:101540008058605800902C02801514F2061604F2A0
:10155000589BF8CF0895FF7F0000F57F2403D87FC4
:101560004806A67F6A09617F8C0C097FAB0F9C7EC1
:10157000C8121D7EE215897DF918E37C0B1C297CBD
:101580001A1F5C7B23227C7A282589792628847877
:101590001F2B6B77112E4176FB300475DF33B5734B
:1015A000BA3654728C39E270563C5E6F173FC96D83
:1015B000CE41236C7A446D6A1C47A668B449CF6655
:1015C0003F4CE864BF4EF1623351EB609B53D75EF2
:1015D000F555B35C4258825A825A4258B35CF5556D
:1015E000D75E9B53EB603351F162BF4EE8643F4CD2
:1015F000CF66B449A6681C476D6A7A44236CCE4115
:10160000C96D173F5E6F563CE2708C395472BA3622
:10161000B573DF330475FB304176112E6B771F2BCA
:1016200084782628897928257C7A23225C7B1A1FD6
:10163000297C0B1CE37CF918897DE2151D7EC812FC
:101640009C7EAB0F097F8C0C617F6A09A67F4806E0
:10165000D87F2403F57F0000FF7FDCFCF57FB8F91D
:10166000D87F96F6A67F74F3617F55F0097F38ED39
:101670009C7E1EEA1D7E07E7897DF5E3E37CE6E0BC
:10168000297CDDDD5C7BD8DA7C7ADAD78979E1D414
:101690008478EFD16B7705CF417621CC047546C9AC
:1016A000B57374C65472AAC3E270E9C05E6F32BEED
:1016B000C96D86BB236CE4B86D6A4CB6A668C1B32D
:1016C000CF6641B1E864CDAEF16265ACEB600BAAC8
:1016D000D75EBEA7B35C7EA5825A4DA3425829A10E
:1016E000F555159F9B530F9D3351189BBF4E319954
:1016F0003F4C5A97B44993951C47DD937A443792EF
:10170000CE41A290173F1E8F563CAC8D8C394B8C2E
:10171000BA36FC8ADF33BF89FB309588112E7C876F
:101720001F2B7786262884852825A4842322D78307
:101730001A1F1D830B1C7782F918E381E21564815F
:10174000C812F780AB0F9F808C0C5A806A092880E2
:1017500048060B802403008040C020A060E0109069
:1017600050D030B070F0088848C828A868E81898A9
:1017700058D838B878F8048444C424A464E4149491
:1017800054D434B474F40C8C4CCC2CAC6CEC1C9C49
:101790005CDC3CBC7CFC028242C222A262E212926D
:1017A00052D232B272F20A8A4ACA2AAA6AEA1A9A49
:1017B0005ADA3ABA7AFA068646C626A666E6169631
:1017C00056D636B676F60E8E4ECE2EAE6EEE1E9EE9
:1017D0005EDE3EBE7EFE018141C121A161E111912B
:1017E00051D131B171F1098949C929A969E9199919
:1017F00059D939B979F9058545C525A565E5159501
:1018000055D535B575F50D8D4DCD2DAD6DED1D9DB8
:101810005DDD3DBD7DFD038343C323A363E31393DC
:1018200053D333B373F30B8B4BCB2BAB6BEB1B9BB8
:101830005BDB3BBB7BFB078747C727A767E71797A0
:1018400057D737B777F70F8F4FCF2FAF6FEF1F9F58
:101850005FDF3FBF7FFF77278894881F771F881F30
:10186000771F672F71FD6250E9E5F5E1E80FF61F7C
:10187000849171FD819508953F922F925F924F92CE
:101880007F926F929F928F92BF92AF92DF92CF9290
:10189000FF92EF921F930F93DF93CF93FC0181E0B0
:1018A00090E0A0E8B0E004E0809F6001909FD00C41
:1018B0007C019F938F93EF01A09FC00DD11DB09F1E
:1018C000D00DFF93EF93BB24AA24992700811181A7
:1018D000159507956881798175956795A801061B0F
:1018E000170B460F571F4193519320813181359536
:1018F00027956A817B8175956795A901261B370B12
:10190000460F571F419351930F01E6E5F5E1EA0DAC
:10191000FB1D4591559165917591F001950320014D
:101920000C031001491E9C03590A300C411C591E1E
:10193000D803590A300C411C591EB70340012E032D
:101940003001891EBE03990A700C811C991EFA038E
:10195000990A700C811C991E260C371C481C591CB6
:1019600049925992B50320012C031001491EBC0372
:10197000590A300C411C591EDA03590A300C411C1B
:10198000591E970340010E033001891E9E03990AD8
:10199000700C811C991EF803990A700C811C991E09
:1019A000261837084808590849925992AC0CBD1CB2
:1019B000B1FE8CCF04E0A09FC00DD11DE00DF11D44
:1019C000B09FD00DF00D81E0E81AF90A09F07BCF45
:1019D000EF91FF918F919F91880F991FB695A795D1
:1019E000109609F060CFCF91DF910F911F91EF908A
:1019F000FF90CF90DF90AF90BF908F909F906F90AF
:101A00007F904F905F902F903F90089500020304C5
:101A100005060708090A0B0C0D0E0E0F3F922F92B8
:101A20005F924F927F926F929F928F92BF92AF92EE
:101A30001F93DF93CF935C01EB0160E470E0E6E578
:101A4000F7E1992710E844991127A591BB27AA0F20
:101A5000BB1FAA0FBB1FAA0DBB1D2D913D914D9120
:101A60005D91B30320012A031001491EBA03590AEC
:101A7000300C411C591EBA03590A300C411C591E26
:101A8000D50340014C033001891EDC03990A700C18
:101A9000811C991EDC03990A700C811C991E260C6E
:101AA000371C481C591C662477248824992421E07B
:101AB00030E04427552770E1220C331C441C551C90
:101AC000661C771C881C991C220C331C441C551C5A
:101AD000661C771C881C991C2AF4620E731E841ED7
:101AE000951E04C0621A730A840A950A220F331FD6
:101AF000441F287F256097FC22507A95E9F6469589
:101B0000379527954695379527951124439B1FC0F8
:101B10006217730710F020E020C0261B370BFF93DD
:101B2000EF93ECE0FAE140EF37FD04C0221F331FD2
:101B30004051FACF330F3695369536953695E30FEB
:101B4000F11D5491450F342FEF91FF9106C0220FE4
:101B5000331F220F331F08F43FEF39931A9509F012
:101B600074CFCF91DF911F91AF90BF908F909F90D6
:101B70006F907F904F905F902F903F90089580914D
:101B8000622B9091632BA091642BB091652B26E082
:101B900034E0239FF0011124EA5EF94F45915591FD
:101BA0006591749184179507A607B70710F4215023
:101BB00078F734E0239FF0011124E25FF94F45915B
:101BC000559165917491619B05C0841B950BA60B83
:101BD000B70B16C0629B05C0840F951FA61FB71FC9
:101BE0000FC0223009F427E084E0289FF00111247F
:101BF000EE5EF94F4591559165917491CA01DB01F3
:101C00008093622B9093632BA093642BB093652BEE
:101C100008950F931F93CF93DF9380915E2B181637
:101C200014F410925E2B8091602B811103C081E02F
:101C30008093602B8091622B9091632BA091642BF9
:101C4000B091652B84369105A105B10528F484E691
:101C500090E0A0E0B0E009C081329C4BAE4BB105F2
:101C600060F080E29CEBAEEBB0E08093622B90934F
:101C7000632BA093642BB093652B4091622B509102
:101C8000632B6091642B7091652B36E020E480E03B
:101C90009AE6A8E1B0E084179507A607B707A8F46D
:101CA0002093402080915F2B8230D1F130F4882343
:101CB000A1F0813009F073C026C0843009F451C00E
:101CC000E8F1853009F06BC062C0B695A79597958D
:101CD000879526953150F9F6E3CF80916009909170
:101CE0006109E6E4F5E225E532E64E2FBC01629F8C
:101CF000C001639F900D729F900D112401969193E6
:101D00004E13F4CF4CC0C6E4D5E20C2F10E41C1BDC
:101D10008C2F810F0E942B0C89930C13F9CF3FC09D
:101D2000E6E4F5E28E2F9E2F981B97FD02C091E806
:101D300001C09FE791938E13F6CF31C0E6E4F5E240
:101D400080E02FE7982F990F322F391B31938F5F47
:101D50008038C1F7982F990F9F5791938F5FD1F7D4
:101D60001EC0A6E4B5E280E0E82FF0E0EE5BFC4F99
:101D7000E491E195ED938F5F8038B1F7E82FF0E0C3
:101D8000EE53FD4FE491ED938F5FC1F708C040E043
:101D900051E060E070E086E495E20E94213F2091EE
:101DA000602B30E080E091E0821B930B880F991F3D
:101DB000D901AA0FBB1F40E050E0E6E4F5E21E2F78
:101DC0000E2F0095652F77279B012A5B3A4DE9017D
:101DD000D3957081788371916F3F91F0E901CF5F66
:101DE000DE4F2081332727FD3095270F311D77FDEA
:101DF0003A9537FF02C02F5F3F4F359527952883CF
:101E0000480F591F2E2F3E2F300F3F3709F4CD01B9
:101E10001213D8CFC0914020AC2FB0E020E13EE5B6
:101E20004FE550E00E94053F2091622B3091632BDB
:101E30004091642B5091652B0E94AE3E2150310998
:101E400086E08093A200C23010F081E001C082E001
:101E5000809340092093760930937709C69509F459
:101E6000C1E010E0D0E020915E2BE12FF0E0EA5BD2
:101E7000F94D3081A303812D11246091612B0E94C3
:101E80002309ED2FF0E0EF5BFF4D8083DF5F1C0F38
:101E9000D111E9CF599887E08093A200DF91CF91CB
:101EA0001F910F910895E4E4F1E2119285E2E43488
:101EB000F807D9F710924525109244250895F89413
:101EC0003C9B05C088EC0E94EA3D81EA04C080EC9E
:101ED0000E94EA3D80EA0E94EA3D3B9B02C087EAFD
:101EE00001C086EA0E94EA3D7894089590E1699FD6
:101EF000F0011124E078E80FF11DEF5BFE4D6770F3
:101F000081E090E0062E01C0880F0A94EAF79381E1
:101F1000982B938308950F931F93CF93DF93182FDC
:101F2000062FEA019E01FE01849122962F5F3F4F0A
:101F3000F90164918F3F29F0600F810F0E94760FA5
:101F4000F1CFDF91CF911F910F91089520914525F9
:101F500090914425E22FF0E030E8939FE00DF11DD1
:101F60001124EF5BFE4D9381982B93832F5F209379
:101F700045250895CF92DF92EF92FF920F931F9322
:101F8000CF93DF93182F062FC42FD22FC81BD61B39
:101F9000D7FF04C0D195DD24DA9402C0DD24D394A8
:101FA000C7FF04C0C195EE24EA9402C0EE24E39476
:101FB000602F812F0E94760FCD1790F0FC2EF694A3
:101FC000C12C0BC0FD0EFC1610F0FC1A0D0D1E0DE1
:101FD000602F812F0E94760FC394CC12F3CF11C0D3
:101FE000FD2EF694C12C0BC0FC0EFD1610F0FD1A50
:101FF0001E0D0D0D602F812F0E94760FC394CD1200
:10200000F3CFDF91CF911F910F91FF90EF90DF9071
:10201000CF900895EF92FF920F931F93CF93C82F05
:102020008A3059F183E0C89FF0011124E350F94F41
:102030007F0183E0E80EF11C8F010F5F1F4F849139
:10204000619B02C0806880950E94A60FF8010E1562
:102050001F0591F7CC3111F480E318C0CD3149F45C
:1020600088E30E94A60F809145258F5F80934525C8
:102070000FC0CA3111F488E009C08091452587FD61
:1020800007C0619902C080E001C08FE70E94A60FDF
:102090008091452587FD02C0CA3039F4109245254C
:1020A000809144258F5F80934425CF911F910F919C
:1020B000FF90EF900895EF92FF920F931F93CF93AD
:1020C000DF938E3229F480E60E94A60F80E60CC0D2
:1020D0008D3269F483E00E94A60F83E00E94A60F70
:1020E00083E00E94A60F83E00E94A60F37C08032D3
:1020F00021F4809145258A5F34C094E1899F800155
:1021000011240958194F809144258150809344250A
:102110007801EAE0EE0EF11CF801EF0121968491BE
:102120000E94A60FFE01CE15DF05B9F78091442568
:102130008F5F80934425809145258A508093452563
:102140000C5E1F4F7E01FFEFEF1AFF0AFE01849124
:102150000E94A60FE701E016F106A1F78091452540
:102160008E5F80934525DF91CF911F910F91FF9056
:10217000EF900895CF93DF93EC0102C00E940A1004
:10218000FE01219684918111F9CFDF91CF910895BD
:10219000CF93C82F80E302C08F5FC456C436E0F7E8
:1021A0000E940A1080E302C08F5FCA50CA30E0F775
:1021B0000E940A108C2F805DCF910C940A10CF9250
:1021C000DF92EF92FF920F931F93CF93DF93CDB7E0
:1021D000DEB72C97CDBFDEBFFE01319698E0DF0160
:1021E0001D929A95E9F7809345256093442557FF02
:1021F00015C050954095309521953F4F4F4F5F4FFB
:102200008DE262990EC029873A874B875C870E94CE
:102210000A1029853A854B855C8514C080E2629B53
:1022200007C029873A874B875C870E945B10F1CFF4
:1022300029873A874B875C870E940A105C854B850B
:102240003A85298561993EC02036B3E43B07B9E958
:102250004B07BBE35B07C4F5211581EE380785EF1B
:10226000480785E0580754F0CA01B90120EA36E86A
:1022700041E050E00E94D03E10E02BC0CA01B901FD
:102280002038A6E93A07A8E94A07510544F020E1B9
:1022900037E240E050E00E94D03E11E01AC0203406
:1022A00032444F40510544F028EE33E040E050E026
:1022B0000E94D03E12E00DC024E630E040E050E045
:1022C0000E94D03E13E005C010E02FE037E240E06E
:1022D00050E007E0602F70E0FB01EE0FFF1FEE0FF4
:1022E000FF1FEA5EF94F85919591A591B491E1E0C8
:1022F000F0E0EC0FFD1FE60FF71FCC24DD24760184
:10230000C81AD90AEA0AFB0A07C060816F5F6083B6
:102310002C0D3D1D4E1D5F1D281739074A075B0711
:10232000A0F70150B8F6619B02C007E001C003E0CE
:10233000802F90E0E1E0F0E0EC0FFD1FE80FF91FC7
:10234000629B09C080810E945B1010130DC08EE259
:102350000E945B1009C08081805D0E940A101013EA
:1023600003C08EE20E940A10015010F72C96CDBFD8
:10237000DEBFDF91CF911F910F91FF90EF90DF9023
:10238000CF900895E62FF0E0EE0FFF1FE050F04EE3
:1023900020813181DC010E94FE3E28E030E040E0F7
:1023A00050E00E94D03E60914425809145250C94D8
:1023B000DF108093452560934425CA010C94BA1020
:1023C0009C013627032E0294802D8F708327632F64
:1023D0006025660F607E8627602D6327607F669587
:1023E000032E000C661F3695369536953F713627BD
:1023F0003227282FC901089588EA91E606C02AE607
:102400002A95F1F700C0019739F02091A10A27FF22
:10241000F6CF8091A00A089580E00895811105C04B
:1024200090B19B3080F05D980EC0863060F08332B2
:1024300051F0863241F08C3031F08D3021F0982F00
:102440009851953008F4589A8E3020F45A9A8C306E
:1024500028F007C0843228F0599A03C0E82FF0E032
:1024600005C08C50E82FF0E0EA5BF44D60830895DE
:102470009091A10A95FFFCCF8093A00A08951F9226
:102480000F920FB60F9211248F929F92AF92BF922C
:10249000CF92DF92EF92FF920F931F932F933F9370
:1024A0004F935F936F937F938F939F93AF93BF935C
:1024B000CF93DF93EF93FF931092080410920904D7
:1024C000EC988091A00A90E0FC01E354F109E63316
:1024D000F10508F034C1E250FF4F0C94EC3EC9E323
:1024E000D6E0FE01219684910E94381286E0CD3319
:1024F000D807B9F724C10E94FC11C82F0E94FC1113
:10250000682F8C2F0E940E121AC10E94FC1180931A
:10251000622B0E94FC118093632B0E94FC1180931C
:10252000642B0E94FC118093652B599A08C10E946C
:10253000531B05C140E051E060E070E081E490E2AF
:102540000E94423FFCC0589A5C9AF9C0589A5C9825
:10255000F6C0589A5D9AF3C0589A0E947C1DEFC04D
:102560000E94FC118093502B0E94FC118093512BF0
:102570000E94371FE4C06798E2C0679AE0C0C6E6D1
:10258000DBE21C2F89910E9438121C13FBCFD7C0AD
:10259000C6E6DCE21C2F89910E9438121C13FBCF87
:1025A000CEC0C6E6DDE21C2F89910E9438121C13B2
:1025B000FBCFC5C0C0E0D0E089910E943812CC307A
:1025C000D105D1F7C6E4DBE289910E943812EBE233
:1025D000C636DE07C9F7B3C0C0E08C2F90E080504C
:1025E00090400E942D3F0E943812CF5FB1F7A7C0E4
:1025F00087E40E943812C1E4D0E21C2F0E94FC1133
:1026000089931C13FBCF599A84E50E94381297C016
:1026100081E00E94381281E00E9438128EEF0E9401
:1026200038120DE718E0C0E0D0E0F801F4906F2D0B
:10263000CE010E94E011EC018F2D0E9438120F5F35
:102640001F4FF8E00B3B1F0781F78FE3C82E9EE377
:10265000D92EAA24A394EE24E394F12C3FC080E069
:10266000912C990C982F9B0DF801E90FF11D938186
:10267000982121E009F020E0922A8F5F883089F7C5
:10268000692DCE010E94E011EC01892D0E943812C3
:10269000D39480E8D81219C08D2F0E9438128C2F45
:1026A0000E9438120E94FC11863009F048C0A394A1
:1026B00081E00E9438128A2D0E9438128A2D80955E
:1026C0000E943812C0E0D0E0D12CE8E0BE0EF0E865
:1026D000BF12C5CFCA948FEFC816C9F0E0E1CE9EF5
:1026E0008001112400788C2D87708E2C01C0880CFD
:1026F0008A95EAF7B12C0F5B1E4DB1CF6AE1CE018E
:102700000E94E011EC018AE10E943812D394D7FEB6
:10271000F5CF8D2F0E9438128C2F0E9438120E9404
:10272000FC11863061F484E00E9438120E94FC1192
:10273000853129F484E00E9438120E94FC11FF9137
:10274000EF91DF91CF91BF91AF919F918F917F9149
:102750006F915F914F913F912F911F910F91FF903A
:10276000EF90DF90CF90BF90AF909F908F900F90A1
:102770000FBE0F901F9018956F927F928F929F922D
:10278000AF92BF92CF92DF92EF92FF920F931F937F
:10279000CF93DF9300D0CDB7DEB7E090492B2091E7
:1027A0004A2B359902C02FE7E12C8E2D992787FD02
:1027B0009095622E772467FC7094681A790A13E06A
:1027C000660C771C1A95E1F720B12B3020F0660CCF
:1027D000771CE82EEE0C4091592BFF24E7FCF09477
:1027E000FE2CEE24A12C97E0E0E89E2EB12CCC2408
:1027F000C394D12CA8E78A2E80B18B3038F4109185
:10280000482B00E09701200F311F01C0970184B1D0
:10281000892189F1260D371D5C2D092E01C0550F28
:102820000A94EAF781E0E32FFF27EA59F24D60812D
:10283000782F737031F4AA0C61E06B1530F4A39417
:1028400004C0652319F0B39401C0B12C260D371DC7
:102850008F5F813241F780924525842F869586953A
:102860008695809344258A2D49839A830E94311B43
:102870004981485F9A819694915008F0BDCF0F909E
:102880000F90DF91CF911F910F91FF90EF90DF900C
:10289000CF90BF90AF909F908F907F906F90089552
:1028A00080911001806480931001809120018064E8
:1028B0008093200102C08091A0088091A10887FD2B
:1028C000FACF8091C20881118091C30885E8809376
:1028D000120180E892E0809314019093150186E440
:1028E00095E280931C0190931D0180915A2B8230B8
:1028F00029F48BE48093130180EA06C0811109C09A
:102900008AE48093130183EC8093180188E080931C
:102910001901379B02C084E801C084EA809310014A
:1029200085E88093220180E892E0809324019093CF
:10293000250186EC97E280932C0190932D0180E590
:102940009AE28093280190932901379B02C084E882
:1029500001C084EA8093200108952F923F924F9204
:102960005F926F927F928F929F92AF92BF92CF921F
:10297000DF92EF92FF920F931F93CF93DF930E940A
:10298000530FE6E4F5E211922AE2E834F207D9F7B0
:102990001092472A1092482A1092492A10924A2AE5
:1029A0002C9902C0712C02C01FE0712E109273008E
:1029B00081E08093020480915A2B8130F9F48BEDF1
:1029C00098E00E94BA1086E499E280934C2A909392
:1029D0004D2A86E495E280934E2A90934F2A80E810
:1029E0008093502A80915006887F826080935006A1
:1029F00083E080934C068093490667C0823009F0DB
:102A00004BC089EF98E00E94BA103AB13770832F1B
:102A100090E0FC01ED52F74FE491E093A608FC0131
:102A2000E553F74F84918093A7088AB1887190E0AD
:102A3000D3E095958795DA95E1F7282F482F4B5FDE
:102A400040934B2A559B06C0569B02C0206302C090
:102A5000282F2062579928602093A50880E1809351
:102A6000A40881E080934008E32FF0E0EE0FFF1F01
:102A7000E554F74F859194918093512A9093522A6F
:102A800096958795969587958093660890936708A5
:102A900083E08093460819C0811117C086E199E050
:102AA0000E94BA10569902C081E001C081E4CAB107
:102AB000CC1FCC27CC1FCC0FCC0F80935706559B37
:102AC00005C080E48093540601C0C0E00E94501409
:102AD0000E945E3E0E94931980E892E0C05C53E041
:102AE0006CE028C040915A2B413001F12091140133
:102AF00030911501FC01E21BF30BE093472AF093A0
:102B0000482A2091240130912501FC01E21BF30B9E
:102B1000E093492AF0934A2A411108C0D49B06C089
:102B2000C093C00850934C06609349065B9B5DC2FE
:102B300078995B982091472A3091482A232B31F4C9
:102B40002091492A30914A2A232B61F240E1442EF8
:102B500056ECC52E57E2D52E69E8A62E62E0B62EB9
:102B600076E4872E75E2972EE0E8EE2EE2E0FE2E68
:102B7000FFE35F2E66246394A2E43A2E0E945E3E39
:102B80000E9493190E94530F8091282085FF1FC037
:102B900010922E2010922F20649909C080922C2030
:102BA00090922D20E0922A20F0922B2008C0C09213
:102BB0002C20D0922D20A0922A20B0922B20809100
:102BC00028208D79809328208CB184258CB9809120
:102BD0005A2B813009F080C02C9B1EC08091472A5F
:102BE0009091482AC091472AD091482A8034910573
:102BF00018F0C054D10902C0C054DC4FF0E47F9EED
:102C0000C00DD11D1124C05CDF4FC11524E0D207D7
:102C100008F0D45010E405C030E4739EE0011124A4
:102C2000F9CF2C9908C08091472A9091482AC8175B
:102C3000D90708F097C1FE01EA5BFA4D0081FE0159
:102C4000F695E795F695E795EA5BF64D808190E07D
:102C50009E0123703327422F440F242F30E02F5F33
:102C60003F4FBC0102C0660F771F2A95E2F79B0118
:102C700030E8232E2222042E01C0880F0A94EAF79E
:102C800087FF12C0802F86950E94311B00FF06C06F
:102C9000222011F08CE310C088E20EC0222011F037
:102CA0008EE30AC089E208C0802F0E94311B2220D7
:102CB00011F08BE201C08DE20E940A1080E20E94B6
:102CC0000A102196C11574E0D70710F0C0E0D0E0DB
:102CD000115009F0A6CF46C18091140190911501C1
:102CE000F701E81BF90BE093472AF093482A8091FB
:102CF0002401909125019701281B390B2093492A23
:102D000030934A2A379B18C08091100187FD0BC071
:102D100010921401109215011092A4088091C0081D
:102D20008F7B8093C0088091200187FD05C01092A1
:102D30002401109225015C9A5C9B27C02EE140E49F
:102D400068E080E40E94BA0F5092452534E0309349
:102D5000442583E50E940A105092452565E0609362
:102D6000442584E50E940A105092452576E0709330
:102D700044258FE40E940A105092452587E08093F5
:102D8000442580E50E940A1006C02FE340E468E075
:102D900080E40E94BA0F5092452510924425872D59
:102DA0000E942C1B0E940A1080915A2B81110EC088
:102DB0008CE3809345256092442589E40E940A10A3
:102DC00030924525609244258FE40DC0ECE3E093FA
:102DD00045256092442582E50E940A1030924525DF
:102DE0006092442584E50E940A1060924525109265
:102DF0004425F8E27F9EE00111242C9B25C08091A0
:102E0000472A9091482A889730F08091472A9091DC
:102E1000482A889706C08091472A9091482A885A64
:102E20009D4F272D30E02F5F3F4F48E2429F8001AA
:102E3000439F100D1124080F191F003822E01207BC
:102E400020F00058124001C08E0188E2282E2C99F3
:102E500007C08091472A9091482A0817190748F51A
:102E6000F801EA5BFA4D80811F9B09C0803208F4AB
:102E70008FE50E940A1080E20E940A1002C00E94A0
:102E8000311B80E20E940A10809145258C3338F076
:102E900060924525809144258F5F809344250F5F84
:102EA0001F4F003832E0130710F000E010E02A94C2
:102EB00071F668E460934525109244252C9B24C04C
:102EC0008091492A90914A2A889730F08091492A26
:102ED00090914A2A889706C08091492A90914A2A5F
:102EE000885A9D4F272D30E02F5F3F4F48E2429F89
:102EF000E001439FD00D1124C80FD91FC03872E0E4
:102F0000D70710F0C058D24018E22C9907C0809122
:102F1000492A90914A2AC817D90720F5FE01EA5399
:102F2000F84D80811F9B09C0803208F48FE50E9414
:102F30000A1080E20E940A1002C00E94311B80E247
:102F40000E940A1080914525883418F488E4809303
:102F500045252196C038E2E0DE0710F0C0E0D0E061
:102F6000115099F67C9B3FC07C987A9B05C0799B59
:102F700003C083B1805883B97B9B2AC08BB1842561
:102F80008BB95C9B0EC01092A4088091C0088F7B07
:102F90008093C00880915A2B8130D1F41092490659
:102FA00017C080915A2B813021F483E08093490629
:102FB0000CC0823019F44092A40807C0811105C0EA
:102FC0008091C00880648093C00837990E94501493
:102FD0007A9B02C071107A94799B03C0FFE07F1244
:102FE000739478995B985B99C9CD1FB886E69BE28C
:102FF00080932C2090932D2082E280932820649847
:103000001092A3081092A40810924608109240084B
:10301000109249061092C0088CE78093730085E0F7
:1030200080930204DF91CF911F910F91FF90EF9059
:10303000DF90CF90BF90AF909F908F907F906F90D8
:103040005F904F903F902F9008951F920F920FB670
:103050000F9211242F933F934F935F938F939F93DE
:10306000AF93BF93EF93FF93A0914E2AB0914F2A55
:10307000E0914C2AF0914D2A2091502A88E18093CA
:10308000200880910C08816080930C0804C0809116
:103090000C0880FD50C0D199FACF31E006C04091B4
:1030A0000C0840FF03C047C030E080E0D19BF7CF61
:1030B00049E2A634B40781F15AB3452F417050FD5F
:1030C0000BC050910C0850FD36C0D19B0FC0D09B57
:1030D000F8CFD19B0BC02FC050910C0850FD2BC0D6
:1030E000D19B04C0D099F8CFD199D5CF883081F445
:1030F0009D9380813111822B2695411101C0822B35
:10310000269580832111D0CF1182319620E8CCCF33
:10311000990F942B8F5FCACF379B06C01092490638
:103120005C9A80E094E00AC010924629E6E4F9E255
:10313000A6E4B5E2BBCFCD01865495428093472AE1
:103140009093482AA0934E2AB0934F2AE0934C2A9A
:10315000F0934D2A2093502A81E080934C06FF91F2
:10316000EF91BF91AF919F918F915F914F913F915F
:103170002F910F900FBE0F901F9018951F920F92D6
:103180000FB60F9211242F938F939F9392E09093F9
:10319000200890910C08916090930C0898E0579942
:1031A00005C017C020910C0820FD2EC0D79BFACF78
:1031B00004C020910C0820FD27C0D799FACF880FB2
:1031C000D6998160915091F713C020910C0820FD91
:1031D0001BC0D79BFACF880FD69B06C0816004C066
:1031E00020910C0820FD10C0D799FACF915089F793
:1031F0008093502A82E080934C065C9905C08091B0
:1032000020018061809320019F918F912F910F90D9
:103210000FBE0F901F9018951F920F920FB60F922E
:1032200011242F933F934F938F939F93D39971C002
:1032300081E080934C0880914C0880FFFCCF809106
:10324000512A9091522A809366089093670820E053
:1032500080E030E041E00CC040934C0890914C0875
:1032600090FFFCCF8695D39B02C080682F5F3F5FA5
:1032700090914B2A391780F302C086959F5F983052
:10328000E0F3559904C091E090934C0817C091E089
:1032900090934C0890914C0890FFFCCF2170569B66
:1032A00005C0222341F0D39BEECF24C0211103C0DF
:1032B000D39920C0E8CFD39B1DC0E5CF90914C0897
:1032C00090FFFCCFD39B16C0579905C08093502A1E
:1032D0005C9B0BC00FC091E090934C0890914C0800
:1032E00090FFFCCFD39B06C0F1CF8091200180617D
:1032F000809320018091512A9091522A969587952A
:1033000096958795809366089093670881E08093EF
:103310004C089F918F914F913F912F910F900FBE2D
:103320000F901F90189580E009C095E59A95F1F7E8
:103330000000815019F4EC98E8980895889BF5CF27
:10334000FACF1F920F920FB60F9211242F938F93E3
:103350009F93EF93FF93EC98E89820E099E1EFE3D7
:10336000FFE13197F1F700C00000809108068E71EF
:10337000281711F0282F9AE0915089F71FB881FF84
:10338000789A282F2071982F98703C9B0AC02111A1
:1033900001C0799A911101C07A9A82FD0AC07B9A84
:1033A00008C0211101C07B9A911101C07A9A82FF55
:1033B000799A8FB18823A1F0589A7C9A8091040859
:1033C000882379F088E18093210880910C0882603D
:1033D00080930C088091060884608093060801C0E1
:1033E00060981092080410920904FF91EF919F9148
:1033F0008F912F910F900FBE0F901F9018951F92D5
:103400000F920FB60F9211248F93809106088B7F35
:10341000809306088FB18111609A8F910F900FBE33
:103420000F901F9018950F93CF93DF931F92CDB7F6
:10343000DEB72FB72983F8941BBEFC0108ED04BF4B
:10344000608389818FBF0F90DF91CF910F91089595
:10345000AAECB1E092E09C93E82FF0E084911C92FA
:1034600008950E946F1F2FEF8FE396E02150804058
:103470009040E1F700C000000E94A6222FEF8FE8E5
:1034800091E0215080409040E1F700C0000084E1CD
:10349000E0E0F2E08183E0E0F1E080898F77808BEB
:1034A00080A98F7780AB80A18F7780A308959F92AA
:1034B000AF92BF92CF92DF92EF92FF920F931F9342
:1034C000CF93DF931FB80E94530F8FE699E00E94BD
:1034D000BA1042E859E067E084E70E94D9110E94DF
:1034E0005E3E0E9493198FB18823E9F3799BA7C0B0
:1034F0000E94530F10B8E12C86E495E2A82E37E025
:10350000B32E6CC0DE2C26E0F22ECD2CC394F092AC
:10351000462BF092472B0E94311AC0E0D0E060E0C9
:1035200070E0A6E4B7E2E6E4F5E28191680F711D70
:1035300087FD7A958D91C80FD11D87FDDA95AE1262
:10354000F4CFEC9A672F770F770B962E80B10F2D63
:1035500010E09801B89E200D311D1124C901835A35
:103560009E4F0E944C3F292D205E203430F44C2D7C
:1035700060E28C2D0E94BA0F01C0E89A80B18823C6
:10358000F9F06D2F772767FD7A95C62FA0B1B0E0CF
:103590001197BA9EC001BB9E900D1124800F911F00
:1035A000845D9E4F0E944C3F2C2F205E203438F4C7
:1035B0008D2D8F5B482F60E20E94BA0F01C0E89A00
:1035C0000E945E3E0E949319FA94DC2C3FEFF312A6
:1035D0009CCF87E0E80E80B18F5F80B980B18830E2
:1035E00008F490CF80E18093010287E08093040289
:1035F00020E0C0E0D0E060E070E033E830932002EB
:10360000309328028FE79CE00197F1F700C000009B
:103610008091240290912502680F791F80912C02DD
:1036200090912D02C80FD91F215041F78BE991E0ED
:103630000E946F3FBE0189E991E00E946F3F1FB871
:10364000DF91CF911F910F91FF90EF90DF90CF907E
:10365000BF90AF909F900895805D8A3308F0895F96
:103660000895CF93C82F82958F700E942C1B0E94C3
:103670000A108C2F8F700E942C1BCF910C940A1073
:10368000982F905897FD9F5F892F859580580895B2
:10369000813428F0803C28F4880F8058089580E019
:1036A00008958FEF0895669929C088B1803258F443
:1036B0008091762E80B98091682E8093462B8091E0
:1036C000702E8093472B4CE050E060E271E080E088
:1036D00090E00E94423F40E250E060E071E086E40A
:1036E0009BE20E94423F80B18093762E8091462BD0
:1036F0008093682E8091472B8093702E08954CE024
:1037000050E06FED75E080E090E00E94183F40E2ED
:1037100050E06FEB75E086E49BE20E94183FEC9A64
:103720000E94531BEC981FB8089584E080935600C4
:103730008CE10E94281A809363008BE180936500DE
:1037400087EB8093660081E0809360008BEC809330
:10375000520082EC809355008BE0809350008FE7FD
:103760009EE30197F1F700C000008091510083FFB4
:10377000109252008BE1809350008FE79EE30197F7
:10378000F1F700C0000064E080E490E00E94131AAA
:103790008AE18093500050E55093110698E1909390
:1037A00012069093130690931406C7E0C093150673
:1037B000C0931606C093170682E0809309068EE137
:1037C00080930A068BE08093200681E080934A066E
:1037D00030E830934B062FE1209360068093750606
:1037E00024E02093640629E02093800690939106BC
:1037F0008093840621E42093B20022E32093B30057
:103800008093A60960EC6093A50928E02093A409A1
:1038100027E12093A60A44EA4093A70A23E02093D5
:10382000A50A9093A40A90E29093A30A70EE709375
:1038300080019093810198ED9093830160938401BE
:1038400098EC909385019FE89093860190ED90937A
:1038500087018093210381E1809322032093230336
:103860005093240385E0809320039093420185E2E6
:103870008093430180E091E080934401909345015F
:1038800081E490E2809348019093490189E3809319
:103890004C0120934D0140934001309300014CE0D6
:1038A00050E060E271E080E090E00E94213F40E261
:1038B00050E060E071E086E49BE20E94213FC0930B
:1038C000A20078940E94FD3B0E94013E45E450E036
:1038D00062E475E082E692E20E94183F0E945F0F68
:1038E00046E356E067E082E30E94D91180914000F0
:1038F00080FF06C048E459E067E080E00E94D911EB
:103900000E945E3E9FEF23E284EF91502040804072
:10391000E1F700C0000085E0809343008DE991E06D
:103920000E942D3F811109C00E9493190E94571ACD
:1039300061E08DE991E00E944C3F80EA91E00E94B5
:103940002D3FC82F8091080681FF629A1FB8D1E0F1
:1039500018E207E044E1F42E50E1E52E61E8D62EAE
:103960007AE3C72E49C00E94530FD09300021093F0
:10397000390200930402F0920102E0920202D09216
:1039800038028FE39FE10197F1F700C0000020911A
:103990003C0230E0A0EBBCE00E94F23E9B01AC0197
:1039A00061E080E40E94DF104EE459E066E080E0D0
:1039B0000E94D911C0924525CC2321F08C2F0E9462
:1039C000C81003C08DE20E940A107C9B11C07C9835
:1039D0007B990E94571A7A99C05F79990E947F1B40
:1039E000789B06C06C2F80EA91E00E944C3F629861
:1039F0000E945E3E0E9493196299B5CF1FB88091D4
:103A0000010480FDFCCF9CE3C99F90011124209309
:103A10000A0430930B042CE330E020930C04309321
:103A20000D04CC2331F085E08093020487E080937D
:103A300000040E942423FDCF1F920F920FB60F9215
:103A400011248F938FB1811101C01EB88F910F90F7
:103A50000FBE0F901F901895CF931092C104109233
:103A6000C3041092C004EC980E94531B0E94F83DBE
:103A70008FB18111FDCFC1E0C093860685E08093B0
:103A800048008895109248000E94013EC093850628
:103A90001FB8CF910C94FD3B1F920F920FB60F925F
:103AA00011242F933F934F935F936F937F938F9343
:103AB0009F93AF93BF93EF93FF930E942C1DFF91B1
:103AC000EF91BF91AF919F918F917F916F915F9196
:103AD0004F913F912F910F900FBE0F901F9018950F
:103AE0001F920F920FB60F921124109248000F9060
:103AF0000FBE0F901F9018955C98289829982A98C7
:103B00008BE0809331201EB81FB808958091462B1A
:103B10008823B1F090916C2E913290F08150809377
:103B2000462B8091522B811106C08091532B0E940D
:103B3000401B8093532B80916C2E869580936C2E26
:103B40008091472B8823B1F09091742E913290F0A0
:103B500081508093472B8091522B813031F480919A
:103B6000532B0E94401B8093532B8091742E86957B
:103B70008093742E0895109231208091762E80B912
:103B80008091682E8093462B8091702E8093472BD6
:103B9000089580B18093762EA6E4BBE28C91809349
:103BA000682EE7E4FBE280818093702E1C921082E5
:103BB0008BE0809331200895CF93DF93409906C026
:103BC000419907C0429908C0629A08C0E2ECF4E04B
:103BD00005C0E2E4F4E002C0E2ECF3E0449B3CC048
:103BE000C6E6DCE260E086E69BE2249162992FE77C
:103BF0006F3708F4319667FD3197DC014D91CD01A7
:103C0000405839913058C203A001112474E0679FD5
:103C1000D0011124AA5BBA4D4C9311965C93119775
:103C2000B2039001112412962C93129713963C9391
:103C30006F5FD9F6629886E495E20E943C0C66E4D8
:103C400079E286E495E20E940E0D909146298091DA
:103C50004729891728F122C020E0449162994FE753
:103C60002F3708F4319627FD3197DC013D91CD01C6
:103C70003058B403312D112444E0249FD001112485
:103C8000AA5BBA4D12961C92129713963C93139707
:103C90001C9211963C932F5F01F7CCCF91E001C0AD
:103CA00092E023E080E00AC0E92FF0E0EA5BF64D05
:103CB0003081231710F4232F892F9F5F97FFF4CFB4
:103CC000E82FF0E0EA5BF64D9081983008F480E050
:103CD000DF91CF91089580B18B3010F09FEF01C03C
:103CE0009FE7479B07C080916D2E8093492B809161
:103CF000752E79C01092492B90934A2B089B02C0D5
:103D0000109B08C0089B13C020916C2E8091742ECC
:103D1000821768F4E091482B20916B2E80916C2ED5
:103D2000883008F455C0F0E0EA59F44D0CC0E09139
:103D3000482B2091732E8091742E883008F448C04F
:103D4000F0E0EA59F34D8695820F20813E2FDF0186
:103D5000281728F022C02A2F231B2917C9F12A2F40
:103D6000231B4D914817B8F32093492BFD0102C046
:103D7000291771F13191DF012F5F8317C8F3209369
:103D80004A2B02C0291721F13D912F5F3817D0F33C
:103D90001DC02A2F231B2917D9F02A2F231B4D9131
:103DA0008417B8F32093492BFD0102C0291781F035
:103DB0003191DF012F5F3817C8F320934A2B02C0DF
:103DC000291731F03D912F5F8317D0F320934A2BB1
:103DD00080B18B3050F08091492B86958093492B90
:103DE00080914A2B869580934A2B0895EFE9F5E060
:103DF000A6E4BBE284919C91981708F08C931196ED
:103E000031968BE2A636B807A9F78091572B87FD2C
:103E100003C08EEF8093572B8091582B87FD03C0F2
:103E20008EEF8093582B80915C2B90915B2B8917A0
:103E300010F480935B2B80915D2B811103C081E096
:103E400080935D2B8091532B833018F483E0809313
:103E5000532B8091552B9091542B981710F48093ED
:103E6000542B80B1863110F085E180B9089580919E
:103E7000502B9091512B8F3F9105B8F490B1911137
:103E800002C08830F8F090B1913011F48530E0F044
:103E900090B1923011F48530B8F090B1963018F4AA
:103EA0008430A0F002C0882399F08091502B90912B
:103EB000512B97FF13C08FEF9FE78093502B909368
:103EC000512B089588E005C085E003C084E001C05F
:103ED00081E08093502B1092512BE7CF0895FF92F1
:103EE0000F931F93CF93DF9398E19093700084E03A
:103EF0008093710023E0209372002CE720937300DD
:103F00002CE620937400209375008093A2001092F9
:103F1000000A1092010A1092060A109240081092AC
:103F200041088FE08093000882E08093040890931A
:103F300027089091562B909326089EE090930009B5
:103F40008093040987E2809326090E94F61E0E944E
:103F5000371F84B120E0982F9170290F8695D9F7EB
:103F600088E090E0821B880F880F880F9091592B72
:103F7000891710F41092592B80B1811109C046990C
:103F800004C0479B05C0449B03C080B18F5F80B9CC
:103F900084E18093010285E48093030283E08093AF
:103FA000040290B19B30E8F0109227098093000A38
:103FB00080B18B3019F487E893E102C089E698E17B
:103FC0008093260A9093270AE0B1F0E0EE0FFF1FDE
:103FD000E650FF4E8591949180936E2E90936F2EB4
:103FE0002BC01DB887E08093270980B1863068F028
:103FF000E0B1F0E0EE0FFF1FE65EFE4E859194917A
:104000008093260A9093270A17C08CE180930102BF
:1040100080B1823010F080B104C080B1882339F0C3
:1040200082E08093040280E48093030205C0109232
:10403000030282E0809304020E945F0F81E080937C
:10404000000280E2809302020E94281A80930C02F0
:1040500081E20E94281A80930D028AE28093210255
:104060008091462B90E09C01220F331F220F331FBB
:104070002360209320022BE220932902C091472B3A
:10408000D0E09E01220F331F220F331F23602093A5
:10409000280220E12093310220B130B1383008F0FD
:1040A00027E037E0F32E022F10E0F29E800D911DE5
:1040B0001124835A9E4F0E942D3F81958093692E33
:1040C00080B1882381F001501109F09EC001F19E5A
:1040D000900D11248C0F9D1F845D9E4F0E942D3FDB
:1040E00081958093712E87E08093A2001C9902C075
:1040F00081E001C081E4199B05C01A9902C080616A
:1041000001C088619FEF9093B000809350065A9849
:10411000DF91CF911F910F91FF9008951F920F9201
:104120000FB60F921124EF92FF920F931F932F93CC
:104130003F934F935F936F937F938F939F93AF932F
:10414000BF93CF93DF93EF93FF93D0914525C09119
:104150004425809124026091692E0E942309F82E43
:1041600080912C026091712E0E942309E82E0C99F7
:10417000F0941499E0940F2D00586E2D60586195BD
:104180008603112D112410580E9B08C00F9B05C0EB
:104190008F2D0E942209F82E01C0F12E169B0AC015
:1041A000179B07C0602F61958E2D0E942209E82E73
:1041B00001C0E12E60913620709137208091382027
:1041C000909139206F0D711D811D911D60933620D6
:1041D00070933720809338209093392000913A20B3
:1041E00010913B2020913C2030913D200E0D111D5F
:1041F000211D311D00933A2010933B2020933C2039
:1042000030933D2020913E2030913F202F5F3F4F43
:1042100020933E2030933F20659A00916E2E10919E
:104220006F2E2017310708F44EC010923E201092D6
:104230003F200D9B06C0980140E050E00E94AE3E3A
:10424000F22E159B0EC0980140E050E060913A209C
:1042500070913B2080913C2090913D200E94AE3E89
:10426000E22E1092362010923720109238201092B1
:10427000392010923A2010923B2010923C2010924C
:104280003D203A9B10C0EDB1F0E0EA59F44D808139
:104290008F0D8795F82EEDB1F0E0EA59F34D80814E
:1042A0008E0D8795E82EEDB1F0E0EA59F44DF082DD
:1042B000EDB1F0E0EA59F34DE082EDB18AB3F0E000
:1042C000EA59F24D8083459BD1C03099CFC080918F
:1042D0003E2090913F20892B11F00D993CC06091B8
:1042E000572B8F2D0E942209182F1695103408F095
:1042F0001FE3EDB1F0E0EB59F44D6091572B808155
:104300000E9422093E9B1CC09DB19923C9F0282F11
:104310002695203408F02FE3121304C01123D9F09E
:104320001F33C9F0089B17C04DB18DB150E041500B
:10433000510955954795612F86950E94BA0F0BC07C
:10434000089B09C0112339F01F3329F08DB1612F6B
:1043500086950E94760F80913E2090913F20892B78
:1043600011F015993CC06091582B8E2D0E942209A6
:10437000182F1695103408F01FE3EDB1F0E0EB595B
:10438000F34D6091582B80810E9422093E9B1CC0F6
:104390009DB19923C9F0282F2695203408F02FE3EA
:1043A000121304C01123D9F01F33C9F0109B17C09A
:1043B0004DB18DB150E04150510955954795612F50
:1043C00086950E94BA0F0BC0109B09C0112339F0CB
:1043D0001F3329F08DB1612F86950E94760FEAB2C6
:1043E0001091592B189B2DC007E3E0E8FE2E94B1E5
:1043F0009F2119F18DB1843059F410924525812FF8
:1044000086958695869580934425802F0E940A1074
:104410008F2D8E2119F08DB1612F0BC08DB1612FC1
:104420006A5F86950E94760F1B9B06C08DB1612F37
:104430006B5F86950E94760F185FF69401500F32DD
:10444000B1F61E9B1CC09DB19F70C9F41933B8F41E
:104450009DB196959F5F9093452516951695169557
:10446000109344258E2D0E94311B09C0479B07C025
:104470003F9B05C08DB16FE386950E94760F8091BA
:104480003E2090913F20892B79F58DB18F5F8DB9BA
:104490008DB1811101C0649A309923C08DB1811111
:1044A00009C01D9B03C045990E94BC131092060AC7
:1044B0005C991AC0459B18C03D9916C0689914C0F4
:1044C0008DB1869520E090E030E8239FF001112423
:1044D000EF5BFE4DE80FF91F13822F5F2830A1F725
:1044E00003C05C991092060AD0934525C0934425D9
:1044F000FF91EF91DF91CF91BF91AF919F918F91FC
:104500007F916F915F914F913F912F911F910F91EB
:10451000FF90EF900F900FBE0F901F9018951F9275
:104520000F920FB60F9211248F93EF93FF93E0E059
:10453000F8E086818E7F8683589A5D9AFF91EF918D
:104540008F910F900FBE0F901F90189580911001C2
:1045500080648093100180913001806480933001E9
:104560008091200180648093200165E060931201B6
:1045700070E17093130180E092E0809314019093B6
:10458000150126E435E220931C0130931D0144E21D
:104590004093180152E05093190140931001609329
:1045A000320170933301809334019093350126E4F6
:1045B00039E220933C0130933D012AE120933801F8
:1045C00010923901409330016093220121E1209340
:1045D0002301809324019093250186E497E2809340
:1045E0002C0190932D018CE2809328015093290196
:1045F0004093200180911001806880931001809188
:104600003001806880933001809120018068809320
:10461000200180B1863020F48CE1809301020DC02E
:104620005093000A0AC020E22A95F1F7589B02C075
:104630005D980895019719F4089580E090E0209125
:10464000110124FFF0CF0895CF93DF93CDB7DEB7EC
:104650006097CDBFDEBF80B18093762E8091462BD0
:104660008093682E8091472B8093702E1EB8589AA5
:104670005A9A599A7C9A639A50E2452E86E69DE2B0
:104680008A8786E69BE28D835A990E946F1F5B9B07
:1046900008C01FB85C980E94531B0E94AD140E9472
:1046A0006F1F609B12C07B9B03C05C990E947C1DA6
:1046B0008EB18D3220F07A9901C079997C9A789BDD
:1046C00004C00E942C1D1EB8589A5C99DEC05D99EA
:1046D000DCC080914F2B09C0589909C0EFE3FFE17E
:1046E0003197F1F700C0000081508111F5CF109291
:1046F000A30A80B18B3010F40E94A6224092A30A34
:10470000289902C02A9B08C0309B03C080B18B301F
:1047100018F488B1803220F45899B7C05D9AB5C0BA
:10472000109260081092610881E080934C0880919B
:10473000502B9091512B20B1223010F0880F991FEF
:1047400020B1211102C0089711C020B1213009F415
:1047500003C020B1223011F4059708C020B12630E3
:1047600010F4049703C0009709F00197809366083E
:1047700090936708809126088093200881E08093B9
:10478000020480910C08816080930C082A9B05C06C
:10479000809106088160809306088091522B8111D8
:1047A00034C06091692E61958091532B0E9422093B
:1047B0002E9B07C06091552B8091542B0E94950A27
:1047C00064C02D9B11C08091532B805887FD81952B
:1047D000811101C081E02B9B04C081950E943B0A9E
:1047E00054C00E94510A51C02F9B03C02B9B0AC08A
:1047F00006C020912402982F905829171CF40E947B
:10480000E80943C00E94F80940C08130A1F56091D9
:10481000712E61958091532B0E9422092E9B07C017
:104820006091552B8091542B0E94A00A2EC02D9B85
:1048300011C08091532B805887FD8095811101C054
:1048400081E02B9B04C080950E94690A1EC00E94D3
:104850007F0A1BC02F9B03C02B9B0AC006C0209160
:104860002C02982F905829171CF40E941B0A0DC087
:104870000E942B0A0AC08B3040F482502B9B03C04D
:104880000E94890902C00E942A0985E080930204DF
:10489000809106088E7F809306085D9B5BC180B186
:1048A0008B3008F035C18FE99FE00197F1F700C028
:1048B00000001092000A84E1809301028091662E2C
:1048C0008F5F8093662EEFE7F2E03197F1F700C03B
:1048D00000005D9810924008809110018F778093BE
:1048E0001001809130018F778093300180912001F9
:1048F0008F7780932001809114019091150120B150
:10490000223018F020E032E00BC020E033E0281B1A
:10491000390B2F87388B2115324038F020E031E0F9
:10492000A901481B590B4F87588B0F8518890A5BC3
:104930001A4D86E4E82E87E2F82E2F853889E20E9C
:10494000F31E96E4C92E99E2D92EC20ED31E46E676
:104950005DE24A835B8326E6822E2CE2922E36E6C7
:10496000A32E3BE2B32EF6018081EA81FB81819385
:10497000EA83FB83F8012081822FF7019081792E51
:104980004F8558894F5F5F4F4F87588B4115524075
:1049900049F0FFEFCF1ADF0A0F5F1F4F3FEFE31A17
:1049A000F30A0CC01F86188AA6E4CA2EA9E2DA2EE2
:1049B000B6E4EB2EB7E2FB2E06E415E230B132305E
:1049C00060F10D9B05C0F801808185952595820FCA
:1049D000159B05C0F701708075949595790E2F850C
:1049E00038892F5F3F4F2F87388B2115324049F090
:1049F0000F5F1F4F5FEFE51AF50A9FEFC91AD90A3B
:104A00000CC01F86188AE6E4CE2EE9E2DE2EF6E41C
:104A1000EF2EF7E2FF2E06E415E26091692E0E9468
:104A20002309282F0C9920956091712E872D2B87B3
:104A30000E942309982F2B851499909570E8772E62
:104A4000720E692F60586195372DB603312D1124F0
:104A5000305839830E9B0AC00F9B07C0822F9B875B
:104A60000E942209282F9B8501C02981169B0CC01A
:104A7000179B09C0672D6195892F2B870E942209FA
:104A8000982F2B8501C09981A5014F5F5F4FF501DC
:104A90003A9B0BC08081820F879580835A01F40175
:104AA0008081890F8795819304C020835A01F40186
:104AB00091934F01FA852A81F21355CF679905C06A
:104AC0008091282085FD10C036C087E00E943812F2
:104AD00006E61BE2F80181918F010E943812FEE286
:104AE00006361F07B9F7ECCF10920804109209049C
:104AF00010922E2010922F2082E093E880932A209B
:104B000090932B20809128208D798093282013C0AA
:104B1000309B04C05D985C990EC002C0649904C0CB
:104B200083E08093060A07C064985D988091662EA2
:104B30008F5F8093662EF894299B09C05C9A80B1A0
:104B40008B3028F48EB1853011F084E38EB97C9BD4
:104B500058987894809110018F77809310018091FC
:104B600030018F7780933001809120018F7780937F
:104B700020015D99FBC03D990CC0479908C046993A
:104B800006C0459B06C080B18B3008F030990E946A
:104B9000530FF89480B18B3020F0309B02C0649B9F
:104BA000B4C064984C9B37C0E0B124E0E29FF001B0
:104BB0001124E854FF4E25913591459154916CE0B4
:104BC00056954795379527956A95D1F7E0B1B1018C
:104BD000882777FD8095982F0E949E3EE73068F4E5
:104BE00096958795779567956093622B7093632B65
:104BF0008093642B9093652B0EC020ED37E040E04E
:104C000050E00E94AE3E2093622B3093632B409382
:104C1000642B5093652B4D9B09C0C10135E09595E0
:104C200087953A95E1F7819580935E2B4E9B09C05D
:104C3000C10124E0959587952A95E1F780588093E6
:104C4000612B4F9B08C0C10104E0959587950A959B
:104C5000E1F78093602B611002C060905D2B462DC0
:104C60004A9B01C0419580915B2B30E1839FC0013D
:104C7000112420915C2B50E1259F90011124240EDA
:104C8000311C47FD3A94221533051CF44B9906C09C
:104C900007C02816390634F44B9902C0190101C027
:104CA0001C01629A499B0BC0489B05C08EE7861584
:104CB00030F0639404C091E0961508F46A94629B06
:104CC00008C060905D2B4B9B04C089B194E089279C
:104CD00089B9629889B18031C0F0599A3F9B15C05B
:104CE00080915B2B6FE386950E94760F80915C2B01
:104CF0006FE386950E94760FC10115E09595879523
:104D00001A95E1F76FE30E94760F78949091662BE5
:104D10008091662C9C0140E0E42FF0E0EA59F44DCC
:104D20006081F3955081961708F4962F631708F465
:104D3000362F851708F4852F521708F4252F4F5F5B
:104D400059F7492F431B40936C2E482F421B409329
:104D5000742E90936A2E30936B2E8093722E209334
:104D6000732E319B03C045990E946B1E459BE5C085
:104D700080B18B3010F0309BE0C080B18B3028F0D8
:104D8000309B03C01DB1116002C01091482BF12E61
:104D9000812CC12CCBC090B19B3020F0309B02C045
:104DA000C82EC694AF2CB12CF501EA59F24DD08033
:104DB0002091592B2A83189B47C0B0E8EB2E07E0BF
:104DC00084B18E21E9F1C11028C09A8096949694FE
:104DD00096941092452590924425802F805D0E94E4
:104DE0000A108091522B90E00297202F30E082171A
:104DF000930799F43C813E3780F4289902C02A9B9E
:104E00000CC04C8140934525909244252B9B02C0B9
:104E100089E101C088E10E940A108E2D8D216A81EE
:104E2000811108C06A5F8C2D0E94760F1B9B05C004
:104E30006A816B5F8C2D0E94760F5A81585F5A836E
:104E4000E694015008F0BCCF1E9B11C08C2D8F70D2
:104E500071F49A81993358F4C0924525892F86952B
:104E600086958695809344258D2D0E94311BE6E61C
:104E7000FBE2AE0EBF1E6091572BF50180810E94B0
:104E80002209E82EF501F3956091582B80810E944C
:104E900022098695E694FFE3FE1510F4AFE3EA2EAF
:104EA000082F803408F00FE33E9B23C0CC20D1F1C3
:104EB000E71005C0EE2059F02FE3E21641F0089B01
:104EC00006C0272D482D6E2D8C2D0E94BA0F05117E
:104ED00004C0002331F10F3321F1109B22C080B1B7
:104EE0008823F9F0252D482D602F8C2D0E94BA0FB4
:104EF00018C0089B09C0EE2039F03FE3E31621F00B
:104F00006E2D8C2D0E94760F109B0BC0002349F054
:104F10000F3339F080B1882321F0602F8C2D0E944F
:104F2000760F8C2CC394F394502E7E2C8F2D811BE6
:104F3000C7FE31CF1D990E94BC13469B2DC03F9BDD
:104F400006C040E351E160E080E00E94D91106E62E
:104F50001CE2F6E6EF2EFBE2FF2E9E2D4D81941B08
:104F600080B18B3028F0309903C08DB19817A1F033
:104F7000F70171907F017094F80161918F01809128
:104F8000482B681B67FD05C06695872D86950E9496
:104F9000760FFD81FE11E1CF479BA5C05D99A3C0AF
:104FA000089B09C0109B07C080B1882321F003E053
:104FB000EBE17E2E03C002E077E3772E449B37C0FF
:104FC00087B1837079F060E18091482B0E94760F61
:104FD00060E28091482B0E94760F60E38091482B1D
:104FE0000E94760F80E090E00E94DC1D10E080912E
:104FF000482BE12FE81BF0E0EA5BF64D80818695B7
:105000008695883308F087E367E3681B3E9B06C0FC
:1050100027E3412F812F0E94BA0F03C0812F0E94E6
:10502000760F1F5F103819F7319B5DC05AC0089981
:1050300003C0109929C0F8CF86E69BE20E94DC1DD0
:1050400080936D2E10E01DC0E12FF0E0EA5BF64D7D
:10505000208130E0002E02C0359527950A94E2F7B2
:10506000721608F4272D672D621B3E9B06C0272D64
:10507000412F812F0E94BA0F03C0812F0E94760F0B
:105080001F5F103809F7D5CF80B1882369F286E613
:105090009CE20E94DC1D8093752E10E067E3F62EE3
:1050A0001DC0E12FF0E0EA5BF64D208130E0002EDC
:1050B00002C0359527950A94E2F7721608F4272D59
:1050C0006F2D621B3E9B06C027E3412F812F0E945C
:1050D000BA0F03C0812F0E94760F1F5F103809F7A7
:1050E000A3CF0E946B1E88B1803208F0E8C15D99A1
:1050F000E6C1809131208111E2C186E080933120A8
:105100000E94530F4FEF5CE060E08CE00E94D911E9
:105110004EE05DE060E08CE40E94D9115E9902C02F
:105120005F9B2DC04FEF55E060E081E30E94D911F5
:105130004FEF55E060E081E70E94D91156E6C52E99
:105140005CE2D52E06E61BE2F12CF80161918F019D
:10515000669566956695645E8F2D0E94760FF601C2
:1051600061916F01669566956695645E8F2D805C92
:105170000E94760FF394F0E4FF12E7CF36C08091DF
:10518000522B823010F08A3051F48DE680938201E8
:1051900040E85EE063E080E10E94D9110EC0825ACF
:1051A0008093820148E45CE063E080E10E94D911D1
:1051B0008091522B825D0E940A1047E056E063E026
:1051C00082E60E94D91180B1873018F407E016E01A
:1051D00002C008E016E0A80160E08DE20E94D9114B
:1051E000A80160E08DE60E94D911629A10924525CF
:1051F00012E0109344255E9BC0C05C99ABC0209127
:1052000001022A8330910402398700912002109113
:10521000280280E98093010287E08093040220E065
:10522000C12CD12C760140E050E0BA0133E8309334
:105230002002309328028FE79CE00197F1F700C02D
:1052400000008091240290912502AA2797FDA09545
:10525000BA2F481B590B6A0B7B0B80912C02909143
:105260002D02AA2797FDA095BA2FC81AD90AEA0AD3
:10527000FB0A58996FC02150D1F68BE991E04B871A
:105280005C876D877E870E943D3F4C01AA2497FC76
:10529000A094BA2C4B855C856D857E85840E951E09
:1052A000A61EB71E89E991E00E943D3F8F87988B2B
:1052B000C501B40125E095958795779567952A9561
:1052C000D1F78090322090903320AA2497FCA094AC
:1052D000BA2C680D791D8A1D9B1D32E0832E912CFE
:1052E000A12CB12CA50194010E94D03E2093322024
:1052F00030933320EF85F889BF01882777FD8095AB
:10530000982F6C0D7D1D8E1D9F1D45E095958795F1
:10531000779567954A95D1F7C0903420D090352085
:10532000EE24D7FCE094FE2C6C0D7D1D8E1D9F1D80
:10533000A50194010E94D03E209334203093352063
:105340001093280200932002F985F09304022A8129
:105350002093010260E080913220909133200E94DE
:10536000C21180E48093452582E08093442560E06B
:10537000809134209091352019C05F9B1AC0809194
:105380006C2E6091462B30E8839FC00111240E944F
:10539000C21180E480934525109344258091742E9A
:1053A0006091472B40E8849FC00111240E94C211E4
:1053B00085C0F89410920008109204082CE0209305
:1053C000090882E19AE780932608909327081092B3
:1053D000000A2093090A80E18093010A9CE39093DC
:1053E000030A9DE09093000A109240082093490818
:1053F000809341088CE28093430887E08093000803
:10540000809120088823E1F38AE080934008789413
:10541000E0B154E0E59FF0011124E854FF4EC5903F
:10542000D590E590F490CD2CDE2CEF2CFF24A091AC
:105430006D2EB0E0A70196010E94053F9B01AC01D3
:1054400062E080E00E94DF10A091752EB0E0A7011D
:1054500096010E94053F9B01AC0162E080E40E943E
:10546000DF108BE08093312082EF93E00AC0EFE3FE
:10547000FFE13197F1F700C0000058991EC0019775
:10548000E1F020910C0820FFF2CF2091380A3091F2
:10549000390AC901A0E0B0E0AC013327222780918E
:1054A000780890917908619A280F391F411D511D84
:1054B00065E088E00E94DF1061985A9A6298659BC7
:1054C00035C065988091282085FF16C01092080489
:1054D000109209048DB18093672E10922E201092A5
:1054E0002F2082E093E880932A2090932B208091B4
:1054F00028208D7980932820679B18C080B18B303D
:10550000A8F0EDB1F0E0EA59F44D80810E94381224
:10551000EDB1F0E0EA59F34D80810E943812EDB10F
:10552000F0E0EA59F24D80810E94381280913120DA
:10553000882309F477C1B090462B0091472BF0B037
:1055400018B143980E98169886E69BE20E94DC1DDF
:1055500080936D2E86E69CE20E94DC1D8093752E62
:1055600018B988B1803230F45F9B02C013E003C0E9
:105570005E99FCCF15E07AE0E72EAA24A394E0E43C
:10558000DE2EF0E88F2E912CA0E8CA2E8091462BBB
:10559000181710F41093462B8091472B181710F40E
:1055A0001093472B80B18B3008F0E0B88091312008
:1055B000853009F4D1C088F4823009F4FAC030F49F
:1055C0008823F9F0813009F018C1E5C0833009F46F
:1055D000F5C0843009F011C1FFC0883009F4E9C07A
:1055E00038F4863009F4C8C0873009F006C1D3C04A
:1055F0008A3009F4F1C008F4E1C08B3009F0FDC035
:10560000FBC088B1803208F481C02D982E982F9A63
:10561000089A109A80916C2E803108F40898809135
:10562000742E803108F41098089904C0109902C0B3
:10563000089A109AD092482B8092502B9092512B1E
:1056400030916C2E369580916B2E380F2091742EF0
:1056500026958091732E280F089B11C080916D2E86
:10566000823068F09091752E891748F02A9A10922E
:10567000522B3093532B0C9B13C0832F0EC0109BC7
:105680000FC08091752E823058F02A9AA092522B2A
:105690002093532B149B04C0822F80958093532B0F
:1056A000459B34C0832F90E097FD01969595879593
:1056B000919581959109382F482F8093572B822FF0
:1056C00090E097FD01969595879591958195910923
:1056D000982F282F8093582B089B16C0109B14C01E
:1056E000403A2CF0832F80528093572B02C0C092F7
:1056F000572B203E2CF4892F805E8093582B02C0BC
:105700001092582B0E94861D0E94861D88B18032FF
:1057100020F45E9902C05F9B70C090916D2E8091C5
:10572000752E891708F4892F982F92959F7080B154
:10573000981708F061C080B1891B2BC08091732E2F
:10574000823108F05AC08091472B882309F455C054
:1057500081508093472B51C080916D2E8D3728F456
:105760008091752E8D3708F448C080B1823008F4DE
:1057700044C080B181500DC080916D2E8233E8F518
:105780008091752E8233C8F580B18A30B0F580B132
:105790008F5F80B932C08091722E8C3B70F5809102
:1057A000732E8A3450F18091472B811730F58F5F2B
:1057B000D0CF8091722E8A3F30F6C0CF80916A2E72
:1057C0008C3BD8F480916B2E8A34B8F08091462BB4
:1057D000811798F48F5F0DC080916A2E8A3F20F464
:1057E00080916B2E823148F48091462B882329F0DA
:1057F00081508093462B01C0A0B88091462BB812EF
:1058000007C08091472B081303C080B1F81611F030
:105810005A9A08C080913120882321F081508093CA
:105820003120B4CE7C9B01C71091522B7C98789B81
:1058300010C08EB1833119F40E94531B04C08EB185
:10584000843009F45B9AEEB1F0E0E351F54FE49156
:10585000EEB98EB1853320F18EB18C3308F57B9B88
:105860001FC0EEB1F0E0EE0FFF1FE55EF64FA59111
:10587000B491E09130208EB19E2F9F5F90933020A5
:10588000F0E025E0829FE00DF11D1124E657F74F6F
:10589000E491EC9380913020853010F0109230200C
:1058A000EEB1F0E0E234F10508F0A7C6EC5CFE4F83
:1058B0000C94EC3EF8947B9B0BC0299B03C01DB855
:1058C0005C9806C08BB190E189278BB95C99589898
:1058D0007A9B06C0799B04C080E48093482B3CC02F
:1058E0007A9B1DC05C991BC080B1853118F480B1D2
:1058F0008F5F01C085E180B980E090E8E82FF0E09B
:10590000EA59F44D9083DF01B3959C93FE5F1082BA
:105910008F5FA1F7639A1DB81092060A5D98799B74
:105920001BC05C9919C080B1882319F080B18150E7
:1059300080B980E090E8E82FF0E0EA59F44D9083D8
:10594000DF01B3959C93FE5F10828F5FA1F7639A8E
:105950001DB81092060A5D9878944FC6639A7B9B97
:1059600004C081B191E0892781B97A9903C07999FE
:1059700018C043C68091462B8823C9F38150809379
:10598000462B10E0E12EF12C46E65BE2E40EF51E1C
:10599000F70180810E94401BF70180831F5F91F710
:1059A000E6CF8091462B863008F027C68F5F809324
:1059B000462B10E0E12EF12C26E63BE2E20EF31E30
:1059C000F70180810E94481BF70180831F5F91F7D8
:1059D00014C6639A7B9B04C082B191E0892782B987
:1059E0007A9903C0799918C008C68091472B8823FB
:1059F000C9F381508093472B10E0E12EF12C26E66D
:105A00003CE2E20EF31EF70180810E94401BF70189
:105A100080831F5F91F7E6CF8091472B863008F097
:105A2000ECC58F5F8093472B10E0E12EF12C26E62A
:105A30003CE2E20EF31EF70180810E94481BF70151
:105A400080831F5F91F7D9C57B9B04C083B191E030
:105A5000892783B97A9B02C08CE18EB9799BCDC529
:105A600083E28EB9CAC57B9937987A99379A799B20
:105A7000C4C585B190E1892785B9BFC57B9B0AC0A4
:105A8000289B04C0299902C0289803C02A98299805
:105A9000289A5C987A9B04C02A98289A299A5C983C
:105AA000799BABC52A9B02C02A9803C02A9A2998E1
:105AB00028985C98A2C57B9B07C0359B02C035988F
:105AC00003C0359A8CE38EB97A9B09C086B198E001
:105AD000892786B9339B03C034988EE38EB9799BAE
