:100000000C94DD080C94FA080C9464180C940619EE
:100010000C94FA080C94FA080C94FA080C94FA0858
:100020000C94EB3E0C94FA080C94951D0C946A1DEC
:100030000C94FA080C94FA080C940B230C94481AAC
:100040000C94FA080C94FA080C94FA080C94FA0828
:100050000C9453190C94FA080C94FA080C94FA08AE
:100060000C94FA080C94FA080C94FA080C94FA0808
:100070000C94FA080C94FA080C94FA080C94FA08F8
:100080000C94FA080C94FA080C94FA080C94FA08E8
:100090000C94FA080C94FA080C94FA080C94FA08D8
:1000A0000C94FA080C94FA080C94FA080C94FA08C8
:1000B0000C94FA080C94FA080C94FA080C94DF20BB
:1000C0000C94FA080C94FA080C94FA080C94FA08A8
:1000D0000C94FA080C94FA080C94FA080C94FA0898
:1000E0000C94FA080C94FA080C942D120C94C61374
:1000F0000C94FA080C94FA080C94FA080C94FA0878
:100100000C94FA080C94FA080C94E5190C94FA086B
:100110000C94FA080C94FA080C94FA080C94FA0857
:100120000C94FA080C94FA080C94FA080C94FA0847
:100130000C94FA080C94FA080C94B91D0C94FA0863
:100140000C94FA080C94FA080C94FA080C94FA0827
:100150000C94FA080C94FA080C94FA080C94FA0817
:100160000C94FA080C94FA080C94FA080C94FA0807
:100170000C94FA080C94FA080C94FA080C94FA08F7
:100180000C94FA080C94FA080C94FA080C94FA08E7
:100190000C94FA080C94FA080C94FA080C94FA08D7
:1001A0000C94FA080C94FA080C94FA080C94FA08C7
:1001B0000C94FA080C94FA080C94FA080C94FA08B7
:1001C0000C94FA080C94FA080C94FA080C94FA08A7
:1001D0000C94FA080C94FA080C94FA080C94FA0897
:1001E0000C94FA080C94FA080C94FA080C94FA0887
:1001F0000C94FA080C94A13C0C94CE3CEC2B7E2C75
:100200009E2CBD2CCC2C7E2C9E2CDA2C3D2D912DA1
:10021000CC2D072E162E212E3E2E5E2E7A2E942EBB
:10022000AD2EBA2ECB2EDB2EEB2EFF2E0C2F192F40
:10023000532F642F712F7E2F8D2F9A2FAC2FC72F06
:10024000D42FF02F37304F30643078309230AC30CC
:10025000C630D730EC30F73009311B313C315D31DD
:100260006A318531A231C431D53110322F324E324C
:1002700066327E329B32B032C232D632EA32FE323F
:100280001733303347335E3384339933BD333334DC
:1002900039343F3445345334633471347F349134CA
:1002A000A034B034C334CF34DB3415361536E734DC
:1002B000F834153615360435153616352435153609
:1002C000323540354E355E356C357A358D35A03555
:1002D000B3351536BF35D135DF35E535F73515364C
:1002E000093679360C380C380C388F369A36CC36BD
:1002F00002374F379137A637B237B937C037C537CE
:10030000C937D237E437F337FB3C0D3E113E0D3E83
:10031000113E023D1A3D113E343D3B3D8B959FA958
:10032000B2BBC3CBD3DAE1E8EEF4FA00050B10144C
:10033000191D2125292D3134373A3D404345484A7E
:100340004C4F51535557585A5C5D5F60616364650B
:10035000666768696A6B6C6D6E6F6F7071717273CE
:100360007374747575767676777778787879797925
:100370007A7A7A7A7B7B7B7B7B7C7C7C7C7C7C7DC9
:100380007D7D7D7D7D7D7E7E7E7E7E7E7E7E7E7E93
:100390007E7E7F7F7F7F7F7F7F7F7F7F000000006B
:1003A0000000000000000000010101010102020242
:1003B0000303030404040505060607070809090AE0
:1003C0000B0C0C0D0E0F1011121314151617181913
:1003D0001A1C1D1E202122242527282A2B2D2F30D0
:1003E00032343537393B3C3E4042434547494B4D1B
:1003F0004E5052545657595B5C5E60616365666847
:10040000696B6C6E6F7071737475767778797A7BBF
:100410007B7C7D7D7E7E7F7F7F7F7F7F00000000F5
:1004200000000000010101020203030404050606A6
:100430000708090A0A0B0C0D0E0F101112141516DD
:1004400017181A1B1C1D1F202223242627292A2C9B
:100450002D2F3032333536383A3B3D3E404143450F
:100460004648494B4C4E4F5153545657585A5B5D72
:100470005E5F616264656667696A6B6C6D6E6F7002
:10048000717273747576777878797A7A7B7B7C7CF5
:100490007D7D7E7E7E7F7F7F7F7F7F7F090909094B
:1004A0000A0A0A0A0A0B0B0B0C0C0D0D0E0E0F108C
:1004B00010111213131415161718191A1B1C1D1ED0
:1004C0001F20212324252627292A2B2D2E2F3132A8
:1004D00034353638393B3C3E3F4042434546484937
:1004E0004B4C4D4F505253555657595A5B5D5E5FBA
:1004F00061626364666768696A6B6C6E6F70717263
:10050000727374757677777879797A7B7B7C7C7D6A
:100510007D7E7E7E7E7F7F7F7F7F7F7F7EFF81915E
:1005200091F1600060F49494FCF800FFFF8484FC77
:10053000780078FC8484FC7800047FFF848400FCCD
:10054000FC080C0C0078FC8484FC7800F8FC0404A3
:10055000FCF800FDFD0078FC8484840098BCB4F4B1
:1005600064080878404078080840407808087840D7
:10057000407E42424242427E1806067F7F7F7F3F96
:100580007F3FFFFF7F0AFCFFFFFFFFFF4002FFFFEF
:100590007FFF05FFFFFFFFBE0001014020606020DC
:1005A00060200080000080A06018A0E0000001FF33
:1005B0001080018000E0AB000006010108FF800010
:1005C000C129001C4046323A200046313A200053EF
:1005D0001C1D1E00561C1D1E00205600201A1B56F6
:1005E000004B485A001F563D002031161F543D0055
:1005F000010000000A00000064000000E8030000A1
:1006000010270000A086010040420F00809698004D
:10061000465720322E323900000000FE010001FF53
:1006200001FE01FD02FE00020100010101020103C1
:100630000202FF000000FE010001FF01FE01FD02B9
:10064000FEFF00000002010001010102010302029D
:10065000FFF8FEFF07030307FFFEF80F3F7F706000
:1006600060707F3F0F0010181CFEFFFF00000000AD
:100670000000007F7F7F0000000C0E0F070383C780
:10068000FFFE7C70787C7E6F67636160600C0E0F8C
:10069000C7C3E7FFFEBC00183878706060717F3F09
:1006A0001F0080C0F0781EFFFFFF000E0F0F0D0C23
:1006B0000C7F7F7F0CF0FFFF7F6363E3E3C3830C5A
:1006C0003C7C706060707F3F1FF8FEFFC7C3C3C7EC
:1006D000CF8E0C0F3F7F716060717F3F1F0303035C
:1006E00083E3FB7F1F070300007C7F7F0300000084
:1006F000001C3EFFE7C3C3E7FF3E1C1E3F7F736144
:1007000061737F3F1E7CFEFFC78383C7FFFEF8181F
:100710003879716161717F3F0F300C0238203828C1
:100720003C08050F04000038180838300C02283E39
:1007300000182018382638000000002E0006000699
:100740003E143E143F0A120824142A340006001CEA
:100750002200221C001C1C1C081C08402000080849
:10076000080020001008041C221C243E20322A24E9
:10077000222A140E083E2E2A123E2A3A023A063E39
:100780002A3E2E2A3E0014002014000814221414BD
:1007900014221408022A041C262E3C0A3C3E2A1469
:1007A0001C22223E221C3E2A223E0A021C221A3E03
:1007B000083E223E2210201E3E08363E20203E04E7
:1007C0003E3E023E3E223E3E0A041C223C3E0A348D
:1007D000242A12023E023E203E1E201E3E103E36BD
:1007E00008360E300E322A26003E22040810223E21
:1007F00000040204404040020400342C383E241817
:1008000018242418243E18342C083C0A58543C3E22
:100810000438003A00403A003E1824001E203C0CE8
:100820003C3C04381824187C241818247C38040410
:10083000283C14043E243C203C1C201C3C303C241E
:1008400018240C503C343C2C08362200360022364A
:10085000080406023E3E3E424D3E040000000000F9
:10086000003E000000280000008000000040000062
:100870000001000100000000000004000000000072
:100880000000000000000000000000000000000068
:1008900000FFFFFF0053504920534E494646455242
:1008A0000A424954343A2F53530A424954353A4D77
:1008B0004F53490A424954363A4D49534F0A424927
:1008C00054373A53434B005541525420534E4946F6
:1008D0004645520A424954323A525820424954330A
:1008E0003A54580049324320534E49464645520A2D
:1008F000424954303A53444120424954313A5343D7
:100900004C0029681434091A040D820640032A0297
:100910001501FDEDDCCCBCACA8A40301FDF5E5C5DB
:100920006E17474F00444953434F4E4E45435420A2
:100930004348312C434832004F464653455420200B
:100940002020202020534C4545503A2020202020B4
:1009500020524553544F5245004E4F205854005892
:100960002000485A204D41580053544F50005354D2
:100970004F50004B485A00485A00312053544F50B2
:1009800042495400322053544F50424954004E4F74
:1009900020504152495459004556454E205041522D
:1009A000495459004F444420504152495459004D34
:1009B0004F56452D20202020202020204D4F5645E9
:1009C0002B00534156494E472E2E2E005859204D8C
:1009D0004F444500682B692B6C2B6B2B5A2B622BD9
:1009E000632B011020304000E0C0A080C0E0002058
:1009F00040014080C0FF004080C0FFFCE0C0A082FA
:100A0000FCE0C0A08231323030202000323430305F
:100A1000202000343830302020003936303020207B
:100A20000031393230302000333834303020003556
:100A3000373630302000313135323030002020312F
:100A40004D003530304B003235304B003132354BB4
:100A5000002036324B002033314B002031364B0022
:100A60002020384B002020344B00312E364B002004
:100A70003830300020383030002033323000203120
:100A80003630002020383000202033320020203142
:100A90003600202020380020332E320020312E3620
:100AA0000020302E3800302E33320020203817003E
:100AB000203136170020333217002036341700312A
:100AC00032381700323536170035303017002031F4
:100AD0001A1B0020321A1B0020351A1B0031301A55
:100AE0001B0032301A1B0035301A1B0020302E310B
:100AF0000020302E320020302E3500202020310002
:100B000020202032002020203500202031300020FD
:100B1000203230002020353000352E313200322E88
:100B2000353600312E323800302E363400302E3338
:100B30003200302E31360038301A1B000F0C0D0EEB
:100B400000101B12100011150000221011131100CB
:100B500029140016110019001D1E0020210000009C
:100B60000009040000001604191408080816160FDE
:100B700016292929190C0D0606060606060000018D
:100B800002030405060708090A0A0B0C0D0E0F10D4
:100B9000112122231F2012131415161715161819C8
:100BA0001A1B1C1D1D1E24204348204F4E202020B0
:100BB000002020202020204741494E2D20202020A9
:100BC000002020204741494E2B004C4F47494320ED
:100BD0004F4E2000202020202053454C45435420D8
:100BE0002020002050524F544F434F4C00204E4F76
:100BF000524D414C202020002020202053494E47B8
:100C00004C45202020002043495243554C4152007E
:100C1000204E4F524D414C202020002020202053B8
:100C2000494E474C4520202000202020204155548B
:100C30004F20002056435552534F52200020202071
:100C40004843555220434831202000202048435536
:100C50005220434832002048414D4D494E47202004
:100C600020002020202048414E4E2020200020201F
:100C7000424C41434B4D414E0020204348312020FF
:100C80002020002020202020202043483220202027
:100C900020200020204C4F47494320002047524944
:100CA00044202020002020464C49502044495350E5
:100CB0004C415920002020494E56455254200020D6
:100CC0002056444320202020202000202020562091
:100CD000502D50202000204652455155454E435935
:100CE0002000202053494E45202020200020202095
:100CF0002053515541524520200020205452494153
:100D00004E474C4500504F534954494F4E202020E8
:100D100000202020494E56455254202020002020FB
:100D200020204D4154482000504F534954494F4EC4
:100D300020202000202020494E56455254202000DB
:100D4000202020544849434B302000204348312084
:100D50000020202020202020202020434832200076
:100D600020202020202020204C4F4749430054526F
:100D700049475459504520200020202054524947CB
:100D800053524320202000204D4F52455452494792
:100D9000002053434F5045202020200020202020B9
:100DA0004D45544552202020002020202020204660
:100DB000465420002049512046465420202000203F
:100DC000204646542057494E444F572020002020AB
:100DD00020204C4F472000435552534F5253200080
:100DE0002020202020444953504C415920200020ED
:100DF00020202020202041574700574156452054AD
:100E00005950452020002020205357454550202090
:100E10002000204652455155454E43590020574920
:100E20004E444F5720202000202020204544474595
:100E3000202020200020202020534C4F504520000F
:100E400020204155544F20202020200020202054D5
:100E50005241434B20202000205245464552454EEA
:100E60004345002020414C4C202020202000202001
:100E700020204249545F30202020200020202020C4
:100E80004249545F3100204249545F3220202020E3
:100E900000202020204249545F33202020200020C1
:100EA0002020204249545F3400204249545F3520BD
:100EB00020202000202020204249545F362020207E
:100EC0002000202020204249545F370020455854FC
:100ED00020545249472000202020204249545F30AE
:100EE0002020202000202020204249545F31002073
:100EF000504152414C4C454C20200020202053456D
:100F00005249414C20200020202020202050554CC8
:100F10004C00204932432020202020200020202087
:100F20002020554152542020202000202020202025
:100F30005350492000204E4F2050554C4C2020004B
:100F400020202050554C4C2055502020002050553A
:100F50004C4C20444F574E00205045525349535457
:100F6000454E5420200020204C494E452020200092
:100F7000202020202053484F5720002043504F4C22
:100F800020202020200020202020435048412020E5
:100F900020200020494E56455254205353002053E0
:100FA00055425452414354200020204D554C544941
:100FB000504C5920200020204156455241474520A1
:100FC00000414D504C495455444520002020445583
:100FD0005459204359434C4520002020204F464679
:100FE0005345540020524F4C4C20202020200020FC
:100FF0002020454C4153544943202000202058597B
:10100000204D4F44452000545249474D4F44452000
:1010100020002020504F5354545249472000202094
:101020002054524947484F4C4400204558502020F6
:101030002020202000202020204E4F4953452020F2
:101040002000202020435553544F4D200020535062
:101050004545442020202000202020204D4F44459D
:1010600020202020002020202052414E47452000F3
:10107000535720465245512020202000202053570E
:1010800020414D502020200020205357204455540B
:101090005920002020444F574E202020200020209F
:1010A00050494E47504F4E472020200020204143BA
:1010B00043454C000000C800900120034006800C0E
:1010C0000019D430190032007D00FA00F401E20466
:1010D000C4098813D430190032007D00FA00F401ED
:1010E000E20400C2EB0B00E1F50580F0FA02407863
:1010F0007D0120BCBE00105E5F0000D430000010F7
:101100005E5F0008AF2F00D01213006889090068E5
:1011100089090090D0030048E8010024F40000A8E9
:10112000610000D43000006A180000C4090000E229
:1011300004000071020000FA000001000200040037
:101140000800140028005000C80090012003D007B8
:10115000F900F301E703C30987130E035800530096
:1011600063006F0070006500000018034700610015
:1011700062006F00740072006F006E00690063000F
:10118000730000000403090409022000010100802B
:10119000FA0904000002FF00000007058102400078
:1011A000000705010240000012011001FF0000408D
:1011B000D016F90600010102000111241FBECFEF75
:1011C000CDBFDFE2DEBF10E2A0E0B0E2E6EDFFE778
:1011D00002C005900D92AE30B107D9F72FE2A0E121
:1011E000B0E201C01D92A430B207E1F70E94E41BF7
:1011F0000C94E93F0C9400008058860F1BF48FE795
:1012000067FD80E880580895E9E0F9E0E80FF11DF6
:10121000099408C010C018C020C028C030C038C011
:1012200040C048C058990895D099FCCF5899089566
:10123000D09BFCCFC7C058990895D199FCCF58993D
:101240000895D19BFCCFBEC058990895D299FCCF88
:1012500058990895D29BFCCFB5C058990895D39959
:10126000FCCF58990895D39BFCCFACC058990895F2
:10127000D499FCCF58990895D49BFCCFA3C058991A
:101280000895D599FCCF58990895D59BFCCF9AC065
:1012900058990895D699FCCF58990895D69BFCCFBC
:1012A00091C058990895D799FCCF58990895D79B24
:1012B000FCCF88C058990895F599FCCF58990895A6
:1012C000F59BFCCF7FC0E8E6F9E0E80FF11D09943B
:1012D00008C010C018C020C028C030C038C040C0EE
:1012E00048C058990895D09BFCCF58990895D0993B
:1012F000FCCF68C058990895D19BFCCF58990895A8
:10130000D199FCCF5FC058990895D29BFCCF5899D2
:101310000895D299FCCF56C058990895D39BFCCF1D
:1013200058990895D399FCCF4DC058990895D49BEE
:10133000FCCF58990895D499FCCF44C0589908958A
:10134000D59BFCCF58990895D599FCCF3BC05899AF
:101350000895D69BFCCF58990895D699FCCF32C0FA
:1013600058990895D79BFCCF58990895D799FCCFE9
:1013700029C058990895F59BFCCF58990895F5997F
:10138000FCCF20C083580090240280151CF4589B89
:10139000FACF08958A5F0090240280159CF0589B34
:1013A000FACF08958D570090240280151CF0589BA9
:1013B000FACF089586500090240280151CF4589BA3
:1013C000FACF089589E0809340085D9A80B18B3010
:1013D00058F484E100904C0800FEFCCF1092000A03
:1013E0008093010258995D980895835800902C02CB
:1013F00080151CF4589BFACF08958A5F00902C0248
:10140000801504F3589BFACF08958D5700902C0255
:1014100080151CF0589BFACF0895865000902C023E
:10142000801584F6589BFACF08957F93009024028C
:10143000709124020716072E24F0589BF9CF7F9154
:10144000089570912402071A8015072ED4F4589B32
:10145000F8CF7F9108957F93009024027091240229
:101460007015072E24F0589BF9CF7F910895709145
:101470002402071A0816072E24F4589BF8CF7F91F0
:1014800008957F919FCF7F9300902C0270912C0242
:101490000716072E24F0589BF9CF7F91089570917D
:1014A0002C02071A8015072E64F7589BF8CF7F91FE
:1014B00008957F9300902C0270912C027015072ED6
:1014C00024F0589BF9CF7F91089570912C02071A50
:1014D0000816072EB4F6589BF8CF7F9108958058D0
:1014E00060580090240280156CF206165CF2589B3E
:1014F000F8CF08958058605800902C02801514F29F
:10150000061604F2589BF8CF0895FF7F0000F57F80
:101510002403D87F4806A67F6A09617F8C0C097F67
:10152000AB0F9C7EC8121D7EE215897DF918E37C05
:101530000B1C297C1A1F5C7B23227C7A2825897945
:10154000262884781F2B6B77112E4176FB3004758B
:10155000DF33B573BA3654728C39E270563C5E6F25
:10156000173FC96DCE41236C7A446D6A1C47A6684B
:10157000B449CF663F4CE864BF4EF1623351EB6033
:101580009B53D75EF555B35C4258825A825A4258F3
:10159000B35CF555D75E9B53EB603351F162BF4EA0
:1015A000E8643F4CCF66B449A6681C476D6A7A442C
:1015B000236CCE41C96D173F5E6F563CE2708C398B
:1015C0005472BA36B573DF330475FB304176112E91
:1015D0006B771F2B84782628897928257C7A23220B
:1015E0005C7B1A1F297C0B1CE37CF918897DE215B2
:1015F0001D7EC8129C7EAB0F097F8C0C617F6A092F
:10160000A67F4806D87F2403F57F0000FF7FDCFC1F
:10161000F57FB8F9D87F96F6A67F74F3617F55F011
:10162000097F38ED9C7E1EEA1D7E07E7897DF5E384
:10163000E37CE6E0297CDDDD5C7BD8DA7C7ADAD7F6
:101640008979E1D48478EFD16B7705CF417621CCCD
:10165000047546C9B57374C65472AAC3E270E9C072
:101660005E6F32BEC96D86BB236CE4B86D6A4CB642
:10167000A668C1B3CF6641B1E864CDAEF16265AC96
:10168000EB600BAAD75EBEA7B35C7EA5825A4DA3C2
:10169000425829A1F555159F9B530F9D3351189B17
:1016A000BF4E31993F4C5A97B44993951C47DD93EF
:1016B0007A443792CE41A290173F1E8F563CAC8D94
:1016C0008C394B8CBA36FC8ADF33BF89FB30958866
:1016D000112E7C871F2B7786262884852825A484B5
:1016E0002322D7831A1F1D830B1C7782F918E381ED
:1016F000E2156481C812F780AB0F9F808C0C5A8072
:101700006A09288048060B802403008040C020A07E
:1017100060E0109050D030B070F0088848C828A819
:1017200068E8189858D838B878F8048444C424A4D1
:1017300064E4149454D434B474F40C8C4CCC2CACB9
:101740006CEC1C9C5CDC3CBC7CFC028242C222A295
:1017500062E2129252D232B272F20A8A4ACA2AAAB9
:101760006AEA1A9A5ADA3ABA7AFA068646C626A671
:1017700066E6169656D636B676F60E8E4ECE2EAE59
:101780006EEE1E9E5EDE3EBE7EFE018141C121A147
:1017900061E1119151D131B171F1098949C929A989
:1017A00069E9199959D939B979F9058545C525A541
:1017B00065E5159555D535B575F50D8D4DCD2DAD29
:1017C0006DED1D9D5DDD3DBD7DFD038343C323A305
:1017D00063E3139353D333B373F30B8B4BCB2BAB29
:1017E0006BEB1B9B5BDB3BBB7BFB078747C727A7E1
:1017F00067E7179757D737B777F70F8F4FCF2FAFC9
:101800006FEF1F9F5FDF3FBF7FFF77278894881FA1
:10181000771F881F771F672F71FD6250EDE0F5E19C
:10182000E80FF61F849171FD819508953F922F92E4
:101830005F924F927F926F929F928F92BF92AF92E0
:10184000DF92CF92FF92EF921F930F93DF93CF938C
:10185000FC0181E090E0A0E8B0E004E0809F60013E
:10186000909FD00C7C019F938F93EF01A09FC00DA0
:10187000D11DB09FD00DFF93EF93BB24AA249927CD
:101880000081118115950795688179817595679516
:10189000A801061B170B460F571F41935193208138
:1018A0003181359527956A817B8175956795A90169
:1018B000261B370B460F571F419351930F01EAE048
:1018C000F5E1EA0DFB1D4591559165917591F0018A
:1018D000950320010C031001491E9C03590A300C8A
:1018E000411C591ED803590A300C411C591EB7031C
:1018F00040012E033001891EBE03990A700C811C21
:10190000991EFA03990A700C811C991E260C371C2B
:10191000481C591C49925992B50320012C0310010F
:10192000491EBC03590A300C411C591EDA03590ADE
:10193000300C411C591E970340010E033001891ED3
:101940009E03990A700C811C991EF803990A700C69
:10195000811C991E2618370848085908499259923F
:10196000AC0CBD1CB1FE8CCF04E0A09FC00DD11DFE
:10197000E00DF11DB09FD00DF00D81E0E81AF90ADD
:1019800009F07BCFEF91FF918F919F91880F991F65
:10199000B695A795109609F060CFCF91DF910F9182
:1019A0001F91EF90FF90CF90DF90AF90BF908F90FE
:1019B0009F906F907F904F905F902F903F900895F1
:1019C0000002030405060708090A0B0C0D0E0E0F92
:1019D0003F922F925F924F927F926F929F928F923F
:1019E000BF92AF921F93DF93CF935C01EB0160E452
:1019F00070E0EAE0F7E1992710E844991127A591F2
:101A0000BB27AA0FBB1FAA0FBB1FAA0DBB1D2D9181
:101A10003D914D915D91B30320012A031001491EB0
:101A2000BA03590A300C411C591EBA03590A300C2A
:101A3000411C591ED50340014C033001891EDC03B3
:101A4000990A700C811C991EDC03990A700C811C88
:101A5000991E260C371C481C591C662477248824A0
:101A6000992421E030E04427552770E1220C331CF3
:101A7000441C551C661C771C881C991C220C331CAA
:101A8000441C551C661C771C881C991C2AF4620E89
:101A9000731E841E951E04C0621A730A840A950A76
:101AA000220F331F441F287F256097FC22507A9510
:101AB000E9F646953795279546953795279511244C
:101AC000439B1FC06217730710F020E020C0261B45
:101AD000370BFF93EF93E0ECF9E140EF37FD04C0E3
:101AE000221F331F4051FACF330F36953695369566
:101AF0003695E30FF11D5491450F342FEF91FF916F
:101B000006C0220F331F220F331F08F43FEF399313
:101B10001A9509F074CFCF91DF911F91AF90BF90CC
:101B20008F909F906F907F904F905F902F903F90FD
:101B3000089580916D2B90916E2BA0916F2BB09199
:101B4000702B26E034E0239FF0011124E051FA4F7E
:101B5000459155916591749184179507A607B7072C
:101B600010F4215078F734E0239FF0011124E8515C
:101B7000FA4F4591559165917491619B05C0841B05
:101B8000950BA60BB70B14C0629B05C0840F951F65
:101B9000A61FB71F0DC0223009F427E084E0289F5C
:101BA000F0011124E451FA4F85919591A591B491DA
:101BB00080936D2B90936E2BA0936F2BB093702B13
:101BC00008950F931F93CF93DF938091692B18167D
:101BD00014F41092692B80916B2B811103C081E06A
:101BE00080936B2B80916D2B90916E2BA0916F2B1E
:101BF000B091702B84369105A105B10528F484E6D7
:101C000090E0A0E0B0E009C081329C4BAE4BB10542
:101C100060F080E29CEBAEEBB0E080936D2B909394
:101C20006E2BA0936F2BB093702B40916D2B509126
:101C30006E2B60916F2B7091702B36E020E480E06A
:101C40009AE6A8E1B0E084179507A607B70710F554
:101C500020934B2080916A2B823009F44BC058F4BA
:101C6000882351F1813009F078C0C1E5D5E20C2F0D
:101C700010E41C1B37C08430A9F0C8F0853009F08F
:101C80006CC040E051E060E070E081E595E20E94C8
:101C90008D3F63C0B695A79597958795269531504A
:101CA00091F6D6CFA1E5B5E280E090E042C0E1E553
:101CB000F5E280E09FE72DC0809160099091610975
:101CC00021E535E2F90145E552E6BC01649FC0011A
:101CD000659F900D749F900D1124019691932E1382
:101CE000F4CF3BC08C2F810F0E94050C89930C13FD
:101CF000F9CF33C081E595E2FC01382F2E2F281B48
:101D000027FF02C02FE701C021E821933E13F6CF41
:101D100024C0803839F0282F220F392F321B3193FD
:101D20008F5FF7CF982F990F9F5791938F5FD1F7C0
:101D300014C0282F8038910541F0FC01E45EFC4F6F
:101D4000E491E195ED930196F4CFE22FF0E0E456B3
:101D5000FD4FE491ED932F5FC1F720916B2B30E0A5
:101D600080E091E0821B930B880F991FD901AA0F85
:101D7000BB1F61E575E2FB0140E050E0162F252F07
:101D800030E02F5A3A4DE901D39500810883019143
:101D90005F3F81F021962081332727FD3095200F6A
:101DA000311D07FD3A9537FF02C02F5F3F4F359534
:101DB00027952883480F591F2E2F3E2F361B30386A
:101DC00009F4CD011213DBCFC0914B20AC2FB0E052
:101DD00020E13EE54FE550E00E94713F20916D2BE0
:101DE00030916E2B40916F2B5091702B0E94143FBD
:101DF0002150310986E08093A200C23010F081E0CA
:101E000001C082E0809340092093760930937709DE
:101E10001C2F169509F411E0D0E0C0E02091692B49
:101E2000ED2FF0E0EF5AF94D3081A303812D1124FD
:101E300060916C2B0E94FD08EC2FF0E0E45BFF4DFD
:101E40008083CF5FD10FC111E9CF599887E080938C
:101E5000A200DF91CF911F910F910895EFE4F1E27D
:101E6000119285E2EF34F807D9F7109250251092BD
:101E70004F250895F8943C9B05C088EC0E944E3E87
:101E800081EA04C080EC0E944E3E80EA0E944E3EF1
:101E90003B9B02C087EA01C086EA0E944E3E7894CE
:101EA000089590E1699FF0011124E078E80FF11D99
:101EB000E45BFE4D677081E090E0062E01C0880F64
:101EC0000A94EAF79381982B938308950F931F93B5
:101ED000CF93DF93182F062FEA019E01FE01949104
:101EE00022962F5F3F4FF90164919F3F31F0600FC1
:101EF000892F810F0E94510FF0CFDF91CF911F9159
:101F00000F910895E091502591E09E0F90935025F8
:101F100090914F25F0E020E8929FE00DF11D1124F3
:101F2000E45BFE4D9381982B93830895CF92DF92CB
:101F3000EF92FF920F931F93CF93DF93182F062FEB
:101F4000C42FD22FC81BD61BD7FF04C0D195EE24B7
:101F5000EA9402C0EE24E394C7FF04C0C195DD24D7
:101F6000DA9402C0DD24D394602F812F0E94510F98
:101F7000CD1788F0FC2EF694C12CCC16E1F0FD0EA6
:101F8000FC1610F0FC1A0E0D1D0D602F812F0E9403
:101F9000510FC394F2CFFD2EF694C12CFC0EFD160A
:101FA00010F0FD1A1D0D0E0D602F812F0E94510F94
:101FB000C394CD12F3CFDF91CF911F910F91FF907A
:101FC000EF90DF90CF900895EF92FF921F93CF9301
:101FD000DF93182F8A3081F1282F30E02651310904
:101FE000F901EE0FFF1FE20FF31FE75EF84F7F01CD
:101FF00083E0E80EF11CEF0121968491619B02C001
:10200000806880950E94820FCE15DF0511F0FE01D9
:10201000F2CF1C3111F480E318C01D3149F488E37C
:102020000E94820F809150258F5F809350250FC0B2
:102030001A3111F488E009C08091502587FD07C04E
:10204000619902C080E001C08FE70E94820F8091F9
:10205000502587FD02C01A3039F410925025809126
:102060004F258F5F80934F25DF91CF911F91FF9078
:10207000EF900895EF92FF920F931F93CF93DF930A
:102080008E3229F480E60E94820F80E60CC08D32E9
:1020900069F483E00E94820F83E00E94820F83E054
:1020A0000E94820F83E00E94820F39C0803221F4A7
:1020B000809150258A5F36C094E1899FE001112408
:1020C000CF5AD94F80914F25815080934F258E0153
:1020D000065F1F4FFE017F018FEFE81AF80A849117
:1020E0000E94820FE016F10611F0F701F4CF809103
:1020F0004F258F5F80934F25809150258A50809384
:102100005025649678019FEFE91AF90AF801849145
:102110000E94820FEC16FD0611F08701F3CF80912B
:1021200050258E5F80935025DF91CF911F910F91A5
:10213000FF90EF900895CF93DF93FC018491EF011E
:102140002196882321F00E94E40FFE01F7CFDF9152
:10215000CF910895CF93C82F843638F08CE98C0F37
:10216000843628F0C85C82E304C080E302C0C82F34
:1021700081E30E94E40F80E3CA3018F08F5FCA50F9
:10218000FBCF0E94E40F80E38C0FCF910C94E40FFF
:10219000EF92FF920F931F93CF93DF93CDB7DEB7EC
:1021A0002C97CDBFDEBF8E010F5F1F4F98E0F80167
:1021B00011929A95E9F78093502560934F2557FF28
:1021C00015C050954095309521953F4F4F4F5F4F2B
:1021D0008DE262990EC029873A874B875C870E94FF
:1021E000E40F29853A854B855C8514C080E2629BAB
:1021F00007C029873A874B875C870E943A10F1CF46
:1022000029873A874B875C870E94E40F5C854B8562
:102210003A852985619940C02036F3E43F07F9E902
:102220004F07FBE35F07DCF5211581EE380785EFEB
:10223000480785E0580754F0CA01B90120EA36E89A
:1022400041E050E00E94363FF12C2EC0CA01B90196
:102250002038E6E93E07E8E94E0751054CF020E159
:1022600037E240E050E00E94363FFF24F3941CC068
:10227000203432444F4051054CF028EE33E040E02A
:1022800050E00E94363F72E0F72E0EC024E630E0A8
:1022900040E050E00E94363F63E0F62E05C0F12C8E
:1022A0002FE037E240E050E067E084E0689FF00113
:1022B0001124E051FA4F85919591A591B491F801BF
:1022C000E60FF11D281739074A075B0740F07081B8
:1022D0007F5F7083281B390B4A0B5B0BF3CF615078
:1022E00020F7619B03C027E0E22E02C093E0E92EB5
:1022F0008E2D90E0F801E80FF91F629B09C08081E4
:102300000E943A10FE100DC08EE20E943A1009C0E1
:102310008081805D0E94E40FFE1003C08EE20E9467
:10232000E40FEA94EFEFEE12E3CF2C96CDBFDEBFC1
:10233000DF91CF911F910F91FF90EF900895E62FBD
:10234000F0E0EE0FFF1FE050F04E20813181DC0104
:102350000E946A3F28E030E040E050E00E94363FB3
:1023600060914F25809150250C94C8108093502582
:1023700060934F25CA010C949B109627092E029456
:10238000202D2F702927692F6025660F607E262754
:10239000602D6927607F6695092E000C661F969553
:1023A000969596959F7196279827822F089588EA8B
:1023B00091E62091A10A27FD09C02AE62A95F1F7A6
:1023C00000C001970097A9F780E008958091A00AC6
:1023D0000895811105C090B19B3080F05D980EC0CA
:1023E000863060F0833251F0863241F094EF980FDE
:1023F000923020F098EE980F953008F4589A8E306D
:1024000030F45A9A8C3030F4E82FF0E008C084326F
:1024100008F0599A8C50E82FF0E0EF5AF44D6083A1
:102420000895E0913020909132209830E0F791E0CB
:102430009E0FF0E0E05DFF4D8383F89480913220A1
:102440008F5F8093322083E18093A30A7894983041
:1024500008F090E09093302008951F920F920FB6ED
:102460000F9211248F929F92AF92BF92CF92DF92E0
:10247000EF92FF920F931F932F933F934F935F938E
:102480006F937F938F939F93AF93BF93EF93FF933C
:10249000CF93DF931F92CDB7DEB71092080410924E
:1024A0000904EC988091A00A873609F487C020F5CA
:1024B000833609F465C0C0F4813609F44AC008F0D7
:1024C00055C0833409F044C181E00E94111281E0BB
:1024D0000E9411128EEF0E94111297E5E92E98E0EA
:1024E000F92E10E090E0A4C0853609F45BC008F036
:1024F00062C00E94A21B2CC1803709F469C098F405
:10250000893609F461C008F45CC08A3609F020C13C
:102510000E94D71180935B2B0E94D71180935C2B74
:102520000E94861F15C1853709F454C028F48137ED
:1025300009F00EC1679A0CC1873709F461C088376A
:1025400009F006C187E40E9411120CE410E2780140
:1025500063C003E116E0F80184910E9411120F5F3D
:102560001F4FF6E007311F07B1F7F2C00E94D711E5
:10257000182F0E94D711682F812F0E94E911E8C0FF
:102580000E94D71180936D2B0E94D71180936E2BE0
:102590000E94D71180936F2B0E94D7118093702BCC
:1025A000599AD6C040E051E060E070E08CE490E2DF
:1025B0000E94AE3FCDC0589A5C9ACAC0589A5C98A7
:1025C000C7C0589A5D9AC4C0589A0E94C51DC0C021
:1025D0006798BEC000E010E0F80181918F010E9471
:1025E00011120C301105C1F701E51BE2F8018191D0
:1025F0008F010E941112FBE201371F07B9F7A8C033
:1026000010E0812F90E0805090400E94993F0E94FE
:1026100011121F5FB1F79CC00E94D711F70181937F
:102620007F010E13F9CF599A84E50E94111290C0D0
:10263000F7010491602F812F0E94BD11182F802F68
:1026400099830E941112FFEFEF1AFF0A998125E981
:10265000E21628E0F20661F78FE3F82E0EE3DD24A0
:10266000D394AA24A394F0E1FF9E4001112420E812
:1026700082228F2D8770BA2C01C0BB0C8A95EAF795
:10268000E12CF401E45BFE4D4F0180E0C12CCC0C49
:10269000282F2E0DF401E20FF11D23812B2131E0B3
:1026A00009F030E0C32A8F5F883089F76C2D812FC5
:1026B0000E94BD11182F8C2D99830E9411120F5F5B
:1026C00099810038C1F4892F0E941112812F0E9434
:1026D00011120E94D7118630D9F5D39481E00E945F
:1026E00011128D2D0E9411128D2D80950E941112B4
:1026F00010E090E000E038E0E30E80E8E812C5CF9B
:10270000FA94EFEFFE12AFCF07FD0CC06AE1812F04
:102710000E94BD11182F8AE199830E9411120F5F48
:102720009981F2CF892F0E941112812F0E941112DC
:102730000E94D711863061F484E00E9411120E9439
:10274000D711853129F484E00E9411120E94D7111B
:102750000F90DF91CF91FF91EF91BF91AF919F913A
:102760008F917F916F915F914F913F912F911F9129
:102770000F91FF90EF90DF90CF90BF90AF909F9020
:102780008F900F900FBE0F901F9018951F920F9271
:102790000FB60F9211248F939F93EF93FF93809125
:1027A0003220882399F0815080933220E0913120AB
:1027B00081E08E0FF0E0E05DFF4D93819093A00AE1
:1027C000883008F080E08093312003C080E180935E
:1027D000A30AFF91EF919F918F910F900FBE0F90E1
:1027E0001F9018958F929F92BF92CF92DF92EF9297
:1027F000FF920F931F93CF93DF9300D0CDB7DEB737
:102800000091542B2091552B359902C02FE700E001
:10281000802F992787FD9095822E992487FC90948C
:10282000881A990A13E0880C991C1A95E1F720B1CF
:102830002B3020F0880C991C082F000F4091642B3E
:10284000112707FD1095102F0027E12C97E0F0E8E5
:10285000DF2EF12CBB24B394A8E7CA2E80B18B30B5
:1028600040F42091532B30E0322F2227200F311FCC
:1028700001C0980184B18D2189F1280D391D5B2D8E
:10288000092E01C0550F0A94EAF781E0E32FFF27D4
:10289000E758F24D6081782F737031F4EE0C61E0EF
:1028A0006F1530F4E39404C0652319F0F39401C06C
:1028B000F12C280D391D8F5F813241F7C0925025D0
:1028C000842F86958695869580934F258E2D4983F6
:1028D0009A830E947E1B4981485F9A81D6949150C9
:1028E00008F0BCCF0F900F90DF91CF911F910F9107
:1028F000FF90EF90DF90CF90BF909F908F900895C2
:102900008091100180648093100180912001806487
:10291000809320018091A10887FF03C08091A008C7
:10292000F9CF8091C20881118091C30885E8809316
:10293000120180E892E0809314019093150181E5E3
:1029400095E280931C0190931D018091652B82304C
:1029500029F48BE48093130180EA06C0811109C039
:102960008AE48093130183EC8093180188E08093BC
:102970001901379B02C084E801C084EA80931001EA
:1029800085E88093220180E892E08093240190936F
:10299000250181ED97E280932C0190932D018BE529
:1029A0009AE28093280190932901379B02C084E822
:1029B00001C084EA8093200108952F923F924F92A4
:1029C0005F926F927F928F929F92AF92BF92CF92BF
:1029D000DF92EF92FF920F931F93CF93DF930E94AA
:1029E0002E0F11E5812E15E2912EF40111922AE2AB
:1029F000E335F207D9F71092522A1092532A109217
:102A0000542A1092552A2C9902C0712C02C0DFE082
:102A10007D2E1092730081E0809302048091652BDB
:102A20008130F9F484EE98E00E949B1081E599E2F0
:102A30008093572A9093582A81E595E28093592AEA
:102A400090935A2A80E880935B2A80915006887F71
:102A500082608093500683E080934C068093490601
:102A600067C0823009F04BC087EC98E00E949B1051
:102A70003AB13770832F90E0FC01E65EF64FE491A7
:102A8000E093A608FC01EE5EF64F84918093A708C0
:102A90008AB1887190E0C3E095958795CA95E1F772
:102AA000282F45E0480F4093562AE32FF0E0559B2E
:102AB00006C0569B02C0206302C0282F206257998F
:102AC00028602093A50880E18093A40881E080938A
:102AD0004008EE0FFF1FEE5FF64F859194918093B3
:102AE0005C2A90935D2A9695879596958795809315
:102AF00066089093670883E08093460819C08111A7
:102B000017C085E998E00E949B10569902C081E0A9
:102B100001C081E4CAB1CC1FCC27CC1FCC0FCC0F95
:102B200080935706559B05C080E48093540601C0EE
:102B3000C0E00E9480140E94C33E0E94D91980E820
:102B400092E0C05C53E06CE02091522A3091532A0D
:102B5000232B09F061C02091542A3091552A232B50
:102B600009F05AC04091652B413001F120911401C8
:102B700030911501FC01E21BF30BE093522AF09314
:102B8000532A2091240130912501FC01E21BF30B13
:102B9000E093542AF093552A411108C0D49B06C0F3
:102BA000C093C00850934C06609349065B9930C0AF
:102BB0001FB889E79BE280932C2090932D2082E21E
:102BC0008093282064981092A3081092A408109271
:102BD000460810924008109249061092C0088CE7EF
:102BE0008093730085E080930204DF91CF911F9161
:102BF0000F91FF90EF90DF90CF90BF90AF909F909C
:102C00008F907F906F905F904F903F902F9008959E
:102C1000789B9ACF5B9898CF40E1442E51EDC52E1A
:102C200057E2D52E69E8A62E62E0B62E70E8E72EB0
:102C300072E0F72EEFE35E2E66246394F2E43F2EFB
:102C40000E94C33E0E94D9190E942E0F8091282015
:102C500085FF1FC010922E2010922F20649909C06A
:102C600080922C2090922D20E0922A20F0922B200E
:102C700008C0C0922C20D0922D20A0922A20B09281
:102C80002B20809128208D79809328208CB1842559
:102C90008CB98091652B813009F072C0C72DD0E0CE
:102CA0002C9B23C08091522A9091532A8034910505
:102CB00038F08091522A9091532A8054910906C08D
:102CC0008091522A9091532A80549C4F219636E04D
:102CD000CC0FDD1F3A95E1F7C80FD91FC115F4E0FD
:102CE000DF0708F0D45010E448C026E0CC0FDD1F09
:102CF0002A95E1F7F8CF8091522A9091532AC8176C
:102D0000D90708F0DFC0FE01EF5AFA4D0081FE013D
:102D1000F695E795F695E795EF5AF64D808190E0A8
:102D20004C2F4370440F21E0240FBC01022E01C040
:102D3000660F0A94EAF76078262E042E01C0880FE9
:102D40000A94EAF787FFC9C0802F86950E947E1BF0
:102D500000FFBDC0222009F4B8C08CE30E94E40F3C
:102D600080E20E94E40F2196C11574E0D70710F0AD
:102D7000C0E0D0E0115009F4A5C02C99C4CFBBCF5E
:102D80008091140190911501F701E81BF90BE09374
:102D9000522AF093532A80912401909125019701A2
:102DA000281B390B2093542A3093552A37999EC0FB
:102DB0005C9BB5C02EE140E468E080E40E94960F81
:102DC0005092502534E030934F2583E50E94E40F64
:102DD0005092502555E050934F2584E50E94E40F12
:102DE0005092502566E060934F258FE40E94E40FD7
:102DF0005092502577E070934F2580E50E94E40FB4
:102E00005092502510924F25872D0E94761B0E94CC
:102E1000E40F8091652B811189C08CE3809350254C
:102E200060924F2589E40E94E40F30925025609211
:102E30004F258FE40E94E40F6092502510924F2599
:102E4000F8E27F9EE00111242C9B85C08091522ADC
:102E50009091532A889708F477C08091522A9091D4
:102E6000532A8897272D30E02F5F3F4F48E2429F3B
:102E70008001439F100D1124080F191F003822E014
:102E8000120710F00058124088E2282E2C9965C0D5
:102E90008091522A9091532A0817190708F45DC0AF
:102EA00038E43093502510924F252C9981C018E2B8
:102EB0002C99A4C08091542A9091552AC817D907FB
:102EC00008F49CC07C99C0C0FCC088E247CF222097
:102ED00011F08EE343CF89E241CF802F0E947E1B09
:102EE000222011F08BE23ACF8DE238CF8091100191
:102EF00087FD0BC010921401109215011092A408C6
:102F00008091C0088F7B8093C0088091200187FD4D
:102F10004FCF10922401109225015C9A49CF2FE3E4
:102F200040E468E080E40E94960F6ACFECE3E0930F
:102F3000502560924F2582E50E94E40F3092502583
:102F400060924F2584E576CF8091522A9091532A42
:102F5000885A9D4F87CF8E0197CFF801EF5AFA4DCF
:102F600080811F9B09C0803208F48FE50E94E40F26
:102F700080E20E94E40F02C00E947E1B80E20E9459
:102F8000E40F809150258C3338F060925025809169
:102F90004F258F5F80934F250F5F1F4F003852E002
:102FA000150710F000E010E02A9409F06FCF78CFF9
:102FB0008091542A9091552A889730F08091542A14
:102FC0009091552A889706C08091542A9091552A4D
:102FD000885A9D4F272D30E02F5F3F4F48E2429F98
:102FE000E001439FD00D1124C80FD91FC03862E003
:102FF000D60708F45CCFC058D24059CFFE01EF523B
:10300000F84D80811F9B09C0803208F48FE50E9433
:10301000E40F80E20E94E40F02C00E947E1B80E267
:103020000E94E40F80915025883418F478E470935E
:1030300050252196C03882E0D80710F0C0E0D0E0DB
:10304000115009F035CF3ECF7C987A9B05C0799B13
:1030500003C083B1805883B97B9B28C08BB1842582
:103060008BB98091652B5C9B0CC01092A408909149
:10307000C0089F7B9093C0088130C1F4109249062C
:1030800015C0813021F483E0809349060CC0823062
:1030900019F44092A40807C0811105C08091C008AE
:1030A00080648093C00837990E9480147A9B02C084
:1030B00071107A94799B03C0EFE07E127394789933
:1030C0005B985B99BDCD74CD1F920F920FB60F9296
:1030D00011242F933F934F935F936F938F939F93FD
:1030E000AF93BF93EF93FF93E091592AF0915A2A3F
:1030F000A091572AB091582A20915B2A88E18093A9
:10310000200880910C08816080930C08D19B05C039
:1031100080910C0880FFFACF55C051E080E0D19932
:1031200005C090910C0890FFFACF4CC099E2E135B0
:10313000F907C9F19AB3692F617090FD0FC09091A2
:103140000C0890FD3FC0D19B10C0D09BF8CFD19B05
:103150000CC038C0D19B09C0D09B05C090910C0811
:1031600090FFF8CF2FC0D199D1CF8830C1F4CF01D3
:10317000019640833C915111322B2695611101C07B
:10318000322B26953C93222319F0FC0150E0C6CF48
:1031900011961C9211971196FC0120E8F7CF440F6D
:1031A000462B8F5FBCCF379B06C0109249065C9AB6
:1031B00080E094E00AC010925129A1E5B9E2E1E56E
:1031C000F5E2ADCFCF01815595428093522A90937D
:1031D000532AE093592AF0935A2AA093572AB0937E
:1031E000582A20935B2A81E080934C06FF91EF914F
:1031F000BF91AF919F918F916F915F914F913F914F
:103200002F910F900FBE0F901F9018951F920F9245
:103210000FB60F9211242F938F939F9392E0909368
:10322000200890910C08916090930C0898E0579BAF
:1032300017C0D79909C020910C0820FFFACF2BC0E6
:1032400020910C0820FD27C0D799FACF880FD69976
:103250008160915071F713C020910C0820FD1BC0B4
:10326000D79BFACF880FD69B06C0816004C02091FF
:103270000C0820FD10C0D799FACF915089F78093A0
:103280005B2A82E080934C065C9905C08091200106
:103290008061809320019F918F912F910F900FBE9D
:1032A0000F901F9018951F920F920FB60F92112436
:1032B0002F933F934F935F936F938F939F93D399E4
:1032C0006CC081E080934C0880914C0880FFFCCF5B
:1032D00080915C2A90915D2A80936608909367089C
:1032E00040E020E050E061E03091562A531768F446
:1032F00060934C0830914C0830FFFCCF2695D39B4F
:1033000002C020684F5F5F5FEFCF383018F426951A
:103310003F5FFBCF559904C031E030934C0817C094
:1033200031E030934C0830914C0830FFFCCF4170B5
:10333000569B05C0442341F0D39BEECF23C04111DF
:1033400003C0D3991FC0E8CFD39B1CC0E5CF3091F9
:103350004C0830FFFCCFD39B15C057990AC020936F
:103360005B2A5C990FC020912001206120932001ED
:1033700009C031E030934C0830914C0830FFFCCF4D
:10338000D399EDCF96958795969587958093660806
:103390009093670881E080934C089F918F916F9183
:1033A0005F914F913F912F910F900FBE0F901F9003
:1033B000189580E0889906C095E59A95F1F7000088
:1033C0008150C1F7EC98E89808951F920F920FB6BC
:1033D0000F9211242F933F938F939F93EF93FF931B
:1033E000EC98E89820E099E1EFE3FFE13197F1F7FD
:1033F00000C0000080910806382F3E7123139AE028
:10340000915011F0232FF0CF1FB881FF789A282F09
:103410002071982F987084703C9B0AC0211101C0C4
:10342000799A911101C07A9A81110BC07B9A09C0D7
:10343000211101C07B9A911101C07A9A811101C0BA
:10344000799A8FB18823A1F0589A7C9A80910408C8
:10345000882379F088E18093210880910C088260AC
:1034600080930C088091060884608093060801C050
:1034700060981092080410920904FF91EF919F91B7
:103480008F913F912F910F900FBE0F901F90189525
:103490001F920F920FB60F9211248F9380910608FE
:1034A0008B7F809306088FB18111609A8F910F9066
:1034B0000FBE0F901F9018950F93CF93DF931F921D
:1034C000CDB7DEB72FB72983F8941BBEFC0108EDFA
:1034D00004BF608389818FBF0F90DF91CF910F91DF
:1034E000089592E09093CA01E82FF0E08491109241
:1034F000CA0108950E94BF1F2FEF8FE396E021506D
:1035000080409040E1F700C000000E9422232FEF8E
:103510008FE891E0215080409040E1F700C000002A
:1035200084E1E0E0F2E08183E0E0F1E080898F7700
:10353000808B80A98F7780AB80A18F7780A308953F
:103540007F928F929F92AF92BF92CF92DF92EF9233
:10355000FF920F931F93CF93DF931FB80E942E0FFC
:1035600085E299E00E949B1042E259E067E084E71F
:103570000E94B6110E94C33E0E94D9198FB18823C0
:10358000E9F3799BA4C00E942E0F10B8912C91E50D
:10359000C92E95E2D92E27E0722E80B1883008F02E
:1035A00069C0A92C86E0B82E882483948A0CB09236
:1035B000512BB092522B0E947A1AA1E5B7E2E1E5B5
:1035C000F5E2C0E0D0E000E010E08191080F111DAD
:1035D00087FD1A958D91C80FD11D87FDDA95CE1202
:1035E000F4CFEC9A80B1EB2CF12C9701789E200D52
:1035F000311D1124C901612F835A9E4F0E94B83F8B
:1036000020E2210F203430F4482D60E2882D0E9402
:10361000960F01C0E89A80B18823E1F060B170E0B4
:1036200061507109769EC001779E900D11248E0D18
:103630009F1D6D2F845D9E4F0E94B83F2D2F205EF1
:10364000203438F481E48A0D482F60E20E94960FFE
:1036500001C0E89A0E94C33E0E94D919BA943FEF74
:10366000B31611F0A82CA0CF87E0980E80B18F5F21
:1036700080B993CF80E18093010287E080930402B8
:1036800020E0C0E0D0E060E070E033E8309320025A
:10369000309328028FE79CE00197F1F700C000000B
:1036A0008091240290912502680F791F80912C024D
:1036B00090912D02C80FD91F215041F78BE991E05D
:1036C0000E94DB3FBE0189E991E00E94DB3F1FB809
:1036D000DF91CF911F910F91FF90EF90DF90CF90EE
:1036E000BF90AF909F908F907F900895982F80E328
:1036F000890F8A3310F087E3890F0895CF93C82F7D
:1037000082958F700E94761B0E94E40F8C2F8F7021
:103710000E94761BCF910C94E40F90E8980F97FFCE
:1037200002C091E8980F892F8595805808958134BB
:1037300028F0803C28F4880F8058089580E0089590
:103740008FEF0895669929C088B1803258F480912E
:10375000812E80B98091712B8093512B80917B2E8B
:103760008093522B4CE050E060E271E080E090E00A
:103770000E94AE3F40E250E060E071E081E59BE2F4
:103780000E94AE3F80B18093812E8091512B809317
:10379000712B8091522B80937B2E08954CE050E04A
:1037A00069EB75E080E090E00E94843F40E250E0E9
:1037B00069E975E081E59BE20E94843FEC9A0E94F2
:1037C000A21BEC981FB8089584E0809356008CE10A
:1037D0000E94711A809363008BE18093650087EBF0
:1037E0008093660081E0809360008BEC80935200B0
:1037F00082EC809355008BE0809350008FE79EE32E
:103800000197F1F700C000008091510083FF1092F2
:1038100052008BE1809350008FE79EE30197F1F710
:1038200000C0000064E080E490E00E945C1A8AE13D
:103830008093500081E48093B20082E38093B300D0
:103840008BE080BB8FE18CBB84E08DBB89E084BBC7
:1038500091E095BB88E180931106809312068093D6
:10386000130680931406C7E0C0931506C09316068E
:10387000C093170622E0209309062EE120930A0642
:1038800090934A0630E830934B06909375068093E8
:1038900091069093A60950EC5093A50928E0209337
:1038A000A40927E12093A60A44EA4093A70A23E04B
:1038B0002093A50A8093A40A80E28093A30A60EE75
:1038C000609380018093810188ED80938301509300
:1038D000840188EC809385018FE88093860180EDD8
:1038E000809387019093210391E190932203209389
:1038F000230395E0909320038093420185E2809317
:10390000430180E091E080934401909345018CE471
:1039100090E2809348019093490189E380934C01A0
:1039200020934D0140934001309300014CE050E062
:1039300060E271E080E090E00E948D3F40E250E064
:1039400060E071E081E59BE20E948D3FC093A200A0
:1039500078940E943F3C0E945C3E45E450E06CE15C
:1039600075E08DE692E20E94843F0E943A0F40E1AA
:1039700056E067E082E30E94B6118091400080FF2C
:1039800006C049E559E067E080E00E94B6110E9458
:10399000C33E9FEF23E284EF915020408040E1F747
:1039A00000C0000085E0809343008DE991E00E9413
:1039B000993F811109C00E94D9190E94A01A61E0A3
:1039C0008DE991E00E94B83F80EA91E00E94993F22
:1039D000C82F8091080681FF629A1FB8D1E018E2D3
:1039E00007E034E1F32E40E1E42E51E8D52E6AE3FE
:1039F000C62E629B51C00E942E0FD09300021093DE
:103A0000390200930402F0920102E0920202D09285
:103A100038028FE39FE10197F1F700C00000209189
:103A20003C0230E0A0EBBCE00E945B3F9B01AC019C
:103A300061E080E40E94C8101092502510924F253A
:103A40008AB30E947E1B48E359E066E080E00E9452
:103A5000B611C0925025CC2321F08C2F0E94AA10C1
:103A600003C08DE20E94E40F7C9B11C07C987B997F
:103A70000E94A01A7A99C05F79990E94CE1B789B08
:103A800006C06C2F80EA91E00E94B83F62980E94C5
:103A9000C33E0E94D919ADCF1FB88091010480FDAB
:103AA000FCCF9CE3C99F9001112420930A0430931A
:103AB0000B042CE330E020930C0430930D04CC2352
:103AC00031F085E08093020487E0809300040E9437
:103AD000A023FDCF1F920F920FB60F9211248F9348
:103AE0008FB1811101C01EB88F910F900FBE0F9042
:103AF0001F9018951092C1041092C3041092C00434
:103B0000EC980E94A21B0E94B63E8FB18111FDCF9E
:103B1000A99A85E0809348008895109248000E94F9
:103B20005C3EA9981FB80C943F3C1F920F920FB6B1
:103B30000F9211242F933F934F935F936F937F9333
:103B40008F939F93AF93BF93EF93FF930E947A1D40
:103B5000FF91EF91BF91AF919F918F917F916F9165
:103B60005F914F913F912F910F900FBE0F901F903B
:103B700018951F920F920FB60F92112410924800C1
:103B80000F900FBE0F901F9018955C982898299859
:103B90002A9887E080934A201EB81FB80895809124
:103BA000512B8823B1F09091752B913290F0815078
:103BB0008093512B80915D2B811106C080915E2BEB
:103BC0000E948D1B80935E2B8091752B8695809330
:103BD000752B8091522B8823B1F090917F2E9132DA
:103BE00090F081508093522B80915D2B813031F485
:103BF00080915E2B0E948D1B80935E2B80917F2E87
:103C0000869580937F2E089510924A208091812E70
:103C100080B98091712B8093512B80917B2E809362
:103C2000522B089580B18093812EA1E5BBE28C9147
:103C30008093712BE2E5FBE2808180937B2E1C92C6
:103C4000108287E080934A200895CF93DF934099B4
:103C500006C0419907C0429908C0629A08C0ECE9C1
:103C6000F4E005C0ECE1F4E002C0ECE9F3E0449BD1
:103C70003BC089E79BE2C9E7DCE260E034916299EE
:103C80003FE76F3708F4319667FD3197DC014D91BE
:103C9000CD0129914058C303A001112474E0679F0E
:103CA000D0011124AF5ABA4D4D935C93119720580F
:103CB000A3039001112412962D933C9313976F5FE9
:103CC000E9F6629881E595E20E94160C61E579E2D9
:103CD00081E595E20E94E80C90915129809152294A
:103CE000891718F191E022C0EC0180E034916299CB
:103CF0003FE78F3708F4319687FD31972991205897
:103D0000A303212D112494E0899FD0011124AF5ADF
:103D1000BA4D12961C92129713962C9313971C92DD
:103D200011962C938F5F11F7CCCF92E023E080E0C7
:103D300097FD0DC0E92FF0E0EF5AF64D30812317C3
:103D400010F0322F01C0892F9F5F232FF1CFE82F72
:103D5000F0E0EF5AF64D9081983008F480E0DF9162
:103D6000CF91089580B18B3010F03FEF01C03FE755
:103D7000479B07C08091762B8093542B8091802E97
:103D800081C01092542B3093552BE091532B089BFC
:103D900002C0109B08C020917F2E089B0FC080910D
:103DA000752B281758F48091742B2091752B28308F
:103DB00008F45DC0F0E0E758F44D08C080917E2E15
:103DC000283008F454C0F0E0E758F34D2695280F4A
:103DD0008081821718F08E2FDF012AC08E2FDF011D
:103DE0004A2F481BFD0131969C91921730F49E2F6B
:103DF000981B9317E1F1DF01F3CF4093542BCF01D0
:103E0000019650814F5F251720F4431781F1FC0183
:103E1000F6CF4093552BFC0181914F5F821728F517
:103E20004313FACF24C09E2F981B931701F1DF0193
:103E30004A2F481BFD0131969C912917A0F340930E
:103E4000542BCF01019650814F5F521720F4431736
:103E500071F0FC01F6CF4093552BFC0181914F5F2F
:103E6000281718F44313FACF02C04093552B80B1A2
:103E70008B3050F08091542B86958093542B8091F9
:103E8000552B86958093552B0895E9E7F5E0A1E53C
:103E9000BBE284919C91981708F08C93119631960F
:103EA0008BE2A137B807A9F78091622B87FD03C089
:103EB0008EEF8093622B8091632B87FD03C08EEF82
:103EC0008093632B8091672B9091662B891710F458
:103ED0008093662B8091682B811103C081E08093D1
:103EE000682B80915E2B833018F483E080935E2BE7
:103EF0008091602B90915F2B981710F480935F2B2B
:103F000080B1863110F085E180B9089580915B2BF6
:103F100090915C2B8F3F9105B8F490B1911102C044
:103F20008830F8F090B1913011F48530E0F090B124
:103F3000923011F48530B8F090B1963018F4843096
:103F4000A0F002C0882399F080915B2B90915C2BAC
:103F500097FF14C08FEF9FE780935B2B90935C2BB0
:103F6000089588E005C085E003C084E001C081E0D9
:103F700090E080935B2B90935C2BE6CF0895FF92AB
:103F80000F931F93CF93DF9398E19093700084E099
:103F90008093710023E0209372002CE7209373003C
:103FA0002CE620937400209375008093A200109259
:103FB000000A1092010A1092060A1092400810920C
:103FC00041088FE08093000882E08093040890937A
:103FD00027089091612B909326089EE0909300090A
:103FE0008093040987E2809326090E94451F0E945E
:103FF000861F84B120E0982F9170290F8695D9F7FC
:1040000088E090E0821B9109880F880F880F9091BB
:10401000642B891710F41092642B80B1811109C0B0
:10402000469904C0479B05C0449B03C080B18F5F85
:1040300080B984E18093010285E48093030283E0E8
:104040008093040290B19B30E8F01092270980938E
:10405000000A80B18B3019F487E893E102C089E649
:1040600098E18093260A9093270AE0B1F0E0EE0FE2
:10407000FF1FEC5DFE4E859194918093772B90937A
:10408000782B2BC01DB887E08093270980B186303C
:1040900068F0E0B1F0E0EE0FFF1FEC5BFE4E8591A3
:1040A00094918093260A9093270A17C08CE18093FD
:1040B000010280B1823010F080B104C080B1882349
:1040C00039F082E08093040280E48093030205C00B
:1040D0001092030282E0809304020E943A0F81E072
:1040E0008093000280E2809302020E94711A809302
:1040F0000C0281E20E94711A80930D028AE2809381
:1041000021028091512B90E09C01220F331F220F3E
:10411000331F2360209320022BE220932902C091B9
:10412000522BD0E09E01220F331F220F331F23603A
:104130002093280220E12093310220B130B13830A1
:1041400008F027E037E0F32E022F10E0F29E800DFA
:10415000911D1124835A9E4F0E94993F819580930F
:10416000722B80B1882381F001501109F09EC001AB
:10417000F19E900D11248C0F9D1F845D9E4F0E9417
:10418000993F819580937C2E87E08093A2001C99B3
:1041900002C081E001C081E4199B05C01A9902C0E8
:1041A000806101C088619FEF9093B00080935006BA
:1041B0005A98DF91CF911F910F91FF9008951F9210
:1041C0000F920FB60F9211248F929F92AF92BF92CF
:1041D000EF92FF920F931F932F933F934F935F9311
:1041E0006F937F938F939F93AF93BF93CF93DF93FF
:1041F000EF93FF93D0915025C0914F2580912402D9
:104200006091722B0E94FD08E82E80912C02609133
:104210007C2E0E94FD08F82E0C99E0941499F094DD
:1042200000E80E0D60E86F0D61958603112D1124D5
:1042300010580E9B08C00F9B05C08E2D0E94FC08D5
:10424000E82E01C0E12E169B0AC0179B07C0602F05
:1042500061958F2D0E94FC08F82E01C0F12E40912F
:1042600041205091422060914320709144204E0D96
:10427000511D611D711D4093412050934220609358
:1042800043207093442040913D2050913E20609106
:104290003F20709140204F0D511D611D711D4093B5
:1042A0003D2050933E2060933F20709340208091AA
:1042B0003B2090913C20019680933B2090933C20A2
:1042C000659A0091772B1091782B80913B209091EB
:1042D0003C208017910708F463C010923B20109295
:1042E0003C200D9B10C04801A12CB12C60914120B5
:1042F000709142208091432090914420A501940127
:104300000E94143FE22E159B0EC0980140E050E041
:1043100060913D2070913E2080913F2090914020FF
:104320000E94143FF22E10924120109242201092CF
:1043300043201092442010923D2010923E20109273
:104340003F20109240203A9B10C0EDB1F0E0E758BA
:10435000F44D80818E0D8795E82EEDB1F0E0E758A1
:10436000F34D80818F0D8795F82EEDB1F0E0E75881
:10437000F44DE082EDB1F0E0E758F34DF082EDB19D
:104380008AB3F0E0E758F24D8083679B09C08E2D19
:104390000E9411128F2D0E9411128AB30E941112D5
:1043A000459BD1C03099CFC080913B2090913C205B
:1043B000892B11F00D993CC06091622B8E2D0E94CB
:1043C000FC08182F1695103408F01FE3EDB1F0E04B
:1043D000E858F44D6091622B80810E94FC083E9B5E
:1043E0001CC09DB19923C9F0282F2695203408F0D0
:1043F0002FE3121304C01123D9F01F33C9F0089B17
:1044000017C04DB18DB150E04150510955954795B8
:10441000612F86950E94960F0BC0089B09C011233F
:1044200039F01F3329F08DB1612F86950E94510F0D
:1044300080913B2090913C20892B11F015993CC034
:104440006091632B8F2D0E94FC08182F1695103455
:1044500008F01FE3EDB1F0E0E858F34D6091632BF5
:1044600080810E94FC083E9B1CC09DB19923C9F02D
:10447000282F2695203408F02FE3121304C01123AF
:10448000D9F01F33C9F0109B17C04DB18DB150E06A
:104490004150510955954795612F86950E94960F79
:1044A0000BC0109B09C0112339F01F3329F08DB1C7
:1044B000612F86950E94510FEAB21091642B189BD0
:1044C0002DC007E3E0E8FE2E94B19F2119F18DB1D4
:1044D000843059F410925025812F869586958695C3
:1044E00080934F25802F0E94E40F8F2D8E2119F08D
:1044F0008DB1612F0BC08DB166E0610F86950E9472
:10450000510F1B9B06C08DB165E0610F86950E941F
:10451000510F185FF69401500F32B1F61E9B1CC06C
:104520009DB19F70C9F41933B8F49DB196959F5F02
:104530009093502516951695169510934F258E2D10
:104540000E947E1B09C0479B07C03F9B05C08DB1E1
:104550006FE386950E94510F80913B2090913C2003
:10456000892BD1F58DB18F5F8DB98DB181110CC0C3
:10457000649A679B09C08AE00E9411128DE00E9434
:10458000111287E30E941112309923C08DB181115D
:1045900009C01D9B03C045990E94F2131092060AA0
:1045A0005C991AC0459B18C03D9916C0689914C003
:1045B0008DB1869520E090E030E8239FF001112432
:1045C000E45BFE4DE80FF91F13822F5F2830A1F73F
:1045D00003C05C991092060AD0935025C0934F25D2
:1045E000FF91EF91DF91CF91BF91AF919F918F910B
:1045F0007F916F915F914F913F912F911F910F91FB
:10460000FF90EF90BF90AF909F908F900F900FBE54
:104610000F901F9018951F920F920FB60F921124B2
:104620008F93EF93FF93E0E0F8E086818E7F86839F
:10463000589A5D9AFF91EF918F910F900FBE0F9056
:104640001F901895809110018064809310018091D3
:1046500030018064809330018091200180648093D8
:10466000200165E06093120170E17093130180E016
:1046700092E0809314019093150121E535E2209397
:104680001C0130931D0144E24093180152E0509305
:1046900019014093100160933201709333018093AC
:1046A00034019093350121E539E220933C013093A8
:1046B0003D012AE1209338011092390140933001E5
:1046C0006093220121E120932301809324019093A0
:1046D000250181E597E280932C0190932D018CE2D6
:1046E000809328015093290140932001809110016B
:1046F0008068809310018091300180688093300140
:104700008091200180688093200180B1863020F460
:104710008CE18093010202C05093000A80E090E097
:104720002091110124FD0BC020E22A95F1F7589B3E
:1047300002C05D9808950197009791F70895089534
:10474000CF93DF93CDB7DEB72D97CDBFDEBF80B15E
:104750008093812E8091512B8093712B8091522BCD
:1047600080937B2E1EB8589A5A9A599A7C9A639ACB
:1047700029E73BE22F835A990E94BF1F5B9B08C029
:104780001FB85C980E94A21B0E94DD140E94BF1FEC
:10479000609B12C07B9B03C05C990E94C51D8EB1BB
:1047A0008C3220F07A9901C079997C9A789B04C068
:1047B0000E947A1D1EB8589A5C99DBC05D99D9C0D9
:1047C00080915A2B882351F0589908C0AFE3BFE17C
:1047D0001197F1F700C000008150F4CF80B18B3009
:1047E00010F40E942223289902C02A9B08C0309B03
:1047F00003C080B18B3018F488B1803220F458990E
:10480000B8C05D9AB6C0109260081092610881E04D
:1048100080934C0880915B2B90915C2B20B12230CF
:1048200010F0880F991F20B1211102C0089710C005
:1048300020B1213019F020B1223011F4059708C0C1
:1048400020B1263010F4049703C0009709F00197B7
:1048500080936608909367088091260880932008CB
:1048600081E08093020480910C08816080930C08A1
:104870002A9B05C08091060881608093060880917C
:104880005D2B811136C06091722B619580915E2BFA
:104890000E94FC082E9B07C06091602B80915F2BCB
:1048A0000E946F0A66C02D9B13C080915E2B8058BA
:1048B00087FF02C0819503C0811101C081E02B9B5D
:1048C00004C081950E94150A54C00E942B0A51C051
:1048D0002F9B03C02B9B0AC006C02091240290E8A6
:1048E000980F29171CF40E94C20943C00E94D209E4
:1048F00040C08130A1F560917C2E619580915E2B46
:104900000E94FC082E9B07C06091602B80915F2B5A
:104910000E947A0A2EC02D9B11C080915E2B805878
:1049200087FD8095811101C081E02B9B04C080959B
:104930000E94430A1EC00E94590A1BC02F9B03C03D
:104940002B9B0AC006C020912C0290E8980F2917D3
:104950001CF40E94F5090DC00E94050A0AC08B30A4
:1049600040F482502B9B03C00E94630902C00E9446
:10497000040985E080930204809106088E7F80936D
:1049800006085D9B65C180B18B3008F03FC1EFE93F
:10499000FFE03197F1F700C000001092000A84E1B7
:1049A000809301028091792E8F5F8093792E8FE71B
:1049B00092E00197F1F700C000005D981092400866
:1049C000809110018F7780931001809130018F7753
:1049D00080933001809120018F7780932001809116
:1049E00014019091150120B1223020F0212C32E0E9
:1049F000332E0CC0212C23E0322E281A390A211420
:104A0000A2E03A0628F020E031E01901281A390A1C
:104A100091012F5A3A4D2C873D87A1014F5A584D8D
:104A20002A01B1016F5A764D7B0129E73DE22B83C4
:104A30003C8319E7C12E1CE2D12E89E7882E8BE238
:104A4000982ED7018C91EB81FC818193EB83FC83C1
:104A5000AC85BD852C91822FF2019081192FFFEF3B
:104A60002F1A3F0A211432E0330651F04FEFE41AB7
:104A7000F40A1196AC87BD875FEF451A550A0EC040
:104A8000212C312CA1E5EA2EA9E2FA2EB1E54B2E1C
:104A9000B7E25B2E41E555E24C875D8730B132309D
:104AA00088F10D9B06C0AC85BD858C9185952595BB
:104AB000820F159B05C0F201108115959595190F70
:104AC000FFEF2F1A3F0A211422E0320669F04C85CD
:104AD0005D854F5F5F4F4C875D875FEF451A550AD5
:104AE0006FEFE61AF60A0EC0212C312CE1E5EE2E0E
:104AF000E9E2FE2EF1E54F2EF7E25F2E21E535E2E9
:104B00002C873D876091722B0E94FD08782E0C99AE
:104B1000709460917C2E812F0E94FD08A82E14991C
:104B2000A09410E8170D60E86A0D61959603912D29
:104B3000112490580E9B0AC00F9B07C0872D9987A0
:104B40000E94FC08782E998501C0792E169B0AC018
:104B5000179B07C0612F61958A2D0E94FC08A82E23
:104B600001C0A92E94012F5F3F4FD4013A9B0FC083
:104B700011968C911197870D87958C93A6014F5FA5
:104B80005F4FF60181818A0D8795808306C07C92F4
:104B9000A6014F5F5F4FF601A08269E77DE28B813E
:104BA000681719F06A0149014CCF679B17C079E774
:104BB000E72E7BE2F72ED7018D917D010E94111225
:104BC000B9E7EB16BEE2FB06B1F78AE00E941112CC
:104BD0008DE00E94111287E30E941112809128201B
:104BE00085FF27C0109208041092090410922E200D
:104BF00010922F2082E093E880932A2090932B201C
:104C0000809128208D798093282013C0309B04C088
:104C10005D985C990EC002C0649904C083E08093E3
:104C2000060A07C064985D988091792E8F5F809303
:104C3000792EF894299B09C05C9A80B18B3028F4B6
:104C40008EB1853011F083E38EB97C9B58987894AF
:104C5000809110018F7780931001809130018F77C0
:104C600080933001809120018F77809320015D999E
:104C700009C13D990CC0479908C0469906C0459B9B
:104C800006C080B18B3008F030990E942E0FF89446
:104C900080B18B3020F0309B02C0649BC2C064980E
:104CA0004C9B3CC020B1E4E02E9F900111242E517A
:104CB0003F4EF90185919591A591B4919C01AD016B
:104CC0006CE056954795379527956A95D1F7E0B1F1
:104CD000A981BA81BD01882777FD8095982F0E9410
:104CE000043FE73068F496958795779567956093CC
:104CF0006D2B70936E2B80936F2B9093702B0EC047
:104D000020ED37E040E050E00E94143F20936D2BEF
:104D100030936E2B40936F2B5093702B4D9B0AC09A
:104D200089819A8135E0959587953A95E1F7819546
:104D30008093692B4E9B0AC089819A8124E09595C6
:104D400087952A95E1F7805880936C2B4F9B09C07B
:104D500089819A81B4E095958795BA95E1F780931A
:104D60006B2BB11002C0B090682B9B2D4A99919586
:104D70008091662BB0E18B9F900111244091672BAD
:104D8000E0E14E9FA001112469817A81690F711DB4
:104D900097FD7A9569837A834617570734F44B9BBE
:104DA000A901629A49835A830AC0A981BA81A217CC
:104DB000B3072CF44B9B9A01629A29833A83499B4F
:104DC0000BC0489B05C0BEE7BB1530F0B39404C0D0
:104DD000E1E0EB1508F4BA94629B08C0B090682B30
:104DE0004B9B04C099B124E0922799B9629899B17C
:104DF0009031B8F0599A3F9B14C06FE386950E949A
:104E0000510F8091672B6FE386950E94510F6FE3DE
:104E100089819A81A5E095958795AA95E1F70E94E9
:104E2000510F78949091792B8091792C9C0140E0DE
:104E3000E42FF0E0E758F44D5081F3956081951729
:104E400008F4952F531708F4352F861708F4862F8A
:104E5000621708F4262F4F5F59F7492F431B4093E1
:104E6000752B482F421B40937F2E9093732B3093CA
:104E7000742B80937D2E20937E2E319B03C0459909
:104E80000E94B21E459B55C1369B6CC080B18B30D1
:104E900018F4E090532B01C0E12C83EA91E00E94CA
:104EA000993FA82E82EA91E00E94993F982EDE80D9
:104EB000CD80F12C4E2C512CC2018C559D4F0E945F
:104EC000993F882EC2018C559E4F0E94993F782EA3
:104ED0006A2D882D0E94FC0886958D83803410F001
:104EE000FFE3FD83692D872D0E94FC0886958E8344
:104EF000803410F02FE32E8377247A947F0C80B1D6
:104F00008F2C8B3010F0869476943E9B13C0FF203C
:104F100021F1089B06C02C2D472D6D81882D0E9404
:104F2000960F109B13C02D2D472D6E81882D0E944A
:104F3000960F0CC0089B04C06D81882D0E94510FF4
:104F4000109B04C06E81882D0E94510F80B18B3060
:104F500018F43EE73F1530F0E394F39419F0DE8047
:104F6000CD80A8CF80B18B3010F0309BE2C080B1F3
:104F70008B3038F0309B05C0DDB04D2D4160D42E14
:104F800002C0D090532BAD2CF12C712C8A2D8D1991
:104F900077FCCCC090B19B3020F0309B02C0782EC3
:104FA00076942A2C312CB1016758744D1B01FB01FA
:104FB000FE5F8080E090642B189B48C0E0E89E2E46
:104FC000F7E0CF2E84B18921E1F1711027C05E2C6A
:104FD0005694569456941092502550924F2580E343
:104FE0008C0D0E94E40F20915D2B30E0225031099E
:104FF000EC2DF0E02E173F0789F40E3778F428994E
:1050000002C02A9B0BC00093502550924F252B9B2A
:1050100002C089E101C088E10E94E40F892D882146
:1050200011F06E2D09C066E06E0D872D0E94510FA4
:105030001B9B05C065E06E0D872D0E94510F78E027
:10504000E70E9694CA948FEFC812BCCF1E9B10C077
:10505000872D8F7069F498E39E1550F0709250255B
:10506000E694E694E694E0924F25882D0E947E1BFC
:105070006091622BD1018C910E94FC08E82EF10115
:10508000F3956091632B80810E94FC088695E694DD
:10509000BFE3BE1510F47FE3E72EC82EEFE3E81759
:1050A00010F46FE3C62E3E9B22C07720D1F1E112AF
:1050B00004C08FEF8E0D8E3340F4089B06C0212F65
:1050C0004F2D6E2D872D0E94960FC61004C08FEFB6
:1050D0008C0D8E3328F5109B23C080B1882301F1FD
:1050E000262D4F2D6C2D872D0E94960F19C0089BE1
:1050F00009C0EE2039F0FFE3EF1621F06E2D872D69
:105100000E94510F109B0CC0CC2051F02FE3C2160F
:1051100039F080B1882321F06C2D872D0E94510F2A
:10512000F72C7394A3946C2C1E2D30CF1D990E94E4
:10513000F213469B51C03F9B06C04CEC59E060E027
:1051400080E00E94B61149E7E42E4CE2F42E59E7C4
:10515000C52E5BE2D52E9C2D49E75BE2941B80B106
:105160008B3028F0309903C08DB19817A1F0D6018B
:105170001D916D011095F70161917F018091532B75
:10518000681B67FD05C06695812F86950E94510FAB
:10519000FF81FC11E0CF369B1FC081EA91E00E94A5
:1051A000993FF82EE12C8E2C912CC4018C559D4FEB
:1051B0000E94993FD82EC4018C559E4F0E94993F62
:1051C0008F1987FD07C0682F66958D2D8095869570
:1051D0000E94510FE39439F7479BAAC05D99A8C07C
:1051E000089B09C0109B07C080B1882321F033E0E1
:1051F000F32E1BE103C022E0F22E17E3449B3AC0DA
:1052000087B1837079F060E18091532B0E94510F38
:1052100060E28091532B0E94510F60E38091532BE9
:105220000E94510F80E090E00E94251EF12C809199
:10523000532BEF2DE81BF0E0EF5AF64D8081869559
:105240008695883308F087E367E3681B3E9B06C0BA
:1052500027E34F2D8F2D0E94960F03C08F2D0E94A4
:10526000510FF39420E8F212E2CF319B61C00E940B
:10527000B21E5EC0089903C010992BC0F6CF89E713
:105280009BE20E94251E8093762B91E5C92E99E220
:10529000D92EE12CD6012D916D0130E00F2C02C0EA
:1052A000359527950A94E2F7121708F4212F612FFC
:1052B000621B3E9B06C0212F4E2D8E2D0E94960F05
:1052C00003C08E2D0E94510FE394B0E8EB12E2CFA1
:1052D000D3CF80B1882349F289E79CE20E94251E42
:1052E0008093802EB1E58B2EB9E29B2ED12C87E3E3
:1052F000E82EF40121914F0130E00F2C02C03595CA
:1053000027950A94E2F7121708F4212F6E2D621BDD
:105310003E9B06C027E34D2D8D2D0E94960F03C0A6
:105320008D2D0E94510FD394F0E8DF12E2CF9DCF74
:1053300088B1803208F0E8C15D99E6C180914A20C9
:105340008111E2C184E080934A200E942E0F4CE438
:105350005DE060E08CE00E94B6114BE55DE060E04E
:105360008CE40E94B6115E9902C05F9B2FC049ED8C
:1053700055E060E081E30E94B61149ED55E060E040
:1053800081E70E94B611F9E7EF2EFBE2FF2EA9E7B5
:105390008A2EACE29A2ED12CD7016D917D016695B3
:1053A00066956695645E8D2D0E94510FF4016191A2
:1053B0004F01669566956695645E80E48D0D0E944A
:1053C000510FD394F0E4DF12E7CF3AC080915D2B08
:1053D000823010F08A3051F48DE6809382014DECDA
:1053E0005EE063E080E10E94B6110EC0825A8093B5
:1053F000820145E95CE063E080E10E94B6118091A2
:105400005D2B825D0E94E40F41EE55E063E082E691
:105410000E94B61180B1873028F4E1EEEE2EE5E06F
:10542000FE2E04C072EEE72E75E0F72EA70160E0B5
:105430008DE20E94B611A70160E08DE60E94B611D0
:10544000629A1092502562E0F62EF0924F255E9BF4
:10545000B9C05C99A4C0A090010290900402809011
:1054600020027090280280E98093010287E08093F7
:10547000040220E0C12CD12C7601212C312C2101F9
:1054800033E830932002309328028FE79CE00197A5
:10549000F1F700C000008091240290912502AA2714
:1054A00097FDA095BA2F281A390A4A0A5B0A40913B
:1054B0002C0250912D02662757FD6095762FC41A55
:1054C000D50AE60AF70A58996AC02150D1F68BE945
:1054D00091E00E94A93FAC01662757FD6095762FA9
:1054E000420D531D641D751D89E991E04887598758
:1054F0006A877B870E94A93F2C01488559856A8568
:105500007B85CB01BA0145E09595879577956795A1
:105510004A95D1F72091472030914820442737FD04
:105520004095542F620F731F841F951F22E030E0B7
:1055300040E050E00E94363F2093472030934820BF
:10554000B201882777FD8095982F6C0D7D1D8E1DEB
:105550009F1D55E095958795779567955A95D1F755
:1055600020914520309146206901EE24D7FCE0943B
:10557000FE2C6C0D7D1D8E1D9F1D22E030E040E055
:1055800050E00E94363F2093452030934620709291
:1055900028028092200290920402A092010260E010
:1055A00080914720909148200E949F1180E4809331
:1055B000502582E080934F2560E0809145209091B6
:1055C000462019C05F9B1AC08091752B6091512BAA
:1055D000A0E88A9FC00111240E949F1180E480935B
:1055E0005025F0924F2580917F2E6091522BB0E88C
:1055F0008B9FC00111240E949F1185C0F8941092C6
:105600000008109204082CE02093090882E19AE730
:1056100080932608909327081092000A2093090A85
:1056200080E18093010A9CE39093030A9DE09093AC
:10563000000A1092400820934908809341088CE2A8
:105640008093430887E08093000880912008882396
:10565000E1F38AE0809340087894E0B124E0E29F8F
:10566000F0011124EE51FF4EC590D590E590F490D5
:10567000CD2CDE2CEF2CFF24A091762BB0E0A701DF
:1056800096010E94713F9B01AC0162E080E00E94A4
:10569000C810A091802EB0E0A70196010E94713F32
:1056A0009B01AC0162E080E40E94C81087E0809317
:1056B0004A2082EF93E020910C0820FD0CC0AFE35C
:1056C000BFE11197F1F700C0000058991BC0019786
:1056D000009789F717C08091380A9091390AA0E0A5
:1056E000B0E0AC01332722278091780890917908A7
:1056F000619A280F391F411D511D65E088E00E9405
:10570000C81061985A9A6298659B1BC065988091F1
:10571000282085FF16C010920804109209048DB14C
:1057200080937A2E10922E2010922F2082E093E800
:1057300080932A2090932B20809128208D7980932C
:10574000282080914A20882309F44AC1A090512B37
:105750007090522BF0B0E8B043980E98169889E7F5
:105760009BE20E94251E8093762B89E79CE20E9493
:10577000251E8093802EE8B888B1803238F45F9B74
:1057800003C0B3E08B2E04C05E99FBCFA5E08A2E48
:105790007AE0E72E99249394E0E4DE2EF0E8CF2E11
:1057A0008091512B881610F48092512B8091522BAE
:1057B000881610F48092522B80B18B3008F0E0B83C
:1057C00080914A2090E08830910508F0F4C0FC01F7
:1057D000E250FF4F0C94553F88B1803208F476C0F8
:1057E0002D982E982F9A089A109A2091752B203177
:1057F00008F4089880917F2E803108F41098089959
:1058000004C0109902C0089A109AD092532BE0E875
:10581000F0E0E0935B2BF0935C2B26959091742B3A
:10582000290F869590917E2E890F089B11C090912B
:10583000762B923068F03091802E931748F02A9A98
:1058400010925D2B20935E2B0C9B13C0922F0EC0E9
:10585000109B0FC09091802E923058F02A9A90920F
:105860005D2B80935E2B149B04C0982F9095909392
:105870005E2B459B2BC030E03595279531952195C2
:105880003109322F2093622B90E095958795919561
:1058900081959109982F282F8093632B089B14C022
:1058A000109B12C0303A24F030523093622B02C069
:1058B000C092622B203E24F4905E9093632B02C032
:1058C0001092632B0E94CF1D0E94CF1D88B18032A1
:1058D00020F45E9902C05F9B6EC09091762B809100
:1058E000802E891708F4892F982F92959F7080B188
:1058F000981708F05FC080B1891B4CC08091732B52
:105900008C3B58F48091742B8A3438F08091512B61
:10591000881518F48F5F8093512B80917D2E8C3BDE
:1059200008F049C080917E2E8A3408F444C08091EA
:10593000522B881508F03FC08F5F1CC08091732BDD
:105940008A3F20F48091742B823138F48091512B5E
:10595000882319F081508093512B80917D2E8A3FAE
:1059600020F480917E2E823130F58091522B882355
:1059700011F181508093522B1EC08091762B8D3770
:1059800020F48091802E8D37B0F080B1823098F075
:1059900080B1815080B90FC08091762B823358F44A
:1059A0008091802E823338F480B18A3020F480B127
:1059B0008F5FF0CF90B88091512BA81207C08091D3
:1059C000522B781203C080B1F81611F05A9A08C011
:1059D00080914A20882321F0815080934A20E0CE94
:1059E0007C9BF7C6F0905D2B7C98789B10C08EB1A5
:1059F000833119F40E94A21B04C08EB1843009F4D3
:105A00005B9AEEB1F0E0E45CF44FE491EEB98EB154
:105A1000843340F18EB18B3328F57B9B23C0EEB1EC
:105A2000F0E0EE0FFF1FE459F64FA591B4912091DD
:105A3000492081E0820F809349208EB190E0C49785
:105A400035E0389FF001399FF00D1124E20FF11D70
:105A5000EE51F64FE491EC9380914920853010F09F
:105A6000109249208EB190E08134910508F099C6DA
:105A7000FC01EA5FFE4F0C94553FF8947B9B0BC0F2
:105A8000299B03C01DB85C9806C08BB190E18927A3
:105A90008BB95C9958987A9B06C0799B04C080E4C6
:105AA0008093532B3CC07A9B1DC05C991BC080B176
:105AB000853118F480B18F5F01C085E180B980E045
:105AC00090E8E82FF0E0E758F44D9083DF01B395BC
:105AD0009C93FE5F10828F5FA1F7639A1DB81092AE
